{"abi":[{"type":"constructor","inputs":[{"name":"admin","type":"address","internalType":"address"},{"name":"core_","type":"address","internalType":"address"}],"stateMutability":"nonpayable"},{"type":"function","name":"ADMIN_ROLE","inputs":[],"outputs":[{"name":"","type":"bytes32","internalType":"bytes32"}],"stateMutability":"view"},{"type":"function","name":"DEFAULT_ADMIN_ROLE","inputs":[],"outputs":[{"name":"","type":"bytes32","internalType":"bytes32"}],"stateMutability":"view"},{"type":"function","name":"OP_PAUSE","inputs":[],"outputs":[{"name":"","type":"bytes32","internalType":"bytes32"}],"stateMutability":"view"},{"type":"function","name":"OP_SET_CORE","inputs":[],"outputs":[{"name":"","type":"bytes32","internalType":"bytes32"}],"stateMutability":"view"},{"type":"function","name":"OP_SET_DELAY","inputs":[],"outputs":[{"name":"","type":"bytes32","internalType":"bytes32"}],"stateMutability":"view"},{"type":"function","name":"OP_SET_STALENESS","inputs":[],"outputs":[{"name":"","type":"bytes32","internalType":"bytes32"}],"stateMutability":"view"},{"type":"function","name":"OP_UNPAUSE","inputs":[],"outputs":[{"name":"","type":"bytes32","internalType":"bytes32"}],"stateMutability":"view"},{"type":"function","name":"core","inputs":[],"outputs":[{"name":"","type":"address","internalType":"address"}],"stateMutability":"view"},{"type":"function","name":"executeSetCore","inputs":[{"name":"opId","type":"bytes32","internalType":"bytes32"},{"name":"newCore","type":"address","internalType":"address"}],"outputs":[],"stateMutability":"nonpayable"},{"type":"function","name":"executeSetDelay","inputs":[{"name":"opId","type":"bytes32","internalType":"bytes32"},{"name":"newDelay","type":"uint256","internalType":"uint256"}],"outputs":[],"stateMutability":"nonpayable"},{"type":"function","name":"executeSetMaxStaleness","inputs":[{"name":"opId","type":"bytes32","internalType":"bytes32"},{"name":"newMax","type":"uint256","internalType":"uint256"}],"outputs":[],"stateMutability":"nonpayable"},{"type":"function","name":"getRoleAdmin","inputs":[{"name":"role","type":"bytes32","internalType":"bytes32"}],"outputs":[{"name":"","type":"bytes32","internalType":"bytes32"}],"stateMutability":"view"},{"type":"function","name":"grantRole","inputs":[{"name":"role","type":"bytes32","internalType":"bytes32"},{"name":"account","type":"address","internalType":"address"}],"outputs":[],"stateMutability":"nonpayable"},{"type":"function","name":"hasRole","inputs":[{"name":"role","type":"bytes32","internalType":"bytes32"},{"name":"account","type":"address","internalType":"address"}],"outputs":[{"name":"","type":"bool","internalType":"bool"}],"stateMutability":"view"},{"type":"function","name":"maxStaleness","inputs":[],"outputs":[{"name":"","type":"uint256","internalType":"uint256"}],"stateMutability":"view"},{"type":"function","name":"opNonce","inputs":[],"outputs":[{"name":"","type":"uint256","internalType":"uint256"}],"stateMutability":"view"},{"type":"function","name":"ops","inputs":[{"name":"","type":"bytes32","internalType":"bytes32"}],"outputs":[{"name":"tag","type":"bytes32","internalType":"bytes32"},{"name":"dataHash","type":"bytes32","internalType":"bytes32"},{"name":"readyAt","type":"uint256","internalType":"uint256"},{"name":"status","type":"uint8","internalType":"enum ChainlinkResolver.OpStatus"}],"stateMutability":"view"},{"type":"function","name":"paused","inputs":[],"outputs":[{"name":"","type":"bool","internalType":"bool"}],"stateMutability":"view"},{"type":"function","name":"renounceRole","inputs":[{"name":"role","type":"bytes32","internalType":"bytes32"},{"name":"callerConfirmation","type":"address","internalType":"address"}],"outputs":[],"stateMutability":"nonpayable"},{"type":"function","name":"resolve","inputs":[{"name":"marketId","type":"uint256","internalType":"uint256"}],"outputs":[],"stateMutability":"nonpayable"},{"type":"function","name":"revokeRole","inputs":[{"name":"role","type":"bytes32","internalType":"bytes32"},{"name":"account","type":"address","internalType":"address"}],"outputs":[],"stateMutability":"nonpayable"},{"type":"function","name":"scheduleOp","inputs":[{"name":"tag","type":"bytes32","internalType":"bytes32"},{"name":"data","type":"bytes","internalType":"bytes"}],"outputs":[{"name":"opId","type":"bytes32","internalType":"bytes32"}],"stateMutability":"nonpayable"},{"type":"function","name":"supportsInterface","inputs":[{"name":"interfaceId","type":"bytes4","internalType":"bytes4"}],"outputs":[{"name":"","type":"bool","internalType":"bool"}],"stateMutability":"view"},{"type":"function","name":"timelockDelay","inputs":[],"outputs":[{"name":"","type":"uint256","internalType":"uint256"}],"stateMutability":"view"},{"type":"event","name":"CoreUpdated","inputs":[{"name":"newCore","type":"address","indexed":true,"internalType":"address"}],"anonymous":false},{"type":"event","name":"MarketResolved","inputs":[{"name":"marketId","type":"uint256","indexed":true,"internalType":"uint256"},{"name":"feed","type":"address","indexed":true,"internalType":"address"},{"name":"price","type":"uint256","indexed":false,"internalType":"uint256"},{"name":"updatedAt","type":"uint256","indexed":false,"internalType":"uint256"}],"anonymous":false},{"type":"event","name":"MaxStalenessUpdated","inputs":[{"name":"newMaxStaleness","type":"uint256","indexed":false,"internalType":"uint256"}],"anonymous":false},{"type":"event","name":"OpExecuted","inputs":[{"name":"opId","type":"bytes32","indexed":true,"internalType":"bytes32"}],"anonymous":false},{"type":"event","name":"OpScheduled","inputs":[{"name":"opId","type":"bytes32","indexed":true,"internalType":"bytes32"},{"name":"tag","type":"bytes32","indexed":true,"internalType":"bytes32"},{"name":"readyAt","type":"uint256","indexed":false,"internalType":"uint256"}],"anonymous":false},{"type":"event","name":"Paused","inputs":[{"name":"account","type":"address","indexed":false,"internalType":"address"}],"anonymous":false},{"type":"event","name":"RoleAdminChanged","inputs":[{"name":"role","type":"bytes32","indexed":true,"internalType":"bytes32"},{"name":"previousAdminRole","type":"bytes32","indexed":true,"internalType":"bytes32"},{"name":"newAdminRole","type":"bytes32","indexed":true,"internalType":"bytes32"}],"anonymous":false},{"type":"event","name":"RoleGranted","inputs":[{"name":"role","type":"bytes32","indexed":true,"internalType":"bytes32"},{"name":"account","type":"address","indexed":true,"internalType":"address"},{"name":"sender","type":"address","indexed":true,"internalType":"address"}],"anonymous":false},{"type":"event","name":"RoleRevoked","inputs":[{"name":"role","type":"bytes32","indexed":true,"internalType":"bytes32"},{"name":"account","type":"address","indexed":true,"internalType":"address"},{"name":"sender","type":"address","indexed":true,"internalType":"address"}],"anonymous":false},{"type":"event","name":"TimelockDelayUpdated","inputs":[{"name":"newDelay","type":"uint256","indexed":false,"internalType":"uint256"}],"anonymous":false},{"type":"event","name":"Unpaused","inputs":[{"name":"account","type":"address","indexed":false,"internalType":"address"}],"anonymous":false},{"type":"error","name":"AccessControlBadConfirmation","inputs":[]},{"type":"error","name":"AccessControlUnauthorizedAccount","inputs":[{"name":"account","type":"address","internalType":"address"},{"name":"neededRole","type":"bytes32","internalType":"bytes32"}]},{"type":"error","name":"BadValue","inputs":[]},{"type":"error","name":"DataMismatch","inputs":[]},{"type":"error","name":"EnforcedPause","inputs":[]},{"type":"error","name":"ExpectedPause","inputs":[]},{"type":"error","name":"FeedMissing","inputs":[]},{"type":"error","name":"InvalidAnswer","inputs":[]},{"type":"error","name":"NotChainlinkMarket","inputs":[]},{"type":"error","name":"OpInvalid","inputs":[]},{"type":"error","name":"OpNotReady","inputs":[{"name":"readyAt","type":"uint256","internalType":"uint256"}]},{"type":"error","name":"ReentrancyGuardReentrantCall","inputs":[]},{"type":"error","name":"Stale","inputs":[{"name":"updatedAt","type":"uint256","internalType":"uint256"},{"name":"nowTs","type":"uint256","internalType":"uint256"},{"name":"maxStale","type":"uint256","internalType":"uint256"}]},{"type":"error","name":"TagMismatch","inputs":[]},{"type":"error","name":"ZeroAddress","inputs":[]}],"bytecode":{"object":"0x608034620000db57601f620013e638819003918201601f19168301916001600160401b03831184841017620000df578084926040948552833981010312620000db576200005a60206200005283620000f3565b9201620000f3565b6001805562015180600355611c206004556001600160a01b0391808316158015620000d0575b620000be5780620000956200009c9262000108565b5062000178565b501660018060a01b0319600654161760065560405161118d9081620002198239f35b60405163d92e233d60e01b8152600490fd5b508282161562000080565b5f80fd5b634e487b7160e01b5f52604160045260245ffd5b51906001600160a01b0382168203620000db57565b6001600160a01b03165f8181525f80516020620013c6833981519152602052604090205460ff1662000173575f8181525f80516020620013c683398151915260205260408120805460ff191660011790553391905f80516020620013a68339815191528180a4600190565b505f90565b6001600160a01b03165f8181527f7d7ffb7a348e1c6a02869081a26547b49160dd3df72d1d75a570eb9b698292ec60205260409020547fa49807205ce4d355092ef5a8a18f56e8913cf4a201fbe287825b095693c21775919060ff166200021257815f525f60205260405f20815f5260205260405f20600160ff1982541617905533915f80516020620013a68339815191525f80a4600190565b50505f9056fe6080604081815260049081361015610015575f80fd5b5f925f3560e01c90816301ffc9a714610e9a57508063248a9ca314610e715780632f2ff15d14610e4157806336568abe14610e065780634f896d4f14610a825780635c975abb14610a5e5780636329a66a14610a23578063692a34f4146109b85780636dba319c1461097d57806375b238fc1461094257806387cf46961461092457806391d14854146108eb578063969ea86b146108cc5780639875f57d14610892578063a217fddf14610877578063bbbf945414610667578063c86dba07146104ff578063c9fc992e14610389578063d547741f14610354578063e0913aff14610319578063e8662b22146102de578063eef09bad146102bf578063f2f4eb26146102925763f3217ee614610129575f80fd5b3461028e5761013736610f12565b92610140611005565b610e10841061028057825160208101918583526020825261016082610f28565b835f526007602052845f2091600383019384549360ff85168481101561026d5760010361025d57600281015480421061024857507fa24d58aaa8deed8b2ff0e63d867e6fe155de046522ed61849f5647e59d04b6ba8154036102385760010154915190200361022a575060ff191660021790557fedd2c15cb1225ce15cf67efa55cea2672bfea32d9d9cbf34716bd04b76194b539260209290917f0166262b9c601c9575206185144d4f5e9bf67b1d6ca20f2bf89474d2286aefd65f80a28160035551908152a180f35b845163866c41db60e01b8152fd5b875163548b963d60e11b81528490fd5b846024918a5191621b0c1b60e51b8352820152fd5b87516361941cd160e11b81528490fd5b602185634e487b7160e01b5f525260245ffd5b8251630bba69fb60e01b8152fd5b8280fd5b8382346102bb57816003193601126102bb5760065490516001600160a01b039091168152602090f35b5080fd5b8382346102bb57816003193601126102bb576020906003549051908152f35b8382346102bb57816003193601126102bb57602090517f60f1c7c8f512732ea409258bb6df76fa8f852777bd408ca0893e4998a56ed3d78152f35b8382346102bb57816003193601126102bb57602090517fa24d58aaa8deed8b2ff0e63d867e6fe155de046522ed61849f5647e59d04b6ba8152f35b8382346102bb5760016103859161038061036d36610eec565b939092838752866020528620015461107e565b61111b565b5080f35b503461028e5761039836610eec565b6103a3929192611005565b6001600160a01b03169283156104f1578151906020820192858452602083526103cb83610f28565b845f526007602052805f2092600384019485549460ff8616858110156104de576001036104ce5760028101548042106104b957507f60f1c7c8f512732ea409258bb6df76fa8f852777bd408ca0893e4998a56ed3d78154036104a95760010154915190200361049c57505060ff191660021790557f0166262b9c601c9575206185144d4f5e9bf67b1d6ca20f2bf89474d2286aefd65f80a2600680546001600160a01b031916821790557f0c9c0f914e121785e2cd2269d6698bc11f59a50b85ef9aa1197fb4ddb96c4e568280a280f35b5163866c41db60e01b8152fd5b5050505163548b963d60e11b8152fd5b85602491865191621b0c1b60e51b8352820152fd5b505050516361941cd160e11b8152fd5b602186634e487b7160e01b5f525260245ffd5b905163d92e233d60e01b8152fd5b508290346102bb5761051036610f12565b919061051a611005565b821561065757815160208101908482526020815261053781610f28565b825f526007602052835f2090600382019283549260ff84168a8110156106445760010361063457600281015480421061061f57507ed5fb6f7d28b7f1d7e22d064db348fbca2cb327afe6b05139e08ad642031a5b81540361060f576001015491519020036105ff57938681936020959360027f64a4703c7c168827058126cbd2e71d8d0f026afa821e7dff1480173dffdd38959860ff19161790557f0166262b9c601c9575206185144d4f5e9bf67b1d6ca20f2bf89474d2286aefd65f80a25551908152a180f35b835163866c41db60e01b81528790fd5b865163548b963d60e11b81528a90fd5b8a602491895191621b0c1b60e51b8352820152fd5b86516361941cd160e11b81528a90fd5b60218b634e487b7160e01b5f525260245ffd5b8151630bba69fb60e01b81528590fd5b508290346102bb57806003193601126102bb57823560249283359467ffffffffffffffff9081871161028e573660238801121561028e578681013595828711610873578088019781883692010111610873576106c1611005565b6005545f1981146108615760010197886005556106df368983610fbf565b9889516020809b0120908851908b82019260808452600e60a08401526d5245534f4c5645525f4f505f563160901b60c0840152898b8401526060830152608082015260c0815260e081018181108782111761084f5789525190209788865260078a5260ff60038988200154168481101561083d5761025d5790610763913691610fbf565b8881519101209261077660035442610f9e565b875191608083019081118382101761082b57906003929189528782528a82019586528882019081526060820195600187528a885260078c5289882092518355516001830155516002820155019251918083101561081a57505060028587947faf4e5f9080abc27087ecd0242b1145d9caebf3181705e72f5b321288df8ad54a948a9460ff80198354169116179055858152600784522001548551908152a351908152f35b634e487b7160e01b85526021905283fd5b83604186634e487b7160e01b5f52525ffd5b634e487b7160e01b8752602185528387fd5b84604187634e487b7160e01b5f52525ffd5b50634e487b7160e01b84526011825283fd5b8380fd5b8382346102bb57816003193601126102bb5751908152602090f35b8382346102bb57816003193601126102bb57602090517ed5fb6f7d28b7f1d7e22d064db348fbca2cb327afe6b05139e08ad642031a5b8152f35b8382346102bb57816003193601126102bb576020906005549051908152f35b8382346102bb57602091816108ff36610eec565b92908152808552209060018060a01b03165f52825260ff815f20541690519015158152f35b50903461028e578260031936011261028e5760209250549051908152f35b8382346102bb57816003193601126102bb57602090517fa49807205ce4d355092ef5a8a18f56e8913cf4a201fbe287825b095693c217758152f35b8382346102bb57816003193601126102bb57602090517f19aebff3bbcef323e5c760a3ed420922e4d158f9d2c6e69bda4f540960d86e978152f35b508290346102bb5760203660031901126102bb578235825260076020528082209182549260018101549260ff6003600284015493015416938151958652602086015284015283821015610a1057608083836060820152f35b634e487b7160e01b815260218452602490fd5b8382346102bb57816003193601126102bb57602090517f59d087672531b50700275907548a6c10240fc27658dfda79d5c528581d070b5e8152f35b8382346102bb57816003193601126102bb5760209060ff6002541690519015158152f35b50829034610c275760209081600319360112610c2757833590600260015414610df757600260015560ff60025416610de857600654815163232e45d760e01b8152808701849052602496916001600160a01b039081169161010080828b81875afa918215610c1d575f92610d1d575b5050868101516002811015610d0b57600103610cfc5784018181511615610cec57511694835191633fabe5a360e21b835260a08385818a5afa938415610ce2575f80955f915f965f92610c83575b505f881315610c735769ffffffffffffffffffff809116911610610c64578415908115610c5b575b50610c4d578054610b788186610f9e565b4211610c2b5750813b15610c27575f8a6044898389968b51978895869463cab7cde960e01b8652898601528401525af18015610c1d57610be8575b505083519283528201527f156a9465a125ac6b8ef1c3f1892fbc8573758002d3b4bd5826645d89970433169190a36001805580f35b9091975067ffffffffffffffff8211610c0b575083529495505f94868880610bb3565b60418991634e487b7160e01b5f52525ffd5b86513d5f823e3d90fd5b5f80fd5b865163bd37f66b60e01b815291820185905242828c0152604482015260649150fd5b8551635afb8d1760e11b8152fd5b9050158b610b67565b508551635afb8d1760e11b8152fd5b8851635afb8d1760e11b81528490fd5b9750505050925060a0843d60a011610cda575b81610ca360a09383610f58565b81010312610c2757610cb484610f87565b9282850151948681015195610cd0608060608401519301610f87565b909691958d610b3f565b3d9150610c96565b85513d5f823e3d90fd5b84516308c098a760e01b81528490fd5b845162abbbed60e81b81528490fd5b89602186634e487b7160e01b5f52525ffd5b9080925081813d8311610de1575b610d358183610f58565b81010312610c2757855191820182811067ffffffffffffffff821117610dcf57865280518252878101516002811015610c275788830152858101518381168103610c275786830152606081015160608301526080810151608083015260a081015160ff81168103610c2757610dc39160e09160a0850152610db860c08201610f7a565b60c085015201610f7a565b60e08201528980610af1565b8a604187634e487b7160e01b5f52525ffd5b503d610d2b565b5163d93c066560e01b81528490fd5b51633ee5aeb560e01b81528490fd5b5034610c2757610e1536610eec565b91336001600160a01b03841603610e3257610e30838361111b565b005b5163334bd91960e11b81528390fd5b5034610c27576001610e3091610e6c610e5936610eec565b939092835f525f6020525f20015461107e565b61109f565b5034610c27576020366003190112610c2757602091355f525f82526001815f2001549051908152f35b8334610c27576020366003190112610c2757359063ffffffff60e01b8216809203610c2757602091637965db0b60e01b8114908115610edb575b5015158152f35b6301ffc9a760e01b14905083610ed4565b6040906003190112610c2757600435906024356001600160a01b0381168103610c275790565b6040906003190112610c27576004359060243590565b6040810190811067ffffffffffffffff821117610f4457604052565b634e487b7160e01b5f52604160045260245ffd5b90601f8019910116810190811067ffffffffffffffff821117610f4457604052565b51908115158203610c2757565b519069ffffffffffffffffffff82168203610c2757565b91908201809211610fab57565b634e487b7160e01b5f52601160045260245ffd5b92919267ffffffffffffffff8211610f445760405191610fe9601f8201601f191660200184610f58565b829481845281830111610c27578281602093845f960137010152565b335f9081527f7d7ffb7a348e1c6a02869081a26547b49160dd3df72d1d75a570eb9b698292ec60205260409020547fa49807205ce4d355092ef5a8a18f56e8913cf4a201fbe287825b095693c217759060ff16156110605750565b6044906040519063e2517d3f60e01b82523360048301526024820152fd5b805f525f60205260405f20335f5260205260ff60405f205416156110605750565b90815f525f60205260405f209060018060a01b031690815f5260205260ff60405f205416155f1461111557815f525f60205260405f20815f5260205260405f20600160ff1982541617905533917f2f8788117e7eff1d82e926ec794901d17c78024a50270940304540a733656f0d5f80a4600190565b50505f90565b90815f525f60205260405f209060018060a01b031690815f5260205260ff60405f2054165f1461111557815f525f60205260405f20815f5260205260405f2060ff19815416905533917ff6391f5c32d9c69d2a47ea670b442974b53935d1edc7fd64eb21e047a839171b5f80a4600190562f8788117e7eff1d82e926ec794901d17c78024a50270940304540a733656f0dad3228b676f7d3cd4284a5443f17f1962b36e491b30a40b2405849e597ba5fb5","linkReferences":{}},"methodIdentifiers":{"ADMIN_ROLE()":"75b238fc","DEFAULT_ADMIN_ROLE()":"a217fddf","OP_PAUSE()":"6329a66a","OP_SET_CORE()":"e8662b22","OP_SET_DELAY()":"e0913aff","OP_SET_STALENESS()":"9875f57d","OP_UNPAUSE()":"6dba319c","core()":"f2f4eb26","executeSetCore(bytes32,address)":"c9fc992e","executeSetDelay(bytes32,uint256)":"f3217ee6","executeSetMaxStaleness(bytes32,uint256)":"c86dba07","getRoleAdmin(bytes32)":"248a9ca3","grantRole(bytes32,address)":"2f2ff15d","hasRole(bytes32,address)":"91d14854","maxStaleness()":"87cf4696","opNonce()":"969ea86b","ops(bytes32)":"692a34f4","paused()":"5c975abb","renounceRole(bytes32,address)":"36568abe","resolve(uint256)":"4f896d4f","revokeRole(bytes32,address)":"d547741f","scheduleOp(bytes32,bytes)":"bbbf9454","supportsInterface(bytes4)":"01ffc9a7","timelockDelay()":"eef09bad"},"id":64}