{
    "abi": [
        {
            "type": "function",
            "name": "checkUpkeep",
            "inputs": [
                {
                    "name": "checkData",
                    "type": "bytes",
                    "internalType": "bytes"
                }
            ],
            "outputs": [
                {
                    "name": "upkeepNeeded",
                    "type": "bool",
                    "internalType": "bool"
                },
                {
                    "name": "performData",
                    "type": "bytes",
                    "internalType": "bytes"
                }
            ],
            "stateMutability": "view"
        },
        {
            "type": "function",
            "name": "performUpkeep",
            "inputs": [
                {
                    "name": "performData",
                    "type": "bytes",
                    "internalType": "bytes"
                }
            ],
            "outputs": [],
            "stateMutability": "nonpayable"
        },
        {
            "type": "constructor",
            "inputs": [
                {
                    "name": "admin",
                    "type": "address",
                    "internalType": "address"
                },
                {
                    "name": "core_",
                    "type": "address",
                    "internalType": "address"
                }
            ],
            "stateMutability": "nonpayable"
        },
        {
            "type": "function",
            "name": "ADMIN_ROLE",
            "inputs": [],
            "outputs": [
                {
                    "name": "",
                    "type": "bytes32",
                    "internalType": "bytes32"
                }
            ],
            "stateMutability": "view"
        },
        {
            "type": "function",
            "name": "DEFAULT_ADMIN_ROLE",
            "inputs": [],
            "outputs": [
                {
                    "name": "",
                    "type": "bytes32",
                    "internalType": "bytes32"
                }
            ],
            "stateMutability": "view"
        },
        {
            "type": "function",
            "name": "MIN_TIMELOCK",
            "inputs": [],
            "outputs": [
                {
                    "name": "",
                    "type": "uint256",
                    "internalType": "uint256"
                }
            ],
            "stateMutability": "view"
        },
        {
            "type": "function",
            "name": "OP_EXPIRY_WINDOW",
            "inputs": [],
            "outputs": [
                {
                    "name": "",
                    "type": "uint256",
                    "internalType": "uint256"
                }
            ],
            "stateMutability": "view"
        },
        {
            "type": "function",
            "name": "OP_PAUSE",
            "inputs": [],
            "outputs": [
                {
                    "name": "",
                    "type": "bytes32",
                    "internalType": "bytes32"
                }
            ],
            "stateMutability": "view"
        },
        {
            "type": "function",
            "name": "OP_SET_CORE",
            "inputs": [],
            "outputs": [
                {
                    "name": "",
                    "type": "bytes32",
                    "internalType": "bytes32"
                }
            ],
            "stateMutability": "view"
        },
        {
            "type": "function",
            "name": "OP_SET_DELAY",
            "inputs": [],
            "outputs": [
                {
                    "name": "",
                    "type": "bytes32",
                    "internalType": "bytes32"
                }
            ],
            "stateMutability": "view"
        },
        {
            "type": "function",
            "name": "OP_SET_STALENESS",
            "inputs": [],
            "outputs": [
                {
                    "name": "",
                    "type": "bytes32",
                    "internalType": "bytes32"
                }
            ],
            "stateMutability": "view"
        },
        {
            "type": "function",
            "name": "OP_UNPAUSE",
            "inputs": [],
            "outputs": [
                {
                    "name": "",
                    "type": "bytes32",
                    "internalType": "bytes32"
                }
            ],
            "stateMutability": "view"
        },
        {
            "type": "function",
            "name": "cancelOp",
            "inputs": [
                {
                    "name": "opId",
                    "type": "bytes32",
                    "internalType": "bytes32"
                }
            ],
            "outputs": [],
            "stateMutability": "nonpayable"
        },
        {
            "type": "function",
            "name": "core",
            "inputs": [],
            "outputs": [
                {
                    "name": "",
                    "type": "address",
                    "internalType": "address"
                }
            ],
            "stateMutability": "view"
        },
        {
            "type": "function",
            "name": "executePause",
            "inputs": [
                {
                    "name": "opId",
                    "type": "bytes32",
                    "internalType": "bytes32"
                }
            ],
            "outputs": [],
            "stateMutability": "nonpayable"
        },
        {
            "type": "function",
            "name": "executeSetCore",
            "inputs": [
                {
                    "name": "opId",
                    "type": "bytes32",
                    "internalType": "bytes32"
                },
                {
                    "name": "newCore",
                    "type": "address",
                    "internalType": "address"
                }
            ],
            "outputs": [],
            "stateMutability": "nonpayable"
        },
        {
            "type": "function",
            "name": "executeSetDelay",
            "inputs": [
                {
                    "name": "opId",
                    "type": "bytes32",
                    "internalType": "bytes32"
                },
                {
                    "name": "newDelay",
                    "type": "uint256",
                    "internalType": "uint256"
                }
            ],
            "outputs": [],
            "stateMutability": "nonpayable"
        },
        {
            "type": "function",
            "name": "executeSetMaxStaleness",
            "inputs": [
                {
                    "name": "opId",
                    "type": "bytes32",
                    "internalType": "bytes32"
                },
                {
                    "name": "newMax",
                    "type": "uint256",
                    "internalType": "uint256"
                }
            ],
            "outputs": [],
            "stateMutability": "nonpayable"
        },
        {
            "type": "function",
            "name": "executeUnpause",
            "inputs": [
                {
                    "name": "opId",
                    "type": "bytes32",
                    "internalType": "bytes32"
                }
            ],
            "outputs": [],
            "stateMutability": "nonpayable"
        },
        {
            "type": "function",
            "name": "getRoleAdmin",
            "inputs": [
                {
                    "name": "role",
                    "type": "bytes32",
                    "internalType": "bytes32"
                }
            ],
            "outputs": [
                {
                    "name": "",
                    "type": "bytes32",
                    "internalType": "bytes32"
                }
            ],
            "stateMutability": "view"
        },
        {
            "type": "function",
            "name": "grantRole",
            "inputs": [
                {
                    "name": "role",
                    "type": "bytes32",
                    "internalType": "bytes32"
                },
                {
                    "name": "account",
                    "type": "address",
                    "internalType": "address"
                }
            ],
            "outputs": [],
            "stateMutability": "nonpayable"
        },
        {
            "type": "function",
            "name": "hasRole",
            "inputs": [
                {
                    "name": "role",
                    "type": "bytes32",
                    "internalType": "bytes32"
                },
                {
                    "name": "account",
                    "type": "address",
                    "internalType": "address"
                }
            ],
            "outputs": [
                {
                    "name": "",
                    "type": "bool",
                    "internalType": "bool"
                }
            ],
            "stateMutability": "view"
        },
        {
            "type": "function",
            "name": "maxStaleness",
            "inputs": [],
            "outputs": [
                {
                    "name": "",
                    "type": "uint256",
                    "internalType": "uint256"
                }
            ],
            "stateMutability": "view"
        },
        {
            "type": "function",
            "name": "opNonce",
            "inputs": [],
            "outputs": [
                {
                    "name": "",
                    "type": "uint256",
                    "internalType": "uint256"
                }
            ],
            "stateMutability": "view"
        },
        {
            "type": "function",
            "name": "ops",
            "inputs": [
                {
                    "name": "",
                    "type": "bytes32",
                    "internalType": "bytes32"
                }
            ],
            "outputs": [
                {
                    "name": "tag",
                    "type": "bytes32",
                    "internalType": "bytes32"
                },
                {
                    "name": "dataHash",
                    "type": "bytes32",
                    "internalType": "bytes32"
                },
                {
                    "name": "readyAt",
                    "type": "uint256",
                    "internalType": "uint256"
                },
                {
                    "name": "status",
                    "type": "uint8",
                    "internalType": "enum ChainlinkResolver.OpStatus"
                }
            ],
            "stateMutability": "view"
        },
        {
            "type": "function",
            "name": "paused",
            "inputs": [],
            "outputs": [
                {
                    "name": "",
                    "type": "bool",
                    "internalType": "bool"
                }
            ],
            "stateMutability": "view"
        },
        {
            "type": "function",
            "name": "renounceRole",
            "inputs": [
                {
                    "name": "role",
                    "type": "bytes32",
                    "internalType": "bytes32"
                },
                {
                    "name": "callerConfirmation",
                    "type": "address",
                    "internalType": "address"
                }
            ],
            "outputs": [],
            "stateMutability": "nonpayable"
        },
        {
            "type": "function",
            "name": "resolve",
            "inputs": [
                {
                    "name": "marketId",
                    "type": "uint256",
                    "internalType": "uint256"
                },
                {
                    "name": "roundId",
                    "type": "uint80",
                    "internalType": "uint80"
                }
            ],
            "outputs": [],
            "stateMutability": "nonpayable"
        },
        {
            "type": "function",
            "name": "revokeRole",
            "inputs": [
                {
                    "name": "role",
                    "type": "bytes32",
                    "internalType": "bytes32"
                },
                {
                    "name": "account",
                    "type": "address",
                    "internalType": "address"
                }
            ],
            "outputs": [],
            "stateMutability": "nonpayable"
        },
        {
            "type": "function",
            "name": "scheduleOp",
            "inputs": [
                {
                    "name": "tag",
                    "type": "bytes32",
                    "internalType": "bytes32"
                },
                {
                    "name": "data",
                    "type": "bytes",
                    "internalType": "bytes"
                }
            ],
            "outputs": [
                {
                    "name": "opId",
                    "type": "bytes32",
                    "internalType": "bytes32"
                }
            ],
            "stateMutability": "nonpayable"
        },
        {
            "type": "function",
            "name": "supportsInterface",
            "inputs": [
                {
                    "name": "interfaceId",
                    "type": "bytes4",
                    "internalType": "bytes4"
                }
            ],
            "outputs": [
                {
                    "name": "",
                    "type": "bool",
                    "internalType": "bool"
                }
            ],
            "stateMutability": "view"
        },
        {
            "type": "function",
            "name": "timelockDelay",
            "inputs": [],
            "outputs": [
                {
                    "name": "",
                    "type": "uint256",
                    "internalType": "uint256"
                }
            ],
            "stateMutability": "view"
        },
        {
            "type": "event",
            "name": "CoreUpdated",
            "inputs": [
                {
                    "name": "newCore",
                    "type": "address",
                    "indexed": true,
                    "internalType": "address"
                }
            ],
            "anonymous": false
        },
        {
            "type": "event",
            "name": "MarketResolved",
            "inputs": [
                {
                    "name": "marketId",
                    "type": "uint256",
                    "indexed": true,
                    "internalType": "uint256"
                },
                {
                    "name": "feed",
                    "type": "address",
                    "indexed": true,
                    "internalType": "address"
                },
                {
                    "name": "price",
                    "type": "uint256",
                    "indexed": false,
                    "internalType": "uint256"
                },
                {
                    "name": "updatedAt",
                    "type": "uint256",
                    "indexed": false,
                    "internalType": "uint256"
                }
            ],
            "anonymous": false
        },
        {
            "type": "event",
            "name": "MaxStalenessUpdated",
            "inputs": [
                {
                    "name": "newMaxStaleness",
                    "type": "uint256",
                    "indexed": false,
                    "internalType": "uint256"
                }
            ],
            "anonymous": false
        },
        {
            "type": "event",
            "name": "OpCancelled",
            "inputs": [
                {
                    "name": "opId",
                    "type": "bytes32",
                    "indexed": true,
                    "internalType": "bytes32"
                }
            ],
            "anonymous": false
        },
        {
            "type": "event",
            "name": "OpExecuted",
            "inputs": [
                {
                    "name": "opId",
                    "type": "bytes32",
                    "indexed": true,
                    "internalType": "bytes32"
                }
            ],
            "anonymous": false
        },
        {
            "type": "event",
            "name": "OpScheduled",
            "inputs": [
                {
                    "name": "opId",
                    "type": "bytes32",
                    "indexed": true,
                    "internalType": "bytes32"
                },
                {
                    "name": "tag",
                    "type": "bytes32",
                    "indexed": true,
                    "internalType": "bytes32"
                },
                {
                    "name": "readyAt",
                    "type": "uint256",
                    "indexed": false,
                    "internalType": "uint256"
                }
            ],
            "anonymous": false
        },
        {
            "type": "event",
            "name": "Paused",
            "inputs": [
                {
                    "name": "account",
                    "type": "address",
                    "indexed": false,
                    "internalType": "address"
                }
            ],
            "anonymous": false
        },
        {
            "type": "event",
            "name": "RoleAdminChanged",
            "inputs": [
                {
                    "name": "role",
                    "type": "bytes32",
                    "indexed": true,
                    "internalType": "bytes32"
                },
                {
                    "name": "previousAdminRole",
                    "type": "bytes32",
                    "indexed": true,
                    "internalType": "bytes32"
                },
                {
                    "name": "newAdminRole",
                    "type": "bytes32",
                    "indexed": true,
                    "internalType": "bytes32"
                }
            ],
            "anonymous": false
        },
        {
            "type": "event",
            "name": "RoleGranted",
            "inputs": [
                {
                    "name": "role",
                    "type": "bytes32",
                    "indexed": true,
                    "internalType": "bytes32"
                },
                {
                    "name": "account",
                    "type": "address",
                    "indexed": true,
                    "internalType": "address"
                },
                {
                    "name": "sender",
                    "type": "address",
                    "indexed": true,
                    "internalType": "address"
                }
            ],
            "anonymous": false
        },
        {
            "type": "event",
            "name": "RoleRevoked",
            "inputs": [
                {
                    "name": "role",
                    "type": "bytes32",
                    "indexed": true,
                    "internalType": "bytes32"
                },
                {
                    "name": "account",
                    "type": "address",
                    "indexed": true,
                    "internalType": "address"
                },
                {
                    "name": "sender",
                    "type": "address",
                    "indexed": true,
                    "internalType": "address"
                }
            ],
            "anonymous": false
        },
        {
            "type": "event",
            "name": "TimelockDelayUpdated",
            "inputs": [
                {
                    "name": "newDelay",
                    "type": "uint256",
                    "indexed": false,
                    "internalType": "uint256"
                }
            ],
            "anonymous": false
        },
        {
            "type": "event",
            "name": "Unpaused",
            "inputs": [
                {
                    "name": "account",
                    "type": "address",
                    "indexed": false,
                    "internalType": "address"
                }
            ],
            "anonymous": false
        },
        {
            "type": "error",
            "name": "AccessControlBadConfirmation",
            "inputs": []
        },
        {
            "type": "error",
            "name": "AccessControlUnauthorizedAccount",
            "inputs": [
                {
                    "name": "account",
                    "type": "address",
                    "internalType": "address"
                },
                {
                    "name": "neededRole",
                    "type": "bytes32",
                    "internalType": "bytes32"
                }
            ]
        },
        {
            "type": "error",
            "name": "BadValue",
            "inputs": []
        },
        {
            "type": "error",
            "name": "DataMismatch",
            "inputs": []
        },
        {
            "type": "error",
            "name": "EnforcedPause",
            "inputs": []
        },
        {
            "type": "error",
            "name": "ExpectedPause",
            "inputs": []
        },
        {
            "type": "error",
            "name": "FeedMissing",
            "inputs": []
        },
        {
            "type": "error",
            "name": "IncompleteRound",
            "inputs": []
        },
        {
            "type": "error",
            "name": "InvalidAnswer",
            "inputs": []
        },
        {
            "type": "error",
            "name": "InvalidRoundId",
            "inputs": []
        },
        {
            "type": "error",
            "name": "MarketNotExpired",
            "inputs": []
        },
        {
            "type": "error",
            "name": "NotChainlinkMarket",
            "inputs": []
        },
        {
            "type": "error",
            "name": "NotFirstRoundAfterExpiry",
            "inputs": [
                {
                    "name": "prevUpdatedAt",
                    "type": "uint256",
                    "internalType": "uint256"
                },
                {
                    "name": "expiry",
                    "type": "uint256",
                    "internalType": "uint256"
                }
            ]
        },
        {
            "type": "error",
            "name": "OpExpired",
            "inputs": []
        },
        {
            "type": "error",
            "name": "OpInvalid",
            "inputs": []
        },
        {
            "type": "error",
            "name": "OpNotReady",
            "inputs": [
                {
                    "name": "readyAt",
                    "type": "uint256",
                    "internalType": "uint256"
                }
            ]
        },
        {
            "type": "error",
            "name": "OracleDecimalsMismatch",
            "inputs": [
                {
                    "name": "expected",
                    "type": "uint8",
                    "internalType": "uint8"
                },
                {
                    "name": "got",
                    "type": "uint8",
                    "internalType": "uint8"
                }
            ]
        },
        {
            "type": "error",
            "name": "ReentrancyGuardReentrantCall",
            "inputs": []
        },
        {
            "type": "error",
            "name": "RoundTooEarly",
            "inputs": [
                {
                    "name": "updatedAt",
                    "type": "uint256",
                    "internalType": "uint256"
                },
                {
                    "name": "expiry",
                    "type": "uint256",
                    "internalType": "uint256"
                }
            ]
        },
        {
            "type": "error",
            "name": "Stale",
            "inputs": [
                {
                    "name": "updatedAt",
                    "type": "uint256",
                    "internalType": "uint256"
                },
                {
                    "name": "nowTs",
                    "type": "uint256",
                    "internalType": "uint256"
                },
                {
                    "name": "maxStale",
                    "type": "uint256",
                    "internalType": "uint256"
                }
            ]
        },
        {
            "type": "error",
            "name": "TagMismatch",
            "inputs": []
        },
        {
            "type": "error",
            "name": "UnsupportedDecimals",
            "inputs": []
        },
        {
            "type": "error",
            "name": "ZeroAddress",
            "inputs": []
        }
    ],
    "bytecode": {
        "object": "0x608034620000db57601f62001b1e38819003918201601f19168301916001600160401b03831184841017620000df578084926040948552833981010312620000db576200005a60206200005283620000f3565b9201620000f3565b6001805562015180600355611c206004556001600160a01b0391808316158015620000d0575b620000be5780620000956200009c9262000108565b5062000178565b501660018060a01b031960065416176006556040516118c59081620002198239f35b60405163d92e233d60e01b8152600490fd5b508282161562000080565b5f80fd5b634e487b7160e01b5f52604160045260245ffd5b51906001600160a01b0382168203620000db57565b6001600160a01b03165f8181525f8051602062001afe833981519152602052604090205460ff1662000173575f8181525f8051602062001afe83398151915260205260408120805460ff191660011790553391905f8051602062001ade8339815191528180a4600190565b505f90565b6001600160a01b03165f8181527f7d7ffb7a348e1c6a02869081a26547b49160dd3df72d1d75a570eb9b698292ec60205260409020547fa49807205ce4d355092ef5a8a18f56e8913cf4a201fbe287825b095693c21775919060ff166200021257815f525f60205260405f20815f5260205260405f20600160ff1982541617905533915f8051602062001ade8339815191525f80a4600190565b50505f9056fe6080604081815260049182361015610015575f80fd5b5f925f3560e01c91826301ffc9a71461153057508163032a57d21461151357816307e8717f146113ab578163248a9ca3146113825781632bee3e0d146113015781632f2ff15d146112d157816336568abe146112965781635c975abb146112735781636329a66a14611239578163692a34f4146111d05781636dba319c146111965781637591e1b21461101857816375b238fc14610fde57816387cf469614610fc257816391d1485414610f8a578163969ea86b14610f6c5781639875f57d14610f335781639c40d81f14610962578163a217fddf14610947578163bbbf945414610726578163c86dba071461059d578163c9fc992e14610403578163d547741f146103ce578163e0913aff14610393578163e8662b2214610358578163eef09bad14610339578163f2f4eb2614610310578163f3217ee614610181575063fb0c754914610161575f80fd5b3461017d578160031936011261017d5760209051620151808152f35b5080fd5b9190503461030c57610192366115a8565b9261019b6116fe565b6201518084106102fe5782516020810191858352602082526101bc826115ee565b835f526007602052845f2091600383019384549360ff8516848110156102eb576001036102db5760028101548042106102c65762093a8081018091116102b35742116102a3577fa24d58aaa8deed8b2ff0e63d867e6fe155de046522ed61849f5647e59d04b6ba81540361029357600101549151902003610285575060ff191660021790557fedd2c15cb1225ce15cf67efa55cea2672bfea32d9d9cbf34716bd04b76194b539260209290915f805160206118a58339815191525f80a28160035551908152a180f35b845163866c41db60e01b8152fd5b875163548b963d60e11b81528490fd5b87516306236e0360e11b81528490fd5b601185634e487b7160e01b5f525260245ffd5b846024918a5191621b0c1b60e51b8352820152fd5b87516361941cd160e11b81528490fd5b602185634e487b7160e01b5f525260245ffd5b8251630bba69fb60e01b8152fd5b8280fd5b50503461017d578160031936011261017d5760065490516001600160a01b039091168152602090f35b50503461017d578160031936011261017d576020906003549051908152f35b50503461017d578160031936011261017d57602090517f60f1c7c8f512732ea409258bb6df76fa8f852777bd408ca0893e4998a56ed3d78152f35b50503461017d578160031936011261017d57602090517fa24d58aaa8deed8b2ff0e63d867e6fe155de046522ed61849f5647e59d04b6ba8152f35b50503461017d5760016103ff916103fa6103e736611582565b9390928387528660205286200154611777565b611814565b5080f35b9190503461030c5761041436611582565b61041f9291926116fe565b6001600160a01b031692831561058f57815190602082019285845260208352610447836115ee565b845f526007602052805f2092600384019485549460ff86168581101561057c5760010361056c5760028101548042106105575762093a808101809111610544574211610534577f60f1c7c8f512732ea409258bb6df76fa8f852777bd408ca0893e4998a56ed3d78154036105245760010154915190200361051757505060ff191660021790555f805160206118a58339815191525f80a2600680546001600160a01b031916821790557f0c9c0f914e121785e2cd2269d6698bc11f59a50b85ef9aa1197fb4ddb96c4e568280a280f35b5163866c41db60e01b8152fd5b5050505163548b963d60e11b8152fd5b505050516306236e0360e11b8152fd5b601186634e487b7160e01b5f525260245ffd5b85602491865191621b0c1b60e51b8352820152fd5b505050516361941cd160e11b8152fd5b602186634e487b7160e01b5f525260245ffd5b905163d92e233d60e01b8152fd5b83833461017d576105ad366115a8565b91906105b76116fe565b82156107165781516020810190848252602081526105d4816115ee565b825f526007602052835f2090600382019283549260ff84168a811015610703576001036106f35760028101548042106106de5762093a8081018091116106cb5742116106bb577ed5fb6f7d28b7f1d7e22d064db348fbca2cb327afe6b05139e08ad642031a5b8154036106ab5760010154915190200361069b57938681936020959360027f64a4703c7c168827058126cbd2e71d8d0f026afa821e7dff1480173dffdd38959860ff19161790555f805160206118a58339815191525f80a25551908152a180f35b835163866c41db60e01b81528790fd5b865163548b963d60e11b81528a90fd5b86516306236e0360e11b81528a90fd5b60118b634e487b7160e01b5f525260245ffd5b8a602491895191621b0c1b60e51b8352820152fd5b86516361941cd160e11b81528a90fd5b60218b634e487b7160e01b5f525260245ffd5b8151630bba69fb60e01b81528590fd5b83833461017d578060031936011261017d57823560249283359467ffffffffffffffff9081871161030c573660238801121561030c5786810135958287116109435780880197818836920101116109435761077f6116fe565b6005545f19811461093157600101978860055561079d3689836116b8565b9889516020809b0120908851908b82019260808452600e60a08401526d5245534f4c5645525f4f505f563160901b60c0840152898b8401526060830152608082015260c0815260e081018181108782111761091f5789525190209788865260078a5260ff60038988200154168481101561090d576102db57906108219136916116b8565b8881519101209260035442018042116108fb5787519160808301908111838210176108e957906003929189528782528a82019586528882019081526060820195600187528a885260078c528988209251835551600183015551600282015501925191808310156108d857505060028587947faf4e5f9080abc27087ecd0242b1145d9caebf3181705e72f5b321288df8ad54a948a9460ff80198354169116179055858152600784522001548551908152a351908152f35b634e487b7160e01b85526021905283fd5b83604186634e487b7160e01b5f52525ffd5b82601185634e487b7160e01b5f52525ffd5b634e487b7160e01b8752602185528387fd5b84604187634e487b7160e01b5f52525ffd5b50634e487b7160e01b84526011825283fd5b8380fd5b50503461017d578160031936011261017d5751908152602090f35b828434610bd15781600319360112610bd15760249069ffffffffffffffffffff8435833582811690819003610bd157600260015414610f235760026001556109a8611886565b8015610f1357600654865163232e45d760e01b8152888101849052936001600160a01b0392918316919061012080878a81875afa968715610f09575f97610e2c575b5050602093848701516002811015610e1a57600103610e0b578987018181511615610dfb5787514210610deb57511695895163313ce56760e01b815285818d818b5afa8015610de1575f90610dac575b60ff9150169160128311610d9c5760ff6101008301511680151580610d92575b610d7757508a51639a6fc8f560e01b808252818e01869052909695949392909160a09081898e818e5afa958615610d6d575f965f975f9b5f92610d41575b505f8913801590610d39575b610d2857831690831610610d19578351808b10610cf857505f1901818111610ce5578e5194855216838f015280838d818d5afa9283915f94610cb1575b5050610af7578b51638ad52bdd60e01b81528d90fd5b9b96989a97999b519081811015610c96575050844203428111610c84578654809111610c62575060128103610bd55750935b813b15610bd1575f8a6044898389968b51978895869463cab7cde960e01b8652898601528401525af18015610bc757610b92575b505083519283528201527f156a9465a125ac6b8ef1c3f1892fbc8573758002d3b4bd5826645d89970433169190a36001805580f35b9091975067ffffffffffffffff8211610bb5575083529495505f94868880610b5d565b60418991634e487b7160e01b5f52525ffd5b86513d5f823e3d90fd5b5f80fd5b6012811015610c2d5760120360ff8111610c1b57610bf290611693565b90818102918183041490151715610c095793610b29565b89601186634e487b7160e01b5f52525ffd5b8a601187634e487b7160e01b5f52525ffd5b6011190160ff8111610c1b57610c4290611693565b908115610c50570493610b29565b8a601287634e487b7160e01b5f52525ffd5b866064918d888b519363bd37f66b60e01b855284015242908301526044820152fd5b8b601188634e487b7160e01b5f52525ffd5b6044918d89928b5193632d39986d60e01b8552840152820152fd5b610cd1929450803d10610cde575b610cc9818361160a565b81019061165e565b5092505050918e80610ae1565b503d610cbf565b8f60118f91634e487b7160e01b5f52525ffd5b915050604492508e91508c898f5193636f8ca12f60e01b8552840152820152fd5b8f8f51638ad52bdd60e01b8152fd5b50508f8f51635afb8d1760e11b8152fd5b508b15610aa4565b9298505050610d5e919950823d8411610cde57610cc9818361160a565b909b929892939091505f610a98565b8e513d5f823e3d90fd5b8c848c6044938f5193636296c81f60e11b8552840152820152fd5b5080841415610a5a565b8a51636a78e98160e11b81528c90fd5b508581813d8311610dda575b610dc2818361160a565b81010312610bd157610dd560ff9161162c565b610a3a565b503d610db8565b8b513d5f823e3d90fd5b8a5163671eb0c560e01b81528c90fd5b8a516308c098a760e01b81528c90fd5b895162abbbed60e81b81528b90fd5b8960218d634e487b7160e01b5f52525ffd5b908092975081813d8311610f02575b610e45818361160a565b81010312610bd157895191820182811067ffffffffffffffff821117610ef0578a528051825260208101516002811015610bd1576020830152898101518581168103610bd1578a8301526060810151606083015260808101516080830152610eaf60a0820161162c565b60a0830152610ec060c0820161163a565b60c0830152610ed160e0820161163a565b60e0830152610ee461010080920161162c565b90820152948a806109ea565b8960418d634e487b7160e01b5f52525ffd5b503d610e3b565b8a513d5f823e3d90fd5b855163bfbe031f60e01b81528790fd5b8551633ee5aeb560e01b81528790fd5b8234610bd1575f366003190112610bd157602090517ed5fb6f7d28b7f1d7e22d064db348fbca2cb327afe6b05139e08ad642031a5b8152f35b8234610bd1575f366003190112610bd1576020906005549051908152f35b8234610bd157602090610f9c36611582565b905f525f8352815f209060018060a01b03165f52825260ff815f20541690519015158152f35b8234610bd1575f366003190112610bd157602091549051908152f35b8234610bd1575f366003190112610bd157602090517fa49807205ce4d355092ef5a8a18f56e8913cf4a201fbe287825b095693c217758152f35b8234610bd1576020366003190112610bd15781356110346116fe565b815161103f816115be565b5f8152815f526007602052825f2093600385019182549560ff8716838110156111835760010361117357600281015480421061115e5762093a80810180911161114b57421161113b577f59d087672531b50700275907548a6c10240fc27658dfda79d5c528581d070b5e81540361112b576001015490602081519101200361111d577f62e78cea01bee320cd4e420270b5ea74000d11b0c9f74754ebdbfc544b05a2586020856001888787600260ff198094161790555f805160206118a58339815191525f80a261110e611886565b600254161760025551338152a1005b835163866c41db60e01b8152fd5b855163548b963d60e11b81528390fd5b85516306236e0360e11b81528390fd5b601184634e487b7160e01b5f525260245ffd5b83602491885191621b0c1b60e51b8352820152fd5b85516361941cd160e11b81528390fd5b602184634e487b7160e01b5f525260245ffd5b8234610bd1575f366003190112610bd157602090517f19aebff3bbcef323e5c760a3ed420922e4d158f9d2c6e69bda4f540960d86e978152f35b8234610bd1576020366003190112610bd15781355f526007602052805f209081549160018101549160ff600360028401549301541692815194855260208501528301528281101561122657608092506060820152f35b602183634e487b7160e01b5f525260245ffd5b8234610bd1575f366003190112610bd157602090517f59d087672531b50700275907548a6c10240fc27658dfda79d5c528581d070b5e8152f35b8234610bd1575f366003190112610bd15760209060ff6002541690519015158152f35b8234610bd1576112a536611582565b91336001600160a01b038416036112c2576112c08383611814565b005b5163334bd91960e11b81528390fd5b8234610bd15760016112c0916112fc6112e936611582565b939092835f525f6020525f200154611777565b611798565b905034610bd1576020366003190112610bd15780359161131f6116fe565b825f5260076020526003815f20019182549160ff8316828110156112265760010361137557505060ff191660031790557f104518ed8205b4ef6cab9dbb5f6265e4b8b6670d6247b8c3a77f26f4bd3baf995f80a2005b516361941cd160e11b8152fd5b8234610bd1576020366003190112610bd157602091355f525f82526001815f2001549051908152f35b8234610bd1576020366003190112610bd1578135916113c86116fe565b8151926113d4846115be565b5f8452805f526007602052825f2093600385019081549560ff87168581101561057c576001036115035760028101548042106114ee5762093a8081018091116105445742116114de577f19aebff3bbcef323e5c760a3ed420922e4d158f9d2c6e69bda4f540960d86e978154036114ce57600101549060208151910120036114be5760ff1994851660021790555f805160206118a58339815191525f80a26002549060ff8216156114b0577f5db9ee0a495bf2e6ff9c91a7834c1ba4fdd244a5e8aa4e537bd38aeae4b073aa60208486851660025551338152a1005b8251638dfc202b60e01b8152fd5b835163866c41db60e01b81528390fd5b855163548b963d60e11b81528590fd5b85516306236e0360e11b81528590fd5b85602491885191621b0c1b60e51b8352820152fd5b85516361941cd160e11b81528590fd5b8234610bd1575f366003190112610bd1576020905162093a808152f35b9034610bd1576020366003190112610bd157359063ffffffff60e01b8216809203610bd157602091637965db0b60e01b8114908115611571575b5015158152f35b6301ffc9a760e01b1490508361156a565b6040906003190112610bd157600435906024356001600160a01b0381168103610bd15790565b6040906003190112610bd1576004359060243590565b6020810190811067ffffffffffffffff8211176115da57604052565b634e487b7160e01b5f52604160045260245ffd5b6040810190811067ffffffffffffffff8211176115da57604052565b90601f8019910116810190811067ffffffffffffffff8211176115da57604052565b519060ff82168203610bd157565b51908115158203610bd157565b519069ffffffffffffffffffff82168203610bd157565b908160a0910312610bd15761167281611647565b91602082015191604081015191611690608060608401519301611647565b90565b60ff16604d81116116a457600a0a90565b634e487b7160e01b5f52601160045260245ffd5b92919267ffffffffffffffff82116115da57604051916116e2601f8201601f19166020018461160a565b829481845281830111610bd1578281602093845f960137010152565b335f9081527f7d7ffb7a348e1c6a02869081a26547b49160dd3df72d1d75a570eb9b698292ec60205260409020547fa49807205ce4d355092ef5a8a18f56e8913cf4a201fbe287825b095693c217759060ff16156117595750565b6044906040519063e2517d3f60e01b82523360048301526024820152fd5b805f525f60205260405f20335f5260205260ff60405f205416156117595750565b90815f525f60205260405f209060018060a01b031690815f5260205260ff60405f205416155f1461180e57815f525f60205260405f20815f5260205260405f20600160ff1982541617905533917f2f8788117e7eff1d82e926ec794901d17c78024a50270940304540a733656f0d5f80a4600190565b50505f90565b90815f525f60205260405f209060018060a01b031690815f5260205260ff60405f2054165f1461180e57815f525f60205260405f20815f5260205260405f2060ff19815416905533917ff6391f5c32d9c69d2a47ea670b442974b53935d1edc7fd64eb21e047a839171b5f80a4600190565b60ff6002541661189257565b60405163d93c066560e01b8152600490fdfe0166262b9c601c9575206185144d4f5e9bf67b1d6ca20f2bf89474d2286aefd62f8788117e7eff1d82e926ec794901d17c78024a50270940304540a733656f0dad3228b676f7d3cd4284a5443f17f1962b36e491b30a40b2405849e597ba5fb5",
        "linkReferences": {}
    },
    "methodIdentifiers": {
        "ADMIN_ROLE()": "75b238fc",
        "DEFAULT_ADMIN_ROLE()": "a217fddf",
        "MIN_TIMELOCK()": "fb0c7549",
        "OP_EXPIRY_WINDOW()": "032a57d2",
        "OP_PAUSE()": "6329a66a",
        "OP_SET_CORE()": "e8662b22",
        "OP_SET_DELAY()": "e0913aff",
        "OP_SET_STALENESS()": "9875f57d",
        "OP_UNPAUSE()": "6dba319c",
        "cancelOp(bytes32)": "2bee3e0d",
        "core()": "f2f4eb26",
        "executePause(bytes32)": "7591e1b2",
        "executeSetCore(bytes32,address)": "c9fc992e",
        "executeSetDelay(bytes32,uint256)": "f3217ee6",
        "executeSetMaxStaleness(bytes32,uint256)": "c86dba07",
        "executeUnpause(bytes32)": "07e8717f",
        "getRoleAdmin(bytes32)": "248a9ca3",
        "grantRole(bytes32,address)": "2f2ff15d",
        "hasRole(bytes32,address)": "91d14854",
        "maxStaleness()": "87cf4696",
        "opNonce()": "969ea86b",
        "ops(bytes32)": "692a34f4",
        "paused()": "5c975abb",
        "renounceRole(bytes32,address)": "36568abe",
        "resolve(uint256,uint80)": "9c40d81f",
        "revokeRole(bytes32,address)": "d547741f",
        "scheduleOp(bytes32,bytes)": "bbbf9454",
        "supportsInterface(bytes4)": "01ffc9a7",
        "timelockDelay()": "eef09bad"
    },
    "id": 70
}