{"abi":[{"type":"function","name":"BPS","inputs":[],"outputs":[{"name":"","type":"uint256","internalType":"uint256"}],"stateMutability":"view"},{"type":"function","name":"MARKET_CREATOR_ROLE","inputs":[],"outputs":[{"name":"","type":"bytes32","internalType":"bytes32"}],"stateMutability":"view"},{"type":"function","name":"OP_PAUSE","inputs":[],"outputs":[{"name":"","type":"bytes32","internalType":"bytes32"}],"stateMutability":"view"},{"type":"function","name":"OP_SET_FACET","inputs":[],"outputs":[{"name":"","type":"bytes32","internalType":"bytes32"}],"stateMutability":"view"},{"type":"function","name":"OP_SET_RESOLVER","inputs":[],"outputs":[{"name":"","type":"bytes32","internalType":"bytes32"}],"stateMutability":"view"},{"type":"function","name":"OP_SET_TREASURY","inputs":[],"outputs":[{"name":"","type":"bytes32","internalType":"bytes32"}],"stateMutability":"view"},{"type":"function","name":"OP_UNPAUSE","inputs":[],"outputs":[{"name":"","type":"bytes32","internalType":"bytes32"}],"stateMutability":"view"},{"type":"function","name":"USDC_TO_E18","inputs":[],"outputs":[{"name":"","type":"uint256","internalType":"uint256"}],"stateMutability":"view"},{"type":"function","name":"accFeePerUSDCE18","inputs":[{"name":"","type":"uint256","internalType":"uint256"}],"outputs":[{"name":"","type":"uint256","internalType":"uint256"}],"stateMutability":"view"},{"type":"function","name":"accResidualPerUSDCE18","inputs":[{"name":"","type":"uint256","internalType":"uint256"}],"outputs":[{"name":"","type":"uint256","internalType":"uint256"}],"stateMutability":"view"},{"type":"function","name":"addLiquidity","inputs":[{"name":"id","type":"uint256","internalType":"uint256"},{"name":"usdcAdd","type":"uint256","internalType":"uint256"}],"outputs":[],"stateMutability":"nonpayable"},{"type":"function","name":"chainlinkResolver","inputs":[],"outputs":[{"name":"","type":"address","internalType":"address"}],"stateMutability":"view"},{"type":"function","name":"claimLpFees","inputs":[{"name":"id","type":"uint256","internalType":"uint256"}],"outputs":[],"stateMutability":"nonpayable"},{"type":"function","name":"defaultFeeLpBps","inputs":[],"outputs":[{"name":"","type":"uint16","internalType":"uint16"}],"stateMutability":"view"},{"type":"function","name":"defaultFeeTreasuryBps","inputs":[],"outputs":[{"name":"","type":"uint16","internalType":"uint16"}],"stateMutability":"view"},{"type":"function","name":"defaultFeeVaultBps","inputs":[],"outputs":[{"name":"","type":"uint16","internalType":"uint16"}],"stateMutability":"view"},{"type":"function","name":"dustSharesE18","inputs":[],"outputs":[{"name":"","type":"uint256","internalType":"uint256"}],"stateMutability":"view"},{"type":"function","name":"facetOf","inputs":[{"name":"","type":"bytes4","internalType":"bytes4"}],"outputs":[{"name":"","type":"address","internalType":"address"}],"stateMutability":"view"},{"type":"function","name":"liquidityMultiplierE18","inputs":[],"outputs":[{"name":"","type":"uint256","internalType":"uint256"}],"stateMutability":"view"},{"type":"function","name":"lpFeeDebt","inputs":[{"name":"","type":"uint256","internalType":"uint256"},{"name":"","type":"address","internalType":"address"}],"outputs":[{"name":"","type":"uint256","internalType":"uint256"}],"stateMutability":"view"},{"type":"function","name":"lpResidualDebt","inputs":[{"name":"","type":"uint256","internalType":"uint256"},{"name":"","type":"address","internalType":"address"}],"outputs":[{"name":"","type":"uint256","internalType":"uint256"}],"stateMutability":"view"},{"type":"function","name":"lpShares","inputs":[{"name":"","type":"uint256","internalType":"uint256"},{"name":"","type":"address","internalType":"address"}],"outputs":[{"name":"","type":"uint256","internalType":"uint256"}],"stateMutability":"view"},{"type":"function","name":"marketCount","inputs":[],"outputs":[{"name":"","type":"uint256","internalType":"uint256"}],"stateMutability":"view"},{"type":"function","name":"markets","inputs":[{"name":"","type":"uint256","internalType":"uint256"}],"outputs":[{"name":"yes","type":"address","internalType":"contract PositionToken"},{"name":"no","type":"address","internalType":"contract PositionToken"},{"name":"qYes","type":"uint256","internalType":"uint256"},{"name":"qNo","type":"uint256","internalType":"uint256"},{"name":"bE18","type":"uint256","internalType":"uint256"},{"name":"usdcVault","type":"uint256","internalType":"uint256"},{"name":"feeTreasuryBps","type":"uint16","internalType":"uint16"},{"name":"feeLpBps","type":"uint16","internalType":"uint16"},{"name":"feeVaultBps","type":"uint16","internalType":"uint16"},{"name":"status","type":"uint8","internalType":"enum CoreStorage.MarketStatus"},{"name":"questionHash","type":"bytes32","internalType":"bytes32"},{"name":"creator","type":"address","internalType":"address"},{"name":"totalLpUsdc","type":"uint256","internalType":"uint256"},{"name":"lpFeesUSDC","type":"uint256","internalType":"uint256"},{"name":"residualUSDC","type":"uint256","internalType":"uint256"},{"name":"priceBandThresholdUSDC","type":"uint256","internalType":"uint256"},{"name":"maxJumpE18","type":"uint256","internalType":"uint256"},{"name":"resolution","type":"tuple","internalType":"struct CoreStorage.ResolutionConfig","components":[{"name":"expiryTimestamp","type":"uint256","internalType":"uint256"},{"name":"oracleType","type":"uint8","internalType":"enum CoreStorage.OracleType"},{"name":"oracleAddress","type":"address","internalType":"address"},{"name":"priceFeedId","type":"bytes32","internalType":"bytes32"},{"name":"targetValue","type":"uint256","internalType":"uint256"},{"name":"comparison","type":"uint8","internalType":"enum CoreStorage.Comparison"},{"name":"yesWins","type":"bool","internalType":"bool"},{"name":"isResolved","type":"bool","internalType":"bool"},{"name":"oracleDecimals","type":"uint8","internalType":"uint8"}]}],"stateMutability":"view"},{"type":"function","name":"maxInstantJumpE18","inputs":[],"outputs":[{"name":"","type":"uint256","internalType":"uint256"}],"stateMutability":"view"},{"type":"function","name":"maxUsdcPerTrade","inputs":[],"outputs":[{"name":"","type":"uint256","internalType":"uint256"}],"stateMutability":"view"},{"type":"function","name":"minLiquidityAdd","inputs":[],"outputs":[{"name":"","type":"uint256","internalType":"uint256"}],"stateMutability":"view"},{"type":"function","name":"minMarketSeed","inputs":[],"outputs":[{"name":"","type":"uint256","internalType":"uint256"}],"stateMutability":"view"},{"type":"function","name":"minTimelockDelay","inputs":[],"outputs":[{"name":"","type":"uint256","internalType":"uint256"}],"stateMutability":"view"},{"type":"function","name":"opNonce","inputs":[],"outputs":[{"name":"","type":"uint256","internalType":"uint256"}],"stateMutability":"view"},{"type":"function","name":"ops","inputs":[{"name":"","type":"bytes32","internalType":"bytes32"}],"outputs":[{"name":"tag","type":"bytes32","internalType":"bytes32"},{"name":"dataHash","type":"bytes32","internalType":"bytes32"},{"name":"readyAt","type":"uint256","internalType":"uint256"},{"name":"status","type":"uint8","internalType":"enum CoreStorage.OpStatus"}],"stateMutability":"view"},{"type":"function","name":"treasury","inputs":[],"outputs":[{"name":"","type":"address","internalType":"address"}],"stateMutability":"view"},{"type":"function","name":"usdc","inputs":[],"outputs":[{"name":"","type":"address","internalType":"address"}],"stateMutability":"view"},{"type":"event","name":"LiquidityAdded","inputs":[{"name":"id","type":"uint256","indexed":true,"internalType":"uint256"},{"name":"lp","type":"address","indexed":true,"internalType":"address"},{"name":"usdcAdd","type":"uint256","indexed":false,"internalType":"uint256"},{"name":"newB","type":"uint256","indexed":false,"internalType":"uint256"}],"anonymous":false},{"type":"event","name":"LpFeesClaimed","inputs":[{"name":"id","type":"uint256","indexed":true,"internalType":"uint256"},{"name":"lp","type":"address","indexed":true,"internalType":"address"},{"name":"amount","type":"uint256","indexed":false,"internalType":"uint256"}],"anonymous":false},{"type":"error","name":"InsufficientSeed","inputs":[]},{"type":"error","name":"InvalidMarket","inputs":[]},{"type":"error","name":"MarketNotActive","inputs":[]},{"type":"error","name":"SafeERC20FailedOperation","inputs":[{"name":"token","type":"address","internalType":"address"}]},{"type":"error","name":"SolvencyIssue","inputs":[]}],"bytecode":{"object":"0x6080806040523461001657611072908161001b8239f35b5f80fdfe60c08060405260049081361015610014575f80fd5b5f915f3560e01c918263028390bd14610d5c57508163028aa4ee14610d3b5781630615e22a14610d1e578163249d39e914610d025781632c7dc31914610cc15781632ed13b7814610ca45781633e413bee14610c7d578163572ddbcb14610c6157816361d027b314610c395781636329a66a14610bff5781636735172914610bdc578163692a34f414610b715781636aa083b914610b3a5781636bcbb8a514610b035781636dba319c14610ac95781637f8a3f8c14610aa1578163919cab1f14610a7d578163969ea86b14610a6057816399406c9b14610a335781639cd441da1461068a5781639da4f13d14610660578163aa93f46214610640578163ae42820c14610605578163b1283e771461031d578163c16de9c7146102ff578163d063c724146102c4578163d105e1c6146102a6578163e72012a71461027857508063e998985e1461023d578063ec9790821461021f578063f5b9f41614610201578063f5d7eeaf146101c65763ffe2a9451461018c575f80fd5b346101c357604061019c36610d76565b92908152600f602052209060018060a01b03165f52602052602060405f2054604051908152f35b80fd5b50346101c357806003193601126101c35760206040517fea0a90cd6dac6e6bb5f9c85bc78075cbca424cf853bf131e30cae433318da0808152f35b50346101c357806003193601126101c3576020600554604051908152f35b50346101c357806003193601126101c3576020600c54604051908152f35b50346101c357806003193601126101c35760206040517ffb7970db71b5d6f6b5d5355a31ca44c1e2ed199b82b881fca32583ec66a6b7748152f35b9050346102a25760203660031901126102a257602091604091358152601083522054604051908152f35b5080fd5b82346101c357806003193601126101c3576020600754604051908152f35b82346101c357806003193601126101c35760206040517fa2d8aacac1aaa86712a1ceac3c4524e6ff8d62059ccd43ade1a60d5835f86bb68152f35b82346101c357806003193601126101c3576020600654604051908152f35b82346101c35760203660031901126101c35781358152600b60205260408120808080808060018060a01b0381541660018060a01b03600183015416600283015460038401548b85015490600586015492600687015494600788015496600d600c600b600a60098d600860018060a01b03910154169d01549d01549d01549d01549d01549d60405160a05260a05161012060a051011067ffffffffffffffff61012060a0510111176105f05761012060a05101604052600e81015460a05152600f810154600260ff821610156105da57601260ff9998979695949392828b809416602060a051015260018060a01b039060081c16604060a05101526010810154606060a05101526011810154608060a0510152015461043c828216610d9c565b81811660a080510152818160081c16151560c060a0510152818160101c16151560e060a051015260181c1661010060a05101526040516080526080515260206080510152604060805101526060608051015260808051015260a0608051015261ffff811660c0608051015261ffff8160101c1660e0608051015261ffff8160201c1661010060805101526104d4828260301c16610d9c565b60301c1661012060805101526101406080510152610160608051015261018060805101526101a060805101526101c060805101526101e06080510152610200608051015260a051516102206080510152602060a05101519160028310156105c75782610240608051015260018060a01b03604060a0510151166102606080510152606060a05101516102806080510152608060a05101516102a0608051015260a08051015161058281610d9c565b6102c0608051015260c060a051015115156102e0608051015260e060a05101511515610300608051015260ff61010060a0510151166103206080510152610340608051f35b634e487b7160e01b825260219052602490fd5b50508f8f6021602492634e487b7160e01b835252fd5b505060418f634e487b7160e01b5f525260245ffd5b82346101c357806003193601126101c35760206040517fd3065a24ad9e7725d223007135762d2902038999e3e5829146654498a58d97958152f35b82346101c357806003193601126101c357602060405164e8d4a510008152f35b9050346102a25760203660031901126102a257602091604091358152600e83522054604051908152f35b82346109bd5760403660031901126109bd57813560243590600a546109bd576001600a5560ff60095460301c166109bd57805f52602093600b855260405f209460018060a01b03958681541615610a225760ff600682015460301c166106ef81610d9c565b610a11576005548510610a00575f546040516323b872dd60e01b848201523360248201523060448201526064808201889052815290881660a0820167ffffffffffffffff8111838210176109ed5760405261074a9190611018565b60058101610759868254610e16565b9055835f52600e8252670de0b6b3a764000061077960405f205487610de2565b04845f52600f835260405f20335f52835261079960405f20918254610e16565b9055835f52600d825260405f20335f52825260405f206107ba868254610e16565b9055600981016107cb868254610e16565b809155838201916107e183549260075490610de2565b64e8d4a51000908181029181830414901517156109da5767099e8db03256ce5d900494821515806109d1575b61084e575b5050508290556040519384528301527f4f523f2d8e587b404d27e399464f42a7ffc415da39a6130a6e0e6d3be912832660403393a380600a5580f35b60028201805493610860818987610f6a565b9260038501946108738654938b85610f6a565b96808611156109c9576108869086610e09565b925b808811156109c15761089a9088610e09565b925b8061094b575b50908c9d8a9b9c9d92849b9a9b6108c8575b505050505055558695949392918880610812565b600101541698509091883b1561094757604080516340c10f1960e01b8152309381019384526020840192909252909883928a928391859183910103925af196871561093a57899761091d575b808083926108b4565b61092991929750610dba565b6109365786948a8c610914565b8980fd5b50604051903d90823e3d90fd5b8280fd5b8e825416803b156109bd57604080516340c10f1960e01b8152308682019081526020810194909452925f92849290918391859183910103925af180156109b257156108a2578a9b9c9d506109a4909a999a929192610dba565b5f9c9b9a99989190916108a2565b6040513d5f823e3d90fd5b5f80fd5b505f9261089c565b505f92610888565b5082861161080d565b601186634e487b7160e01b5f525260245ffd5b604186634e487b7160e01b5f525260245ffd5b6040516301e53f4b60e11b81528390fd5b604051635a90bb8d60e11b81528390fd5b604051639db8d5b160e01b81528390fd5b346109bd5760203660031901126109bd57600a546109bd57610a5a906001600a5535610e23565b5f600a55005b346109bd575f3660031901126109bd576020601454604051908152f35b346109bd575f3660031901126109bd57602061ffff60095460101c16604051908152f35b346109bd575f3660031901126109bd576002546040516001600160a01b039091168152602090f35b346109bd575f3660031901126109bd5760206040517f19aebff3bbcef323e5c760a3ed420922e4d158f9d2c6e69bda4f540960d86e978152f35b346109bd57610b1136610d76565b905f52600d60205260405f209060018060a01b03165f52602052602060405f2054604051908152f35b346109bd57610b4836610d76565b905f52601160205260405f209060018060a01b03165f52602052602060405f2054604051908152f35b346109bd5760203660031901126109bd5780355f52601560205260405f2080549060018101549060ff6003600283015492015416916040519384526020840152604083015282811015610bc957608092506060820152f35b602183634e487b7160e01b5f525260245ffd5b346109bd575f3660031901126109bd57602060095461ffff60405191831c168152f35b346109bd575f3660031901126109bd5760206040517f59d087672531b50700275907548a6c10240fc27658dfda79d5c528581d070b5e8152f35b346109bd575f3660031901126109bd576001546040516001600160a01b039091168152602090f35b346109bd575f3660031901126109bd5760209054604051908152f35b346109bd575f3660031901126109bd575f546040516001600160a01b039091168152602090f35b346109bd575f3660031901126109bd576020600854604051908152f35b346109bd5760203660031901126109bd573563ffffffff60e01b81168091036109bd575f526012602052602060018060a01b0360405f205416604051908152f35b346109bd575f3660031901126109bd5760206040516127108152f35b346109bd575f3660031901126109bd576020600354604051908152f35b346109bd575f3660031901126109bd57602061ffff60095416604051908152f35b346109bd575f3660031901126109bd576020906013548152f35b60409060031901126109bd57600435906024356001600160a01b03811681036109bd5790565b60031115610da657565b634e487b7160e01b5f52602160045260245ffd5b67ffffffffffffffff8111610dce57604052565b634e487b7160e01b5f52604160045260245ffd5b81810292918115918404141715610df557565b634e487b7160e01b5f52601160045260245ffd5b91908203918211610df557565b91908201809211610df557565b805f52602090600b82526040805f209260018060a01b038085541615610f5957835f52600d8252825f20335f528252610e90670de0b6b3a7640000610e76855f2054875f52600e8652865f205490610de2565b04855f52600f8452845f20335f528452845f205490610e09565b948515610f5157600a0180548611610f4057845f52600f8352835f20335f528352835f20610ebf878254610e16565b9055610ecc868254610e09565b90555f54835163a9059cbb60e01b848201523360248201526044808201889052815291169290608081019067ffffffffffffffff821181831017610dce577f564d03ca8b35e10bc8a440f1b3f546629000b00f689200a14ca91a979d2f8d7594610f37928452611018565b519384523393a3565b8351632071487960e11b8152600490fd5b505050505050565b8251639db8d5b160e01b8152600490fd5b90915f198383099280830292838086109503948086039514610ff65784831115610fde5790829109815f038216809204600280826003021880830282030280830282030280830282030280830282030280830282030280920290030293600183805f03040190848311900302920304170290565b82634e487b715f52156003026011186020526024601cfd5b505080925015611004570490565b634e487b7160e01b5f52601260045260245ffd5b905f602091828151910182855af1156109b2575f513d61106957506001600160a01b0381163b155b6110475750565b604051635274afe760e01b81526001600160a01b039091166004820152602490fd5b6001141561104056","linkReferences":{}},"methodIdentifiers":{"BPS()":"249d39e9","MARKET_CREATOR_ROLE()":"ae42820c","OP_PAUSE()":"6329a66a","OP_SET_FACET()":"e998985e","OP_SET_RESOLVER()":"d063c724","OP_SET_TREASURY()":"f5d7eeaf","OP_UNPAUSE()":"6dba319c","USDC_TO_E18()":"aa93f462","accFeePerUSDCE18(uint256)":"9da4f13d","accResidualPerUSDCE18(uint256)":"e72012a7","addLiquidity(uint256,uint256)":"9cd441da","chainlinkResolver()":"7f8a3f8c","claimLpFees(uint256)":"99406c9b","defaultFeeLpBps()":"919cab1f","defaultFeeTreasuryBps()":"028aa4ee","defaultFeeVaultBps()":"67351729","dustSharesE18()":"c16de9c7","facetOf(bytes4)":"2c7dc319","liquidityMultiplierE18()":"d105e1c6","lpFeeDebt(uint256,address)":"ffe2a945","lpResidualDebt(uint256,address)":"6aa083b9","lpShares(uint256,address)":"6bcbb8a5","marketCount()":"ec979082","markets(uint256)":"b1283e77","maxInstantJumpE18()":"2ed13b78","maxUsdcPerTrade()":"0615e22a","minLiquidityAdd()":"f5b9f416","minMarketSeed()":"572ddbcb","minTimelockDelay()":"028390bd","opNonce()":"969ea86b","ops(bytes32)":"692a34f4","treasury()":"61d027b3","usdc()":"3e413bee"},"id":77}