{"abi":[{"type":"function","name":"BPS","inputs":[],"outputs":[{"name":"","type":"uint256","internalType":"uint256"}],"stateMutability":"view"},{"type":"function","name":"MARKET_CREATOR_ROLE","inputs":[],"outputs":[{"name":"","type":"bytes32","internalType":"bytes32"}],"stateMutability":"view"},{"type":"function","name":"MIN_TIMELOCK_DELAY","inputs":[],"outputs":[{"name":"","type":"uint256","internalType":"uint256"}],"stateMutability":"view"},{"type":"function","name":"OP_PAUSE","inputs":[],"outputs":[{"name":"","type":"bytes32","internalType":"bytes32"}],"stateMutability":"view"},{"type":"function","name":"OP_SET_FACET","inputs":[],"outputs":[{"name":"","type":"bytes32","internalType":"bytes32"}],"stateMutability":"view"},{"type":"function","name":"OP_SET_RESOLVER","inputs":[],"outputs":[{"name":"","type":"bytes32","internalType":"bytes32"}],"stateMutability":"view"},{"type":"function","name":"OP_SET_TREASURY","inputs":[],"outputs":[{"name":"","type":"bytes32","internalType":"bytes32"}],"stateMutability":"view"},{"type":"function","name":"OP_UNPAUSE","inputs":[],"outputs":[{"name":"","type":"bytes32","internalType":"bytes32"}],"stateMutability":"view"},{"type":"function","name":"USDC_TO_E18","inputs":[],"outputs":[{"name":"","type":"uint256","internalType":"uint256"}],"stateMutability":"view"},{"type":"function","name":"accFeePerUSDCE18","inputs":[{"name":"","type":"uint256","internalType":"uint256"}],"outputs":[{"name":"","type":"uint256","internalType":"uint256"}],"stateMutability":"view"},{"type":"function","name":"accResidualPerUSDCE18","inputs":[{"name":"","type":"uint256","internalType":"uint256"}],"outputs":[{"name":"","type":"uint256","internalType":"uint256"}],"stateMutability":"view"},{"type":"function","name":"addLiquidity","inputs":[{"name":"id","type":"uint256","internalType":"uint256"},{"name":"usdcAdd","type":"uint256","internalType":"uint256"}],"outputs":[],"stateMutability":"nonpayable"},{"type":"function","name":"chainlinkResolver","inputs":[],"outputs":[{"name":"","type":"address","internalType":"address"}],"stateMutability":"view"},{"type":"function","name":"claimLpFees","inputs":[{"name":"id","type":"uint256","internalType":"uint256"}],"outputs":[],"stateMutability":"nonpayable"},{"type":"function","name":"defaultFeeLpBps","inputs":[],"outputs":[{"name":"","type":"uint16","internalType":"uint16"}],"stateMutability":"view"},{"type":"function","name":"defaultFeeTreasuryBps","inputs":[],"outputs":[{"name":"","type":"uint16","internalType":"uint16"}],"stateMutability":"view"},{"type":"function","name":"defaultFeeVaultBps","inputs":[],"outputs":[{"name":"","type":"uint16","internalType":"uint16"}],"stateMutability":"view"},{"type":"function","name":"dustSharesE18","inputs":[],"outputs":[{"name":"","type":"uint256","internalType":"uint256"}],"stateMutability":"view"},{"type":"function","name":"facetOf","inputs":[{"name":"","type":"bytes4","internalType":"bytes4"}],"outputs":[{"name":"","type":"address","internalType":"address"}],"stateMutability":"view"},{"type":"function","name":"liquidityMultiplierE18","inputs":[],"outputs":[{"name":"","type":"uint256","internalType":"uint256"}],"stateMutability":"view"},{"type":"function","name":"lpFeeDebt","inputs":[{"name":"","type":"uint256","internalType":"uint256"},{"name":"","type":"address","internalType":"address"}],"outputs":[{"name":"","type":"uint256","internalType":"uint256"}],"stateMutability":"view"},{"type":"function","name":"lpResidualDebt","inputs":[{"name":"","type":"uint256","internalType":"uint256"},{"name":"","type":"address","internalType":"address"}],"outputs":[{"name":"","type":"uint256","internalType":"uint256"}],"stateMutability":"view"},{"type":"function","name":"lpShares","inputs":[{"name":"","type":"uint256","internalType":"uint256"},{"name":"","type":"address","internalType":"address"}],"outputs":[{"name":"","type":"uint256","internalType":"uint256"}],"stateMutability":"view"},{"type":"function","name":"marketCount","inputs":[],"outputs":[{"name":"","type":"uint256","internalType":"uint256"}],"stateMutability":"view"},{"type":"function","name":"markets","inputs":[{"name":"","type":"uint256","internalType":"uint256"}],"outputs":[{"name":"yes","type":"address","internalType":"contract PositionToken"},{"name":"no","type":"address","internalType":"contract PositionToken"},{"name":"qYes","type":"uint256","internalType":"uint256"},{"name":"qNo","type":"uint256","internalType":"uint256"},{"name":"bE18","type":"uint256","internalType":"uint256"},{"name":"usdcVault","type":"uint256","internalType":"uint256"},{"name":"feeTreasuryBps","type":"uint16","internalType":"uint16"},{"name":"feeLpBps","type":"uint16","internalType":"uint16"},{"name":"feeVaultBps","type":"uint16","internalType":"uint16"},{"name":"status","type":"uint8","internalType":"enum CoreStorage.MarketStatus"},{"name":"questionHash","type":"bytes32","internalType":"bytes32"},{"name":"creator","type":"address","internalType":"address"},{"name":"totalLpUsdc","type":"uint256","internalType":"uint256"},{"name":"lpFeesUSDC","type":"uint256","internalType":"uint256"},{"name":"residualUSDC","type":"uint256","internalType":"uint256"},{"name":"priceBandThresholdUSDC","type":"uint256","internalType":"uint256"},{"name":"maxJumpE18","type":"uint256","internalType":"uint256"},{"name":"resolution","type":"tuple","internalType":"struct CoreStorage.ResolutionConfig","components":[{"name":"expiryTimestamp","type":"uint256","internalType":"uint256"},{"name":"oracleType","type":"uint8","internalType":"enum CoreStorage.OracleType"},{"name":"oracleAddress","type":"address","internalType":"address"},{"name":"priceFeedId","type":"bytes32","internalType":"bytes32"},{"name":"targetValue","type":"uint256","internalType":"uint256"},{"name":"comparison","type":"uint8","internalType":"enum CoreStorage.Comparison"},{"name":"yesWins","type":"bool","internalType":"bool"},{"name":"isResolved","type":"bool","internalType":"bool"}]}],"stateMutability":"view"},{"type":"function","name":"maxInstantJumpE18","inputs":[],"outputs":[{"name":"","type":"uint256","internalType":"uint256"}],"stateMutability":"view"},{"type":"function","name":"maxUsdcPerTrade","inputs":[],"outputs":[{"name":"","type":"uint256","internalType":"uint256"}],"stateMutability":"view"},{"type":"function","name":"minLiquidityAdd","inputs":[],"outputs":[{"name":"","type":"uint256","internalType":"uint256"}],"stateMutability":"view"},{"type":"function","name":"minMarketSeed","inputs":[],"outputs":[{"name":"","type":"uint256","internalType":"uint256"}],"stateMutability":"view"},{"type":"function","name":"opNonce","inputs":[],"outputs":[{"name":"","type":"uint256","internalType":"uint256"}],"stateMutability":"view"},{"type":"function","name":"ops","inputs":[{"name":"","type":"bytes32","internalType":"bytes32"}],"outputs":[{"name":"tag","type":"bytes32","internalType":"bytes32"},{"name":"dataHash","type":"bytes32","internalType":"bytes32"},{"name":"readyAt","type":"uint256","internalType":"uint256"},{"name":"status","type":"uint8","internalType":"enum CoreStorage.OpStatus"}],"stateMutability":"view"},{"type":"function","name":"treasury","inputs":[],"outputs":[{"name":"","type":"address","internalType":"address"}],"stateMutability":"view"},{"type":"function","name":"usdc","inputs":[],"outputs":[{"name":"","type":"address","internalType":"address"}],"stateMutability":"view"},{"type":"event","name":"LiquidityAdded","inputs":[{"name":"id","type":"uint256","indexed":true,"internalType":"uint256"},{"name":"lp","type":"address","indexed":true,"internalType":"address"},{"name":"usdcAdd","type":"uint256","indexed":false,"internalType":"uint256"},{"name":"newB","type":"uint256","indexed":false,"internalType":"uint256"}],"anonymous":false},{"type":"event","name":"LpFeesClaimed","inputs":[{"name":"id","type":"uint256","indexed":true,"internalType":"uint256"},{"name":"lp","type":"address","indexed":true,"internalType":"address"},{"name":"amount","type":"uint256","indexed":false,"internalType":"uint256"}],"anonymous":false},{"type":"error","name":"InsufficientSeed","inputs":[]},{"type":"error","name":"InvalidMarket","inputs":[]},{"type":"error","name":"MarketNotActive","inputs":[]},{"type":"error","name":"SafeERC20FailedOperation","inputs":[{"name":"token","type":"address","internalType":"address"}]},{"type":"error","name":"SolvencyIssue","inputs":[]}],"bytecode":{"object":"0x6080806040523461001657610d8c908161001b8239f35b5f80fdfe60c080604052600480361015610013575f80fd5b5f3560e01c918263028aa4ee14610b2b575081630615e22a14610b0e578163169070eb14610af1578163249d39e914610ad55781632c7dc31914610a945781632ed13b7814610a775781633e413bee14610a50578163572ddbcb14610a3457816361d027b314610a0c5781636329a66a146109d257816367351729146109af578163692a34f4146109575781636aa083b9146109205781636bcbb8a5146108e95781636dba319c146108af5781637f8a3f8c14610887578163919cab1f14610863578163969ea86b1461084657816399406c9b146108195781639cd441da146106195781639da4f13d146105f1578163aa93f462146105d2578163ae42820c14610598578163b1283e771461030e578163c16de9c7146102f1578163d063c724146102b7578163d105e1c61461029a578163e72012a71461027257508063e998985e14610238578063ec9790821461021b578063f5b9f416146101fe578063f5d7eeaf146101c45763ffe2a94514610189575f80fd5b346101c05761019736610b49565b905f52600f60205260405f209060018060a01b03165f52602052602060405f2054604051908152f35b5f80fd5b346101c0575f3660031901126101c05760206040517fea0a90cd6dac6e6bb5f9c85bc78075cbca424cf853bf131e30cae433318da0808152f35b346101c0575f3660031901126101c0576020600554604051908152f35b346101c0575f3660031901126101c0576020600c54604051908152f35b346101c0575f3660031901126101c05760206040517ffb7970db71b5d6f6b5d5355a31ca44c1e2ed199b82b881fca32583ec66a6b7748152f35b346101c05760203660031901126101c057355f526010602052602060405f2054604051908152f35b346101c0575f3660031901126101c0576020600754604051908152f35b346101c0575f3660031901126101c05760206040517fa2d8aacac1aaa86712a1ceac3c4524e6ff8d62059ccd43ade1a60d5835f86bb68152f35b346101c0575f3660031901126101c0576020600654604051908152f35b346101c05760203660031901126101c05780355f52600b60205260405f2060018060a01b038154169060018060a01b03600182015416608052600281015460038201548483015460058401546006850154600786015460018060a01b0360088801541691600988015493600a89015495600b8a015497600c8b015499600d8c01549b60405160a05260a05161010060a051011067ffffffffffffffff61010060a0510111176105855761010060a05101604052600e81015460a05152600f810154600260ff8216101561057157601260ff9796959493928289809416602060a051015260018060a01b039060081c16604060a05101526010810154606060a05101526011810154608060a05101520154610429828216610b6f565b81811660a080510152818160081c16151560c060a051015260101c16151560e060a0510152604080519e8f9081526080516020820152015260608d015260808c015260a08b015261ffff811660c08b015261ffff8160101c1660e08b015261ffff8160201c166101008b01526104a3828260301c16610b6f565b60301c166101208901526101408801526101608701526101808601526101a08501526101c08401526101e083015261020082015260a05151610220820152602060a0510151600281101561055e5761024082015260a08051604001516001600160a01b03166102608301528051606001516102808301528051608001516102a083015280510151610320925061053881610b6f565b6102c082015260c060a051015115156102e082015260e060a05101511515610300820152f35b602183634e487b7160e01b5f525260245ffd5b5060218f634e487b7160e01b5f525260245ffd5b60418f634e487b7160e01b5f525260245ffd5b346101c0575f3660031901126101c05760206040517fd3065a24ad9e7725d223007135762d2902038999e3e5829146654498a58d97958152f35b346101c0575f3660031901126101c057602060405164e8d4a510008152f35b346101c05760203660031901126101c057355f52600e602052602060405f2054604051908152f35b346101c05760403660031901126101c057803560243591600a546101c0576001600a5560ff60095460301c166101c057815f526020600b815260405f2060018060a01b0380825416156108085760ff600683015460301c1661067a81610b6f565b6107f75760055486106107e6575f546040516323b872dd60e01b8582015233602482015230604482015260648082018990528152911660a0820167ffffffffffffffff8111838210176107d3576040526106d49190610d27565b600581016106e3868254610bc1565b9055835f52600e8252670de0b6b3a764000061070360405f205487610b8d565b04845f52600f835260405f20335f52835261072360405f20918254610bc1565b9055835f52600d825260405f20335f52825260405f20610744868254610bc1565b905561076460098201610758878254610bc1565b80915560075490610b8d565b64e8d4a51000908181029181830414901517156107c05767099e8db03256ce5d900492839101556040519384528301527f4f523f2d8e587b404d27e399464f42a7ffc415da39a6130a6e0e6d3be912832660403393a35f600a55005b601184634e487b7160e01b5f525260245ffd5b604186634e487b7160e01b5f525260245ffd5b6040516301e53f4b60e11b81528490fd5b604051635a90bb8d60e11b81528490fd5b604051639db8d5b160e01b81528490fd5b346101c05760203660031901126101c057600a546101c057610840906001600a5535610bce565b5f600a55005b346101c0575f3660031901126101c0576020601354604051908152f35b346101c0575f3660031901126101c057602061ffff60095460101c16604051908152f35b346101c0575f3660031901126101c0576002546040516001600160a01b039091168152602090f35b346101c0575f3660031901126101c05760206040517f19aebff3bbcef323e5c760a3ed420922e4d158f9d2c6e69bda4f540960d86e978152f35b346101c0576108f736610b49565b905f52600d60205260405f209060018060a01b03165f52602052602060405f2054604051908152f35b346101c05761092e36610b49565b905f52601160205260405f209060018060a01b03165f52602052602060405f2054604051908152f35b346101c05760203660031901126101c05780355f52601460205260405f2080549060018101549060ff600360028301549201541691604051938452602084015260408301528281101561055e57608092506060820152f35b346101c0575f3660031901126101c057602060095461ffff60405191831c168152f35b346101c0575f3660031901126101c05760206040517f59d087672531b50700275907548a6c10240fc27658dfda79d5c528581d070b5e8152f35b346101c0575f3660031901126101c0576001546040516001600160a01b039091168152602090f35b346101c0575f3660031901126101c05760209054604051908152f35b346101c0575f3660031901126101c0575f546040516001600160a01b039091168152602090f35b346101c0575f3660031901126101c0576020600854604051908152f35b346101c05760203660031901126101c0573563ffffffff60e01b81168091036101c0575f526012602052602060018060a01b0360405f205416604051908152f35b346101c0575f3660031901126101c05760206040516127108152f35b346101c0575f3660031901126101c0576020604051620151808152f35b346101c0575f3660031901126101c0576020600354604051908152f35b346101c0575f3660031901126101c05760209061ffff600954168152f35b60409060031901126101c057600435906024356001600160a01b03811681036101c05790565b60031115610b7957565b634e487b7160e01b5f52602160045260245ffd5b81810292918115918404141715610ba057565b634e487b7160e01b5f52601160045260245ffd5b91908203918211610ba057565b91908201809211610ba057565b805f52602090600b82526040805f209260018060a01b038085541615610d1657835f52600d8252825f20335f528252610c3b670de0b6b3a7640000610c21855f2054875f52600e8652865f205490610b8d565b04855f52600f8452845f20335f528452845f205490610bb4565b948515610d0e57600a0180548611610cfd57845f52600f8352835f20335f528352835f20610c6a878254610bc1565b9055610c77868254610bb4565b90555f541691805163a9059cbb60e01b8382015233602482015285604482015260448152608081019080821067ffffffffffffffff831117610ce9577f564d03ca8b35e10bc8a440f1b3f546629000b00f689200a14ca91a979d2f8d7594610ce0928452610d27565b519384523393a3565b634e487b7160e01b5f52604160045260245ffd5b8351632071487960e11b8152600490fd5b505050505050565b8251639db8d5b160e01b8152600490fd5b905f602091828151910182855af115610d81575f513d610d7857506001600160a01b0381163b155b610d565750565b604051635274afe760e01b81526001600160a01b039091166004820152602490fd5b60011415610d4f565b6040513d5f823e3d90fd","linkReferences":{}},"methodIdentifiers":{"BPS()":"249d39e9","MARKET_CREATOR_ROLE()":"ae42820c","MIN_TIMELOCK_DELAY()":"169070eb","OP_PAUSE()":"6329a66a","OP_SET_FACET()":"e998985e","OP_SET_RESOLVER()":"d063c724","OP_SET_TREASURY()":"f5d7eeaf","OP_UNPAUSE()":"6dba319c","USDC_TO_E18()":"aa93f462","accFeePerUSDCE18(uint256)":"9da4f13d","accResidualPerUSDCE18(uint256)":"e72012a7","addLiquidity(uint256,uint256)":"9cd441da","chainlinkResolver()":"7f8a3f8c","claimLpFees(uint256)":"99406c9b","defaultFeeLpBps()":"919cab1f","defaultFeeTreasuryBps()":"028aa4ee","defaultFeeVaultBps()":"67351729","dustSharesE18()":"c16de9c7","facetOf(bytes4)":"2c7dc319","liquidityMultiplierE18()":"d105e1c6","lpFeeDebt(uint256,address)":"ffe2a945","lpResidualDebt(uint256,address)":"6aa083b9","lpShares(uint256,address)":"6bcbb8a5","marketCount()":"ec979082","markets(uint256)":"b1283e77","maxInstantJumpE18()":"2ed13b78","maxUsdcPerTrade()":"0615e22a","minLiquidityAdd()":"f5b9f416","minMarketSeed()":"572ddbcb","opNonce()":"969ea86b","ops(bytes32)":"692a34f4","treasury()":"61d027b3","usdc()":"3e413bee"},"id":73}