{"abi":[{"type":"function","name":"BPS","inputs":[],"outputs":[{"name":"","type":"uint256","internalType":"uint256"}],"stateMutability":"view"},{"type":"function","name":"MARKET_CREATOR_ROLE","inputs":[],"outputs":[{"name":"","type":"bytes32","internalType":"bytes32"}],"stateMutability":"view"},{"type":"function","name":"MAX_SHARES","inputs":[],"outputs":[{"name":"","type":"uint256","internalType":"uint256"}],"stateMutability":"view"},{"type":"function","name":"MIN_LP_USDC","inputs":[],"outputs":[{"name":"","type":"uint256","internalType":"uint256"}],"stateMutability":"view"},{"type":"function","name":"OP_CANCEL_MARKET","inputs":[],"outputs":[{"name":"","type":"bytes32","internalType":"bytes32"}],"stateMutability":"view"},{"type":"function","name":"OP_EXPIRY_WINDOW","inputs":[],"outputs":[{"name":"","type":"uint256","internalType":"uint256"}],"stateMutability":"view"},{"type":"function","name":"OP_PAUSE","inputs":[],"outputs":[{"name":"","type":"bytes32","internalType":"bytes32"}],"stateMutability":"view"},{"type":"function","name":"OP_RECOVER_ETH","inputs":[],"outputs":[{"name":"","type":"bytes32","internalType":"bytes32"}],"stateMutability":"view"},{"type":"function","name":"OP_REMOVE_FACET","inputs":[],"outputs":[{"name":"","type":"bytes32","internalType":"bytes32"}],"stateMutability":"view"},{"type":"function","name":"OP_SET_FACET","inputs":[],"outputs":[{"name":"","type":"bytes32","internalType":"bytes32"}],"stateMutability":"view"},{"type":"function","name":"OP_SET_RESOLVER","inputs":[],"outputs":[{"name":"","type":"bytes32","internalType":"bytes32"}],"stateMutability":"view"},{"type":"function","name":"OP_SET_TREASURY","inputs":[],"outputs":[{"name":"","type":"bytes32","internalType":"bytes32"}],"stateMutability":"view"},{"type":"function","name":"OP_UNPAUSE","inputs":[],"outputs":[{"name":"","type":"bytes32","internalType":"bytes32"}],"stateMutability":"view"},{"type":"function","name":"STORAGE_VERSION","inputs":[],"outputs":[{"name":"","type":"uint256","internalType":"uint256"}],"stateMutability":"view"},{"type":"function","name":"USDC_TO_E18","inputs":[],"outputs":[{"name":"","type":"uint256","internalType":"uint256"}],"stateMutability":"view"},{"type":"function","name":"accFeePerUSDCE18","inputs":[{"name":"","type":"uint256","internalType":"uint256"}],"outputs":[{"name":"","type":"uint256","internalType":"uint256"}],"stateMutability":"view"},{"type":"function","name":"accResidualPerUSDCE18","inputs":[{"name":"","type":"uint256","internalType":"uint256"}],"outputs":[{"name":"","type":"uint256","internalType":"uint256"}],"stateMutability":"view"},{"type":"function","name":"addLiquidity","inputs":[{"name":"id","type":"uint256","internalType":"uint256"},{"name":"usdcAdd","type":"uint256","internalType":"uint256"}],"outputs":[],"stateMutability":"nonpayable"},{"type":"function","name":"chainlinkResolver","inputs":[],"outputs":[{"name":"","type":"address","internalType":"address"}],"stateMutability":"view"},{"type":"function","name":"claimLpFees","inputs":[{"name":"id","type":"uint256","internalType":"uint256"}],"outputs":[],"stateMutability":"nonpayable"},{"type":"function","name":"defaultFeeLpBps","inputs":[],"outputs":[{"name":"","type":"uint16","internalType":"uint16"}],"stateMutability":"view"},{"type":"function","name":"defaultFeeTreasuryBps","inputs":[],"outputs":[{"name":"","type":"uint16","internalType":"uint16"}],"stateMutability":"view"},{"type":"function","name":"defaultFeeVaultBps","inputs":[],"outputs":[{"name":"","type":"uint16","internalType":"uint16"}],"stateMutability":"view"},{"type":"function","name":"dustSharesE18","inputs":[],"outputs":[{"name":"","type":"uint256","internalType":"uint256"}],"stateMutability":"view"},{"type":"function","name":"facetOf","inputs":[{"name":"","type":"bytes4","internalType":"bytes4"}],"outputs":[{"name":"","type":"address","internalType":"address"}],"stateMutability":"view"},{"type":"function","name":"liquidityMultiplierE18","inputs":[],"outputs":[{"name":"","type":"uint256","internalType":"uint256"}],"stateMutability":"view"},{"type":"function","name":"lpFeeDebt","inputs":[{"name":"","type":"uint256","internalType":"uint256"},{"name":"","type":"address","internalType":"address"}],"outputs":[{"name":"","type":"uint256","internalType":"uint256"}],"stateMutability":"view"},{"type":"function","name":"lpFeeDustUSDC","inputs":[{"name":"","type":"uint256","internalType":"uint256"}],"outputs":[{"name":"","type":"uint256","internalType":"uint256"}],"stateMutability":"view"},{"type":"function","name":"lpResidualDebt","inputs":[{"name":"","type":"uint256","internalType":"uint256"},{"name":"","type":"address","internalType":"address"}],"outputs":[{"name":"","type":"uint256","internalType":"uint256"}],"stateMutability":"view"},{"type":"function","name":"lpResidualDustUSDC","inputs":[{"name":"","type":"uint256","internalType":"uint256"}],"outputs":[{"name":"","type":"uint256","internalType":"uint256"}],"stateMutability":"view"},{"type":"function","name":"lpShares","inputs":[{"name":"","type":"uint256","internalType":"uint256"},{"name":"","type":"address","internalType":"address"}],"outputs":[{"name":"","type":"uint256","internalType":"uint256"}],"stateMutability":"view"},{"type":"function","name":"marketCount","inputs":[],"outputs":[{"name":"","type":"uint256","internalType":"uint256"}],"stateMutability":"view"},{"type":"function","name":"markets","inputs":[{"name":"","type":"uint256","internalType":"uint256"}],"outputs":[{"name":"yes","type":"address","internalType":"contract PositionToken"},{"name":"no","type":"address","internalType":"contract PositionToken"},{"name":"qYes","type":"uint256","internalType":"uint256"},{"name":"qNo","type":"uint256","internalType":"uint256"},{"name":"bE18","type":"uint256","internalType":"uint256"},{"name":"usdcVault","type":"uint256","internalType":"uint256"},{"name":"feeTreasuryBps","type":"uint16","internalType":"uint16"},{"name":"feeLpBps","type":"uint16","internalType":"uint16"},{"name":"feeVaultBps","type":"uint16","internalType":"uint16"},{"name":"status","type":"uint8","internalType":"enum CoreStorage.MarketStatus"},{"name":"questionHash","type":"bytes32","internalType":"bytes32"},{"name":"question","type":"string","internalType":"string"},{"name":"creator","type":"address","internalType":"address"},{"name":"totalLpUsdc","type":"uint256","internalType":"uint256"},{"name":"lpFeesUSDC","type":"uint256","internalType":"uint256"},{"name":"residualUSDC","type":"uint256","internalType":"uint256"},{"name":"priceBandThresholdUSDC","type":"uint256","internalType":"uint256"},{"name":"maxJumpE18","type":"uint256","internalType":"uint256"},{"name":"resolution","type":"tuple","internalType":"struct CoreStorage.ResolutionConfig","components":[{"name":"expiryTimestamp","type":"uint256","internalType":"uint256"},{"name":"oracleType","type":"uint8","internalType":"enum CoreStorage.OracleType"},{"name":"oracleAddress","type":"address","internalType":"address"},{"name":"priceFeedId","type":"bytes32","internalType":"bytes32"},{"name":"targetValue","type":"uint256","internalType":"uint256"},{"name":"comparison","type":"uint8","internalType":"enum CoreStorage.Comparison"},{"name":"yesWins","type":"bool","internalType":"bool"},{"name":"isResolved","type":"bool","internalType":"bool"},{"name":"oracleDecimals","type":"uint8","internalType":"uint8"}]}],"stateMutability":"view"},{"type":"function","name":"maxInstantJumpE18","inputs":[],"outputs":[{"name":"","type":"uint256","internalType":"uint256"}],"stateMutability":"view"},{"type":"function","name":"maxUsdcPerTrade","inputs":[],"outputs":[{"name":"","type":"uint256","internalType":"uint256"}],"stateMutability":"view"},{"type":"function","name":"minLiquidityAdd","inputs":[],"outputs":[{"name":"","type":"uint256","internalType":"uint256"}],"stateMutability":"view"},{"type":"function","name":"minMarketSeed","inputs":[],"outputs":[{"name":"","type":"uint256","internalType":"uint256"}],"stateMutability":"view"},{"type":"function","name":"minTimelockDelay","inputs":[],"outputs":[{"name":"","type":"uint256","internalType":"uint256"}],"stateMutability":"view"},{"type":"function","name":"opNonce","inputs":[],"outputs":[{"name":"","type":"uint256","internalType":"uint256"}],"stateMutability":"view"},{"type":"function","name":"ops","inputs":[{"name":"","type":"bytes32","internalType":"bytes32"}],"outputs":[{"name":"tag","type":"bytes32","internalType":"bytes32"},{"name":"dataHash","type":"bytes32","internalType":"bytes32"},{"name":"readyAt","type":"uint256","internalType":"uint256"},{"name":"status","type":"uint8","internalType":"enum CoreStorage.OpStatus"}],"stateMutability":"view"},{"type":"function","name":"removeLiquidity","inputs":[{"name":"id","type":"uint256","internalType":"uint256"},{"name":"usdcRemove","type":"uint256","internalType":"uint256"}],"outputs":[],"stateMutability":"nonpayable"},{"type":"function","name":"treasury","inputs":[],"outputs":[{"name":"","type":"address","internalType":"address"}],"stateMutability":"view"},{"type":"function","name":"usdc","inputs":[],"outputs":[{"name":"","type":"address","internalType":"address"}],"stateMutability":"view"},{"type":"event","name":"LiquidityAdded","inputs":[{"name":"id","type":"uint256","indexed":true,"internalType":"uint256"},{"name":"lp","type":"address","indexed":true,"internalType":"address"},{"name":"usdcAdd","type":"uint256","indexed":false,"internalType":"uint256"},{"name":"newB","type":"uint256","indexed":false,"internalType":"uint256"}],"anonymous":false},{"type":"event","name":"LiquidityRemoved","inputs":[{"name":"id","type":"uint256","indexed":true,"internalType":"uint256"},{"name":"lp","type":"address","indexed":true,"internalType":"address"},{"name":"usdcRemove","type":"uint256","indexed":false,"internalType":"uint256"},{"name":"newB","type":"uint256","indexed":false,"internalType":"uint256"}],"anonymous":false},{"type":"event","name":"LpFeesClaimed","inputs":[{"name":"id","type":"uint256","indexed":true,"internalType":"uint256"},{"name":"lp","type":"address","indexed":true,"internalType":"address"},{"name":"amount","type":"uint256","indexed":false,"internalType":"uint256"}],"anonymous":false},{"type":"event","name":"OperationCancelled","inputs":[{"name":"opId","type":"bytes32","indexed":true,"internalType":"bytes32"}],"anonymous":false},{"type":"event","name":"OperationExecuted","inputs":[{"name":"opId","type":"bytes32","indexed":true,"internalType":"bytes32"}],"anonymous":false},{"type":"event","name":"OperationScheduled","inputs":[{"name":"opId","type":"bytes32","indexed":true,"internalType":"bytes32"},{"name":"tag","type":"bytes32","indexed":true,"internalType":"bytes32"},{"name":"readyAt","type":"uint256","indexed":false,"internalType":"uint256"}],"anonymous":false},{"type":"error","name":"CannotRemoveLastLiquidity","inputs":[]},{"type":"error","name":"DataMismatch","inputs":[]},{"type":"error","name":"InsufficientSeed","inputs":[]},{"type":"error","name":"InsufficientShares","inputs":[]},{"type":"error","name":"InvalidMarket","inputs":[]},{"type":"error","name":"LiquidityTooLow","inputs":[]},{"type":"error","name":"MarketNotActive","inputs":[]},{"type":"error","name":"NotAuthorized","inputs":[]},{"type":"error","name":"OpExpired","inputs":[]},{"type":"error","name":"OpInvalid","inputs":[]},{"type":"error","name":"OpNotReady","inputs":[{"name":"readyAt","type":"uint256","internalType":"uint256"}]},{"type":"error","name":"QTooLarge","inputs":[]},{"type":"error","name":"SafeERC20FailedOperation","inputs":[{"name":"token","type":"address","internalType":"address"}]},{"type":"error","name":"SolvencyIssue","inputs":[]},{"type":"error","name":"TagMismatch","inputs":[]}],"bytecode":{"object":"0x6080806040523461001657611a61908161001b8239f35b5f80fdfe610100806040526004361015610013575f80fd5b5f905f3560e01c908163028390bd1461173d57508063028aa4ee1461171c578063032a57d2146116ff5780630615e22a146116e2578063249d39e9146116c657806327b6eeba1461168c5780632c7dc319146116495780632ed13b781461162c5780632f922f2f146116025780633e413bee146115db5780633e8ff57b146115ac5780633fb5f6e81461158257806343a630f514611565578063572ddbcb1461154857806361d027b3146115205780636329a66a146114e657806367351729146114c3578063692a34f4146114575780636aa083b9146114205780636bcbb8a5146113e95780636dba319c146113af5780637b8c5ba6146113755780637f8a3f8c1461134d578063919cab1f14611329578063969ea86b1461130c57806399406c9b146112dd5780639cd441da14610f3f5780639d7de6b31461087f5780639da4f13d146108555780639ef2b38114610839578063aa93f46214610819578063ae42820c146107de578063b1283e77146103c0578063c16de9c7146103a2578063d063c72414610367578063d105e1c614610349578063e72012a71461031f578063e998985e146102e4578063ec979082146102c6578063f5b9f416146102a8578063f5d7eeaf1461026d578063f7050eae146102325763ffe2a945146101f8575f80fd5b3461022f57604061020836611757565b92908152600f602052209060018060a01b03165f52602052602060405f2054604051908152f35b80fd5b503461022f578060031936011261022f5760206040517f45487ebba72ead203c633e826e1c055a8a179c4ce023c1650f84a2b55ff3cec18152f35b503461022f578060031936011261022f5760206040517fea0a90cd6dac6e6bb5f9c85bc78075cbca424cf853bf131e30cae433318da0808152f35b503461022f578060031936011261022f576020600554604051908152f35b503461022f578060031936011261022f576020600c54604051908152f35b503461022f578060031936011261022f5760206040517ffb7970db71b5d6f6b5d5355a31ca44c1e2ed199b82b881fca32583ec66a6b7748152f35b503461022f57602036600319011261022f5760406020916004358152601083522054604051908152f35b503461022f578060031936011261022f576020600754604051908152f35b503461022f578060031936011261022f5760206040517fa2d8aacac1aaa86712a1ceac3c4524e6ff8d62059ccd43ade1a60d5835f86bb68152f35b503461022f578060031936011261022f576020600654604051908152f35b503461022f57602036600319011261022f576004358152600b6020526040812060018060a01b038154169060018060a01b0360018201541660c0526002810154916003820154926004830154936005840154946006850154600786015490604051608052886008880154908160011c9160018116156107d4575b6020831060018216146107c05782608051526001811690815f1461079d575060011461075e575b610473915060805190036080516117a7565b60018060a01b0360098801541697600a88015493600b89015495600c8a015497600d8b015499600e8c01549b60405160e05260e05161012060e051011067ffffffffffffffff61012060e05101111761074a5761012060e05101604052600f81015460e051526010810154600260ff8216101561073557601360ff98979695949392828a809416602060e051015260018060a01b039060081c16604060e05101526011810154606060e05101526012810154608060e051015201546105398282166117c9565b81811660a060e0510152818160081c16151560c060e0510152818160101c16151560e08051015260181c1661010060e051015260405160a05260a0515260c051602060a0510152604060a0510152606060a0510152608060a051015260a08051015261ffff811660c060a051015261ffff8160101c1660e060a051015261ffff8160201c1661010060a05101526105d4828260301c166117c9565b60301c1661012060a051015261014060a051015261036061016060a051015260805151958661036060a0510152875b87811061071a5750876103808860a05101015261018060a05101526101a060a05101526101c060a05101526101e060a051015261020060a051015261022060a051015260e0515161024060a0510152602060e0510151600281101561070657610380925061026060a051015260018060a01b03604060e05101511661028060a0510152606060e05101516102a060a0510152608060e05101516102c060a051015260a060e05101516106b4816117c9565b6102e060a051015260c060e0510151151561030060a051015260e080510151151561032060a051015260ff61010060e05101511661034060a051015260a05190601f801991011660a05101030160a051f35b634e487b7160e01b83526021600452602483fd5b80602080926080510101516103808260a05101015201610603565b50634e487b7160e01b8f52602160045260248ffd5b634e487b7160e01b5f52604160045260245ffd5b50600888018a5260208a208a905b8282106107855750608051610473925001602001610461565b6001816020925483856080510101520191019061076c565b6020925061047393915060ff1916826080510152151560051b6080510101610461565b634e487b7160e01b8c52602260045260248cfd5b91607f169161043a565b503461022f578060031936011261022f5760206040517fd3065a24ad9e7725d223007135762d2902038999e3e5829146654498a58d97958152f35b503461022f578060031936011261022f57602060405164e8d4a510008152f35b503461022f578060031936011261022f57602060405160018152f35b503461022f57602036600319011261022f5760406020916004358152600e83522054604051908152f35b503461022f5761088e3661177d565b90600a54610d1f576001600a5560ff60095460301c16610d1f57808352600b6020526040832080546001600160a01b031615610f2d5760ff600682015460301c166108d8816117c9565b610f1b57818452600d60205260408420335f526020528260405f205410610f09576109033383611800565b80546040516370a0823160e01b815230600482015290602090829060249082906001600160a01b03165afa8015610efe578590610ecb575b60018301546040516370a0823160e01b81523060048201529250602090839060249082906001600160a01b03165afa918215610ec0578692610e8c575b5060028301549080821115610e8357610990916117f3565b905b60038301549080821115610e7b576109a9916117f3565b80821115610e7457505b6109c18460058401546117f3565b906103e882018211610e425764e8d4a510006103e89104910110610d2357600a8101906109ef8483546117f3565b9160ff600683015460301c16610a04816117c9565b1580610e68575b610e56578290848752600d60205260408720335f5260205260405f20610a328782546117f3565b905555610a438460058301546117f3565b6005820155610a5a600482015492600754906117e0565b918264e8d4a5100081020464e8d4a510001483151715610e425780151580610e28575b610b37575b5067099e8db03256ce5d64e8d4a51000600493020482820155828552600d60205260408520335f52602052670de0b6b3a7640000610ad160405f2054858852600e6020526040882054906117e0565b04838652600f60205260408620335f5260205260405f2055610afd843360018060a01b038854166119c4565b015460405192835260208301527f196a4bf617b45641f176c4e6d288ccf7498f1699f68b1cc1e4daadf92779703b60403393a380600a5580f35b91600282015492610b5a8167099e8db03256ce5d64e8d4a5100085020486611916565b610b7b60038501549267099e8db03256ce5d64e8d4a5100086020484611916565b947109f4f2726179a224501d762422c946590d91603c1b808311908115610e1e575b50610e0c578180821115610e0357610bb4916117f3565b915b8580821115610dfa57610bc8916117f3565b915b8015610def5784546040516370a0823160e01b81523060048201526001600160a01b039091169190602081602481865afa8015610de45782918c91610daf575b5010610d2357818a923b15610d1f57604051632770a7eb60e21b8152306004820152602481019290925282908290604490829084905af18015610d1457610d97575b505060028401555b8015610d795760018301546040516370a0823160e01b81523060048201526001600160a01b039091169190602081602481865afa8015610d6e5782918a91610d35575b5010610d23578188923b15610d1f57604051632770a7eb60e21b8152306004820152602481019290925282908290604490829084905af18015610d1457610cfc575b505064e8d4a5100067099e8db03256ce5d9160049460038501555b935050610a82565b610d0590611793565b610d1057855f610cd9565b8580fd5b6040513d84823e3d90fd5b8280fd5b604051632071487960e11b8152600490fd5b9150506020813d602011610d66575b81610d51602093836117a7565b81010312610d62578190515f610c97565b5f80fd5b3d9150610d44565b6040513d8b823e3d90fd5b5064e8d4a5100067099e8db03256ce5d916004946003850155610cf4565b610da090611793565b610dab57875f610c4c565b8780fd5b9150506020813d602011610ddc575b81610dcb602093836117a7565b81010312610d62578190515f610c0a565b3d9150610dbe565b6040513d8d823e3d90fd5b506002840155610c54565b50508791610bca565b50508791610bb6565b60405163614821f560e01b8152600490fd5b905086115f610b9d565b508067099e8db03256ce5d64e8d4a5100085020410610a7d565b634e487b7160e01b86526011600452602486fd5b604051634088b74160e01b8152600490fd5b50620f42408310610a0b565b90506109b3565b5050846109a9565b50508490610992565b9091506020813d602011610eb8575b81610ea8602093836117a7565b81010312610d625751905f610978565b3d9150610e9b565b6040513d88823e3d90fd5b506020813d602011610ef6575b81610ee5602093836117a7565b81010312610d62576024905161093b565b3d9150610ed8565b6040513d87823e3d90fd5b604051633999656760e01b8152600490fd5b604051635a90bb8d60e11b8152600490fd5b604051639db8d5b160e01b8152600490fd5b5034610d6257610f4e3661177d565b90600a54610d62576001600a5560ff60095460301c16610d6257805f526020600b815260405f209060018060a01b03918281541615610f2d5760ff600682015460301c16610f9b816117c9565b610f1b5760055485106112cb575f546040516323b872dd60e01b848201523360248201523060448201526064808201889052815260a0810191851667ffffffffffffffff83118284101761074a57610ff592604052611a07565b600581016110048682546117d3565b9055835f52600e8252670de0b6b3a764000061102460405f2054876117e0565b04845f52600f835260405f20335f52835261104460405f209182546117d3565b9055835f52600d825260405f20335f52825260405f206110658682546117d3565b9055600a8101906110778683546117d3565b809255600481019061108e825493600754906117e0565b64e8d4a51000908181029181830414901517156112b75767099e8db03256ce5d9004948386941515806112ae575b6110fb575b505050556040519384528301527f4f523f2d8e587b404d27e399464f42a7ffc415da39a6130a6e0e6d3be912832660403393a380600a5580f35b9091935060028401805490611111838984611916565b9160038701936111248554918b83611916565b957109f4f2726179a224501d762422c946590d91603c1b8086119081156112a4575b50610e0c578a988e938087111561129c5761116190876117f3565b925b808911156112945761117590896117f3565b925b8061120d575b5082611192575b5050505055555f80806110c1565b60019192939950015416803b15610dab576040516340c10f1960e01b8152306004820152602481019290925290969081908890604490829084905af19687156112005789976111e3575b8080611184565b6111ef91929750611793565b6111fc5786948a5f6111dc565b8980fd5b50604051903d90823e3d90fd5b919350919394959697985082825416803b15610d62576040516340c10f1960e01b815230600482015260248101929092525f908290604490829084905af1801561128957611266575b918a989796959493918e9361117d565b8a98979695949391929d5061127a90611793565b5f9c9190929394959697611256565b6040513d5f823e3d90fd5b505f92611177565b505f92611163565b905087115f611146565b508085116110bc565b634e487b7160e01b5f52601160045260245ffd5b6040516301e53f4b60e11b8152600490fd5b34610d62576020366003190112610d6257600a54610d62576001600a5561130633600435611800565b5f600a55005b34610d62575f366003190112610d62576020601454604051908152f35b34610d62575f366003190112610d6257602061ffff60095460101c16604051908152f35b34610d62575f366003190112610d62576002546040516001600160a01b039091168152602090f35b34610d62575f366003190112610d625760206040517fe5589cf51350e9a9b2df9829966e04dcf57f8fa87b52d7945643ac0eaff69e648152f35b34610d62575f366003190112610d625760206040517f19aebff3bbcef323e5c760a3ed420922e4d158f9d2c6e69bda4f540960d86e978152f35b34610d62576113f736611757565b905f52600d60205260405f209060018060a01b03165f52602052602060405f2054604051908152f35b34610d625761142e36611757565b905f52601160205260405f209060018060a01b03165f52602052602060405f2054604051908152f35b34610d62576020366003190112610d62576004355f52601560205260405f20805460018201549160ff6003600283015492015416926040519283526020830152604082015260048210156114af576080916060820152f35b634e487b7160e01b5f52602160045260245ffd5b34610d62575f366003190112610d6257602060095461ffff60405191831c168152f35b34610d62575f366003190112610d625760206040517f59d087672531b50700275907548a6c10240fc27658dfda79d5c528581d070b5e8152f35b34610d62575f366003190112610d62576001546040516001600160a01b039091168152602090f35b34610d62575f366003190112610d62576020600454604051908152f35b34610d62575f366003190112610d62576020604051620f42408152f35b34610d62576020366003190112610d62576004355f526017602052602060405f2054604051908152f35b34610d62575f366003190112610d625760206040517109f4f2726179a224501d762422c946590d91603c1b8152f35b34610d62575f366003190112610d62575f546040516001600160a01b039091168152602090f35b34610d62576020366003190112610d62576004355f526016602052602060405f2054604051908152f35b34610d62575f366003190112610d62576020600854604051908152f35b34610d62576020366003190112610d625760043563ffffffff60e01b8116809103610d62575f526012602052602060018060a01b0360405f205416604051908152f35b34610d62575f366003190112610d625760206040517f24292cbf46b6e47bdb0682fd1c64fa171e74249bffad8ae2c4adcedcd31224c68152f35b34610d62575f366003190112610d625760206040516127108152f35b34610d62575f366003190112610d62576020600354604051908152f35b34610d62575f366003190112610d6257602060405162093a808152f35b34610d62575f366003190112610d6257602061ffff60095416604051908152f35b34610d62575f366003190112610d62576020906013548152f35b6040906003190112610d6257600435906024356001600160a01b0381168103610d625790565b6040906003190112610d62576004359060243590565b67ffffffffffffffff811161074a57604052565b90601f8019910116810190811067ffffffffffffffff82111761074a57604052565b600311156114af57565b919082018092116112b757565b818102929181159184041417156112b757565b919082039182116112b757565b805f526020600b81526040805f209060018060a01b0394858354161561190557845f52600d8452815f209580821696875f528552611872670de0b6b3a7640000611858855f2054895f52600e8952865f2054906117e0565b04875f52600f8752845f20895f528752845f2054906117f3565b9384156118fb57600b01805485116118ea57938093926118e3927f564d03ca8b35e10bc8a440f1b3f546629000b00f689200a14ca91a979d2f8d759796895f52600f8852855f208b5f528852855f206118cc8582546117d3565b90556118d98482546117f3565b90555f54166119c4565b51908152a3565b8351632071487960e11b8152600490fd5b5050505050505050565b8151639db8d5b160e01b8152600490fd5b90915f1983830992808302928380861095039480860395146119a2578483111561198a5790829109815f038216809204600280826003021880830282030280830282030280830282030280830282030280830282030280920290030293600183805f03040190848311900302920304170290565b82634e487b715f52156003026011186020526024601cfd5b5050809250156119b0570490565b634e487b7160e01b5f52601260045260245ffd5b60405163a9059cbb60e01b60208201526001600160a01b03929092166024830152604480830193909352918152611a0591611a006064836117a7565b611a07565b565b905f602091828151910182855af115611289575f513d611a5857506001600160a01b0381163b155b611a365750565b604051635274afe760e01b81526001600160a01b039091166004820152602490fd5b60011415611a2f56","linkReferences":{}},"methodIdentifiers":{"BPS()":"249d39e9","MARKET_CREATOR_ROLE()":"ae42820c","MAX_SHARES()":"3e8ff57b","MIN_LP_USDC()":"43a630f5","OP_CANCEL_MARKET()":"f7050eae","OP_EXPIRY_WINDOW()":"032a57d2","OP_PAUSE()":"6329a66a","OP_RECOVER_ETH()":"27b6eeba","OP_REMOVE_FACET()":"7b8c5ba6","OP_SET_FACET()":"e998985e","OP_SET_RESOLVER()":"d063c724","OP_SET_TREASURY()":"f5d7eeaf","OP_UNPAUSE()":"6dba319c","STORAGE_VERSION()":"9ef2b381","USDC_TO_E18()":"aa93f462","accFeePerUSDCE18(uint256)":"9da4f13d","accResidualPerUSDCE18(uint256)":"e72012a7","addLiquidity(uint256,uint256)":"9cd441da","chainlinkResolver()":"7f8a3f8c","claimLpFees(uint256)":"99406c9b","defaultFeeLpBps()":"919cab1f","defaultFeeTreasuryBps()":"028aa4ee","defaultFeeVaultBps()":"67351729","dustSharesE18()":"c16de9c7","facetOf(bytes4)":"2c7dc319","liquidityMultiplierE18()":"d105e1c6","lpFeeDebt(uint256,address)":"ffe2a945","lpFeeDustUSDC(uint256)":"2f922f2f","lpResidualDebt(uint256,address)":"6aa083b9","lpResidualDustUSDC(uint256)":"3fb5f6e8","lpShares(uint256,address)":"6bcbb8a5","marketCount()":"ec979082","markets(uint256)":"b1283e77","maxInstantJumpE18()":"2ed13b78","maxUsdcPerTrade()":"0615e22a","minLiquidityAdd()":"f5b9f416","minMarketSeed()":"572ddbcb","minTimelockDelay()":"028390bd","opNonce()":"969ea86b","ops(bytes32)":"692a34f4","removeLiquidity(uint256,uint256)":"9d7de6b3","treasury()":"61d027b3","usdc()":"3e413bee"},"id":77}