{"abi":[{"type":"function","name":"BPS","inputs":[],"outputs":[{"name":"","type":"uint256","internalType":"uint256"}],"stateMutability":"view"},{"type":"function","name":"MARKET_CREATOR_ROLE","inputs":[],"outputs":[{"name":"","type":"bytes32","internalType":"bytes32"}],"stateMutability":"view"},{"type":"function","name":"MIN_TIMELOCK_DELAY","inputs":[],"outputs":[{"name":"","type":"uint256","internalType":"uint256"}],"stateMutability":"view"},{"type":"function","name":"OP_PAUSE","inputs":[],"outputs":[{"name":"","type":"bytes32","internalType":"bytes32"}],"stateMutability":"view"},{"type":"function","name":"OP_SET_FACET","inputs":[],"outputs":[{"name":"","type":"bytes32","internalType":"bytes32"}],"stateMutability":"view"},{"type":"function","name":"OP_SET_RESOLVER","inputs":[],"outputs":[{"name":"","type":"bytes32","internalType":"bytes32"}],"stateMutability":"view"},{"type":"function","name":"OP_SET_TREASURY","inputs":[],"outputs":[{"name":"","type":"bytes32","internalType":"bytes32"}],"stateMutability":"view"},{"type":"function","name":"OP_UNPAUSE","inputs":[],"outputs":[{"name":"","type":"bytes32","internalType":"bytes32"}],"stateMutability":"view"},{"type":"function","name":"USDC_TO_E18","inputs":[],"outputs":[{"name":"","type":"uint256","internalType":"uint256"}],"stateMutability":"view"},{"type":"function","name":"accFeePerUSDCE18","inputs":[{"name":"","type":"uint256","internalType":"uint256"}],"outputs":[{"name":"","type":"uint256","internalType":"uint256"}],"stateMutability":"view"},{"type":"function","name":"accResidualPerUSDCE18","inputs":[{"name":"","type":"uint256","internalType":"uint256"}],"outputs":[{"name":"","type":"uint256","internalType":"uint256"}],"stateMutability":"view"},{"type":"function","name":"chainlinkResolver","inputs":[],"outputs":[{"name":"","type":"address","internalType":"address"}],"stateMutability":"view"},{"type":"function","name":"createMarket","inputs":[{"name":"question","type":"string","internalType":"string"},{"name":"yesName","type":"string","internalType":"string"},{"name":"yesSymbol","type":"string","internalType":"string"},{"name":"noName","type":"string","internalType":"string"},{"name":"noSymbol","type":"string","internalType":"string"},{"name":"initUsdc","type":"uint256","internalType":"uint256"},{"name":"expiryTimestamp","type":"uint256","internalType":"uint256"},{"name":"oracleFeed","type":"address","internalType":"address"},{"name":"priceFeedId","type":"bytes32","internalType":"bytes32"},{"name":"targetValue","type":"uint256","internalType":"uint256"},{"name":"comparison","type":"uint8","internalType":"enum CoreStorage.Comparison"}],"outputs":[{"name":"id","type":"uint256","internalType":"uint256"}],"stateMutability":"nonpayable"},{"type":"function","name":"defaultFeeLpBps","inputs":[],"outputs":[{"name":"","type":"uint16","internalType":"uint16"}],"stateMutability":"view"},{"type":"function","name":"defaultFeeTreasuryBps","inputs":[],"outputs":[{"name":"","type":"uint16","internalType":"uint16"}],"stateMutability":"view"},{"type":"function","name":"defaultFeeVaultBps","inputs":[],"outputs":[{"name":"","type":"uint16","internalType":"uint16"}],"stateMutability":"view"},{"type":"function","name":"dustSharesE18","inputs":[],"outputs":[{"name":"","type":"uint256","internalType":"uint256"}],"stateMutability":"view"},{"type":"function","name":"facetOf","inputs":[{"name":"","type":"bytes4","internalType":"bytes4"}],"outputs":[{"name":"","type":"address","internalType":"address"}],"stateMutability":"view"},{"type":"function","name":"getMarketResolution","inputs":[{"name":"id","type":"uint256","internalType":"uint256"}],"outputs":[{"name":"","type":"tuple","internalType":"struct CoreStorage.ResolutionConfig","components":[{"name":"expiryTimestamp","type":"uint256","internalType":"uint256"},{"name":"oracleType","type":"uint8","internalType":"enum CoreStorage.OracleType"},{"name":"oracleAddress","type":"address","internalType":"address"},{"name":"priceFeedId","type":"bytes32","internalType":"bytes32"},{"name":"targetValue","type":"uint256","internalType":"uint256"},{"name":"comparison","type":"uint8","internalType":"enum CoreStorage.Comparison"},{"name":"yesWins","type":"bool","internalType":"bool"},{"name":"isResolved","type":"bool","internalType":"bool"}]}],"stateMutability":"view"},{"type":"function","name":"getMarketState","inputs":[{"name":"id","type":"uint256","internalType":"uint256"}],"outputs":[{"name":"qYes","type":"uint256","internalType":"uint256"},{"name":"qNo","type":"uint256","internalType":"uint256"},{"name":"vault","type":"uint256","internalType":"uint256"},{"name":"bE18_","type":"uint256","internalType":"uint256"},{"name":"status","type":"uint8","internalType":"enum CoreStorage.MarketStatus"},{"name":"questionHash","type":"bytes32","internalType":"bytes32"}],"stateMutability":"view"},{"type":"function","name":"liquidityMultiplierE18","inputs":[],"outputs":[{"name":"","type":"uint256","internalType":"uint256"}],"stateMutability":"view"},{"type":"function","name":"lpFeeDebt","inputs":[{"name":"","type":"uint256","internalType":"uint256"},{"name":"","type":"address","internalType":"address"}],"outputs":[{"name":"","type":"uint256","internalType":"uint256"}],"stateMutability":"view"},{"type":"function","name":"lpResidualDebt","inputs":[{"name":"","type":"uint256","internalType":"uint256"},{"name":"","type":"address","internalType":"address"}],"outputs":[{"name":"","type":"uint256","internalType":"uint256"}],"stateMutability":"view"},{"type":"function","name":"lpShares","inputs":[{"name":"","type":"uint256","internalType":"uint256"},{"name":"","type":"address","internalType":"address"}],"outputs":[{"name":"","type":"uint256","internalType":"uint256"}],"stateMutability":"view"},{"type":"function","name":"marketCount","inputs":[],"outputs":[{"name":"","type":"uint256","internalType":"uint256"}],"stateMutability":"view"},{"type":"function","name":"markets","inputs":[{"name":"","type":"uint256","internalType":"uint256"}],"outputs":[{"name":"yes","type":"address","internalType":"contract PositionToken"},{"name":"no","type":"address","internalType":"contract PositionToken"},{"name":"qYes","type":"uint256","internalType":"uint256"},{"name":"qNo","type":"uint256","internalType":"uint256"},{"name":"bE18","type":"uint256","internalType":"uint256"},{"name":"usdcVault","type":"uint256","internalType":"uint256"},{"name":"feeTreasuryBps","type":"uint16","internalType":"uint16"},{"name":"feeLpBps","type":"uint16","internalType":"uint16"},{"name":"feeVaultBps","type":"uint16","internalType":"uint16"},{"name":"status","type":"uint8","internalType":"enum CoreStorage.MarketStatus"},{"name":"questionHash","type":"bytes32","internalType":"bytes32"},{"name":"creator","type":"address","internalType":"address"},{"name":"totalLpUsdc","type":"uint256","internalType":"uint256"},{"name":"lpFeesUSDC","type":"uint256","internalType":"uint256"},{"name":"residualUSDC","type":"uint256","internalType":"uint256"},{"name":"priceBandThresholdUSDC","type":"uint256","internalType":"uint256"},{"name":"maxJumpE18","type":"uint256","internalType":"uint256"},{"name":"resolution","type":"tuple","internalType":"struct CoreStorage.ResolutionConfig","components":[{"name":"expiryTimestamp","type":"uint256","internalType":"uint256"},{"name":"oracleType","type":"uint8","internalType":"enum CoreStorage.OracleType"},{"name":"oracleAddress","type":"address","internalType":"address"},{"name":"priceFeedId","type":"bytes32","internalType":"bytes32"},{"name":"targetValue","type":"uint256","internalType":"uint256"},{"name":"comparison","type":"uint8","internalType":"enum CoreStorage.Comparison"},{"name":"yesWins","type":"bool","internalType":"bool"},{"name":"isResolved","type":"bool","internalType":"bool"}]}],"stateMutability":"view"},{"type":"function","name":"maxInstantJumpE18","inputs":[],"outputs":[{"name":"","type":"uint256","internalType":"uint256"}],"stateMutability":"view"},{"type":"function","name":"maxUsdcPerTrade","inputs":[],"outputs":[{"name":"","type":"uint256","internalType":"uint256"}],"stateMutability":"view"},{"type":"function","name":"minLiquidityAdd","inputs":[],"outputs":[{"name":"","type":"uint256","internalType":"uint256"}],"stateMutability":"view"},{"type":"function","name":"minMarketSeed","inputs":[],"outputs":[{"name":"","type":"uint256","internalType":"uint256"}],"stateMutability":"view"},{"type":"function","name":"opNonce","inputs":[],"outputs":[{"name":"","type":"uint256","internalType":"uint256"}],"stateMutability":"view"},{"type":"function","name":"ops","inputs":[{"name":"","type":"bytes32","internalType":"bytes32"}],"outputs":[{"name":"tag","type":"bytes32","internalType":"bytes32"},{"name":"dataHash","type":"bytes32","internalType":"bytes32"},{"name":"readyAt","type":"uint256","internalType":"uint256"},{"name":"status","type":"uint8","internalType":"enum CoreStorage.OpStatus"}],"stateMutability":"view"},{"type":"function","name":"treasury","inputs":[],"outputs":[{"name":"","type":"address","internalType":"address"}],"stateMutability":"view"},{"type":"function","name":"usdc","inputs":[],"outputs":[{"name":"","type":"address","internalType":"address"}],"stateMutability":"view"},{"type":"event","name":"MarketCreated","inputs":[{"name":"id","type":"uint256","indexed":true,"internalType":"uint256"},{"name":"yes","type":"address","indexed":false,"internalType":"address"},{"name":"no","type":"address","indexed":false,"internalType":"address"},{"name":"questionHash","type":"bytes32","indexed":false,"internalType":"bytes32"},{"name":"question","type":"string","indexed":false,"internalType":"string"},{"name":"initUsdc","type":"uint256","indexed":false,"internalType":"uint256"},{"name":"expiryTimestamp","type":"uint256","indexed":false,"internalType":"uint256"}],"anonymous":false},{"type":"error","name":"InsufficientSeed","inputs":[]},{"type":"error","name":"InvalidExpiry","inputs":[]},{"type":"error","name":"InvalidMarket","inputs":[]},{"type":"error","name":"SafeERC20FailedOperation","inputs":[{"name":"token","type":"address","internalType":"address"}]}],"bytecode":{"object":"0x608080604052346100165761253c908161001b8239f35b5f80fdfe608080604052600436101562000013575f80fd5b5f3560e01c908163028aa4ee14620010c8575080630615e22a14620010a9578063169070eb146200108a578063232e45d71462000ffd578063249d39e91462000fdf5780632c7dc3191462000f995780632ed13b781462000f7a5780633e413bee1462000f5157806356c8d23d146200080a578063572ddbcb14620007eb57806361d027b314620007c15780636329a66a1462000785578063673517291462000760578063692a34f414620006f15780636aa083b914620006a95780636bcbb8a514620006615780636dba319c14620006255780637f8a3f8c14620005fb57806388b1f1c3146200055e578063919cab1f1462000538578063969ea86b14620005195780639da4f13d14620004ed578063aa93f46214620004cc578063ae42820c1462000490578063b1283e77146200035d578063c16de9c7146200033e578063d063c7241462000302578063d105e1c614620002e3578063e72012a714620002b7578063e998985e146200027b578063ec979082146200025c578063f5b9f416146200023d578063f5d7eeaf14620002015763ffe2a94514620001b5575f80fd5b34620001fd576040366003190112620001fd57620001d2620011fd565b6004355f52600f60205260405f209060018060a01b03165f52602052602060405f2054604051908152f35b5f80fd5b34620001fd575f366003190112620001fd5760206040517fea0a90cd6dac6e6bb5f9c85bc78075cbca424cf853bf131e30cae433318da0808152f35b34620001fd575f366003190112620001fd576020600554604051908152f35b34620001fd575f366003190112620001fd576020600c54604051908152f35b34620001fd575f366003190112620001fd5760206040517ffb7970db71b5d6f6b5d5355a31ca44c1e2ed199b82b881fca32583ec66a6b7748152f35b34620001fd576020366003190112620001fd576004355f526010602052602060405f2054604051908152f35b34620001fd575f366003190112620001fd576020600754604051908152f35b34620001fd575f366003190112620001fd5760206040517fa2d8aacac1aaa86712a1ceac3c4524e6ff8d62059ccd43ade1a60d5835f86bb68152f35b34620001fd575f366003190112620001fd576020600654604051908152f35b34620001fd576020366003190112620001fd576004355f52600b60205260405f20600160a01b60019003908181541690826001820154169260028201549060038301549060048401549060058501549060068601549060078701549060088801541691600988015493600a89015495600b8a015497600c8b015499600d8c01549b600e01620003ec9062001221565b9c6040519e8f91825260208201526040015260608d015260808c015260a08b015261ffff811660c08b01528060101c61ffff1660e08b01528060201c61ffff166101008b01528060301c60ff166200044490620010e8565b60301c60ff166101208a01526101408901526101608801526101808701526101a08601526101c08501526101e084015261020083015261022082016200048a91620010f3565b61032090f35b34620001fd575f366003190112620001fd5760206040517fd3065a24ad9e7725d223007135762d2902038999e3e5829146654498a58d97958152f35b34620001fd575f366003190112620001fd57602060405164e8d4a510008152f35b34620001fd576020366003190112620001fd576004355f52600e602052602060405f2054604051908152f35b34620001fd575f366003190112620001fd576020601354604051908152f35b34620001fd575f366003190112620001fd57602061ffff60095460101c16604051908152f35b34620001fd576020366003190112620001fd576004355f908152600b6020526040902080546001600160a01b031615620005e95780600260c0920154906003810154906005810154600482015490600760ff600685015460301c1693015493604051958652602086015260408501526060840152620005dd81620010e8565b608083015260a0820152f35b604051639db8d5b160e01b8152600490fd5b34620001fd575f366003190112620001fd576002546040516001600160a01b039091168152602090f35b34620001fd575f366003190112620001fd5760206040517f19aebff3bbcef323e5c760a3ed420922e4d158f9d2c6e69bda4f540960d86e978152f35b34620001fd576040366003190112620001fd576200067e620011fd565b6004355f52600d60205260405f209060018060a01b03165f52602052602060405f2054604051908152f35b34620001fd576040366003190112620001fd57620006c6620011fd565b6004355f52601160205260405f209060018060a01b03165f52602052602060405f2054604051908152f35b34620001fd576020366003190112620001fd576004355f52601460205260405f20805460018201549160ff6003600283015492015416926040519283526020830152604082015260048210156200074c576080916060820152f35b634e487b7160e01b5f52602160045260245ffd5b34620001fd575f366003190112620001fd57602060095461ffff60405191831c168152f35b34620001fd575f366003190112620001fd5760206040517f59d087672531b50700275907548a6c10240fc27658dfda79d5c528581d070b5e8152f35b34620001fd575f366003190112620001fd576001546040516001600160a01b039091168152602090f35b34620001fd575f366003190112620001fd576020600454604051908152f35b34620001fd57610160366003190112620001fd5760043567ffffffffffffffff8111620001fd5762000841903690600401620011a2565b60243567ffffffffffffffff8111620001fd5762000864903690600401620011a2565b9060443567ffffffffffffffff8111620001fd5762000888903690600401620011a2565b9060643567ffffffffffffffff8111620001fd57620008ac903690600401620011a2565b9060843567ffffffffffffffff8111620001fd57620008d0903690600401620011a2565b60e435949092906001600160a01b0386168603620001fd576003610144351015620001fd5760ff60095460301c16620001fd57604051632474521560e21b81527fd3065a24ad9e7725d223007135762d2902038999e3e5829146654498a58d97956004820152336024820152602081604481305afa90811562000ee1575f9162000f0f575b5015620001fd5760045460a4351062000efd574260c435111562000eec57600c54945f19861462000eab5760018601600c5560405191611219830183811067ffffffffffffffff82111762000e8e578392620009bc926112196200132386393092620012e4565b03905ff092831562000ee15760405191611219830183811067ffffffffffffffff82111762000e8e578392620009fd926112196200132386393092620012e4565b03905ff0801562000ee15760018060a01b035f54166040516323b872dd60e01b602082015233602482015230604482015260a4356064820152606481528060a081011067ffffffffffffffff60a08301111762000e8e575f8160a060209301604052828151910182855af11562000ee1575f513d62000ed75750803b155b62000ebf575060075460a4358082029391811591850414171562000eab5764e8d4a51000838181020481148415171562000eab576001600160a01b03871662000ea2575f905b82516020840120976009549062000aef6040519462000ae08662001161565b60c43586526020860162001214565b6001600160a01b0316604084015261010435606084015261012435608084015262000b1d61014435620010e8565b6101443560a08401525f60c08401525f60e0840152604051958661024081011067ffffffffffffffff6102408901111762000e8e5761ffff9267099e8db03256ce5d91610240890160405260018060a01b038a16895260018060a01b03881660208a01525f60408a01525f60608a01520204608087015260a43560a087015281811660c0870152818160101c1660e087015260201c166101008501525f610120850152866101408501523361016085015260a4356101808501525f6101a08501525f6101c08501526402540be4006101e08501525f610200850152610220840152600185015f52600b60205261022060405f209360018060a01b038151166001600160601b0360a01b8654161785556001850160018060a01b036020830151166001600160601b0360a01b82541617905560408101516002860155606081015160038601556080810151600486015560a081015160058601556006850161ffff60c08301511681549063ffff000060e085015160101b1665ffff0000000061010086015160201b169166ff00000000000061012087015162000cbf81620010e8565b62000cca81620010e8565b60301b169366ffffffffffffff191617171717905561014081015160078601556008850160018060a01b03610160830151166001600160601b0360a01b82541617905561018081015160098601556101a0810151600a8601556101c0810151600b8601556101e0810151600c860155610200810151600d8601550151958651600e850155600f84019260208801519760028910156200074c5760127f7a7ebf25d8d855bfc2d793c577aa2a224cf0fa46b2758be7143c529c789c82b5968660209b62000e69985460ff610100600160a81b03604088015160081b169216906affffffffffffffffffffff60a81b16171790556060830151601082015560808301516011820155019060a08101519062000de382620010e8565b62000dee82620010e8565b825460ff62ff000060e061ff0060c0860151151560081b16940151151560101b1693169062ffffff19161717179055600187015f52600d885260405f20335f52885260a43560405f20556040519560018060a01b0316865260018060a01b031687860152604085015260c0606085015260c0840190620012a4565b9160a435608082015260c43560a08201528060018501930390a2600160405191018152f35b634e487b7160e01b5f52604160045260245ffd5b60019062000ac1565b634e487b7160e01b5f52601160045260245ffd5b60249060405190635274afe760e01b82526004820152fd5b6001141562000a7b565b6040513d5f823e3d90fd5b60405162d36c8560e81b8152600490fd5b6040516301e53f4b60e11b8152600490fd5b90506020813d60201162000f48575b8162000f2d602093836200117f565b81010312620001fd57518015158103620001fd578762000955565b3d915062000f1e565b34620001fd575f366003190112620001fd575f546040516001600160a01b039091168152602090f35b34620001fd575f366003190112620001fd576020600854604051908152f35b34620001fd576020366003190112620001fd5760043563ffffffff60e01b8116809103620001fd575f526012602052602060018060a01b0360405f205416604051908152f35b34620001fd575f366003190112620001fd5760206040516127108152f35b34620001fd576020366003190112620001fd575f60e0604051620010218162001161565b8281528260208201528260408201528260608201528260808201528260a08201528260c082015201526004355f52600b60205260405f2060018060a01b0381541615620005e95762001079600e610100920162001221565b620010886040518092620010f3565bf35b34620001fd575f366003190112620001fd576020604051620151808152f35b34620001fd575f366003190112620001fd576020600354604051908152f35b34620001fd575f366003190112620001fd5760209061ffff600954168152f35b600311156200074c57565b80518252602081015160028110156200074c5760208301526040808201516001600160a01b031690830152606080820151908301526080808201519083015260a081015160e09182916200114781620010e8565b60a085015260c0810151151560c085015201511515910152565b610100810190811067ffffffffffffffff82111762000e8e57604052565b90601f8019910116810190811067ffffffffffffffff82111762000e8e57604052565b81601f82011215620001fd5780359067ffffffffffffffff821162000e8e5760405192620011db601f8401601f1916602001856200117f565b82845260208383010111620001fd57815f926020809301838601378301015290565b602435906001600160a01b0382168203620001fd57565b60028210156200074c5752565b90604051620012308162001161565b60e060ff60048395805485526001810154620012528482166020880162001214565b60081c6001600160a01b03166040860152600281015460608601526003810154608086015201548181166200128781620010e8565b60a0850152818160081c16151560c085015260101c161515910152565b91908251928382525f5b848110620012cf575050825f602080949584010152601f8019910116010190565b602081830181015184830182015201620012ae565b91620013129062001303604093969596606086526060860190620012a4565b908482036020860152620012a4565b6001600160a01b0390941691015256fe6080604052346200035c5762001219803803806200001d8162000360565b9283398101906060818303126200035c5780516001600160401b0391908281116200035c57836200005091830162000386565b602093848301518481116200035c576040916200006f91850162000386565b920151926001600160a01b038416928385036200035c57825182811162000265576003918254916001958684811c9416801562000351575b8a8510146200033d578190601f94858111620002ea575b508a9085831160011462000285575f9262000279575b50505f1982861b1c191690861b1783555b8051938411620002655760049788548681811c911680156200025a575b828210146200024757838111620001ff575b50809285116001146200019557509383949184925f9562000189575b50501b925f19911b1c19161783555b15620001795780620001556200016892620003f6565b50620001618162000466565b5062000507565b50604051610c369081620005a38239f35b5060405163d92e233d60e01b8152fd5b015193505f8062000130565b92919084601f1981168a5f52855f20955f905b89838310620001e45750505010620001ca575b50505050811b0183556200013f565b01519060f8845f19921b161c191690555f808080620001bb565b858701518955909701969485019488935090810190620001a8565b895f52815f208480880160051c8201928489106200023d575b0160051c019087905b8281106200023157505062000114565b5f815501879062000221565b9250819262000218565b60228a634e487b7160e01b5f525260245ffd5b90607f169062000102565b634e487b7160e01b5f52604160045260245ffd5b015190505f80620000d4565b5f8781528c81208a9550929190601f198516908e5b828210620002d25750508411620002ba575b505050811b018355620000e5565b01515f1983881b60f8161c191690555f8080620002ac565b8385015186558c979095019493840193018e6200029a565b909150855f528a5f208580850160051c8201928d861062000333575b918a91869594930160051c01915b82811062000324575050620000be565b5f81558594508a910162000314565b9250819262000306565b634e487b7160e01b5f52602260045260245ffd5b93607f1693620000a7565b5f80fd5b6040519190601f01601f191682016001600160401b038111838210176200026557604052565b919080601f840112156200035c5782516001600160401b0381116200026557602090620003bc601f8201601f1916830162000360565b928184528282870101116200035c575f5b818110620003e25750825f9394955001015290565b8581018301518482018401528201620003cd565b6001600160a01b03165f8181525f80516020620011f9833981519152602052604090205460ff1662000461575f8181525f80516020620011f983398151915260205260408120805460ff191660011790553391905f80516020620011d98339815191528180a4600190565b505f90565b6001600160a01b03165f8181527f15a28d26fa1bf736cf7edc9922607171ccb09c3c73b808e7772a3013e068a52260205260409020547f9f2df0fed2c77648de5860a4cc508cd0818c85b8b8a1ab4ceeef8d981c8956a6919060ff166200050157815f52600560205260405f20815f5260205260405f20600160ff1982541617905533915f80516020620011d98339815191525f80a4600190565b50505f90565b6001600160a01b03165f8181527f847f481f687befb06ed3511f1a8dcef57e83007c0147ae5047583d705617093760205260409020547f3c11d16cbaffd01df69ce1c404f6340ee057498f5f00246190ea54220576a848919060ff166200050157815f52600560205260405f20815f5260205260405f20600160ff1982541617905533915f80516020620011d98339815191525f80a460019056fe6080604090808252600480361015610015575f80fd5b5f3560e01c91826301ffc9a7146109655750816306fdde031461088a578163095ea7b3146107e257816318160ddd146107c457816323b872dd146106d2578163248a9ca3146106a8578163282c51f31461066e5781632f2ff15d14610646578163313ce5671461062b57816336568abe146105e757816340c10f19146104d857816370a08231146104a257816391d148541461045e57816395d89b411461033f5781639dc29fac14610208578163a217fddf146101ee578163a9059cbb146101be578163d539139314610184578163d547741f14610148575063dd62ed3e146100fc575f80fd5b346101445780600319360112610144576020906101176109fe565b61011f610a14565b9060018060a01b038091165f5260018452825f2091165f528252805f20549051908152f35b5f80fd5b8234610144578060031936011261014457610182913561017d600161016b610a14565b93835f5260056020525f200154610b04565b610bc2565b005b8234610144575f36600319011261014457602090517f9f2df0fed2c77648de5860a4cc508cd0818c85b8b8a1ab4ceeef8d981c8956a68152f35b82346101445780600319360112610144576020906101e76101dd6109fe565b6024359033610a2a565b5160018152f35b8234610144575f36600319011261014457602090515f8152f35b82346101445780600319360112610144576102216109fe565b90602435927f3c11d16cbaffd01df69ce1c404f6340ee057498f5f00246190ea54220576a848805f526005602052825f20335f5260205260ff835f2054161561032457506001600160a01b03831692831561031557841561030657835f525f602052825f2054918583106102d2575f857fddf252ad1be2c89b69c2b068fc378daa952ba7f163c4a11628f55a4df523b3ef6020898881898688528785520381872055816002540360025551908152a3005b835163391434e360e21b81526001600160a01b03909216908201908152602081018390526040810186905281906060010390fd5b50905163749b593960e01b8152fd5b50905163d92e233d60e01b8152fd5b604492519163e2517d3f60e01b835233908301526024820152fd5b8234610144575f366003190112610144578051905f835460018160011c9060018316928315610454575b60209384841081146104415783885290811561042557506001146103d1575b505050829003601f01601f191682019267ffffffffffffffff8411838510176103be57508291826103ba9252826109b7565b0390f35b604190634e487b7160e01b5f525260245ffd5b5f878152929350837f8a35acfbc15ff81a39ae7d344fd709f28e8600b4aa8c65c6b64bfe7fe36bd19b5b8385106104115750505050830101848080610388565b8054888601830152930192849082016103fb565b60ff1916878501525050151560051b8401019050848080610388565b602289634e487b7160e01b5f525260245ffd5b91607f1691610369565b823461014457806003193601126101445760209161047a610a14565b90355f5260058352815f209060018060a01b03165f52825260ff815f20541690519015158152f35b8234610144576020366003190112610144576020906001600160a01b036104c76109fe565b165f525f8252805f20549051908152f35b82346101445780600319360112610144576104f16109fe565b90602435917f9f2df0fed2c77648de5860a4cc508cd0818c85b8b8a1ab4ceeef8d981c8956a6805f526005602052825f20335f5260205260ff835f205416156105c957506001600160a01b03169283156105bb5782156105ad576002549083820180921161059a57505f927fddf252ad1be2c89b69c2b068fc378daa952ba7f163c4a11628f55a4df523b3ef9260209260025585855284835280852082815401905551908152a3005b601190634e487b7160e01b5f525260245ffd5b905163749b593960e01b8152fd5b905163d92e233d60e01b8152fd5b825163e2517d3f60e01b815233818701526024810191909152604490fd5b8234610144578060031936011261014457610600610a14565b90336001600160a01b0383160361061c57506101829135610bc2565b5163334bd91960e11b81529050fd5b8234610144575f366003190112610144576020905160128152f35b82346101445780600319360112610144576101829135610669600161016b610a14565b610b44565b8234610144575f36600319011261014457602090517f3c11d16cbaffd01df69ce1c404f6340ee057498f5f00246190ea54220576a8488152f35b823461014457602036600319011261014457602091355f52600582526001815f2001549051908152f35b905034610144576060366003190112610144576106ed6109fe565b6106f5610a14565b906044359260018060a01b038216805f526001602052855f20335f52602052855f2054915f198310610730575b6020876101e7888888610a2a565b85831061079857811561078257331561076c57505f908152600160209081528682203383528152908690209185900390915582906101e7610722565b6024905f885191634a1406b160e11b8352820152fd5b6024905f88519163e602df0560e01b8352820152fd5b8651637dc7a0d960e11b8152339181019182526020820193909352604081018690528291506060010390fd5b8234610144575f366003190112610144576020906002549051908152f35b82346101445780600319360112610144576107fb6109fe565b602435903315610874576001600160a01b031690811561085e5760209350335f5260018452825f20825f52845280835f205582519081527f8c5be1e5ebec7d5bd14f71427d1e84f3dd0314c0f7b2291e5b200ac8c7c3b925843392a35160018152f35b8251634a1406b160e11b81525f81860152602490fd5b825163e602df0560e01b81525f81860152602490fd5b8234610144575f366003190112610144578051905f60035460018160011c906001831692831561095b575b602093848410811461044157838852908115610425575060011461090557505050829003601f01601f191682019267ffffffffffffffff8411838510176103be57508291826103ba9252826109b7565b60035f908152929350837fc2575a0e9e593c00f959f8c92f12db2869c3395a3b0502d05e2516446f71f85b5b8385106109475750505050830101848080610388565b805488860183015293019284908201610931565b91607f16916108b5565b903461014457602036600319011261014457359063ffffffff60e01b821680920361014457602091637965db0b60e01b81149081156109a6575b5015158152f35b6301ffc9a760e01b1490508361099f565b602080825282518183018190529093925f5b8281106109ea57505060409293505f838284010152601f8019910116010190565b8181018601518482016040015285016109c9565b600435906001600160a01b038216820361014457565b602435906001600160a01b038216820361014457565b916001600160a01b03808416928315610aec5716928315610ad457825f525f60205260405f205490828210610aa25750817fddf252ad1be2c89b69c2b068fc378daa952ba7f163c4a11628f55a4df523b3ef92602092855f525f84520360405f2055845f5260405f20818154019055604051908152a3565b60405163391434e360e21b81526001600160a01b03919091166004820152602481019190915260448101829052606490fd5b60405163ec442f0560e01b81525f6004820152602490fd5b604051634b637e8f60e11b81525f6004820152602490fd5b805f52600560205260405f20335f5260205260ff60405f20541615610b265750565b6044906040519063e2517d3f60e01b82523360048301526024820152fd5b90815f52600560205260405f209060018060a01b031690815f5260205260ff60405f205416155f14610bbc57815f52600560205260405f20815f5260205260405f20600160ff1982541617905533917f2f8788117e7eff1d82e926ec794901d17c78024a50270940304540a733656f0d5f80a4600190565b50505f90565b90815f52600560205260405f209060018060a01b031690815f5260205260ff60405f2054165f14610bbc57815f52600560205260405f20815f5260205260405f2060ff19815416905533917ff6391f5c32d9c69d2a47ea670b442974b53935d1edc7fd64eb21e047a839171b5f80a4600190562f8788117e7eff1d82e926ec794901d17c78024a50270940304540a733656f0d05b8ccbb9d4d8fb16ea74ce3c29a41f1b461fbdaff4714a0d9a8eb05499746bc","linkReferences":{}},"methodIdentifiers":{"BPS()":"249d39e9","MARKET_CREATOR_ROLE()":"ae42820c","MIN_TIMELOCK_DELAY()":"169070eb","OP_PAUSE()":"6329a66a","OP_SET_FACET()":"e998985e","OP_SET_RESOLVER()":"d063c724","OP_SET_TREASURY()":"f5d7eeaf","OP_UNPAUSE()":"6dba319c","USDC_TO_E18()":"aa93f462","accFeePerUSDCE18(uint256)":"9da4f13d","accResidualPerUSDCE18(uint256)":"e72012a7","chainlinkResolver()":"7f8a3f8c","createMarket(string,string,string,string,string,uint256,uint256,address,bytes32,uint256,uint8)":"56c8d23d","defaultFeeLpBps()":"919cab1f","defaultFeeTreasuryBps()":"028aa4ee","defaultFeeVaultBps()":"67351729","dustSharesE18()":"c16de9c7","facetOf(bytes4)":"2c7dc319","getMarketResolution(uint256)":"232e45d7","getMarketState(uint256)":"88b1f1c3","liquidityMultiplierE18()":"d105e1c6","lpFeeDebt(uint256,address)":"ffe2a945","lpResidualDebt(uint256,address)":"6aa083b9","lpShares(uint256,address)":"6bcbb8a5","marketCount()":"ec979082","markets(uint256)":"b1283e77","maxInstantJumpE18()":"2ed13b78","maxUsdcPerTrade()":"0615e22a","minLiquidityAdd()":"f5b9f416","minMarketSeed()":"572ddbcb","opNonce()":"969ea86b","ops(bytes32)":"692a34f4","treasury()":"61d027b3","usdc()":"3e413bee"},"id":74}