{"abi":[{"type":"function","name":"BPS","inputs":[],"outputs":[{"name":"","type":"uint256","internalType":"uint256"}],"stateMutability":"view"},{"type":"function","name":"MARKET_CREATOR_ROLE","inputs":[],"outputs":[{"name":"","type":"bytes32","internalType":"bytes32"}],"stateMutability":"view"},{"type":"function","name":"MAX_MARKET_DURATION","inputs":[],"outputs":[{"name":"","type":"uint256","internalType":"uint256"}],"stateMutability":"view"},{"type":"function","name":"MAX_ORACLE_AGE","inputs":[],"outputs":[{"name":"","type":"uint256","internalType":"uint256"}],"stateMutability":"view"},{"type":"function","name":"MAX_SHARES","inputs":[],"outputs":[{"name":"","type":"uint256","internalType":"uint256"}],"stateMutability":"view"},{"type":"function","name":"MIN_LP_USDC","inputs":[],"outputs":[{"name":"","type":"uint256","internalType":"uint256"}],"stateMutability":"view"},{"type":"function","name":"OP_CANCEL_MARKET","inputs":[],"outputs":[{"name":"","type":"bytes32","internalType":"bytes32"}],"stateMutability":"view"},{"type":"function","name":"OP_EXPIRY_WINDOW","inputs":[],"outputs":[{"name":"","type":"uint256","internalType":"uint256"}],"stateMutability":"view"},{"type":"function","name":"OP_PAUSE","inputs":[],"outputs":[{"name":"","type":"bytes32","internalType":"bytes32"}],"stateMutability":"view"},{"type":"function","name":"OP_RECOVER_ETH","inputs":[],"outputs":[{"name":"","type":"bytes32","internalType":"bytes32"}],"stateMutability":"view"},{"type":"function","name":"OP_REMOVE_FACET","inputs":[],"outputs":[{"name":"","type":"bytes32","internalType":"bytes32"}],"stateMutability":"view"},{"type":"function","name":"OP_SET_FACET","inputs":[],"outputs":[{"name":"","type":"bytes32","internalType":"bytes32"}],"stateMutability":"view"},{"type":"function","name":"OP_SET_RESOLVER","inputs":[],"outputs":[{"name":"","type":"bytes32","internalType":"bytes32"}],"stateMutability":"view"},{"type":"function","name":"OP_SET_TREASURY","inputs":[],"outputs":[{"name":"","type":"bytes32","internalType":"bytes32"}],"stateMutability":"view"},{"type":"function","name":"OP_UNPAUSE","inputs":[],"outputs":[{"name":"","type":"bytes32","internalType":"bytes32"}],"stateMutability":"view"},{"type":"function","name":"STORAGE_VERSION","inputs":[],"outputs":[{"name":"","type":"uint256","internalType":"uint256"}],"stateMutability":"view"},{"type":"function","name":"USDC_TO_E18","inputs":[],"outputs":[{"name":"","type":"uint256","internalType":"uint256"}],"stateMutability":"view"},{"type":"function","name":"accFeePerUSDCE18","inputs":[{"name":"","type":"uint256","internalType":"uint256"}],"outputs":[{"name":"","type":"uint256","internalType":"uint256"}],"stateMutability":"view"},{"type":"function","name":"accResidualPerUSDCE18","inputs":[{"name":"","type":"uint256","internalType":"uint256"}],"outputs":[{"name":"","type":"uint256","internalType":"uint256"}],"stateMutability":"view"},{"type":"function","name":"chainlinkResolver","inputs":[],"outputs":[{"name":"","type":"address","internalType":"address"}],"stateMutability":"view"},{"type":"function","name":"createMarket","inputs":[{"name":"question","type":"string","internalType":"string"},{"name":"yesName","type":"string","internalType":"string"},{"name":"yesSymbol","type":"string","internalType":"string"},{"name":"noName","type":"string","internalType":"string"},{"name":"noSymbol","type":"string","internalType":"string"},{"name":"initUsdc","type":"uint256","internalType":"uint256"},{"name":"expiryTimestamp","type":"uint256","internalType":"uint256"},{"name":"oracleFeed","type":"address","internalType":"address"},{"name":"priceFeedId","type":"bytes32","internalType":"bytes32"},{"name":"targetValue","type":"uint256","internalType":"uint256"},{"name":"comparison","type":"uint8","internalType":"enum CoreStorage.Comparison"}],"outputs":[{"name":"id","type":"uint256","internalType":"uint256"}],"stateMutability":"nonpayable"},{"type":"function","name":"defaultFeeLpBps","inputs":[],"outputs":[{"name":"","type":"uint16","internalType":"uint16"}],"stateMutability":"view"},{"type":"function","name":"defaultFeeTreasuryBps","inputs":[],"outputs":[{"name":"","type":"uint16","internalType":"uint16"}],"stateMutability":"view"},{"type":"function","name":"defaultFeeVaultBps","inputs":[],"outputs":[{"name":"","type":"uint16","internalType":"uint16"}],"stateMutability":"view"},{"type":"function","name":"dustSharesE18","inputs":[],"outputs":[{"name":"","type":"uint256","internalType":"uint256"}],"stateMutability":"view"},{"type":"function","name":"facetOf","inputs":[{"name":"","type":"bytes4","internalType":"bytes4"}],"outputs":[{"name":"","type":"address","internalType":"address"}],"stateMutability":"view"},{"type":"function","name":"getMarketInvariants","inputs":[{"name":"id","type":"uint256","internalType":"uint256"}],"outputs":[{"name":"cirYes","type":"uint256","internalType":"uint256"},{"name":"cirNo","type":"uint256","internalType":"uint256"},{"name":"liabilityUSDC","type":"uint256","internalType":"uint256"},{"name":"vaultUSDC","type":"uint256","internalType":"uint256"},{"name":"bE18_","type":"uint256","internalType":"uint256"}],"stateMutability":"view"},{"type":"function","name":"getMarketQuestion","inputs":[{"name":"id","type":"uint256","internalType":"uint256"}],"outputs":[{"name":"","type":"string","internalType":"string"}],"stateMutability":"view"},{"type":"function","name":"getMarketResolution","inputs":[{"name":"id","type":"uint256","internalType":"uint256"}],"outputs":[{"name":"","type":"tuple","internalType":"struct CoreStorage.ResolutionConfig","components":[{"name":"expiryTimestamp","type":"uint256","internalType":"uint256"},{"name":"oracleType","type":"uint8","internalType":"enum CoreStorage.OracleType"},{"name":"oracleAddress","type":"address","internalType":"address"},{"name":"priceFeedId","type":"bytes32","internalType":"bytes32"},{"name":"targetValue","type":"uint256","internalType":"uint256"},{"name":"comparison","type":"uint8","internalType":"enum CoreStorage.Comparison"},{"name":"yesWins","type":"bool","internalType":"bool"},{"name":"isResolved","type":"bool","internalType":"bool"},{"name":"oracleDecimals","type":"uint8","internalType":"uint8"}]}],"stateMutability":"view"},{"type":"function","name":"getMarketState","inputs":[{"name":"id","type":"uint256","internalType":"uint256"}],"outputs":[{"name":"qYes","type":"uint256","internalType":"uint256"},{"name":"qNo","type":"uint256","internalType":"uint256"},{"name":"vault","type":"uint256","internalType":"uint256"},{"name":"bE18_","type":"uint256","internalType":"uint256"},{"name":"status","type":"uint8","internalType":"enum CoreStorage.MarketStatus"},{"name":"questionHash","type":"bytes32","internalType":"bytes32"}],"stateMutability":"view"},{"type":"function","name":"liquidityMultiplierE18","inputs":[],"outputs":[{"name":"","type":"uint256","internalType":"uint256"}],"stateMutability":"view"},{"type":"function","name":"lpFeeDebt","inputs":[{"name":"","type":"uint256","internalType":"uint256"},{"name":"","type":"address","internalType":"address"}],"outputs":[{"name":"","type":"uint256","internalType":"uint256"}],"stateMutability":"view"},{"type":"function","name":"lpFeeDustUSDC","inputs":[{"name":"","type":"uint256","internalType":"uint256"}],"outputs":[{"name":"","type":"uint256","internalType":"uint256"}],"stateMutability":"view"},{"type":"function","name":"lpResidualDebt","inputs":[{"name":"","type":"uint256","internalType":"uint256"},{"name":"","type":"address","internalType":"address"}],"outputs":[{"name":"","type":"uint256","internalType":"uint256"}],"stateMutability":"view"},{"type":"function","name":"lpResidualDustUSDC","inputs":[{"name":"","type":"uint256","internalType":"uint256"}],"outputs":[{"name":"","type":"uint256","internalType":"uint256"}],"stateMutability":"view"},{"type":"function","name":"lpShares","inputs":[{"name":"","type":"uint256","internalType":"uint256"},{"name":"","type":"address","internalType":"address"}],"outputs":[{"name":"","type":"uint256","internalType":"uint256"}],"stateMutability":"view"},{"type":"function","name":"marketCount","inputs":[],"outputs":[{"name":"","type":"uint256","internalType":"uint256"}],"stateMutability":"view"},{"type":"function","name":"markets","inputs":[{"name":"","type":"uint256","internalType":"uint256"}],"outputs":[{"name":"yes","type":"address","internalType":"contract PositionToken"},{"name":"no","type":"address","internalType":"contract PositionToken"},{"name":"qYes","type":"uint256","internalType":"uint256"},{"name":"qNo","type":"uint256","internalType":"uint256"},{"name":"bE18","type":"uint256","internalType":"uint256"},{"name":"usdcVault","type":"uint256","internalType":"uint256"},{"name":"feeTreasuryBps","type":"uint16","internalType":"uint16"},{"name":"feeLpBps","type":"uint16","internalType":"uint16"},{"name":"feeVaultBps","type":"uint16","internalType":"uint16"},{"name":"status","type":"uint8","internalType":"enum CoreStorage.MarketStatus"},{"name":"questionHash","type":"bytes32","internalType":"bytes32"},{"name":"question","type":"string","internalType":"string"},{"name":"creator","type":"address","internalType":"address"},{"name":"totalLpUsdc","type":"uint256","internalType":"uint256"},{"name":"lpFeesUSDC","type":"uint256","internalType":"uint256"},{"name":"residualUSDC","type":"uint256","internalType":"uint256"},{"name":"priceBandThresholdUSDC","type":"uint256","internalType":"uint256"},{"name":"maxJumpE18","type":"uint256","internalType":"uint256"},{"name":"resolution","type":"tuple","internalType":"struct CoreStorage.ResolutionConfig","components":[{"name":"expiryTimestamp","type":"uint256","internalType":"uint256"},{"name":"oracleType","type":"uint8","internalType":"enum CoreStorage.OracleType"},{"name":"oracleAddress","type":"address","internalType":"address"},{"name":"priceFeedId","type":"bytes32","internalType":"bytes32"},{"name":"targetValue","type":"uint256","internalType":"uint256"},{"name":"comparison","type":"uint8","internalType":"enum CoreStorage.Comparison"},{"name":"yesWins","type":"bool","internalType":"bool"},{"name":"isResolved","type":"bool","internalType":"bool"},{"name":"oracleDecimals","type":"uint8","internalType":"uint8"}]}],"stateMutability":"view"},{"type":"function","name":"maxInstantJumpE18","inputs":[],"outputs":[{"name":"","type":"uint256","internalType":"uint256"}],"stateMutability":"view"},{"type":"function","name":"maxUsdcPerTrade","inputs":[],"outputs":[{"name":"","type":"uint256","internalType":"uint256"}],"stateMutability":"view"},{"type":"function","name":"minLiquidityAdd","inputs":[],"outputs":[{"name":"","type":"uint256","internalType":"uint256"}],"stateMutability":"view"},{"type":"function","name":"minMarketSeed","inputs":[],"outputs":[{"name":"","type":"uint256","internalType":"uint256"}],"stateMutability":"view"},{"type":"function","name":"minTimelockDelay","inputs":[],"outputs":[{"name":"","type":"uint256","internalType":"uint256"}],"stateMutability":"view"},{"type":"function","name":"opNonce","inputs":[],"outputs":[{"name":"","type":"uint256","internalType":"uint256"}],"stateMutability":"view"},{"type":"function","name":"ops","inputs":[{"name":"","type":"bytes32","internalType":"bytes32"}],"outputs":[{"name":"tag","type":"bytes32","internalType":"bytes32"},{"name":"dataHash","type":"bytes32","internalType":"bytes32"},{"name":"readyAt","type":"uint256","internalType":"uint256"},{"name":"status","type":"uint8","internalType":"enum CoreStorage.OpStatus"}],"stateMutability":"view"},{"type":"function","name":"treasury","inputs":[],"outputs":[{"name":"","type":"address","internalType":"address"}],"stateMutability":"view"},{"type":"function","name":"usdc","inputs":[],"outputs":[{"name":"","type":"address","internalType":"address"}],"stateMutability":"view"},{"type":"event","name":"MarketCreated","inputs":[{"name":"id","type":"uint256","indexed":true,"internalType":"uint256"},{"name":"yes","type":"address","indexed":false,"internalType":"address"},{"name":"no","type":"address","indexed":false,"internalType":"address"},{"name":"questionHash","type":"bytes32","indexed":false,"internalType":"bytes32"},{"name":"question","type":"string","indexed":false,"internalType":"string"},{"name":"initUsdc","type":"uint256","indexed":false,"internalType":"uint256"},{"name":"expiryTimestamp","type":"uint256","indexed":false,"internalType":"uint256"}],"anonymous":false},{"type":"event","name":"OperationCancelled","inputs":[{"name":"opId","type":"bytes32","indexed":true,"internalType":"bytes32"}],"anonymous":false},{"type":"event","name":"OperationExecuted","inputs":[{"name":"opId","type":"bytes32","indexed":true,"internalType":"bytes32"}],"anonymous":false},{"type":"event","name":"OperationScheduled","inputs":[{"name":"opId","type":"bytes32","indexed":true,"internalType":"bytes32"},{"name":"tag","type":"bytes32","indexed":true,"internalType":"bytes32"},{"name":"readyAt","type":"uint256","indexed":false,"internalType":"uint256"}],"anonymous":false},{"type":"error","name":"DataMismatch","inputs":[]},{"type":"error","name":"InsufficientSeed","inputs":[]},{"type":"error","name":"InvalidExpiry","inputs":[]},{"type":"error","name":"InvalidMarket","inputs":[]},{"type":"error","name":"InvalidOracle","inputs":[]},{"type":"error","name":"InvalidOracleFeed","inputs":[]},{"type":"error","name":"NotAuthorized","inputs":[]},{"type":"error","name":"OpExpired","inputs":[]},{"type":"error","name":"OpInvalid","inputs":[]},{"type":"error","name":"OpNotReady","inputs":[{"name":"readyAt","type":"uint256","internalType":"uint256"}]},{"type":"error","name":"SafeERC20FailedOperation","inputs":[{"name":"token","type":"address","internalType":"address"}]},{"type":"error","name":"TagMismatch","inputs":[]},{"type":"error","name":"TargetOutOfRange","inputs":[{"name":"targetValue","type":"uint256","internalType":"uint256"},{"name":"priceNow","type":"uint256","internalType":"uint256"},{"name":"oracleDecimals","type":"uint8","internalType":"uint8"}]},{"type":"error","name":"UnsupportedFeedDecimals","inputs":[]}],"bytecode":{"object":"0x6080806040523461001657612fcc908161001b8239f35b5f80fdfe60a080604052600436101562000013575f80fd5b5f3560e01c908163028390bd1462001a1a57508063028aa4ee14620019f7578063032a57d214620019d85780630615e22a14620019b9578063232e45d71462001925578063249d39e9146200190757806327b6eeba14620018cb578063294d54c1146200173a5780632c7dc31914620016f45780632ed13b7814620016d55780632f922f2f14620016a95780633e413bee14620016805780633e8ff57b146200164b5780633fb5f6e8146200161f5780634397c4ce14620015c057806343a630f514620015a15780634d643128146200158357806356c8d23d14620009af578063572ddbcb146200099057806361d027b314620009665780636329a66a146200092a578063673517291462000905578063692a34f414620008965780636aa083b9146200084e5780636bcbb8a514620008065780636dba319c14620007ca5780637b8c5ba6146200078e5780637e50898e146200076e5780637f8a3f8c146200074457806388b1f1c314620006a7578063919cab1f1462000681578063969ea86b14620006625780639da4f13d14620006365780639ef2b3811462000619578063aa93f46214620005f8578063ae42820c14620005bc578063b1283e771462000435578063c16de9c71462000416578063d063c72414620003da578063d105e1c614620003bb578063e72012a7146200038f578063e998985e1462000353578063ec9790821462000334578063f5b9f4161462000315578063f5d7eeaf14620002d9578063f7050eae146200029d5763ffe2a9451462000251575f80fd5b346200029957604036600319011262000299576200026e62001b95565b6004355f52600f60205260405f209060018060a01b03165f52602052602060405f2054604051908152f35b5f80fd5b3462000299575f366003190112620002995760206040517f45487ebba72ead203c633e826e1c055a8a179c4ce023c1650f84a2b55ff3cec18152f35b3462000299575f366003190112620002995760206040517fea0a90cd6dac6e6bb5f9c85bc78075cbca424cf853bf131e30cae433318da0808152f35b3462000299575f36600319011262000299576020600554604051908152f35b3462000299575f36600319011262000299576020600c54604051908152f35b3462000299575f366003190112620002995760206040517ffb7970db71b5d6f6b5d5355a31ca44c1e2ed199b82b881fca32583ec66a6b7748152f35b346200029957602036600319011262000299576004355f526010602052602060405f2054604051908152f35b3462000299575f36600319011262000299576020600754604051908152f35b3462000299575f366003190112620002995760206040517fa2d8aacac1aaa86712a1ceac3c4524e6ff8d62059ccd43ade1a60d5835f86bb68152f35b3462000299575f36600319011262000299576020600654604051908152f35b346200029957602036600319011262000299576004355f52600b60205260405f20600160a01b60019003808254169181600182015416916002820154906003830154906004840154906005850154906006860154976007870154600888016200049e9062001be7565b9260098901541699600a89015494600b8a015496600c8b015498600d8c01549a600e8d01549c600f01620004d29062001c95565b9d60405160805261036097608051526080516020015260805160400152608051606001526080516080015260805160a0015261ffff811660805160c001528060101c61ffff1660805160e001528060201c61ffff1660805161010001528060301c60ff16620005419062001a36565b60301c60ff1660805161012001526080516101400152806080516101600152608051016200056f9162001abc565b9660805161018001526080516101a001526080516101c001526080516101e001526080516102000152608051610220015260805161024001620005b29162001a41565b6080519003608051f35b3462000299575f366003190112620002995760206040517fd3065a24ad9e7725d223007135762d2902038999e3e5829146654498a58d97958152f35b3462000299575f3660031901126200029957602060405164e8d4a510008152f35b3462000299575f3660031901126200029957602060405160018152f35b346200029957602036600319011262000299576004355f52600e602052602060405f2054604051908152f35b3462000299575f36600319011262000299576020601454604051908152f35b3462000299575f3660031901126200029957602061ffff60095460101c16604051908152f35b346200029957602036600319011262000299576004355f908152600b6020526040902080546001600160a01b031615620007325780600260c0920154906003810154906005810154600482015490600760ff600685015460301c1693015493604051958652602086015260408501526060840152620007268162001a36565b608083015260a0820152f35b604051639db8d5b160e01b8152600490fd5b3462000299575f36600319011262000299576002546040516001600160a01b039091168152602090f35b3462000299575f366003190112620002995760206040516301e133808152f35b3462000299575f366003190112620002995760206040517fe5589cf51350e9a9b2df9829966e04dcf57f8fa87b52d7945643ac0eaff69e648152f35b3462000299575f366003190112620002995760206040517f19aebff3bbcef323e5c760a3ed420922e4d158f9d2c6e69bda4f540960d86e978152f35b346200029957604036600319011262000299576200082362001b95565b6004355f52600d60205260405f209060018060a01b03165f52602052602060405f2054604051908152f35b346200029957604036600319011262000299576200086b62001b95565b6004355f52601160205260405f209060018060a01b03165f52602052602060405f2054604051908152f35b346200029957602036600319011262000299576004355f52601560205260405f20805460018201549160ff600360028301549201541692604051928352602083015260408201526004821015620008f1576080916060820152f35b634e487b7160e01b5f52602160045260245ffd5b3462000299575f3660031901126200029957602060095461ffff60405191831c168152f35b3462000299575f366003190112620002995760206040517f59d087672531b50700275907548a6c10240fc27658dfda79d5c528581d070b5e8152f35b3462000299575f36600319011262000299576001546040516001600160a01b039091168152602090f35b3462000299575f36600319011262000299576020600454604051908152f35b34620002995761016036600319011262000299576004356001600160401b0381116200029957620009e590369060040162001b3b565b6024356001600160401b038111620002995762000a0790369060040162001b3b565b906044356001600160401b038111620002995762000a2a90369060040162001b3b565b906064356001600160401b038111620002995762000a4d90369060040162001b3b565b906084356001600160401b038111620002995762000a7090369060040162001b3b565b60e435949092906001600160a01b038616860362000299576003610144351015620002995760ff60095460301c166200029957604051632474521560e21b81527fd3065a24ad9e7725d223007135762d2902038999e3e5829146654498a58d97956004820152336024820152602081604481305afa9081156200144d575f9162001541575b501562000299578251801590811562001534575b5062000732578051801590811562001528575b506200073257815180159081156200151c575b5062000732578451801590811562001510575b5062000732578351801590811562001504575b50620007325760045460a43510620014f2574260c4351115620014e1576301e133804201804211620013285760c43511620014e1576001600160a01b03861615620014cf57600c54945f198614620013285760018601600c556040519161121983018381106001600160401b03821117620012d257839262000be29261121962001db38639309262001d36565b03905ff09283156200144d576040519161121983018381106001600160401b03821117620012d257839262000c229261121962001db38639309262001d36565b03905ff09081156200144d5760018060a01b035f54166040516323b872dd60e01b602082015233602482015230604482015260a4356064820152606481528060a08101106001600160401b0360a083011117620012d2575f8160a060209301604052828151910182855af1156200144d575f513d620014c55750803b155b620014ad575062000cb660075460a43562001d74565b9064e8d4a510009582878102048714831517156200132857815160208084019190912060405163313ce56760e01b8152909891816004816001600160a01b0387165afa9081156200144d575f916200146a575b50601260ff8216116200145857604051633fabe5a360e21b815260a0816004816001600160a01b0388165afa80156200144d575f915f905f92620013e7575b505f831390811591620013dd575b508015620013d4575b620013c257428111620013c25762000d7b613840914262001d28565b11620013c257603281048015620013b9575b60328202908282046032148315171562001328576101243510908115620013ab575b5062001382575060ff8116601203620012e65760ff61012435915b600954926040519562000ddd8762001afc565b60c4358752600160208801526001600160a01b03166040870152610104356060870152608086015262000e136101443562001a36565b6101443560a08601525f60c08601525f60e08601521661010084015260405194856102608101106001600160401b0361026088011117620012d25761ffff9267099e8db03256ce5d91610260880160405260018060a01b038a16885260018060a01b03891660208901525f60408901525f60608901520204608086015260a43560a086015281811660c0860152818160101c1660e086015260201c166101008401525f61012084015286610140840152816101608401523361018084015260a4356101a08401525f6101c08401525f6101e08401526402540be4006102008401525f610220840152610240830152600185015f52600b60205260405f209160018060a01b038151166001600160601b0360a01b8454161783556001830160018060a01b036020830151166001600160601b0360a01b82541617905560408101516002840155606081015160038401556080810151600484015560a081015160058401556006830161ffff60c08301511681549063ffff000060e085015160101b1665ffff0000000061010086015160201b169166ff00000000000061012087015162000fbf8162001a36565b62000fca8162001a36565b60301b169366ffffffffffffff191617171717905561014081015160078401556101608101518051906001600160401b038211620012d25762001011600886015462001bac565b601f811162001289575b50602090601f831160011462001214576102409392915f918362001208575b50508160011b915f199060031b1c19161760088501555b6009840160018060a01b03610180830151166001600160601b0360a01b8254161790556101a0810151600a8501556101c0810151600b8501556101e0810151600c850155610200810151600d850155610220810151600e8501550151958651600f8401556020870151936002851015620008f1576020976013857f7a7ebf25d8d855bfc2d793c577aa2a224cf0fa46b2758be7143c529c789c82b5976010620011e398015460ff610100600160a81b03604087015160081b169216906affffffffffffffffffffff60a81b16171760108201556060830151601182015560808301516012820155019060a0810151906200114b8262001a36565b620011568262001a36565b825461ff0060c0830151151560081b169060ff63ff00000061010062ff000060e0870151151560101b1695015160181b1694169063ffffffff1916171717179055600187015f52600d885260405f20335f52885260a43560405f20556040519560018060a01b0316865260018060a01b031687860152604085015260c0606085015260c084019062001abc565b9160a435608082015260c43560a08201528060018501930390a2600160405191018152f35b015190508a806200103a565b90600886015f5260205f20915f5b601f19851681106200127057509183916001936102409695601f1981161062001257575b505050811b01600885015562001051565b01515f1960f88460031b161c191690558a808062001246565b9192602060018192868501518155019401920162001222565b600886015f5260205f20601f840160051c810160208510620012ca575b601f830160051c82018110620012be5750506200101b565b5f8155600101620012a6565b5080620012a6565b634e487b7160e01b5f52604160045260245ffd5b601260ff821610156200133c5760ff80821660120311620013285760ff620013216200131782841660120362001da0565b6101243562001d74565b9162000dca565b634e487b7160e01b5f52601160045260245ffd5b60111960ff82160160ff81116200132857620013589062001da0565b80156200136e5760ff9061012435049162000dca565b634e487b7160e01b5f52601260045260245ffd5b60ff606492604051926332f057bb60e01b84526101243560048501526024840152166044820152fd5b905061012435118b62000daf565b50600162000d8d565b60405163416164fb60e11b8152600490fd5b50801562000d5f565b9050158c62000d56565b9250505060a0813d60a01162001444575b816200140760a0938362001b19565b8101031262000299576200141b8162001d88565b506020810151906040810151916200143b60806060840151930162001d88565b50918c62000d48565b3d9150620013f8565b6040513d5f823e3d90fd5b604051638feca20b60e01b8152600490fd5b90506020813d602011620014a4575b81620014886020938362001b19565b8101031262000299575160ff8116810362000299578962000d09565b3d915062001479565b60249060405190635274afe760e01b82526004820152fd5b6001141562000ca0565b604051639589a27d60e01b8152600490fd5b60405162d36c8560e81b8152600490fd5b6040516301e53f4b60e11b8152600490fd5b60149150118762000b55565b60149150118762000b42565b60649150118762000b2f565b60649150118762000b1c565b6103e89150118762000b09565b90506020813d6020116200157a575b816200155f6020938362001b19565b81010312620002995751801515810362000299578762000af5565b3d915062001550565b3462000299575f366003190112620002995760206040516138408152f35b3462000299575f36600319011262000299576020604051620f42408152f35b346200029957602036600319011262000299576004355f908152600b6020526040902080546001600160a01b03161562000732576200160660086200161b920162001be7565b60405191829160208352602083019062001abc565b0390f35b346200029957602036600319011262000299576004355f526017602052602060405f2054604051908152f35b3462000299575f36600319011262000299576020604051789f4f2726179a224501d762422c946590d910000000000000008152f35b3462000299575f36600319011262000299575f546040516001600160a01b039091168152602090f35b346200029957602036600319011262000299576004355f526016602052602060405f2054604051908152f35b3462000299575f36600319011262000299576020600854604051908152f35b3462000299576020366003190112620002995760043563ffffffff60e01b811680910362000299575f526012602052602060018060a01b0360405f205416604051908152f35b34620002995760208060031936011262000299576004355f908152600b82526040902080546001600160a01b03908116929091831562000732576040519282846024816370a0823160e01b988982523060048301525afa9384156200144d575f9462001896575b5082906001830154169460246040518097819382523060048301525afa9283156200144d575f9362001860575b600282015460a0955090808211156200185657620017ec9162001d28565b925b600382015481811115620018475764e8d4a51000916200180e9162001d28565b80851115620018405784905b600460058501549401549460405196875286015204604084015260608301526080820152f35b806200181a565b505064e8d4a510005f6200180e565b50505f92620017ee565b92508184813d83116200188e575b6200187a818362001b19565b81010312620002995760a0935192620017ce565b503d6200186e565b9093508281813d8311620018c3575b620018b1818362001b19565b810103126200029957519282620017a1565b503d620018a5565b3462000299575f366003190112620002995760206040517f24292cbf46b6e47bdb0682fd1c64fa171e74249bffad8ae2c4adcedcd31224c68152f35b3462000299575f366003190112620002995760206040516127108152f35b346200029957602036600319011262000299575f6101006040516200194a8162001afc565b8281528260208201528260408201528260608201528260808201528260a08201528260c08201528260e082015201526004355f52600b60205260405f2060018060a01b03815416156200073257620019a8600f610120920162001c95565b620019b7604051809262001a41565bf35b3462000299575f36600319011262000299576020600354604051908152f35b3462000299575f3660031901126200029957602060405162093a808152f35b3462000299575f3660031901126200029957602061ffff60095416604051908152f35b3462000299575f36600319011262000299576020906013548152f35b60031115620008f157565b8051825260208101516002811015620008f15760208301526040818101516001600160a01b031690830152606080820151908301526080808201519083015260a081015162001a908162001a36565b60a083015260c0810151151560c083015260e0810151151560e083015260ff6101008092015116910152565b91908251928382525f5b84811062001ae7575050825f602080949584010152601f8019910116010190565b60208183018101518483018201520162001ac6565b61012081019081106001600160401b03821117620012d257604052565b90601f801991011681019081106001600160401b03821117620012d257604052565b81601f8201121562000299578035906001600160401b038211620012d2576040519262001b73601f8401601f19166020018562001b19565b828452602083830101116200029957815f926020809301838601378301015290565b602435906001600160a01b03821682036200029957565b90600182811c9216801562001bdc575b602083101462001bc857565b634e487b7160e01b5f52602260045260245ffd5b91607f169162001bbc565b9060405191825f825462001bfb8162001bac565b908184526020946001916001811690815f1462001c71575060011462001c2f575b50505062001c2d9250038362001b19565b565b5f90815285812095935091905b81831062001c5857505062001c2d93508201015f808062001c1c565b8554888401850152948501948794509183019162001c3c565b9250505062001c2d94925060ff191682840152151560051b8201015f808062001c1c565b9060405162001ca48162001afc565b809280548252600181015460ff81166002811015620008f157602084015260081c6001600160a01b031660408301526002810154606083015260038101546080830152600401546101009060ff9080821662001d008162001a36565b60a0850152818160081c16151560c0850152818160101c16151560e085015260181c16910152565b919082039182116200132857565b9162001d649062001d5560409396959660608652606086019062001abc565b90848203602086015262001abc565b6001600160a01b03909416910152565b818102929181159184041417156200132857565b519069ffffffffffffffffffff821682036200029957565b60ff16604d81116200132857600a0a9056fe6080604052346200035c5762001219803803806200001d8162000360565b9283398101906060818303126200035c5780516001600160401b0391908281116200035c57836200005091830162000386565b602093848301518481116200035c576040916200006f91850162000386565b920151926001600160a01b038416928385036200035c57825182811162000265576003918254916001958684811c9416801562000351575b8a8510146200033d578190601f94858111620002ea575b508a9085831160011462000285575f9262000279575b50505f1982861b1c191690861b1783555b8051938411620002655760049788548681811c911680156200025a575b828210146200024757838111620001ff575b50809285116001146200019557509383949184925f9562000189575b50501b925f19911b1c19161783555b15620001795780620001556200016892620003f6565b50620001618162000466565b5062000507565b50604051610c369081620005a38239f35b5060405163d92e233d60e01b8152fd5b015193505f8062000130565b92919084601f1981168a5f52855f20955f905b89838310620001e45750505010620001ca575b50505050811b0183556200013f565b01519060f8845f19921b161c191690555f808080620001bb565b858701518955909701969485019488935090810190620001a8565b895f52815f208480880160051c8201928489106200023d575b0160051c019087905b8281106200023157505062000114565b5f815501879062000221565b9250819262000218565b60228a634e487b7160e01b5f525260245ffd5b90607f169062000102565b634e487b7160e01b5f52604160045260245ffd5b015190505f80620000d4565b5f8781528c81208a9550929190601f198516908e5b828210620002d25750508411620002ba575b505050811b018355620000e5565b01515f1983881b60f8161c191690555f8080620002ac565b8385015186558c979095019493840193018e6200029a565b909150855f528a5f208580850160051c8201928d861062000333575b918a91869594930160051c01915b82811062000324575050620000be565b5f81558594508a910162000314565b9250819262000306565b634e487b7160e01b5f52602260045260245ffd5b93607f1693620000a7565b5f80fd5b6040519190601f01601f191682016001600160401b038111838210176200026557604052565b919080601f840112156200035c5782516001600160401b0381116200026557602090620003bc601f8201601f1916830162000360565b928184528282870101116200035c575f5b818110620003e25750825f9394955001015290565b8581018301518482018401528201620003cd565b6001600160a01b03165f8181525f80516020620011f9833981519152602052604090205460ff1662000461575f8181525f80516020620011f983398151915260205260408120805460ff191660011790553391905f80516020620011d98339815191528180a4600190565b505f90565b6001600160a01b03165f8181527f15a28d26fa1bf736cf7edc9922607171ccb09c3c73b808e7772a3013e068a52260205260409020547f9f2df0fed2c77648de5860a4cc508cd0818c85b8b8a1ab4ceeef8d981c8956a6919060ff166200050157815f52600560205260405f20815f5260205260405f20600160ff1982541617905533915f80516020620011d98339815191525f80a4600190565b50505f90565b6001600160a01b03165f8181527f847f481f687befb06ed3511f1a8dcef57e83007c0147ae5047583d705617093760205260409020547f3c11d16cbaffd01df69ce1c404f6340ee057498f5f00246190ea54220576a848919060ff166200050157815f52600560205260405f20815f5260205260405f20600160ff1982541617905533915f80516020620011d98339815191525f80a460019056fe6080604090808252600480361015610015575f80fd5b5f3560e01c91826301ffc9a7146109655750816306fdde031461088a578163095ea7b3146107e257816318160ddd146107c457816323b872dd146106d2578163248a9ca3146106a8578163282c51f31461066e5781632f2ff15d14610646578163313ce5671461062b57816336568abe146105e757816340c10f19146104d857816370a08231146104a257816391d148541461045e57816395d89b411461033f5781639dc29fac14610208578163a217fddf146101ee578163a9059cbb146101be578163d539139314610184578163d547741f14610148575063dd62ed3e146100fc575f80fd5b346101445780600319360112610144576020906101176109fe565b61011f610a14565b9060018060a01b038091165f5260018452825f2091165f528252805f20549051908152f35b5f80fd5b8234610144578060031936011261014457610182913561017d600161016b610a14565b93835f5260056020525f200154610b04565b610bc2565b005b8234610144575f36600319011261014457602090517f9f2df0fed2c77648de5860a4cc508cd0818c85b8b8a1ab4ceeef8d981c8956a68152f35b82346101445780600319360112610144576020906101e76101dd6109fe565b6024359033610a2a565b5160018152f35b8234610144575f36600319011261014457602090515f8152f35b82346101445780600319360112610144576102216109fe565b90602435927f3c11d16cbaffd01df69ce1c404f6340ee057498f5f00246190ea54220576a848805f526005602052825f20335f5260205260ff835f2054161561032457506001600160a01b03831692831561031557841561030657835f525f602052825f2054918583106102d2575f857fddf252ad1be2c89b69c2b068fc378daa952ba7f163c4a11628f55a4df523b3ef6020898881898688528785520381872055816002540360025551908152a3005b835163391434e360e21b81526001600160a01b03909216908201908152602081018390526040810186905281906060010390fd5b50905163749b593960e01b8152fd5b50905163d92e233d60e01b8152fd5b604492519163e2517d3f60e01b835233908301526024820152fd5b8234610144575f366003190112610144578051905f835460018160011c9060018316928315610454575b60209384841081146104415783885290811561042557506001146103d1575b505050829003601f01601f191682019267ffffffffffffffff8411838510176103be57508291826103ba9252826109b7565b0390f35b604190634e487b7160e01b5f525260245ffd5b5f878152929350837f8a35acfbc15ff81a39ae7d344fd709f28e8600b4aa8c65c6b64bfe7fe36bd19b5b8385106104115750505050830101848080610388565b8054888601830152930192849082016103fb565b60ff1916878501525050151560051b8401019050848080610388565b602289634e487b7160e01b5f525260245ffd5b91607f1691610369565b823461014457806003193601126101445760209161047a610a14565b90355f5260058352815f209060018060a01b03165f52825260ff815f20541690519015158152f35b8234610144576020366003190112610144576020906001600160a01b036104c76109fe565b165f525f8252805f20549051908152f35b82346101445780600319360112610144576104f16109fe565b90602435917f9f2df0fed2c77648de5860a4cc508cd0818c85b8b8a1ab4ceeef8d981c8956a6805f526005602052825f20335f5260205260ff835f205416156105c957506001600160a01b03169283156105bb5782156105ad576002549083820180921161059a57505f927fddf252ad1be2c89b69c2b068fc378daa952ba7f163c4a11628f55a4df523b3ef9260209260025585855284835280852082815401905551908152a3005b601190634e487b7160e01b5f525260245ffd5b905163749b593960e01b8152fd5b905163d92e233d60e01b8152fd5b825163e2517d3f60e01b815233818701526024810191909152604490fd5b8234610144578060031936011261014457610600610a14565b90336001600160a01b0383160361061c57506101829135610bc2565b5163334bd91960e11b81529050fd5b8234610144575f366003190112610144576020905160128152f35b82346101445780600319360112610144576101829135610669600161016b610a14565b610b44565b8234610144575f36600319011261014457602090517f3c11d16cbaffd01df69ce1c404f6340ee057498f5f00246190ea54220576a8488152f35b823461014457602036600319011261014457602091355f52600582526001815f2001549051908152f35b905034610144576060366003190112610144576106ed6109fe565b6106f5610a14565b906044359260018060a01b038216805f526001602052855f20335f52602052855f2054915f198310610730575b6020876101e7888888610a2a565b85831061079857811561078257331561076c57505f908152600160209081528682203383528152908690209185900390915582906101e7610722565b6024905f885191634a1406b160e11b8352820152fd5b6024905f88519163e602df0560e01b8352820152fd5b8651637dc7a0d960e11b8152339181019182526020820193909352604081018690528291506060010390fd5b8234610144575f366003190112610144576020906002549051908152f35b82346101445780600319360112610144576107fb6109fe565b602435903315610874576001600160a01b031690811561085e5760209350335f5260018452825f20825f52845280835f205582519081527f8c5be1e5ebec7d5bd14f71427d1e84f3dd0314c0f7b2291e5b200ac8c7c3b925843392a35160018152f35b8251634a1406b160e11b81525f81860152602490fd5b825163e602df0560e01b81525f81860152602490fd5b8234610144575f366003190112610144578051905f60035460018160011c906001831692831561095b575b602093848410811461044157838852908115610425575060011461090557505050829003601f01601f191682019267ffffffffffffffff8411838510176103be57508291826103ba9252826109b7565b60035f908152929350837fc2575a0e9e593c00f959f8c92f12db2869c3395a3b0502d05e2516446f71f85b5b8385106109475750505050830101848080610388565b805488860183015293019284908201610931565b91607f16916108b5565b903461014457602036600319011261014457359063ffffffff60e01b821680920361014457602091637965db0b60e01b81149081156109a6575b5015158152f35b6301ffc9a760e01b1490508361099f565b602080825282518183018190529093925f5b8281106109ea57505060409293505f838284010152601f8019910116010190565b8181018601518482016040015285016109c9565b600435906001600160a01b038216820361014457565b602435906001600160a01b038216820361014457565b916001600160a01b03808416928315610aec5716928315610ad457825f525f60205260405f205490828210610aa25750817fddf252ad1be2c89b69c2b068fc378daa952ba7f163c4a11628f55a4df523b3ef92602092855f525f84520360405f2055845f5260405f20818154019055604051908152a3565b60405163391434e360e21b81526001600160a01b03919091166004820152602481019190915260448101829052606490fd5b60405163ec442f0560e01b81525f6004820152602490fd5b604051634b637e8f60e11b81525f6004820152602490fd5b805f52600560205260405f20335f5260205260ff60405f20541615610b265750565b6044906040519063e2517d3f60e01b82523360048301526024820152fd5b90815f52600560205260405f209060018060a01b031690815f5260205260ff60405f205416155f14610bbc57815f52600560205260405f20815f5260205260405f20600160ff1982541617905533917f2f8788117e7eff1d82e926ec794901d17c78024a50270940304540a733656f0d5f80a4600190565b50505f90565b90815f52600560205260405f209060018060a01b031690815f5260205260ff60405f2054165f14610bbc57815f52600560205260405f20815f5260205260405f2060ff19815416905533917ff6391f5c32d9c69d2a47ea670b442974b53935d1edc7fd64eb21e047a839171b5f80a4600190562f8788117e7eff1d82e926ec794901d17c78024a50270940304540a733656f0d05b8ccbb9d4d8fb16ea74ce3c29a41f1b461fbdaff4714a0d9a8eb05499746bc","linkReferences":{}},"methodIdentifiers":{"BPS()":"249d39e9","MARKET_CREATOR_ROLE()":"ae42820c","MAX_MARKET_DURATION()":"7e50898e","MAX_ORACLE_AGE()":"4d643128","MAX_SHARES()":"3e8ff57b","MIN_LP_USDC()":"43a630f5","OP_CANCEL_MARKET()":"f7050eae","OP_EXPIRY_WINDOW()":"032a57d2","OP_PAUSE()":"6329a66a","OP_RECOVER_ETH()":"27b6eeba","OP_REMOVE_FACET()":"7b8c5ba6","OP_SET_FACET()":"e998985e","OP_SET_RESOLVER()":"d063c724","OP_SET_TREASURY()":"f5d7eeaf","OP_UNPAUSE()":"6dba319c","STORAGE_VERSION()":"9ef2b381","USDC_TO_E18()":"aa93f462","accFeePerUSDCE18(uint256)":"9da4f13d","accResidualPerUSDCE18(uint256)":"e72012a7","chainlinkResolver()":"7f8a3f8c","createMarket(string,string,string,string,string,uint256,uint256,address,bytes32,uint256,uint8)":"56c8d23d","defaultFeeLpBps()":"919cab1f","defaultFeeTreasuryBps()":"028aa4ee","defaultFeeVaultBps()":"67351729","dustSharesE18()":"c16de9c7","facetOf(bytes4)":"2c7dc319","getMarketInvariants(uint256)":"294d54c1","getMarketQuestion(uint256)":"4397c4ce","getMarketResolution(uint256)":"232e45d7","getMarketState(uint256)":"88b1f1c3","liquidityMultiplierE18()":"d105e1c6","lpFeeDebt(uint256,address)":"ffe2a945","lpFeeDustUSDC(uint256)":"2f922f2f","lpResidualDebt(uint256,address)":"6aa083b9","lpResidualDustUSDC(uint256)":"3fb5f6e8","lpShares(uint256,address)":"6bcbb8a5","marketCount()":"ec979082","markets(uint256)":"b1283e77","maxInstantJumpE18()":"2ed13b78","maxUsdcPerTrade()":"0615e22a","minLiquidityAdd()":"f5b9f416","minMarketSeed()":"572ddbcb","minTimelockDelay()":"028390bd","opNonce()":"969ea86b","ops(bytes32)":"692a34f4","treasury()":"61d027b3","usdc()":"3e413bee"},"id":78}