{"abi":[{"type":"constructor","inputs":[{"name":"admin","type":"address","internalType":"address"}],"stateMutability":"nonpayable"},{"type":"function","name":"DEFAULT_ADMIN_ROLE","inputs":[],"outputs":[{"name":"","type":"bytes32","internalType":"bytes32"}],"stateMutability":"view"},{"type":"function","name":"MINTER_ROLE","inputs":[],"outputs":[{"name":"","type":"bytes32","internalType":"bytes32"}],"stateMutability":"view"},{"type":"function","name":"allowance","inputs":[{"name":"owner","type":"address","internalType":"address"},{"name":"spender","type":"address","internalType":"address"}],"outputs":[{"name":"","type":"uint256","internalType":"uint256"}],"stateMutability":"view"},{"type":"function","name":"approve","inputs":[{"name":"spender","type":"address","internalType":"address"},{"name":"value","type":"uint256","internalType":"uint256"}],"outputs":[{"name":"","type":"bool","internalType":"bool"}],"stateMutability":"nonpayable"},{"type":"function","name":"balanceOf","inputs":[{"name":"account","type":"address","internalType":"address"}],"outputs":[{"name":"","type":"uint256","internalType":"uint256"}],"stateMutability":"view"},{"type":"function","name":"decimals","inputs":[],"outputs":[{"name":"","type":"uint8","internalType":"uint8"}],"stateMutability":"pure"},{"type":"function","name":"faucet","inputs":[{"name":"amount","type":"uint256","internalType":"uint256"}],"outputs":[],"stateMutability":"nonpayable"},{"type":"function","name":"getRoleAdmin","inputs":[{"name":"role","type":"bytes32","internalType":"bytes32"}],"outputs":[{"name":"","type":"bytes32","internalType":"bytes32"}],"stateMutability":"view"},{"type":"function","name":"grantRole","inputs":[{"name":"role","type":"bytes32","internalType":"bytes32"},{"name":"account","type":"address","internalType":"address"}],"outputs":[],"stateMutability":"nonpayable"},{"type":"function","name":"hasRole","inputs":[{"name":"role","type":"bytes32","internalType":"bytes32"},{"name":"account","type":"address","internalType":"address"}],"outputs":[{"name":"","type":"bool","internalType":"bool"}],"stateMutability":"view"},{"type":"function","name":"mint","inputs":[{"name":"to","type":"address","internalType":"address"},{"name":"amount","type":"uint256","internalType":"uint256"}],"outputs":[],"stateMutability":"nonpayable"},{"type":"function","name":"name","inputs":[],"outputs":[{"name":"","type":"string","internalType":"string"}],"stateMutability":"view"},{"type":"function","name":"renounceRole","inputs":[{"name":"role","type":"bytes32","internalType":"bytes32"},{"name":"callerConfirmation","type":"address","internalType":"address"}],"outputs":[],"stateMutability":"nonpayable"},{"type":"function","name":"revokeRole","inputs":[{"name":"role","type":"bytes32","internalType":"bytes32"},{"name":"account","type":"address","internalType":"address"}],"outputs":[],"stateMutability":"nonpayable"},{"type":"function","name":"supportsInterface","inputs":[{"name":"interfaceId","type":"bytes4","internalType":"bytes4"}],"outputs":[{"name":"","type":"bool","internalType":"bool"}],"stateMutability":"view"},{"type":"function","name":"symbol","inputs":[],"outputs":[{"name":"","type":"string","internalType":"string"}],"stateMutability":"view"},{"type":"function","name":"totalSupply","inputs":[],"outputs":[{"name":"","type":"uint256","internalType":"uint256"}],"stateMutability":"view"},{"type":"function","name":"transfer","inputs":[{"name":"to","type":"address","internalType":"address"},{"name":"value","type":"uint256","internalType":"uint256"}],"outputs":[{"name":"","type":"bool","internalType":"bool"}],"stateMutability":"nonpayable"},{"type":"function","name":"transferFrom","inputs":[{"name":"from","type":"address","internalType":"address"},{"name":"to","type":"address","internalType":"address"},{"name":"value","type":"uint256","internalType":"uint256"}],"outputs":[{"name":"","type":"bool","internalType":"bool"}],"stateMutability":"nonpayable"},{"type":"event","name":"Approval","inputs":[{"name":"owner","type":"address","indexed":true,"internalType":"address"},{"name":"spender","type":"address","indexed":true,"internalType":"address"},{"name":"value","type":"uint256","indexed":false,"internalType":"uint256"}],"anonymous":false},{"type":"event","name":"RoleAdminChanged","inputs":[{"name":"role","type":"bytes32","indexed":true,"internalType":"bytes32"},{"name":"previousAdminRole","type":"bytes32","indexed":true,"internalType":"bytes32"},{"name":"newAdminRole","type":"bytes32","indexed":true,"internalType":"bytes32"}],"anonymous":false},{"type":"event","name":"RoleGranted","inputs":[{"name":"role","type":"bytes32","indexed":true,"internalType":"bytes32"},{"name":"account","type":"address","indexed":true,"internalType":"address"},{"name":"sender","type":"address","indexed":true,"internalType":"address"}],"anonymous":false},{"type":"event","name":"RoleRevoked","inputs":[{"name":"role","type":"bytes32","indexed":true,"internalType":"bytes32"},{"name":"account","type":"address","indexed":true,"internalType":"address"},{"name":"sender","type":"address","indexed":true,"internalType":"address"}],"anonymous":false},{"type":"event","name":"Transfer","inputs":[{"name":"from","type":"address","indexed":true,"internalType":"address"},{"name":"to","type":"address","indexed":true,"internalType":"address"},{"name":"value","type":"uint256","indexed":false,"internalType":"uint256"}],"anonymous":false},{"type":"error","name":"AccessControlBadConfirmation","inputs":[]},{"type":"error","name":"AccessControlUnauthorizedAccount","inputs":[{"name":"account","type":"address","internalType":"address"},{"name":"neededRole","type":"bytes32","internalType":"bytes32"}]},{"type":"error","name":"BadAmount","inputs":[]},{"type":"error","name":"ERC20InsufficientAllowance","inputs":[{"name":"spender","type":"address","internalType":"address"},{"name":"allowance","type":"uint256","internalType":"uint256"},{"name":"needed","type":"uint256","internalType":"uint256"}]},{"type":"error","name":"ERC20InsufficientBalance","inputs":[{"name":"sender","type":"address","internalType":"address"},{"name":"balance","type":"uint256","internalType":"uint256"},{"name":"needed","type":"uint256","internalType":"uint256"}]},{"type":"error","name":"ERC20InvalidApprover","inputs":[{"name":"approver","type":"address","internalType":"address"}]},{"type":"error","name":"ERC20InvalidReceiver","inputs":[{"name":"receiver","type":"address","internalType":"address"}]},{"type":"error","name":"ERC20InvalidSender","inputs":[{"name":"sender","type":"address","internalType":"address"}]},{"type":"error","name":"ERC20InvalidSpender","inputs":[{"name":"spender","type":"address","internalType":"address"}]},{"type":"error","name":"ZeroAddress","inputs":[]}],"bytecode":{"object":"0x608060405234620003465762000f4980380390816200001e816200036a565b92839283396020928391810103126200034657516001600160a01b03811680820362000346576200004e6200034a565b60098152684d6f636b205553444360b81b848201526200006d6200034a565b60058152646d5553444360d81b8582015281516001600160401b0391908281116200024f576003918254916001958684811c941680156200033b575b8a85101462000327578190601f94858111620002d4575b508a908583116001146200026f575f9262000263575b50505f1982861b1c191690861b1783555b80519384116200024f5760049788548681811c9116801562000244575b828210146200023157838111620001e9575b50809285116001146200017f57509383949184925f9562000173575b50501b925f19911b1c19161783555b156200016357620001529062000390565b50604051610b169081620004138239f35b5060405163d92e233d60e01b8152fd5b015193505f8062000132565b92919084601f1981168a5f52855f20955f905b89838310620001ce5750505010620001b4575b50505050811b01835562000141565b01519060f8845f19921b161c191690555f808080620001a5565b85870151895590970196948501948893509081019062000192565b895f52815f208480880160051c82019284891062000227575b0160051c019087905b8281106200021b57505062000116565b5f81550187906200020b565b9250819262000202565b60228a634e487b7160e01b5f525260245ffd5b90607f169062000104565b634e487b7160e01b5f52604160045260245ffd5b015190505f80620000d6565b5f8781528c81208a9550929190601f198516908e5b828210620002bc5750508411620002a4575b505050811b018355620000e7565b01515f1983881b60f8161c191690555f808062000296565b8385015186558c979095019493840193018e62000284565b909150855f528a5f208580850160051c8201928d86106200031d575b918a91869594930160051c01915b8281106200030e575050620000c0565b5f81558594508a9101620002fe565b92508192620002f0565b634e487b7160e01b5f52602260045260245ffd5b93607f1693620000a9565b5f80fd5b60408051919082016001600160401b038111838210176200024f57604052565b6040519190601f01601f191682016001600160401b038111838210176200024f57604052565b6001600160a01b03165f8181525f8051602062000f29833981519152602052604090205460ff166200040d575f8181525f8051602062000f2983398151915260205260408120805460ff191660011790553391907f2f8788117e7eff1d82e926ec794901d17c78024a50270940304540a733656f0d8180a4600190565b505f9056fe6080604090808252600480361015610015575f80fd5b5f3560e01c91826301ffc9a7146107d15750816306fdde03146106f6578163095ea7b31461064e57816318160ddd1461063057816323b872dd1461053e578163248a9ca3146105145781632f2ff15d146104ec578163313ce567146104d157816336568abe1461048d57816340c10f19146103d6578163579158971461039657816370a082311461036057816391d148541461031c57816395d89b41146101fd578163a217fddf146101e3578163a9059cbb146101b3578163d539139314610179578163d547741f1461013d575063dd62ed3e146100f1575f80fd5b3461013957806003193601126101395760209061010c61086a565b610114610880565b9060018060a01b038091165f5260018452825f2091165f528252805f20549051908152f35b5f80fd5b823461013957806003193601126101395761017791356101726001610160610880565b93835f5260056020525f200154610970565b610a2e565b005b8234610139575f36600319011261013957602090517f9f2df0fed2c77648de5860a4cc508cd0818c85b8b8a1ab4ceeef8d981c8956a68152f35b82346101395780600319360112610139576020906101dc6101d261086a565b6024359033610896565b5160018152f35b8234610139575f36600319011261013957602090515f8152f35b8234610139575f366003190112610139578051905f835460018160011c9060018316928315610312575b60209384841081146102ff578388529081156102e3575060011461028f575b505050829003601f01601f191682019267ffffffffffffffff84118385101761027c5750829182610278925282610823565b0390f35b604190634e487b7160e01b5f525260245ffd5b5f878152929350837f8a35acfbc15ff81a39ae7d344fd709f28e8600b4aa8c65c6b64bfe7fe36bd19b5b8385106102cf5750505050830101848080610246565b8054888601830152930192849082016102b9565b60ff1916878501525050151560051b8401019050848080610246565b602289634e487b7160e01b5f525260245ffd5b91607f1691610227565b8234610139578060031936011261013957602091610338610880565b90355f5260058352815f209060018060a01b03165f52825260ff815f20541690519015158152f35b8234610139576020366003190112610139576020906001600160a01b0361038561086a565b165f525f8252805f20549051908152f35b82346101395760203660031901126101395781359081156103c75764e8d4a5100082116103c7576101778233610aa2565b5163749b593960e01b81529050fd5b82346101395780600319360112610139576103ef61086a565b602435917f9f2df0fed2c77648de5860a4cc508cd0818c85b8b8a1ab4ceeef8d981c8956a6805f526005602052815f20335f5260205260ff825f2054161561046f57506001600160a01b03821615610460578215610451576101778383610aa2565b5163749b593960e01b81528390fd5b5163d92e233d60e01b81528390fd5b905163e2517d3f60e01b815233818601526024810191909152604490fd5b82346101395780600319360112610139576104a6610880565b90336001600160a01b038316036104c257506101779135610a2e565b5163334bd91960e11b81529050fd5b8234610139575f366003190112610139576020905160068152f35b8234610139578060031936011261013957610177913561050f6001610160610880565b6109b0565b823461013957602036600319011261013957602091355f52600582526001815f2001549051908152f35b9050346101395760603660031901126101395761055961086a565b610561610880565b906044359260018060a01b038216805f526001602052855f20335f52602052855f2054915f19831061059c575b6020876101dc888888610896565b8583106106045781156105ee5733156105d857505f908152600160209081528682203383528152908690209185900390915582906101dc61058e565b6024905f885191634a1406b160e11b8352820152fd5b6024905f88519163e602df0560e01b8352820152fd5b8651637dc7a0d960e11b8152339181019182526020820193909352604081018690528291506060010390fd5b8234610139575f366003190112610139576020906002549051908152f35b823461013957806003193601126101395761066761086a565b6024359033156106e0576001600160a01b03169081156106ca5760209350335f5260018452825f20825f52845280835f205582519081527f8c5be1e5ebec7d5bd14f71427d1e84f3dd0314c0f7b2291e5b200ac8c7c3b925843392a35160018152f35b8251634a1406b160e11b81525f81860152602490fd5b825163e602df0560e01b81525f81860152602490fd5b8234610139575f366003190112610139578051905f60035460018160011c90600183169283156107c7575b60209384841081146102ff578388529081156102e3575060011461077157505050829003601f01601f191682019267ffffffffffffffff84118385101761027c5750829182610278925282610823565b60035f908152929350837fc2575a0e9e593c00f959f8c92f12db2869c3395a3b0502d05e2516446f71f85b5b8385106107b35750505050830101848080610246565b80548886018301529301928490820161079d565b91607f1691610721565b903461013957602036600319011261013957359063ffffffff60e01b821680920361013957602091637965db0b60e01b8114908115610812575b5015158152f35b6301ffc9a760e01b1490508361080b565b602080825282518183018190529093925f5b82811061085657505060409293505f838284010152601f8019910116010190565b818101860151848201604001528501610835565b600435906001600160a01b038216820361013957565b602435906001600160a01b038216820361013957565b916001600160a01b03808416928315610958571692831561094057825f525f60205260405f20549082821061090e5750817fddf252ad1be2c89b69c2b068fc378daa952ba7f163c4a11628f55a4df523b3ef92602092855f525f84520360405f2055845f5260405f20818154019055604051908152a3565b60405163391434e360e21b81526001600160a01b03919091166004820152602481019190915260448101829052606490fd5b60405163ec442f0560e01b81525f6004820152602490fd5b604051634b637e8f60e11b81525f6004820152602490fd5b805f52600560205260405f20335f5260205260ff60405f205416156109925750565b6044906040519063e2517d3f60e01b82523360048301526024820152fd5b90815f52600560205260405f209060018060a01b031690815f5260205260ff60405f205416155f14610a2857815f52600560205260405f20815f5260205260405f20600160ff1982541617905533917f2f8788117e7eff1d82e926ec794901d17c78024a50270940304540a733656f0d5f80a4600190565b50505f90565b90815f52600560205260405f209060018060a01b031690815f5260205260ff60405f2054165f14610a2857815f52600560205260405f20815f5260205260405f2060ff19815416905533917ff6391f5c32d9c69d2a47ea670b442974b53935d1edc7fd64eb21e047a839171b5f80a4600190565b6001600160a01b03169081156109405760025490808201809211610b025760207fddf252ad1be2c89b69c2b068fc378daa952ba7f163c4a11628f55a4df523b3ef915f9360025584845283825260408420818154019055604051908152a3565b634e487b7160e01b5f52601160045260245ffd05b8ccbb9d4d8fb16ea74ce3c29a41f1b461fbdaff4714a0d9a8eb05499746bc","linkReferences":{}},"methodIdentifiers":{"DEFAULT_ADMIN_ROLE()":"a217fddf","MINTER_ROLE()":"d5391393","allowance(address,address)":"dd62ed3e","approve(address,uint256)":"095ea7b3","balanceOf(address)":"70a08231","decimals()":"313ce567","faucet(uint256)":"57915897","getRoleAdmin(bytes32)":"248a9ca3","grantRole(bytes32,address)":"2f2ff15d","hasRole(bytes32,address)":"91d14854","mint(address,uint256)":"40c10f19","name()":"06fdde03","renounceRole(bytes32,address)":"36568abe","revokeRole(bytes32,address)":"d547741f","supportsInterface(bytes4)":"01ffc9a7","symbol()":"95d89b41","totalSupply()":"18160ddd","transfer(address,uint256)":"a9059cbb","transferFrom(address,address,uint256)":"23b872dd"},"id":67}