{"abi":[{"type":"function","name":"BPS","inputs":[],"outputs":[{"name":"","type":"uint256","internalType":"uint256"}],"stateMutability":"view"},{"type":"function","name":"MARKET_CREATOR_ROLE","inputs":[],"outputs":[{"name":"","type":"bytes32","internalType":"bytes32"}],"stateMutability":"view"},{"type":"function","name":"OP_PAUSE","inputs":[],"outputs":[{"name":"","type":"bytes32","internalType":"bytes32"}],"stateMutability":"view"},{"type":"function","name":"OP_SET_FACET","inputs":[],"outputs":[{"name":"","type":"bytes32","internalType":"bytes32"}],"stateMutability":"view"},{"type":"function","name":"OP_SET_RESOLVER","inputs":[],"outputs":[{"name":"","type":"bytes32","internalType":"bytes32"}],"stateMutability":"view"},{"type":"function","name":"OP_SET_TREASURY","inputs":[],"outputs":[{"name":"","type":"bytes32","internalType":"bytes32"}],"stateMutability":"view"},{"type":"function","name":"OP_UNPAUSE","inputs":[],"outputs":[{"name":"","type":"bytes32","internalType":"bytes32"}],"stateMutability":"view"},{"type":"function","name":"USDC_TO_E18","inputs":[],"outputs":[{"name":"","type":"uint256","internalType":"uint256"}],"stateMutability":"view"},{"type":"function","name":"accFeePerUSDCE18","inputs":[{"name":"","type":"uint256","internalType":"uint256"}],"outputs":[{"name":"","type":"uint256","internalType":"uint256"}],"stateMutability":"view"},{"type":"function","name":"accResidualPerUSDCE18","inputs":[{"name":"","type":"uint256","internalType":"uint256"}],"outputs":[{"name":"","type":"uint256","internalType":"uint256"}],"stateMutability":"view"},{"type":"function","name":"cancelMarket","inputs":[{"name":"","type":"uint256","internalType":"uint256"}],"outputs":[],"stateMutability":"pure"},{"type":"function","name":"chainlinkResolver","inputs":[],"outputs":[{"name":"","type":"address","internalType":"address"}],"stateMutability":"view"},{"type":"function","name":"claimLpResidual","inputs":[{"name":"id","type":"uint256","internalType":"uint256"}],"outputs":[],"stateMutability":"nonpayable"},{"type":"function","name":"defaultFeeLpBps","inputs":[],"outputs":[{"name":"","type":"uint16","internalType":"uint16"}],"stateMutability":"view"},{"type":"function","name":"defaultFeeTreasuryBps","inputs":[],"outputs":[{"name":"","type":"uint16","internalType":"uint16"}],"stateMutability":"view"},{"type":"function","name":"defaultFeeVaultBps","inputs":[],"outputs":[{"name":"","type":"uint16","internalType":"uint16"}],"stateMutability":"view"},{"type":"function","name":"dustSharesE18","inputs":[],"outputs":[{"name":"","type":"uint256","internalType":"uint256"}],"stateMutability":"view"},{"type":"function","name":"facetOf","inputs":[{"name":"","type":"bytes4","internalType":"bytes4"}],"outputs":[{"name":"","type":"address","internalType":"address"}],"stateMutability":"view"},{"type":"function","name":"liquidityMultiplierE18","inputs":[],"outputs":[{"name":"","type":"uint256","internalType":"uint256"}],"stateMutability":"view"},{"type":"function","name":"lpFeeDebt","inputs":[{"name":"","type":"uint256","internalType":"uint256"},{"name":"","type":"address","internalType":"address"}],"outputs":[{"name":"","type":"uint256","internalType":"uint256"}],"stateMutability":"view"},{"type":"function","name":"lpResidualDebt","inputs":[{"name":"","type":"uint256","internalType":"uint256"},{"name":"","type":"address","internalType":"address"}],"outputs":[{"name":"","type":"uint256","internalType":"uint256"}],"stateMutability":"view"},{"type":"function","name":"lpShares","inputs":[{"name":"","type":"uint256","internalType":"uint256"},{"name":"","type":"address","internalType":"address"}],"outputs":[{"name":"","type":"uint256","internalType":"uint256"}],"stateMutability":"view"},{"type":"function","name":"marketCount","inputs":[],"outputs":[{"name":"","type":"uint256","internalType":"uint256"}],"stateMutability":"view"},{"type":"function","name":"markets","inputs":[{"name":"","type":"uint256","internalType":"uint256"}],"outputs":[{"name":"yes","type":"address","internalType":"contract PositionToken"},{"name":"no","type":"address","internalType":"contract PositionToken"},{"name":"qYes","type":"uint256","internalType":"uint256"},{"name":"qNo","type":"uint256","internalType":"uint256"},{"name":"bE18","type":"uint256","internalType":"uint256"},{"name":"usdcVault","type":"uint256","internalType":"uint256"},{"name":"feeTreasuryBps","type":"uint16","internalType":"uint16"},{"name":"feeLpBps","type":"uint16","internalType":"uint16"},{"name":"feeVaultBps","type":"uint16","internalType":"uint16"},{"name":"status","type":"uint8","internalType":"enum CoreStorage.MarketStatus"},{"name":"questionHash","type":"bytes32","internalType":"bytes32"},{"name":"creator","type":"address","internalType":"address"},{"name":"totalLpUsdc","type":"uint256","internalType":"uint256"},{"name":"lpFeesUSDC","type":"uint256","internalType":"uint256"},{"name":"residualUSDC","type":"uint256","internalType":"uint256"},{"name":"priceBandThresholdUSDC","type":"uint256","internalType":"uint256"},{"name":"maxJumpE18","type":"uint256","internalType":"uint256"},{"name":"resolution","type":"tuple","internalType":"struct CoreStorage.ResolutionConfig","components":[{"name":"expiryTimestamp","type":"uint256","internalType":"uint256"},{"name":"oracleType","type":"uint8","internalType":"enum CoreStorage.OracleType"},{"name":"oracleAddress","type":"address","internalType":"address"},{"name":"priceFeedId","type":"bytes32","internalType":"bytes32"},{"name":"targetValue","type":"uint256","internalType":"uint256"},{"name":"comparison","type":"uint8","internalType":"enum CoreStorage.Comparison"},{"name":"yesWins","type":"bool","internalType":"bool"},{"name":"isResolved","type":"bool","internalType":"bool"},{"name":"oracleDecimals","type":"uint8","internalType":"uint8"}]}],"stateMutability":"view"},{"type":"function","name":"maxInstantJumpE18","inputs":[],"outputs":[{"name":"","type":"uint256","internalType":"uint256"}],"stateMutability":"view"},{"type":"function","name":"maxUsdcPerTrade","inputs":[],"outputs":[{"name":"","type":"uint256","internalType":"uint256"}],"stateMutability":"view"},{"type":"function","name":"minLiquidityAdd","inputs":[],"outputs":[{"name":"","type":"uint256","internalType":"uint256"}],"stateMutability":"view"},{"type":"function","name":"minMarketSeed","inputs":[],"outputs":[{"name":"","type":"uint256","internalType":"uint256"}],"stateMutability":"view"},{"type":"function","name":"minTimelockDelay","inputs":[],"outputs":[{"name":"","type":"uint256","internalType":"uint256"}],"stateMutability":"view"},{"type":"function","name":"opNonce","inputs":[],"outputs":[{"name":"","type":"uint256","internalType":"uint256"}],"stateMutability":"view"},{"type":"function","name":"ops","inputs":[{"name":"","type":"bytes32","internalType":"bytes32"}],"outputs":[{"name":"tag","type":"bytes32","internalType":"bytes32"},{"name":"dataHash","type":"bytes32","internalType":"bytes32"},{"name":"readyAt","type":"uint256","internalType":"uint256"},{"name":"status","type":"uint8","internalType":"enum CoreStorage.OpStatus"}],"stateMutability":"view"},{"type":"function","name":"pendingLpResidual","inputs":[{"name":"id","type":"uint256","internalType":"uint256"},{"name":"lp","type":"address","internalType":"address"}],"outputs":[{"name":"","type":"uint256","internalType":"uint256"}],"stateMutability":"view"},{"type":"function","name":"redeem","inputs":[{"name":"id","type":"uint256","internalType":"uint256"},{"name":"isYes","type":"bool","internalType":"bool"}],"outputs":[],"stateMutability":"nonpayable"},{"type":"function","name":"resolveMarketWithPrice","inputs":[{"name":"id","type":"uint256","internalType":"uint256"},{"name":"price","type":"uint256","internalType":"uint256"}],"outputs":[],"stateMutability":"nonpayable"},{"type":"function","name":"treasury","inputs":[],"outputs":[{"name":"","type":"address","internalType":"address"}],"stateMutability":"view"},{"type":"function","name":"usdc","inputs":[],"outputs":[{"name":"","type":"address","internalType":"address"}],"stateMutability":"view"},{"type":"event","name":"LpResidualClaimed","inputs":[{"name":"id","type":"uint256","indexed":true,"internalType":"uint256"},{"name":"lp","type":"address","indexed":true,"internalType":"address"},{"name":"amount","type":"uint256","indexed":false,"internalType":"uint256"}],"anonymous":false},{"type":"event","name":"MarketCancelled","inputs":[{"name":"id","type":"uint256","indexed":true,"internalType":"uint256"}],"anonymous":false},{"type":"event","name":"MarketResolved","inputs":[{"name":"id","type":"uint256","indexed":true,"internalType":"uint256"},{"name":"yesWins","type":"bool","indexed":false,"internalType":"bool"}],"anonymous":false},{"type":"event","name":"Redeemed","inputs":[{"name":"id","type":"uint256","indexed":true,"internalType":"uint256"},{"name":"user","type":"address","indexed":true,"internalType":"address"},{"name":"payoutUSDC","type":"uint256","indexed":false,"internalType":"uint256"}],"anonymous":false},{"type":"event","name":"ResidualFinalized","inputs":[{"name":"id","type":"uint256","indexed":true,"internalType":"uint256"},{"name":"residue","type":"uint256","indexed":false,"internalType":"uint256"},{"name":"totalLp","type":"uint256","indexed":false,"internalType":"uint256"}],"anonymous":false},{"type":"error","name":"DustAmount","inputs":[]},{"type":"error","name":"InvalidExpiry","inputs":[]},{"type":"error","name":"InvalidMarket","inputs":[]},{"type":"error","name":"MarketNotActive","inputs":[]},{"type":"error","name":"MarketNotResolved","inputs":[]},{"type":"error","name":"NotAuthorized","inputs":[]},{"type":"error","name":"SafeERC20FailedOperation","inputs":[{"name":"token","type":"address","internalType":"address"}]},{"type":"error","name":"SolvencyIssue","inputs":[]}],"bytecode":{"object":"0x60808060405234610016576113e0908161001b8239f35b5f80fdfe60c08060405260049081361015610014575f80fd5b5f915f3560e01c918263028390bd1461113d57508163028aa4ee1461111c5781630615e22a146110ff578163249d39e9146110e35781632c7dc319146110a25781632ed13b78146110855781633e413bee1461105e578163572ddbcb1461104257816361d027b31461101a5781636329a66a14610fe05781636735172914610fbd578163692a34f414610f655781636aa083b914610f2e5781636bcbb8a514610ef75781636dba319c14610ebd5781637c16cd9e14610ea85781637f8a3f8c14610e80578163919cab1f14610e5c578163969ea86b14610e3f5781639da4f13d14610e175781639f29c18f14610df6578163aa93f46214610dd7578163ae42820c14610d9d578163b1283e7714610af4578163b7a8d60e14610ac7578163c16de9c714610aaa578163cab7cde9146106ad578163d063c72414610673578163d105e1c614610656578163d65a06b0146102c7578163e72012a71461029957508063e998985e1461025e578063ec97908214610240578063f5b9f41614610222578063f5d7eeaf146101e75763ffe2a945146101ad575f80fd5b346101e45760406101bd36611157565b92908152600f602052209060018060a01b03165f52602052602060405f2054604051908152f35b80fd5b50346101e457806003193601126101e45760206040517fea0a90cd6dac6e6bb5f9c85bc78075cbca424cf853bf131e30cae433318da0808152f35b50346101e457806003193601126101e4576020600554604051908152f35b50346101e457806003193601126101e4576020600c54604051908152f35b50346101e457806003193601126101e45760206040517ffb7970db71b5d6f6b5d5355a31ca44c1e2ed199b82b881fca32583ec66a6b7748152f35b9050346102c35760203660031901126102c357602091604091358152601083522054604051908152f35b5080fd5b90503461053a57604036600319011261053a578035602435918215159081840361053a57600a5461053a576001600a55825f52602090600b825260405f209460018060a01b0391828754169687156106465760128101549760ff8960101c1615610635578584156105cf576040516370a0823160e01b8152338582015291829060249082905afa90811561052f575f916105a2575b50955b8615610591575f9860ff600684015460301c1661037b8161117d565b6001810361056e575060081c60ff1615151461055f575b871561054f5760058101928884541061053e5789929190156104745754841695863b156104705760408051632770a7eb60e21b81523393810193845260208401929092529096839288928391859183910103925af1948515610463578795610446575b505092610436917fa18626381edd3d7a115c4a09f678bb79665034a541affcdba9fe65a1d3d107ee945b61042a8382546111e5565b9055875416339061134f565b6040519384523393a380600a5580f35b6104529192955061119b565b61045f578492865f6103f5565b8580fd5b50604051903d90823e3d90fd5b8280fd5b8495969394919250600101541691823b1561053a5760408051632770a7eb60e21b815233938101938452602084019290925290925f9284928391859183910103925af1801561052f576104f0575b50847fa18626381edd3d7a115c4a09f678bb79665034a541affcdba9fe65a1d3d107ee93926104369261041f565b6104369196507fa18626381edd3d7a115c4a09f678bb79665034a541affcdba9fe65a1d3d107ee9392610523879261119b565b5f9792509293506104c2565b6040513d5f823e3d90fd5b5f80fd5b604051632071487960e11b81528390fd5b50604051631d25e4d760e01b8152fd5b64e8d4a5100086049750610392565b90506002915061057d8161117d565b036103925764e8d4a5100086049750610392565b604051631d25e4d760e01b81528390fd5b90508581813d83116105c8575b6105b981836111c3565b8101031261053a57515f61035c565b503d6105af565b60018301546040516370a0823160e01b8152338682015292508290602490829089165afa90811561052f575f91610608575b509561035f565b90508581813d831161062e575b61061f81836111c3565b8101031261053a57515f610601565b503d610615565b60405163174b639360e11b81528390fd5b50604051639db8d5b160e01b8152fd5b3461053a575f36600319011261053a576020600754604051908152f35b3461053a575f36600319011261053a5760206040517fa2d8aacac1aaa86712a1ceac3c4524e6ff8d62059ccd43ade1a60d5835f86bb68152f35b3461053a57604036600319011261053a576002548135916001600160a01b0391602435919083163303610a9b57835f52602091600b835260405f20908482541615610a8a5760ff600683015460301c166107068161117d565b610a7957600e8201544210610a695760128201549160ff8360101c16610a5857601101549081811115610a2d57505060ff166107418161117d565b15925b845f52600b835260405f2093857f4927fe38919783250023d27e65a3e56b6b5c3e49364e51674a41ef08d62460d985601288018415159062010000815461ff008460081b169062ffff0019161717905560068901660100000000000066ff00000000000019825416179055604051908152a215610961578354166040516318160ddd60e01b815283818481855afa90811561052f5784905f92610933575b506040516370a0823160e01b815230858201529192829060249082905afa90811561052f575f91610901575b5061081f9064e8d4a51000926111e5565b04926005810193845481811161083157005b8161083b916111e5565b9455600981019182548015918215806108f8575b61085557005b670de0b6b3a7640000928388029388850414881517156108e5576108d25750604094927f2297d9f079884cc9504d1f17036aa3396dc71f1110c4b8584d52bb4948fa200d9694926108b5600b938a5f5260108752885f2092048254611274565b9055016108c3848254611274565b905554908351928352820152a2005b601290634e487b7160e01b5f525260245ffd5b601182634e487b7160e01b5f525260245ffd5b5086151561084f565b90508381813d831161092c575b61091881836111c3565b8101031261053a575164e8d4a5100061080e565b503d61090e565b809250813d831161095a575b61094981836111c3565b8101031261053a57518360246107e2565b503d61093f565b6001840154166040516318160ddd60e01b815283818481855afa90811561052f5784905f926109ff575b506040516370a0823160e01b815230858201529192829060249082905afa90811561052f575f916109cd575b506109c89064e8d4a51000926111e5565b61081f565b90508381813d83116109f8575b6109e481836111c3565b8101031261053a575164e8d4a510006109b7565b503d6109da565b809250813d8311610a26575b610a1581836111c3565b8101031261053a575183602461098b565b503d610a0b565b1015610a495760ff60019116610a428161117d565b1492610744565b60ff60029116610a428161117d565b604051635a90bb8d60e11b81528490fd5b60405162d36c8560e81b81528390fd5b604051635a90bb8d60e11b81528390fd5b604051639db8d5b160e01b81528390fd5b60405163ea8e4eb560e01b8152fd5b3461053a575f36600319011261053a576020600654604051908152f35b3461053a57602036600319011261053a57600a5461053a57610aee906001600a5535611281565b5f600a55005b3461053a57602036600319011261053a5780355f52600b60205260405f2060018060a01b038154169060018060a01b03600182015416608052600281015460038201548483015460058401546006850154600786015460018060a01b0360088801541691600988015493600a89015495600b8a015497600c8b015499600d8c01549b60405160a05260a05161012060a051011067ffffffffffffffff61012060a051011117610d8a5761012060a05101604052600e81015460a05152600f810154600260ff82161015610d7657601260ff9796959493928289809416602060a051015260018060a01b039060081c16604060a05101526010810154606060a05101526011810154608060a05101520154610c0f82821661117d565b81811660a080510152818160081c16151560c060a0510152818160101c16151560e060a051015260181c1661010060a0510152604080519e8f9081526080516020820152015260608d015260808c015260a08b015261ffff811660c08b015261ffff8160101c1660e08b015261ffff8160201c166101008b0152610c97828260301c1661117d565b60301c166101208901526101408801526101608701526101808601526101a08501526101c08401526101e083015261020082015260a05151610220820152602060a05101516002811015610d635761024082015260a08051604001516001600160a01b03166102608301528051606001516102808301528051608001516102a0830152805101516103409250610d2c8161117d565b6102c082015260c060a051015115156102e082015260e060a0510151151561030082015260ff61010060a051015116610320820152f35b602183634e487b7160e01b5f525260245ffd5b5060218f634e487b7160e01b5f525260245ffd5b60418f634e487b7160e01b5f525260245ffd5b3461053a575f36600319011261053a5760206040517fd3065a24ad9e7725d223007135762d2902038999e3e5829146654498a58d97958152f35b3461053a575f36600319011261053a57602060405164e8d4a510008152f35b3461053a576020610e0f610e0936611157565b90611206565b604051908152f35b3461053a57602036600319011261053a57355f52600e602052602060405f2054604051908152f35b3461053a575f36600319011261053a576020601454604051908152f35b3461053a575f36600319011261053a57602061ffff60095460101c16604051908152f35b3461053a575f36600319011261053a576002546040516001600160a01b039091168152602090f35b3461053a57602036600319011261053a575f80fd5b3461053a575f36600319011261053a5760206040517f19aebff3bbcef323e5c760a3ed420922e4d158f9d2c6e69bda4f540960d86e978152f35b3461053a57610f0536611157565b905f52600d60205260405f209060018060a01b03165f52602052602060405f2054604051908152f35b3461053a57610f3c36611157565b905f52601160205260405f209060018060a01b03165f52602052602060405f2054604051908152f35b3461053a57602036600319011261053a5780355f52601560205260405f2080549060018101549060ff6003600283015492015416916040519384526020840152604083015282811015610d6357608092506060820152f35b3461053a575f36600319011261053a57602060095461ffff60405191831c168152f35b3461053a575f36600319011261053a5760206040517f59d087672531b50700275907548a6c10240fc27658dfda79d5c528581d070b5e8152f35b3461053a575f36600319011261053a576001546040516001600160a01b039091168152602090f35b3461053a575f36600319011261053a5760209054604051908152f35b3461053a575f36600319011261053a575f546040516001600160a01b039091168152602090f35b3461053a575f36600319011261053a576020600854604051908152f35b3461053a57602036600319011261053a573563ffffffff60e01b811680910361053a575f526012602052602060018060a01b0360405f205416604051908152f35b3461053a575f36600319011261053a5760206040516127108152f35b3461053a575f36600319011261053a576020600354604051908152f35b3461053a575f36600319011261053a57602061ffff60095416604051908152f35b3461053a575f36600319011261053a576020906013548152f35b604090600319011261053a57600435906024356001600160a01b038116810361053a5790565b6003111561118757565b634e487b7160e01b5f52602160045260245ffd5b67ffffffffffffffff81116111af57604052565b634e487b7160e01b5f52604160045260245ffd5b90601f8019910116810190811067ffffffffffffffff8211176111af57604052565b919082039182116111f257565b634e487b7160e01b5f52601160045260245ffd5b90815f52600d60205260405f209060018060a01b031690815f5260205260405f205490825f52601060205260405f2054918281029281840414901517156111f257611271925f52601160205260405f20905f52602052670de0b6b3a764000060405f205491046111e5565b90565b919082018092116111f257565b805f52600b602052604090815f209160018060a01b03808454161561133e576112aa3384611206565b93841561133757600b0180548511611326576112fa918591855f526011602052845f20335f52602052845f206112e1848254611274565b90556112ee8382546111e5565b905533905f541661134f565b519182527ff5cc3364915e9aae081452b106ef94234ee9c414117208fe7e34211c4e8941c260203393a3565b8251632071487960e11b8152600490fd5b5050505050565b8151639db8d5b160e01b8152600490fd5b60405163a9059cbb60e01b60208083019182526001600160a01b0394909416602483015260448083019590955293815290925f9161138e6064826111c3565b519082855af11561052f575f513d6113d757506001600160a01b0381163b155b6113b55750565b604051635274afe760e01b81526001600160a01b039091166004820152602490fd5b600114156113ae56","linkReferences":{}},"methodIdentifiers":{"BPS()":"249d39e9","MARKET_CREATOR_ROLE()":"ae42820c","OP_PAUSE()":"6329a66a","OP_SET_FACET()":"e998985e","OP_SET_RESOLVER()":"d063c724","OP_SET_TREASURY()":"f5d7eeaf","OP_UNPAUSE()":"6dba319c","USDC_TO_E18()":"aa93f462","accFeePerUSDCE18(uint256)":"9da4f13d","accResidualPerUSDCE18(uint256)":"e72012a7","cancelMarket(uint256)":"7c16cd9e","chainlinkResolver()":"7f8a3f8c","claimLpResidual(uint256)":"b7a8d60e","defaultFeeLpBps()":"919cab1f","defaultFeeTreasuryBps()":"028aa4ee","defaultFeeVaultBps()":"67351729","dustSharesE18()":"c16de9c7","facetOf(bytes4)":"2c7dc319","liquidityMultiplierE18()":"d105e1c6","lpFeeDebt(uint256,address)":"ffe2a945","lpResidualDebt(uint256,address)":"6aa083b9","lpShares(uint256,address)":"6bcbb8a5","marketCount()":"ec979082","markets(uint256)":"b1283e77","maxInstantJumpE18()":"2ed13b78","maxUsdcPerTrade()":"0615e22a","minLiquidityAdd()":"f5b9f416","minMarketSeed()":"572ddbcb","minTimelockDelay()":"028390bd","opNonce()":"969ea86b","ops(bytes32)":"692a34f4","pendingLpResidual(uint256,address)":"9f29c18f","redeem(uint256,bool)":"d65a06b0","resolveMarketWithPrice(uint256,uint256)":"cab7cde9","treasury()":"61d027b3","usdc()":"3e413bee"},"id":79}