{"abi":[{"type":"function","name":"BPS","inputs":[],"outputs":[{"name":"","type":"uint256","internalType":"uint256"}],"stateMutability":"view"},{"type":"function","name":"MARKET_CREATOR_ROLE","inputs":[],"outputs":[{"name":"","type":"bytes32","internalType":"bytes32"}],"stateMutability":"view"},{"type":"function","name":"MAX_SHARES","inputs":[],"outputs":[{"name":"","type":"uint256","internalType":"uint256"}],"stateMutability":"view"},{"type":"function","name":"MIN_LP_USDC","inputs":[],"outputs":[{"name":"","type":"uint256","internalType":"uint256"}],"stateMutability":"view"},{"type":"function","name":"OP_CANCEL_MARKET","inputs":[],"outputs":[{"name":"","type":"bytes32","internalType":"bytes32"}],"stateMutability":"view"},{"type":"function","name":"OP_EXPIRY_WINDOW","inputs":[],"outputs":[{"name":"","type":"uint256","internalType":"uint256"}],"stateMutability":"view"},{"type":"function","name":"OP_PAUSE","inputs":[],"outputs":[{"name":"","type":"bytes32","internalType":"bytes32"}],"stateMutability":"view"},{"type":"function","name":"OP_RECOVER_ETH","inputs":[],"outputs":[{"name":"","type":"bytes32","internalType":"bytes32"}],"stateMutability":"view"},{"type":"function","name":"OP_REMOVE_FACET","inputs":[],"outputs":[{"name":"","type":"bytes32","internalType":"bytes32"}],"stateMutability":"view"},{"type":"function","name":"OP_SET_FACET","inputs":[],"outputs":[{"name":"","type":"bytes32","internalType":"bytes32"}],"stateMutability":"view"},{"type":"function","name":"OP_SET_RESOLVER","inputs":[],"outputs":[{"name":"","type":"bytes32","internalType":"bytes32"}],"stateMutability":"view"},{"type":"function","name":"OP_SET_TREASURY","inputs":[],"outputs":[{"name":"","type":"bytes32","internalType":"bytes32"}],"stateMutability":"view"},{"type":"function","name":"OP_UNPAUSE","inputs":[],"outputs":[{"name":"","type":"bytes32","internalType":"bytes32"}],"stateMutability":"view"},{"type":"function","name":"STORAGE_VERSION","inputs":[],"outputs":[{"name":"","type":"uint256","internalType":"uint256"}],"stateMutability":"view"},{"type":"function","name":"USDC_TO_E18","inputs":[],"outputs":[{"name":"","type":"uint256","internalType":"uint256"}],"stateMutability":"view"},{"type":"function","name":"accFeePerUSDCE18","inputs":[{"name":"","type":"uint256","internalType":"uint256"}],"outputs":[{"name":"","type":"uint256","internalType":"uint256"}],"stateMutability":"view"},{"type":"function","name":"accResidualPerUSDCE18","inputs":[{"name":"","type":"uint256","internalType":"uint256"}],"outputs":[{"name":"","type":"uint256","internalType":"uint256"}],"stateMutability":"view"},{"type":"function","name":"cancelMarket","inputs":[{"name":"","type":"uint256","internalType":"uint256"}],"outputs":[],"stateMutability":"pure"},{"type":"function","name":"chainlinkResolver","inputs":[],"outputs":[{"name":"","type":"address","internalType":"address"}],"stateMutability":"view"},{"type":"function","name":"claimLpResidual","inputs":[{"name":"id","type":"uint256","internalType":"uint256"}],"outputs":[],"stateMutability":"nonpayable"},{"type":"function","name":"defaultFeeLpBps","inputs":[],"outputs":[{"name":"","type":"uint16","internalType":"uint16"}],"stateMutability":"view"},{"type":"function","name":"defaultFeeTreasuryBps","inputs":[],"outputs":[{"name":"","type":"uint16","internalType":"uint16"}],"stateMutability":"view"},{"type":"function","name":"defaultFeeVaultBps","inputs":[],"outputs":[{"name":"","type":"uint16","internalType":"uint16"}],"stateMutability":"view"},{"type":"function","name":"dustSharesE18","inputs":[],"outputs":[{"name":"","type":"uint256","internalType":"uint256"}],"stateMutability":"view"},{"type":"function","name":"emergencyCancelMarket","inputs":[{"name":"opId","type":"bytes32","internalType":"bytes32"},{"name":"id","type":"uint256","internalType":"uint256"}],"outputs":[],"stateMutability":"nonpayable"},{"type":"function","name":"facetOf","inputs":[{"name":"","type":"bytes4","internalType":"bytes4"}],"outputs":[{"name":"","type":"address","internalType":"address"}],"stateMutability":"view"},{"type":"function","name":"liquidityMultiplierE18","inputs":[],"outputs":[{"name":"","type":"uint256","internalType":"uint256"}],"stateMutability":"view"},{"type":"function","name":"lpFeeDebt","inputs":[{"name":"","type":"uint256","internalType":"uint256"},{"name":"","type":"address","internalType":"address"}],"outputs":[{"name":"","type":"uint256","internalType":"uint256"}],"stateMutability":"view"},{"type":"function","name":"lpFeeDustUSDC","inputs":[{"name":"","type":"uint256","internalType":"uint256"}],"outputs":[{"name":"","type":"uint256","internalType":"uint256"}],"stateMutability":"view"},{"type":"function","name":"lpResidualDebt","inputs":[{"name":"","type":"uint256","internalType":"uint256"},{"name":"","type":"address","internalType":"address"}],"outputs":[{"name":"","type":"uint256","internalType":"uint256"}],"stateMutability":"view"},{"type":"function","name":"lpResidualDustUSDC","inputs":[{"name":"","type":"uint256","internalType":"uint256"}],"outputs":[{"name":"","type":"uint256","internalType":"uint256"}],"stateMutability":"view"},{"type":"function","name":"lpShares","inputs":[{"name":"","type":"uint256","internalType":"uint256"},{"name":"","type":"address","internalType":"address"}],"outputs":[{"name":"","type":"uint256","internalType":"uint256"}],"stateMutability":"view"},{"type":"function","name":"marketCount","inputs":[],"outputs":[{"name":"","type":"uint256","internalType":"uint256"}],"stateMutability":"view"},{"type":"function","name":"markets","inputs":[{"name":"","type":"uint256","internalType":"uint256"}],"outputs":[{"name":"yes","type":"address","internalType":"contract PositionToken"},{"name":"no","type":"address","internalType":"contract PositionToken"},{"name":"qYes","type":"uint256","internalType":"uint256"},{"name":"qNo","type":"uint256","internalType":"uint256"},{"name":"bE18","type":"uint256","internalType":"uint256"},{"name":"usdcVault","type":"uint256","internalType":"uint256"},{"name":"feeTreasuryBps","type":"uint16","internalType":"uint16"},{"name":"feeLpBps","type":"uint16","internalType":"uint16"},{"name":"feeVaultBps","type":"uint16","internalType":"uint16"},{"name":"status","type":"uint8","internalType":"enum CoreStorage.MarketStatus"},{"name":"questionHash","type":"bytes32","internalType":"bytes32"},{"name":"question","type":"string","internalType":"string"},{"name":"creator","type":"address","internalType":"address"},{"name":"totalLpUsdc","type":"uint256","internalType":"uint256"},{"name":"lpFeesUSDC","type":"uint256","internalType":"uint256"},{"name":"residualUSDC","type":"uint256","internalType":"uint256"},{"name":"priceBandThresholdUSDC","type":"uint256","internalType":"uint256"},{"name":"maxJumpE18","type":"uint256","internalType":"uint256"},{"name":"resolution","type":"tuple","internalType":"struct CoreStorage.ResolutionConfig","components":[{"name":"expiryTimestamp","type":"uint256","internalType":"uint256"},{"name":"oracleType","type":"uint8","internalType":"enum CoreStorage.OracleType"},{"name":"oracleAddress","type":"address","internalType":"address"},{"name":"priceFeedId","type":"bytes32","internalType":"bytes32"},{"name":"targetValue","type":"uint256","internalType":"uint256"},{"name":"comparison","type":"uint8","internalType":"enum CoreStorage.Comparison"},{"name":"yesWins","type":"bool","internalType":"bool"},{"name":"isResolved","type":"bool","internalType":"bool"},{"name":"oracleDecimals","type":"uint8","internalType":"uint8"}]}],"stateMutability":"view"},{"type":"function","name":"maxInstantJumpE18","inputs":[],"outputs":[{"name":"","type":"uint256","internalType":"uint256"}],"stateMutability":"view"},{"type":"function","name":"maxUsdcPerTrade","inputs":[],"outputs":[{"name":"","type":"uint256","internalType":"uint256"}],"stateMutability":"view"},{"type":"function","name":"minLiquidityAdd","inputs":[],"outputs":[{"name":"","type":"uint256","internalType":"uint256"}],"stateMutability":"view"},{"type":"function","name":"minMarketSeed","inputs":[],"outputs":[{"name":"","type":"uint256","internalType":"uint256"}],"stateMutability":"view"},{"type":"function","name":"minTimelockDelay","inputs":[],"outputs":[{"name":"","type":"uint256","internalType":"uint256"}],"stateMutability":"view"},{"type":"function","name":"opNonce","inputs":[],"outputs":[{"name":"","type":"uint256","internalType":"uint256"}],"stateMutability":"view"},{"type":"function","name":"ops","inputs":[{"name":"","type":"bytes32","internalType":"bytes32"}],"outputs":[{"name":"tag","type":"bytes32","internalType":"bytes32"},{"name":"dataHash","type":"bytes32","internalType":"bytes32"},{"name":"readyAt","type":"uint256","internalType":"uint256"},{"name":"status","type":"uint8","internalType":"enum CoreStorage.OpStatus"}],"stateMutability":"view"},{"type":"function","name":"pendingLpResidual","inputs":[{"name":"id","type":"uint256","internalType":"uint256"},{"name":"lp","type":"address","internalType":"address"}],"outputs":[{"name":"","type":"uint256","internalType":"uint256"}],"stateMutability":"view"},{"type":"function","name":"redeem","inputs":[{"name":"id","type":"uint256","internalType":"uint256"},{"name":"isYes","type":"bool","internalType":"bool"}],"outputs":[],"stateMutability":"nonpayable"},{"type":"function","name":"resolveMarketWithPrice","inputs":[{"name":"id","type":"uint256","internalType":"uint256"},{"name":"price","type":"uint256","internalType":"uint256"}],"outputs":[],"stateMutability":"nonpayable"},{"type":"function","name":"treasury","inputs":[],"outputs":[{"name":"","type":"address","internalType":"address"}],"stateMutability":"view"},{"type":"function","name":"usdc","inputs":[],"outputs":[{"name":"","type":"address","internalType":"address"}],"stateMutability":"view"},{"type":"event","name":"LpResidualClaimed","inputs":[{"name":"id","type":"uint256","indexed":true,"internalType":"uint256"},{"name":"lp","type":"address","indexed":true,"internalType":"address"},{"name":"amount","type":"uint256","indexed":false,"internalType":"uint256"}],"anonymous":false},{"type":"event","name":"MarketCancelled","inputs":[{"name":"id","type":"uint256","indexed":true,"internalType":"uint256"}],"anonymous":false},{"type":"event","name":"MarketResolved","inputs":[{"name":"id","type":"uint256","indexed":true,"internalType":"uint256"},{"name":"yesWins","type":"bool","indexed":false,"internalType":"bool"}],"anonymous":false},{"type":"event","name":"OperationCancelled","inputs":[{"name":"opId","type":"bytes32","indexed":true,"internalType":"bytes32"}],"anonymous":false},{"type":"event","name":"OperationExecuted","inputs":[{"name":"opId","type":"bytes32","indexed":true,"internalType":"bytes32"}],"anonymous":false},{"type":"event","name":"OperationScheduled","inputs":[{"name":"opId","type":"bytes32","indexed":true,"internalType":"bytes32"},{"name":"tag","type":"bytes32","indexed":true,"internalType":"bytes32"},{"name":"readyAt","type":"uint256","indexed":false,"internalType":"uint256"}],"anonymous":false},{"type":"event","name":"Redeemed","inputs":[{"name":"id","type":"uint256","indexed":true,"internalType":"uint256"},{"name":"user","type":"address","indexed":true,"internalType":"address"},{"name":"payoutUSDC","type":"uint256","indexed":false,"internalType":"uint256"}],"anonymous":false},{"type":"event","name":"ResidualFinalized","inputs":[{"name":"id","type":"uint256","indexed":true,"internalType":"uint256"},{"name":"residue","type":"uint256","indexed":false,"internalType":"uint256"},{"name":"totalLp","type":"uint256","indexed":false,"internalType":"uint256"}],"anonymous":false},{"type":"error","name":"DataMismatch","inputs":[]},{"type":"error","name":"DustAmount","inputs":[]},{"type":"error","name":"InvalidExpiry","inputs":[]},{"type":"error","name":"InvalidMarket","inputs":[]},{"type":"error","name":"MarketNotActive","inputs":[]},{"type":"error","name":"MarketNotResolved","inputs":[]},{"type":"error","name":"NotAuthorized","inputs":[]},{"type":"error","name":"OpExpired","inputs":[]},{"type":"error","name":"OpInvalid","inputs":[]},{"type":"error","name":"OpNotReady","inputs":[{"name":"readyAt","type":"uint256","internalType":"uint256"}]},{"type":"error","name":"SafeERC20FailedOperation","inputs":[{"name":"token","type":"address","internalType":"address"}]},{"type":"error","name":"SolvencyIssue","inputs":[]},{"type":"error","name":"TagMismatch","inputs":[]}],"bytecode":{"object":"0x6080806040523461001657611ceb908161001b8239f35b5f80fdfe6101008060405260049081361015610015575f80fd5b5f915f3560e01c918263028390bd14611a1157508163028aa4ee146119f0578163032a57d2146119d35781630615e22a146119b6578163249d39e91461199a57816327b6eeba146119605781632c7dc3191461191f5781632ed13b78146119025781632f922f2f146118da5781633e413bee146118b35781633e8ff57b146118805781633fb5f6e81461185857816343a630f51461183b578163572ddbcb1461181f57816361d027b3146117f75781636329a66a146117bd578163673517291461179a578163692a34f4146117425781636aa083b91461170b5781636bcbb8a5146116d45781636dba319c1461169a5781637b8c5ba6146116605781637c16cd9e1461164b5781637f8a3f8c14611623578163919cab1f146115ff578163969ea86b146115e25781639da4f13d146115ba5781639ef2b3811461159f5781639f29c18f1461157e578163aa93f4621461155f578163ae42820c14611525578163b1283e771461110e578163b7a8d60e146110e1578163c16de9c7146110c4578163c996d69014610b9a578163cab7cde91461075a578163d063c72414610720578163d105e1c614610703578163d65a06b014610371578163e72012a71461034357508063e998985e14610308578063ec979082146102ea578063f5b9f416146102cc578063f5d7eeaf14610291578063f7050eae146102565763ffe2a9451461021c575f80fd5b3461025357604061022c36611a2b565b92908152600f602052209060018060a01b03165f52602052602060405f2054604051908152f35b80fd5b503461025357806003193601126102535760206040517f45487ebba72ead203c633e826e1c055a8a179c4ce023c1650f84a2b55ff3cec18152f35b503461025357806003193601126102535760206040517fea0a90cd6dac6e6bb5f9c85bc78075cbca424cf853bf131e30cae433318da0808152f35b50346102535780600319360112610253576020600554604051908152f35b50346102535780600319360112610253576020600c54604051908152f35b503461025357806003193601126102535760206040517ffb7970db71b5d6f6b5d5355a31ca44c1e2ed199b82b881fca32583ec66a6b7748152f35b90503461036d57602036600319011261036d57602091604091358152601083522054604051908152f35b5080fd5b9050346105e45760403660031901126105e457803560243591821515908184036105e457600a546105e4576001600a55825f52602090600b825260405f209460018060a01b0391828754169687156106f35760138101549760ff8960101c16156106e25785841561067c576040516370a0823160e01b8152338582015291829060249082905afa9081156105d9575f9161064f575b50955b861561063e575f9860ff600684015460301c1661042581611a9b565b60018103610618575060081c60ff16151514610609575b87156105f9576005810192888454106105e857899291901561051e5754841695863b1561051a5760408051632770a7eb60e21b81523393810193845260208401929092529096839288928391859183910103925af194851561050d5787956104f0575b5050926104e0917fa18626381edd3d7a115c4a09f678bb79665034a541affcdba9fe65a1d3d107ee945b6104d4838254611afe565b90558754163390611c5a565b6040519384523393a380600a5580f35b6104fc91929550611a51565b610509578492865f61049f565b8580fd5b50604051903d90823e3d90fd5b8280fd5b8495969394919250600101541691823b156105e45760408051632770a7eb60e21b815233938101938452602084019290925290925f9284928391859183910103925af180156105d95761059a575b50847fa18626381edd3d7a115c4a09f678bb79665034a541affcdba9fe65a1d3d107ee93926104e0926104c9565b6104e09196507fa18626381edd3d7a115c4a09f678bb79665034a541affcdba9fe65a1d3d107ee93926105cd8792611a51565b5f97925092935061056c565b6040513d5f823e3d90fd5b5f80fd5b604051632071487960e11b81528390fd5b50604051631d25e4d760e01b8152fd5b64e8d4a510008604975061043c565b90506002915061062781611a9b565b0361043c5764e8d4a51000860460011c975061043c565b604051631d25e4d760e01b81528390fd5b90508581813d8311610675575b6106668183611a79565b810103126105e457515f610406565b503d61065c565b60018301546040516370a0823160e01b8152338682015292508290602490829089165afa9081156105d9575f916106b5575b5095610409565b90508581813d83116106db575b6106cc8183611a79565b810103126105e457515f6106ae565b503d6106c2565b60405163174b639360e11b81528390fd5b50604051639db8d5b160e01b8152fd5b346105e4575f3660031901126105e4576020600754604051908152f35b346105e4575f3660031901126105e45760206040517fa2d8aacac1aaa86712a1ceac3c4524e6ff8d62059ccd43ade1a60d5835f86bb68152f35b346105e45760403660031901126105e4576002548135916001600160a01b0391602435919083163303610b8b57835f52602091600b835260405f20908482541615610b7a5760ff600683015460301c166107b381611a9b565b610b6957600f8201544210610b595760138201549160ff8360101c16610b4857601201549081811115610b1d57505060ff166107ee81611a9b565b15925b845f52600b835260405f2093857f4927fe38919783250023d27e65a3e56b6b5c3e49364e51674a41ef08d62460d985601388018415159062010000815461ff008460081b169062ffff0019161717905560068901660100000000000066ff00000000000019825416179055604051908152a215610a51578354166040516318160ddd60e01b815283818481855afa9081156105d95784905f92610a23575b506040516370a0823160e01b815230858201529192829060249082905afa9081156105d9575f916109f1575b506108cc9064e8d4a5100092611afe565b0492600581019384548181116108de57005b816108e891611afe565b9455600a8101918254801515806109e8575b61090057005b865f526017855261091560405f205487611b7f565b90670de0b6b3a764000092838302908382048514841517156109d5575092600c9261096760409896937f2297d9f079884cc9504d1f17036aa3396dc71f1110c4b8584d52bb4948fa200d9a9896611ae0565b9182156109c25761099461099b938c5f52601089528a5f2061098a828254611b7f565b9055875490611ab9565b0490611afe565b885f5260178552865f20555b016109b3848254611b7f565b905554908351928352820152a2005b509050885f5260178552865f20556109a7565b601190634e487b7160e01b5f525260245ffd5b508515156108fa565b90508381813d8311610a1c575b610a088183611a79565b810103126105e4575164e8d4a510006108bb565b503d6109fe565b809250813d8311610a4a575b610a398183611a79565b810103126105e4575183602461088f565b503d610a2f565b6001840154166040516318160ddd60e01b815283818481855afa9081156105d95784905f92610aef575b506040516370a0823160e01b815230858201529192829060249082905afa9081156105d9575f91610abd575b50610ab89064e8d4a5100092611afe565b6108cc565b90508381813d8311610ae8575b610ad48183611a79565b810103126105e4575164e8d4a51000610aa7565b503d610aca565b809250813d8311610b16575b610b058183611a79565b810103126105e45751836024610a7b565b503d610afb565b1015610b395760ff60019116610b3281611a9b565b14926107f1565b60ff60029116610b3281611a9b565b604051635a90bb8d60e11b81528490fd5b60405162d36c8560e81b81528390fd5b604051635a90bb8d60e11b81528390fd5b604051639db8d5b160e01b81528390fd5b60405163ea8e4eb560e01b8152fd5b346105e45760403660031901126105e457803560249081359260405191602092838101632474521560e21b81525f8683015233604483015260448252608082019167ffffffffffffffff92818110848211176110b257604052515f91829190305afa3d156110aa573d908282116110665760405191610c22601f8201601f1916880184611a79565b82523d5f8784013e5b15908115611089575b50611078576040805185810188815286825292918101918211818310176110665781604052835f526015865260405f2092600384019384549360ff85168881101561105457600103611046575060028101548042106110315762093a80810180911161101f57421161100e577f45487ebba72ead203c633e826e1c055a8a179c4ce023c1650f84a2b55ff3cec1815403610ffd57600101549151902003610fec5760ff19166002179055604051907f1277662f4b42b8a4069e99fb5e41ce8919d3c621156090ac08fb11adbcec66f95f80a25f858152600b84526040902080546001600160a01b039290831615610fde575060068101805460ff8160301c16610d3c81611a9b565b610fcd5766ff00000000000019166602000000000000179055601301805462ff0000191662010000179055604051857f2ca440fb7fca85d7f55d395a4abd94817330b83a62f3502efbb4770144e4ca975f80a2855f52600b845260405f2091808354166318160ddd60e01b9283815286818781855afa9081156105d9575f91610fa0575b506040519087828a816370a0823160e01b96878252308c8301525afa9081156105d9575f91610f6f575b610df49250611afe565b916001850154169260405190815286818781875afa9182156105d95787915f93610f3e575b5088604051809681938252308a8301525afa9283156105d9575f93610f0b575b5090610e4f6501d1a94a200093610e5593611afe565b90611b7f565b049360058201948554818111610e6757005b81610e7191611afe565b9555600a820192835480151580610f02575b610e8957005b875f5260178652610e9e60405f205488611b7f565b91670de0b6b3a76400009384840291848304861485151715610ef157505092600c9261096760409896937f2297d9f079884cc9504d1f17036aa3396dc71f1110c4b8584d52bb4948fa200d9a9896611ae0565b601190634e487b7160e01b5f52525ffd5b50861515610e83565b9250908583813d8311610f37575b610f238183611a79565b810103126105e45791519190610e4f610e39565b503d610f19565b8281939294503d8311610f68575b610f568183611a79565b810103126105e457869051918a610e19565b503d610f4c565b90508782813d8311610f99575b610f868183611a79565b810103126105e457610df4915190610dea565b503d610f7c565b90508681813d8311610fc6575b610fb78183611a79565b810103126105e4575189610dc0565b503d610fad565b604051635a90bb8d60e11b81528590fd5b639db8d5b160e01b81528390fd5b60405163866c41db60e01b81528490fd5b60405163548b963d60e11b81528790fd5b6040516306236e0360e11b81528790fd5b89601189634e487b7160e01b5f52525ffd5b878a9160405191621b0c1b60e51b8352820152fd5b6361941cd160e11b81528790fd5b8a60218a634e487b7160e01b5f52525ffd5b86604186634e487b7160e01b5f52525ffd5b60405163ea8e4eb560e01b81528390fd5b905084818051810103126105e4578401518015908115036105e45787610c34565b606090610c2b565b87604187634e487b7160e01b5f52525ffd5b346105e4575f3660031901126105e4576020600654604051908152f35b346105e45760203660031901126105e457600a546105e457611108906001600a5535611b8c565b5f600a55005b346105e45760203660031901126105e45780355f52600b60205260405f2060018060a01b038154169060018060a01b0360018201541660c052600281015491600382015492848301549360058401549460068501546007860154906040516080525f6008880154908160011c91600181161561151b575b6020831060018216146115085782608051526001811690815f146114e557506001146114a6575b6111be91506080519003608051611a79565b60018060a01b0360098801541697600a88015493600b89015495600c8a015497600d8b015499600e8c01549b60405160e05260e05161012060e051011067ffffffffffffffff61012060e0510111176114935761012060e05101604052600f81015460e051526010810154600260ff8216101561147f57601360ff98979695949392828a809416602060e051015260018060a01b039060081c16604060e05101526011810154606060e05101526012810154608060e05101520154611284828216611a9b565b81811660a060e0510152818160081c16151560c060e0510152818160101c16151560e08051015260181c1661010060e051015260405160a05260a0515260c051602060a0510152604060a0510152606060a0510152608060a051015260a08051015261ffff811660c060a051015261ffff8160101c1660e060a051015261ffff8160201c1661010060a051015261131f828260301c16611a9b565b60301c1661012060a051015261014060a051015261036061016060a051015260805151958661036060a05101525f5b87811061146457505f6103808860a05101015261018060a05101526101a060a05101526101c060a05101526101e060a051015261020060a051015261022060a051015260e0515161024060a0510152602060e0510151600281101561145157610380925061026060a051015260018060a01b03604060e05101511661028060a0510152606060e05101516102a060a0510152608060e05101516102c060a051015260a060e05101516113ff81611a9b565b6102e060a051015260c060e0510151151561030060a051015260e080510151151561032060a051015260ff61010060e05101511661034060a051015260a05190601f801991011660a05101030160a051f35b602183634e487b7160e01b5f525260245ffd5b80602080926080510101516103808260a0510101520161134e565b5060218f634e487b7160e01b5f525260245ffd5b60418f634e487b7160e01b5f525260245ffd5b50600888015f5260205f205f905b8282106114cd57506080516111be9250016020016111ac565b600181602092548385608051010152019101906114b4565b602092506111be93915060ff1916826080510152151560051b60805101016111ac565b60228c634e487b7160e01b5f525260245ffd5b91607f1691611185565b346105e4575f3660031901126105e45760206040517fd3065a24ad9e7725d223007135762d2902038999e3e5829146654498a58d97958152f35b346105e4575f3660031901126105e457602060405164e8d4a510008152f35b346105e457602061159761159136611a2b565b90611b0b565b604051908152f35b346105e4575f3660031901126105e457602060405160018152f35b346105e45760203660031901126105e457355f52600e602052602060405f2054604051908152f35b346105e4575f3660031901126105e4576020601454604051908152f35b346105e4575f3660031901126105e457602061ffff60095460101c16604051908152f35b346105e4575f3660031901126105e4576002546040516001600160a01b039091168152602090f35b346105e45760203660031901126105e4575f80fd5b346105e4575f3660031901126105e45760206040517fe5589cf51350e9a9b2df9829966e04dcf57f8fa87b52d7945643ac0eaff69e648152f35b346105e4575f3660031901126105e45760206040517f19aebff3bbcef323e5c760a3ed420922e4d158f9d2c6e69bda4f540960d86e978152f35b346105e4576116e236611a2b565b905f52600d60205260405f209060018060a01b03165f52602052602060405f2054604051908152f35b346105e45761171936611a2b565b905f52601160205260405f209060018060a01b03165f52602052602060405f2054604051908152f35b346105e45760203660031901126105e45780355f52601560205260405f2080549060018101549060ff600360028301549201541691604051938452602084015260408301528281101561145157608092506060820152f35b346105e4575f3660031901126105e457602060095461ffff60405191831c168152f35b346105e4575f3660031901126105e45760206040517f59d087672531b50700275907548a6c10240fc27658dfda79d5c528581d070b5e8152f35b346105e4575f3660031901126105e4576001546040516001600160a01b039091168152602090f35b346105e4575f3660031901126105e45760209054604051908152f35b346105e4575f3660031901126105e4576020604051620f42408152f35b346105e45760203660031901126105e457355f526017602052602060405f2054604051908152f35b346105e4575f3660031901126105e4576020604051789f4f2726179a224501d762422c946590d910000000000000008152f35b346105e4575f3660031901126105e4575f546040516001600160a01b039091168152602090f35b346105e45760203660031901126105e457355f526016602052602060405f2054604051908152f35b346105e4575f3660031901126105e4576020600854604051908152f35b346105e45760203660031901126105e4573563ffffffff60e01b81168091036105e4575f526012602052602060018060a01b0360405f205416604051908152f35b346105e4575f3660031901126105e45760206040517f24292cbf46b6e47bdb0682fd1c64fa171e74249bffad8ae2c4adcedcd31224c68152f35b346105e4575f3660031901126105e45760206040516127108152f35b346105e4575f3660031901126105e4576020600354604051908152f35b346105e4575f3660031901126105e457602060405162093a808152f35b346105e4575f3660031901126105e457602061ffff60095416604051908152f35b346105e4575f3660031901126105e4576020906013548152f35b60409060031901126105e457600435906024356001600160a01b03811681036105e45790565b67ffffffffffffffff8111611a6557604052565b634e487b7160e01b5f52604160045260245ffd5b90601f8019910116810190811067ffffffffffffffff821117611a6557604052565b60031115611aa557565b634e487b7160e01b5f52602160045260245ffd5b81810292918115918404141715611acc57565b634e487b7160e01b5f52601160045260245ffd5b8115611aea570490565b634e487b7160e01b5f52601260045260245ffd5b91908203918211611acc57565b90815f52600d60205260405f209060018060a01b031690815f52602052670de0b6b3a7640000611b4c60405f2054845f52601060205260405f205490611ab9565b04915f52601160205260405f20905f5260205260405f20548082115f14611b7957611b7691611afe565b90565b50505f90565b91908201809211611acc57565b805f52600b602052604090815f209160018060a01b038084541615611c4957611bb53384611b0b565b938415611c4257600c0180548511611c3157611c05918591855f526011602052845f20335f52602052845f20611bec848254611b7f565b9055611bf9838254611afe565b905533905f5416611c5a565b519182527ff5cc3364915e9aae081452b106ef94234ee9c414117208fe7e34211c4e8941c260203393a3565b8251632071487960e11b8152600490fd5b5050505050565b8151639db8d5b160e01b8152600490fd5b60405163a9059cbb60e01b60208083019182526001600160a01b0394909416602483015260448083019590955293815290925f91611c99606482611a79565b519082855af1156105d9575f513d611ce257506001600160a01b0381163b155b611cc05750565b604051635274afe760e01b81526001600160a01b039091166004820152602490fd5b60011415611cb956","linkReferences":{}},"methodIdentifiers":{"BPS()":"249d39e9","MARKET_CREATOR_ROLE()":"ae42820c","MAX_SHARES()":"3e8ff57b","MIN_LP_USDC()":"43a630f5","OP_CANCEL_MARKET()":"f7050eae","OP_EXPIRY_WINDOW()":"032a57d2","OP_PAUSE()":"6329a66a","OP_RECOVER_ETH()":"27b6eeba","OP_REMOVE_FACET()":"7b8c5ba6","OP_SET_FACET()":"e998985e","OP_SET_RESOLVER()":"d063c724","OP_SET_TREASURY()":"f5d7eeaf","OP_UNPAUSE()":"6dba319c","STORAGE_VERSION()":"9ef2b381","USDC_TO_E18()":"aa93f462","accFeePerUSDCE18(uint256)":"9da4f13d","accResidualPerUSDCE18(uint256)":"e72012a7","cancelMarket(uint256)":"7c16cd9e","chainlinkResolver()":"7f8a3f8c","claimLpResidual(uint256)":"b7a8d60e","defaultFeeLpBps()":"919cab1f","defaultFeeTreasuryBps()":"028aa4ee","defaultFeeVaultBps()":"67351729","dustSharesE18()":"c16de9c7","emergencyCancelMarket(bytes32,uint256)":"c996d690","facetOf(bytes4)":"2c7dc319","liquidityMultiplierE18()":"d105e1c6","lpFeeDebt(uint256,address)":"ffe2a945","lpFeeDustUSDC(uint256)":"2f922f2f","lpResidualDebt(uint256,address)":"6aa083b9","lpResidualDustUSDC(uint256)":"3fb5f6e8","lpShares(uint256,address)":"6bcbb8a5","marketCount()":"ec979082","markets(uint256)":"b1283e77","maxInstantJumpE18()":"2ed13b78","maxUsdcPerTrade()":"0615e22a","minLiquidityAdd()":"f5b9f416","minMarketSeed()":"572ddbcb","minTimelockDelay()":"028390bd","opNonce()":"969ea86b","ops(bytes32)":"692a34f4","pendingLpResidual(uint256,address)":"9f29c18f","redeem(uint256,bool)":"d65a06b0","resolveMarketWithPrice(uint256,uint256)":"cab7cde9","treasury()":"61d027b3","usdc()":"3e413bee"},"id":79}