{"abi":[{"type":"constructor","inputs":[{"name":"admin","type":"address","internalType":"address"},{"name":"usdc_","type":"address","internalType":"address"},{"name":"treasury_","type":"address","internalType":"address"},{"name":"minTimelockDelay_","type":"uint256","internalType":"uint256"}],"stateMutability":"nonpayable"},{"type":"fallback","stateMutability":"payable"},{"type":"receive","stateMutability":"payable"},{"type":"function","name":"ABSOLUTE_MIN_DELAY","inputs":[],"outputs":[{"name":"","type":"uint256","internalType":"uint256"}],"stateMutability":"view"},{"type":"function","name":"BPS","inputs":[],"outputs":[{"name":"","type":"uint256","internalType":"uint256"}],"stateMutability":"view"},{"type":"function","name":"DEFAULT_ADMIN_ROLE","inputs":[],"outputs":[{"name":"","type":"bytes32","internalType":"bytes32"}],"stateMutability":"view"},{"type":"function","name":"MARKET_CREATOR_ROLE","inputs":[],"outputs":[{"name":"","type":"bytes32","internalType":"bytes32"}],"stateMutability":"view"},{"type":"function","name":"MAX_SHARES","inputs":[],"outputs":[{"name":"","type":"uint256","internalType":"uint256"}],"stateMutability":"view"},{"type":"function","name":"MIN_LP_USDC","inputs":[],"outputs":[{"name":"","type":"uint256","internalType":"uint256"}],"stateMutability":"view"},{"type":"function","name":"OP_CANCEL_MARKET","inputs":[],"outputs":[{"name":"","type":"bytes32","internalType":"bytes32"}],"stateMutability":"view"},{"type":"function","name":"OP_EXPIRY_WINDOW","inputs":[],"outputs":[{"name":"","type":"uint256","internalType":"uint256"}],"stateMutability":"view"},{"type":"function","name":"OP_PAUSE","inputs":[],"outputs":[{"name":"","type":"bytes32","internalType":"bytes32"}],"stateMutability":"view"},{"type":"function","name":"OP_RECOVER_ETH","inputs":[],"outputs":[{"name":"","type":"bytes32","internalType":"bytes32"}],"stateMutability":"view"},{"type":"function","name":"OP_REMOVE_FACET","inputs":[],"outputs":[{"name":"","type":"bytes32","internalType":"bytes32"}],"stateMutability":"view"},{"type":"function","name":"OP_SET_FACET","inputs":[],"outputs":[{"name":"","type":"bytes32","internalType":"bytes32"}],"stateMutability":"view"},{"type":"function","name":"OP_SET_RESOLVER","inputs":[],"outputs":[{"name":"","type":"bytes32","internalType":"bytes32"}],"stateMutability":"view"},{"type":"function","name":"OP_SET_TREASURY","inputs":[],"outputs":[{"name":"","type":"bytes32","internalType":"bytes32"}],"stateMutability":"view"},{"type":"function","name":"OP_UNPAUSE","inputs":[],"outputs":[{"name":"","type":"bytes32","internalType":"bytes32"}],"stateMutability":"view"},{"type":"function","name":"STORAGE_VERSION","inputs":[],"outputs":[{"name":"","type":"uint256","internalType":"uint256"}],"stateMutability":"view"},{"type":"function","name":"USDC_TO_E18","inputs":[],"outputs":[{"name":"","type":"uint256","internalType":"uint256"}],"stateMutability":"view"},{"type":"function","name":"accFeePerUSDCE18","inputs":[{"name":"","type":"uint256","internalType":"uint256"}],"outputs":[{"name":"","type":"uint256","internalType":"uint256"}],"stateMutability":"view"},{"type":"function","name":"accResidualPerUSDCE18","inputs":[{"name":"","type":"uint256","internalType":"uint256"}],"outputs":[{"name":"","type":"uint256","internalType":"uint256"}],"stateMutability":"view"},{"type":"function","name":"cancelOp","inputs":[{"name":"opId","type":"bytes32","internalType":"bytes32"}],"outputs":[],"stateMutability":"nonpayable"},{"type":"function","name":"chainlinkResolver","inputs":[],"outputs":[{"name":"","type":"address","internalType":"address"}],"stateMutability":"view"},{"type":"function","name":"defaultFeeLpBps","inputs":[],"outputs":[{"name":"","type":"uint16","internalType":"uint16"}],"stateMutability":"view"},{"type":"function","name":"defaultFeeTreasuryBps","inputs":[],"outputs":[{"name":"","type":"uint16","internalType":"uint16"}],"stateMutability":"view"},{"type":"function","name":"defaultFeeVaultBps","inputs":[],"outputs":[{"name":"","type":"uint16","internalType":"uint16"}],"stateMutability":"view"},{"type":"function","name":"dustSharesE18","inputs":[],"outputs":[{"name":"","type":"uint256","internalType":"uint256"}],"stateMutability":"view"},{"type":"function","name":"executePause","inputs":[{"name":"opId","type":"bytes32","internalType":"bytes32"}],"outputs":[],"stateMutability":"nonpayable"},{"type":"function","name":"executeRecoverETH","inputs":[{"name":"opId","type":"bytes32","internalType":"bytes32"},{"name":"to","type":"address","internalType":"address payable"}],"outputs":[],"stateMutability":"nonpayable"},{"type":"function","name":"executeRemoveFacet","inputs":[{"name":"opId","type":"bytes32","internalType":"bytes32"},{"name":"selector","type":"bytes4","internalType":"bytes4"}],"outputs":[],"stateMutability":"nonpayable"},{"type":"function","name":"executeSetFacet","inputs":[{"name":"opId","type":"bytes32","internalType":"bytes32"},{"name":"selector","type":"bytes4","internalType":"bytes4"},{"name":"facet","type":"address","internalType":"address"}],"outputs":[],"stateMutability":"nonpayable"},{"type":"function","name":"executeSetResolver","inputs":[{"name":"opId","type":"bytes32","internalType":"bytes32"},{"name":"newResolver","type":"address","internalType":"address"}],"outputs":[],"stateMutability":"nonpayable"},{"type":"function","name":"executeSetTreasury","inputs":[{"name":"opId","type":"bytes32","internalType":"bytes32"},{"name":"newTreasury","type":"address","internalType":"address"}],"outputs":[],"stateMutability":"nonpayable"},{"type":"function","name":"executeUnpause","inputs":[{"name":"opId","type":"bytes32","internalType":"bytes32"}],"outputs":[],"stateMutability":"nonpayable"},{"type":"function","name":"facetOf","inputs":[{"name":"","type":"bytes4","internalType":"bytes4"}],"outputs":[{"name":"","type":"address","internalType":"address"}],"stateMutability":"view"},{"type":"function","name":"getRoleAdmin","inputs":[{"name":"role","type":"bytes32","internalType":"bytes32"}],"outputs":[{"name":"","type":"bytes32","internalType":"bytes32"}],"stateMutability":"view"},{"type":"function","name":"grantRole","inputs":[{"name":"role","type":"bytes32","internalType":"bytes32"},{"name":"account","type":"address","internalType":"address"}],"outputs":[],"stateMutability":"nonpayable"},{"type":"function","name":"hasRole","inputs":[{"name":"role","type":"bytes32","internalType":"bytes32"},{"name":"account","type":"address","internalType":"address"}],"outputs":[{"name":"","type":"bool","internalType":"bool"}],"stateMutability":"view"},{"type":"function","name":"liquidityMultiplierE18","inputs":[],"outputs":[{"name":"","type":"uint256","internalType":"uint256"}],"stateMutability":"view"},{"type":"function","name":"lpFeeDebt","inputs":[{"name":"","type":"uint256","internalType":"uint256"},{"name":"","type":"address","internalType":"address"}],"outputs":[{"name":"","type":"uint256","internalType":"uint256"}],"stateMutability":"view"},{"type":"function","name":"lpFeeDustUSDC","inputs":[{"name":"","type":"uint256","internalType":"uint256"}],"outputs":[{"name":"","type":"uint256","internalType":"uint256"}],"stateMutability":"view"},{"type":"function","name":"lpResidualDebt","inputs":[{"name":"","type":"uint256","internalType":"uint256"},{"name":"","type":"address","internalType":"address"}],"outputs":[{"name":"","type":"uint256","internalType":"uint256"}],"stateMutability":"view"},{"type":"function","name":"lpResidualDustUSDC","inputs":[{"name":"","type":"uint256","internalType":"uint256"}],"outputs":[{"name":"","type":"uint256","internalType":"uint256"}],"stateMutability":"view"},{"type":"function","name":"lpShares","inputs":[{"name":"","type":"uint256","internalType":"uint256"},{"name":"","type":"address","internalType":"address"}],"outputs":[{"name":"","type":"uint256","internalType":"uint256"}],"stateMutability":"view"},{"type":"function","name":"marketCount","inputs":[],"outputs":[{"name":"","type":"uint256","internalType":"uint256"}],"stateMutability":"view"},{"type":"function","name":"markets","inputs":[{"name":"","type":"uint256","internalType":"uint256"}],"outputs":[{"name":"yes","type":"address","internalType":"contract PositionToken"},{"name":"no","type":"address","internalType":"contract PositionToken"},{"name":"qYes","type":"uint256","internalType":"uint256"},{"name":"qNo","type":"uint256","internalType":"uint256"},{"name":"bE18","type":"uint256","internalType":"uint256"},{"name":"usdcVault","type":"uint256","internalType":"uint256"},{"name":"feeTreasuryBps","type":"uint16","internalType":"uint16"},{"name":"feeLpBps","type":"uint16","internalType":"uint16"},{"name":"feeVaultBps","type":"uint16","internalType":"uint16"},{"name":"status","type":"uint8","internalType":"enum CoreStorage.MarketStatus"},{"name":"questionHash","type":"bytes32","internalType":"bytes32"},{"name":"question","type":"string","internalType":"string"},{"name":"creator","type":"address","internalType":"address"},{"name":"totalLpUsdc","type":"uint256","internalType":"uint256"},{"name":"lpFeesUSDC","type":"uint256","internalType":"uint256"},{"name":"residualUSDC","type":"uint256","internalType":"uint256"},{"name":"priceBandThresholdUSDC","type":"uint256","internalType":"uint256"},{"name":"maxJumpE18","type":"uint256","internalType":"uint256"},{"name":"resolution","type":"tuple","internalType":"struct CoreStorage.ResolutionConfig","components":[{"name":"expiryTimestamp","type":"uint256","internalType":"uint256"},{"name":"oracleType","type":"uint8","internalType":"enum CoreStorage.OracleType"},{"name":"oracleAddress","type":"address","internalType":"address"},{"name":"priceFeedId","type":"bytes32","internalType":"bytes32"},{"name":"targetValue","type":"uint256","internalType":"uint256"},{"name":"comparison","type":"uint8","internalType":"enum CoreStorage.Comparison"},{"name":"yesWins","type":"bool","internalType":"bool"},{"name":"isResolved","type":"bool","internalType":"bool"},{"name":"oracleDecimals","type":"uint8","internalType":"uint8"}]}],"stateMutability":"view"},{"type":"function","name":"maxInstantJumpE18","inputs":[],"outputs":[{"name":"","type":"uint256","internalType":"uint256"}],"stateMutability":"view"},{"type":"function","name":"maxUsdcPerTrade","inputs":[],"outputs":[{"name":"","type":"uint256","internalType":"uint256"}],"stateMutability":"view"},{"type":"function","name":"minLiquidityAdd","inputs":[],"outputs":[{"name":"","type":"uint256","internalType":"uint256"}],"stateMutability":"view"},{"type":"function","name":"minMarketSeed","inputs":[],"outputs":[{"name":"","type":"uint256","internalType":"uint256"}],"stateMutability":"view"},{"type":"function","name":"minTimelockDelay","inputs":[],"outputs":[{"name":"","type":"uint256","internalType":"uint256"}],"stateMutability":"view"},{"type":"function","name":"opNonce","inputs":[],"outputs":[{"name":"","type":"uint256","internalType":"uint256"}],"stateMutability":"view"},{"type":"function","name":"ops","inputs":[{"name":"","type":"bytes32","internalType":"bytes32"}],"outputs":[{"name":"tag","type":"bytes32","internalType":"bytes32"},{"name":"dataHash","type":"bytes32","internalType":"bytes32"},{"name":"readyAt","type":"uint256","internalType":"uint256"},{"name":"status","type":"uint8","internalType":"enum CoreStorage.OpStatus"}],"stateMutability":"view"},{"type":"function","name":"renounceRole","inputs":[{"name":"role","type":"bytes32","internalType":"bytes32"},{"name":"callerConfirmation","type":"address","internalType":"address"}],"outputs":[],"stateMutability":"nonpayable"},{"type":"function","name":"revokeRole","inputs":[{"name":"role","type":"bytes32","internalType":"bytes32"},{"name":"account","type":"address","internalType":"address"}],"outputs":[],"stateMutability":"nonpayable"},{"type":"function","name":"scheduleOp","inputs":[{"name":"tag","type":"bytes32","internalType":"bytes32"},{"name":"data","type":"bytes","internalType":"bytes"}],"outputs":[{"name":"opId","type":"bytes32","internalType":"bytes32"}],"stateMutability":"nonpayable"},{"type":"function","name":"supportsInterface","inputs":[{"name":"interfaceId","type":"bytes4","internalType":"bytes4"}],"outputs":[{"name":"","type":"bool","internalType":"bool"}],"stateMutability":"view"},{"type":"function","name":"treasury","inputs":[],"outputs":[{"name":"","type":"address","internalType":"address"}],"stateMutability":"view"},{"type":"function","name":"usdc","inputs":[],"outputs":[{"name":"","type":"address","internalType":"address"}],"stateMutability":"view"},{"type":"event","name":"FacetRemoved","inputs":[{"name":"selector","type":"bytes4","indexed":true,"internalType":"bytes4"}],"anonymous":false},{"type":"event","name":"FacetSet","inputs":[{"name":"selector","type":"bytes4","indexed":true,"internalType":"bytes4"},{"name":"facet","type":"address","indexed":true,"internalType":"address"}],"anonymous":false},{"type":"event","name":"OperationCancelled","inputs":[{"name":"opId","type":"bytes32","indexed":true,"internalType":"bytes32"}],"anonymous":false},{"type":"event","name":"OperationExecuted","inputs":[{"name":"opId","type":"bytes32","indexed":true,"internalType":"bytes32"}],"anonymous":false},{"type":"event","name":"OperationScheduled","inputs":[{"name":"opId","type":"bytes32","indexed":true,"internalType":"bytes32"},{"name":"tag","type":"bytes32","indexed":true,"internalType":"bytes32"},{"name":"readyAt","type":"uint256","indexed":false,"internalType":"uint256"}],"anonymous":false},{"type":"event","name":"ResolverUpdated","inputs":[{"name":"resolver","type":"address","indexed":true,"internalType":"address"}],"anonymous":false},{"type":"event","name":"RoleAdminChanged","inputs":[{"name":"role","type":"bytes32","indexed":true,"internalType":"bytes32"},{"name":"previousAdminRole","type":"bytes32","indexed":true,"internalType":"bytes32"},{"name":"newAdminRole","type":"bytes32","indexed":true,"internalType":"bytes32"}],"anonymous":false},{"type":"event","name":"RoleGranted","inputs":[{"name":"role","type":"bytes32","indexed":true,"internalType":"bytes32"},{"name":"account","type":"address","indexed":true,"internalType":"address"},{"name":"sender","type":"address","indexed":true,"internalType":"address"}],"anonymous":false},{"type":"event","name":"RoleRevoked","inputs":[{"name":"role","type":"bytes32","indexed":true,"internalType":"bytes32"},{"name":"account","type":"address","indexed":true,"internalType":"address"},{"name":"sender","type":"address","indexed":true,"internalType":"address"}],"anonymous":false},{"type":"event","name":"TreasuryUpdated","inputs":[{"name":"treasury","type":"address","indexed":true,"internalType":"address"}],"anonymous":false},{"type":"error","name":"AccessControlBadConfirmation","inputs":[]},{"type":"error","name":"AccessControlUnauthorizedAccount","inputs":[{"name":"account","type":"address","internalType":"address"},{"name":"neededRole","type":"bytes32","internalType":"bytes32"}]},{"type":"error","name":"BadValue","inputs":[]},{"type":"error","name":"DataMismatch","inputs":[]},{"type":"error","name":"DataMismatch_","inputs":[]},{"type":"error","name":"NoFacet","inputs":[]},{"type":"error","name":"NotAContract","inputs":[{"name":"addr","type":"address","internalType":"address"}]},{"type":"error","name":"NotAuthorized","inputs":[]},{"type":"error","name":"OpExpired","inputs":[]},{"type":"error","name":"OpInvalid","inputs":[]},{"type":"error","name":"OpNotReady","inputs":[{"name":"readyAt","type":"uint256","internalType":"uint256"}]},{"type":"error","name":"Paused","inputs":[]},{"type":"error","name":"TagMismatch","inputs":[]},{"type":"error","name":"TagMismatch_","inputs":[]},{"type":"error","name":"ZeroAddress","inputs":[]}],"bytecode":{"object":"0x6080346200014b57601f6200211e38819003918201601f19168301916001600160401b038311848410176200014f578084926080946040528339810103126200014b576200004d8162000163565b6200005b6020830162000163565b9060606200006c6040850162000163565b930151926001600160a01b039180831615801562000140575b801562000135575b620001235780620000a2620000a99262000178565b50620001e8565b508160018060a01b03199316835f5416175f551690600154161760015560135564174876e800600355631dcd65008060045560055564e8d4a51000600655670de0b6b3a7640000600755670214e8348c4f00006008556264006465ffffffffffff196009541617600955604051611e5490816200028a8239f35b60405163d92e233d60e01b8152600490fd5b50828216156200008d565b508284161562000085565b5f80fd5b634e487b7160e01b5f52604160045260245ffd5b51906001600160a01b03821682036200014b57565b6001600160a01b03165f8181525f80516020620020fe833981519152602052604090205460ff16620001e3575f8181525f80516020620020fe83398151915260205260408120805460ff191660011790553391905f80516020620020de8339815191528180a4600190565b505f90565b6001600160a01b03165f8181527fc2514592271152cd6a83769c5f76f44143273503e41dcac2174159c6172690c460205260409020547fd3065a24ad9e7725d223007135762d2902038999e3e5829146654498a58d9795919060ff166200028357815f52604a60205260405f20815f5260205260405f20600160ff1982541617905533915f80516020620020de8339815191525f80a4600190565b50505f9056fe61010080604052600490813610156100fe575b5036156100fa576009545f356001600160e01b0319169060301c60ff1661007e575b5f908152601260205260409020546001600160a01b031690811561006f575f8083368280378136915af43d5f803e1561006b573d5ff35b3d5ffd5b60405163514f4b8b60e01b8152fd5b63cab7cde960e01b811415806100e9575b806100d8575b806100c7575b806100b6575b1561003457506040516313d0ff5960e31b8152fd5b50635bd46b0760e11b8114156100a1565b506399406c9b60e01b81141561009b565b50630d65a06b60e41b811415610095565b50630c996d6960e41b81141561008f565b5f80fd5b5f3560e01c90816301ffc9a714611b6f57508063028390bd14611b52578063028aa4ee14611b31578063032a57d214611b145780630615e22a14611af757806307e8717f14611a1d578063248a9ca3146119f1578063249d39e9146119d557806327b6eeba1461199b5780632bee3e0d146119065780632c7dc319146118c55780632ed13b78146118a85780632f2ff15d1461186b5780632f922f2f1461184257806336568abe146117fe5780633e413bee146117d75780633e8ff57b146117a45780633fb5f6e81461177b57806343a630f51461175e578063440e95a5146115a357806344f6f07e14611473578063572ddbcb146114565780635f716ae21461134557806361d027b31461131d5780636329a66a146112e357806367351729146112c0578063692a34f4146112675780636aa083b9146112235780636bcbb8a5146111df5780636cf9ce1f146110945780636dba319c1461105a5780637591e1b214610f085780637b8c5ba614610ece5780637f8a3f8c14610ea65780638d9f856714610dbe578063919cab1f14610e8257806391d1485414610e39578063969ea86b14610e1c5780639da4f13d14610df35780639ef2b38114610dd8578063a217fddf14610dbe578063aa93f46214610d9f578063ae42820c14610d65578063b04d284814610bc9578063b1283e77146107b1578063bbbf945414610584578063c16de9c714610567578063d063c7241461052d578063d105e1c614610510578063d547741f146104d1578063e72012a7146104a8578063e998985e1461046e578063ec97908214610451578063f5b9f41614610434578063f5d7eeaf146103fa578063f7050eae146103c05763ffe2a9451461037d575f610012565b346100fa5760403660031901126100fa57610396611bed565b90355f52600f60205260405f209060018060a01b03165f52602052602060405f2054604051908152f35b346100fa575f3660031901126100fa5760206040517f45487ebba72ead203c633e826e1c055a8a179c4ce023c1650f84a2b55ff3cec18152f35b346100fa575f3660031901126100fa5760206040517fea0a90cd6dac6e6bb5f9c85bc78075cbca424cf853bf131e30cae433318da0808152f35b346100fa575f3660031901126100fa576020600554604051908152f35b346100fa575f3660031901126100fa576020600c54604051908152f35b346100fa575f3660031901126100fa5760206040517ffb7970db71b5d6f6b5d5355a31ca44c1e2ed199b82b881fca32583ec66a6b7748152f35b50346100fa5760203660031901126100fa57355f526010602052602060405f2054604051908152f35b50346100fa5760403660031901126100fa5761050e90356104f0611bed565b90805f52604a602052610509600160405f200154611d01565b611dbf565b005b346100fa575f3660031901126100fa576020600754604051908152f35b346100fa575f3660031901126100fa5760206040517fa2d8aacac1aaa86712a1ceac3c4524e6ff8d62059ccd43ade1a60d5835f86bb68152f35b346100fa575f3660031901126100fa576020600654604051908152f35b50346100fa5760403660031901126100fa57803590602491823567ffffffffffffffff928382116100fa57366023830112156100fa5781810135948486116100fa57368187850101116100fa576105d9611cab565b6014545f19811461079e5760010192836014556105f587611c8f565b6106026040519182611c4f565b8781525f602089819a86838601960186378301015251902092604051958787019160808352600a60a089015269434f52455f4f505f563160b01b60c0890152866040890152856060890152608088015260c0875260e08701918783108284111761078c57826040528751902096875f526015895260ff600360405f200154168581101561077a576100fa57601354420191824211610768576101608201908111848210176107565760039392916101409160405288845261010081019788526101208101928352019560018752885f5260158a5260405f2092518355516001830155516002820155019251918083101561074557505060ff80198354169116179055815f5260158352817f9cc91136b2c7668ecd202c7008f17e818e108b5448a7b7fd48bd2ca6b4aab51f84600260405f200154604051908152a3604051908152f35b602190634e487b7160e01b5f52525ffd5b84604187634e487b7160e01b5f52525ffd5b84601187634e487b7160e01b5f52525ffd5b84602187634e487b7160e01b5f52525ffd5b83604186634e487b7160e01b5f52525ffd5b50634e487b7160e01b5f90815260118352fd5b50346100fa5760203660031901126100fa5780355f52600b60205260405f2060018060a01b038154169060018060a01b0360018201541660c052600281015491600382015492848301549360058401549460068501546007860154906040516080525f6008880154908160011c916001811615610bbf575b602083106001821614610bac5782608051526001811690815f14610b895750600114610b4a575b61086291506080519003608051611c4f565b60018060a01b0360098801541697600a88015493600b89015495600c8a015497600d8b015499600e8c01549b60405160e05260e05161012060e051011067ffffffffffffffff61012060e051011117610b375761012060e05101604052600f81015460e051526010810154600260ff82161015610b2357601360ff98979695949392828a809416602060e051015260018060a01b039060081c16604060e05101526011810154606060e05101526012810154608060e05101520154610928828216611c71565b81811660a060e0510152818160081c16151560c060e0510152818160101c16151560e08051015260181c1661010060e051015260405160a05260a0515260c051602060a0510152604060a0510152606060a0510152608060a051015260a08051015261ffff811660c060a051015261ffff8160101c1660e060a051015261ffff8160201c1661010060a05101526109c3828260301c16611c71565b60301c1661012060a051015261014060a051015261036061016060a051015260805151958661036060a05101525f5b878110610b0857505f6103808860a05101015261018060a05101526101a060a05101526101c060a05101526101e060a051015261020060a051015261022060a051015260e0515161024060a0510152602060e05101516002811015610af557610380925061026060a051015260018060a01b03604060e05101511661028060a0510152606060e05101516102a060a0510152608060e05101516102c060a051015260a060e0510151610aa381611c71565b6102e060a051015260c060e0510151151561030060a051015260e080510151151561032060a051015260ff61010060e05101511661034060a051015260a05190601f801991011660a05101030160a051f35b602183634e487b7160e01b5f525260245ffd5b80602080926080510101516103808260a051010152016109f2565b5060218f634e487b7160e01b5f525260245ffd5b60418f634e487b7160e01b5f525260245ffd5b50600888015f5260205f205f905b828210610b715750608051610862925001602001610850565b60018160209254838560805101015201910190610b58565b6020925061086293915060ff1916826080510152151560051b6080510101610850565b60228c634e487b7160e01b5f525260245ffd5b91607f1691610829565b50346100fa5760403660031901126100fa578035610be5611bd6565b610bed611cab565b604051602081019163ffffffff60e01b169384835260208252610c0f82611c33565b835f52601560205260405f2091600383019384549360ff851684811015610d5257600103610d41576002810154804210610d2b5762093a808101809111610d18574211610d07577fe5589cf51350e9a9b2df9829966e04dcf57f8fa87b52d7945643ac0eaff69e64815403610cf657600101549151902003610ce7575060ff191660021790555f80516020611e348339815191525f80a25f81815260126020526040812080546001600160a01b03191690557fe75bcf3b2c6af15142dd096b1631989ab7d222afbd9d5f6015f74a6b87d567eb9080a2005b60405163866c41db60e01b8152fd5b60405163548b963d60e11b81528490fd5b6040516306236e0360e11b81528490fd5b601185634e487b7160e01b5f525260245ffd5b8460249160405191621b0c1b60e51b8352820152fd5b6040516361941cd160e11b81528490fd5b602185634e487b7160e01b5f525260245ffd5b346100fa575f3660031901126100fa5760206040517fd3065a24ad9e7725d223007135762d2902038999e3e5829146654498a58d97958152f35b346100fa575f3660031901126100fa57602060405164e8d4a510008152f35b346100fa575f3660031901126100fa5760206040515f8152f35b346100fa575f3660031901126100fa57602060405160018152f35b50346100fa5760203660031901126100fa57355f52600e602052602060405f2054604051908152f35b346100fa575f3660031901126100fa576020601454604051908152f35b50346100fa5760403660031901126100fa57610e53611bed565b90355f52604a60205260405f209060018060a01b03165f52602052602060ff60405f2054166040519015158152f35b346100fa575f3660031901126100fa57602061ffff60095460101c16604051908152f35b346100fa575f3660031901126100fa576002546040516001600160a01b039091168152602090f35b346100fa575f3660031901126100fa5760206040517fe5589cf51350e9a9b2df9829966e04dcf57f8fa87b52d7945643ac0eaff69e648152f35b50346100fa5760203660031901126100fa57803590610f25611cab565b60405190610f3282611c03565b5f8252825f52601560205260405f2090600382019283549260ff841683811015611047576001036110365760028101548042106110205762093a80810180911161100d574211610ffc577f59d087672531b50700275907548a6c10240fc27658dfda79d5c528581d070b5e815403610feb5760010154906020815191012003610ce7575060ff191660021790555f80516020611e348339815191525f80a26009805466ff00000000000019166601000000000000179055005b60405163548b963d60e11b81528390fd5b6040516306236e0360e11b81528390fd5b601184634e487b7160e01b5f525260245ffd5b8360249160405191621b0c1b60e51b8352820152fd5b6040516361941cd160e11b81528390fd5b602184634e487b7160e01b5f525260245ffd5b346100fa575f3660031901126100fa5760206040517f19aebff3bbcef323e5c760a3ed420922e4d158f9d2c6e69bda4f540960d86e978152f35b50346100fa5760403660031901126100fa5780356110b0611bed565b916110b9611cab565b6001600160a01b0383169283156111cf573b156111b7576040516020810191848352602082526110e882611c33565b835f52601560205260405f2091600383019384549360ff851684811015610d5257600103610d41576002810154804210610d2b5762093a808101809111610d18574211610d07577fea0a90cd6dac6e6bb5f9c85bc78075cbca424cf853bf131e30cae433318da080815403610cf657600101549151902003610ce7575060ff191660021790555f80516020611e348339815191525f80a2600180546001600160a01b031916821790557f7dae230f18360d76a040c81f050aa14eb9d6dc7901b20fc5d855e2a20fe814d15f80a2005b6040516322a2d07b60e21b8152908101839052602490fd5b5060405163d92e233d60e01b8152fd5b50346100fa5760403660031901126100fa576111f9611bed565b90355f52600d60205260405f209060018060a01b03165f52602052602060405f2054604051908152f35b50346100fa5760403660031901126100fa5761123d611bed565b90355f52601160205260405f209060018060a01b03165f52602052602060405f2054604051908152f35b50346100fa5760203660031901126100fa5780355f52601560205260405f2080549060018101549060ff6003600283015492015416916040519384526020840152604083015282811015610af557608092506060820152f35b346100fa575f3660031901126100fa57602060095461ffff60405191831c168152f35b346100fa575f3660031901126100fa5760206040517f59d087672531b50700275907548a6c10240fc27658dfda79d5c528581d070b5e8152f35b346100fa575f3660031901126100fa576001546040516001600160a01b039091168152602090f35b50346100fa5760403660031901126100fa576024356001600160a01b038116918035918390036100fa57611377611cab565b60405160208101918483526020825261138f82611c33565b835f52601560205260405f2091600383019384549360ff851684811015610d5257600103610d41576002810154804210610d2b5762093a808101809111610d18574211610d07577f24292cbf46b6e47bdb0682fd1c64fa171e74249bffad8ae2c4adcedcd31224c6815403610cf657600101549151902003610ce75760ff19821660021783555f80808088885f80516020611e348339815191528380a247905af13d156114515761144a6114423d611c8f565b604051611c4f565b156100fa57005b61144a565b50346100fa575f3660031901126100fa5760209054604051908152f35b50346100fa5760403660031901126100fa57803561148f611bed565b91611498611cab565b6001600160a01b038316928315159081611599575b506111b7576040516020810191848352602082526114ca82611c33565b835f52601560205260405f2091600383019384549360ff851684811015610d5257600103610d41576002810154804210610d2b5762093a808101809111610d18574211610d07577fa2d8aacac1aaa86712a1ceac3c4524e6ff8d62059ccd43ade1a60d5835f86bb6815403610cf657600101549151902003610ce7575060ff191660021790555f80516020611e348339815191525f80a2600280546001600160a01b031916821790557f15cd6d20bba01b3fcb790c73829dd07412cbdf689ef818c96a2505889f3736a25f80a2005b90503b155f6114ad565b50346100fa5760603660031901126100fa578035906115c0611bd6565b6044356001600160a01b0381169391908481036100fa576115df611cab565b841561174d573b1561173557604051602081019163ffffffff60e01b169384835285604083015260408252606082019180831067ffffffffffffffff8411176117225782604052845f52601560205260405f2093600385019485549460ff86168581101561170f5760010361170157506002810154804210610d2b5762093a808101809111610d18574211610d07577ffb7970db71b5d6f6b5d5355a31ca44c1e2ed199b82b881fca32583ec66a6b774815403610cf657600101549151902003610ce7575060ff191660021790555f80516020611e348339815191525f80a25f81815260126020526040812080546001600160a01b031916841790557fa730c19ce8d967dc1d8a5f5ca85e2a607ce6bb270368f1ad107fc377db46a8c09080a3005b6361941cd160e11b81528490fd5b602186634e487b7160e01b5f525260245ffd5b604182634e487b7160e01b5f525260245ffd5b6040516322a2d07b60e21b8152808401859052602490fd5b60405163d92e233d60e01b81528490fd5b346100fa575f3660031901126100fa576020604051620f42408152f35b50346100fa5760203660031901126100fa57355f526017602052602060405f2054604051908152f35b346100fa575f3660031901126100fa576020604051789f4f2726179a224501d762422c946590d910000000000000008152f35b346100fa575f3660031901126100fa575f546040516001600160a01b039091168152602090f35b50346100fa5760403660031901126100fa57611818611bed565b336001600160a01b038216036118325761050e9135611dbf565b5060405163334bd91960e11b8152fd5b50346100fa5760203660031901126100fa57355f526016602052602060405f2054604051908152f35b50346100fa5760403660031901126100fa5761050e903561188a611bed565b90805f52604a6020526118a3600160405f200154611d01565b611d41565b346100fa575f3660031901126100fa576020600854604051908152f35b346100fa5760203660031901126100fa576001600160e01b03196118e7611bbf565b165f526012602052602060018060a01b0360405f205416604051908152f35b50346100fa5760203660031901126100fa57803590611923611cab565b815f526015602052600360405f20019081549060ff82168181101561198857600103611979575060ff191660031790557fcf0f63b97f3387253cbc0bde884f975df77e39184dc3280c2c81be495f58eef45f80a2005b6040516361941cd160e11b8152fd5b602182634e487b7160e01b5f525260245ffd5b346100fa575f3660031901126100fa5760206040517f24292cbf46b6e47bdb0682fd1c64fa171e74249bffad8ae2c4adcedcd31224c68152f35b346100fa575f3660031901126100fa5760206040516127108152f35b50346100fa5760203660031901126100fa57355f52604a6020526020600160405f200154604051908152f35b50346100fa5760203660031901126100fa57803590611a3a611cab565b60405190611a4782611c03565b5f8252825f52601560205260405f2090600382019283549260ff841683811015611047576001036110365760028101548042106110205762093a80810180911161100d574211610ffc577f19aebff3bbcef323e5c760a3ed420922e4d158f9d2c6e69bda4f540960d86e97815403610feb5760010154906020815191012003610ce7575060ff191660021790555f80516020611e348339815191525f80a26009805466ff00000000000019169055005b346100fa575f3660031901126100fa576020600354604051908152f35b346100fa575f3660031901126100fa57602060405162093a808152f35b346100fa575f3660031901126100fa57602061ffff60095416604051908152f35b346100fa575f3660031901126100fa576020601354604051908152f35b346100fa5760203660031901126100fa576020906001600160e01b0319611b94611bbf565b16637965db0b60e01b8114908115611bae575b5015158152f35b6301ffc9a760e01b14905083611ba7565b600435906001600160e01b0319821682036100fa57565b602435906001600160e01b0319821682036100fa57565b602435906001600160a01b03821682036100fa57565b6020810190811067ffffffffffffffff821117611c1f57604052565b634e487b7160e01b5f52604160045260245ffd5b6040810190811067ffffffffffffffff821117611c1f57604052565b90601f8019910116810190811067ffffffffffffffff821117611c1f57604052565b60031115611c7b57565b634e487b7160e01b5f52602160045260245ffd5b67ffffffffffffffff8111611c1f57601f01601f191660200190565b335f9081527f5260d36d21f8359821a072aff7b4be49946e72f371a0eaed97092c5b641059e2602052604090205460ff1615611ce357565b60405163e2517d3f60e01b81523360048201525f6024820152604490fd5b805f52604a60205260405f20335f5260205260ff60405f20541615611d235750565b6044906040519063e2517d3f60e01b82523360048301526024820152fd5b90815f52604a60205260405f209060018060a01b031690815f5260205260ff60405f205416155f14611db957815f52604a60205260405f20815f5260205260405f20600160ff1982541617905533917f2f8788117e7eff1d82e926ec794901d17c78024a50270940304540a733656f0d5f80a4600190565b50505f90565b90815f52604a60205260405f209060018060a01b031690815f5260205260ff60405f2054165f14611db957815f52604a60205260405f20815f5260205260405f2060ff19815416905533917ff6391f5c32d9c69d2a47ea670b442974b53935d1edc7fd64eb21e047a839171b5f80a460019056fe1277662f4b42b8a4069e99fb5e41ce8919d3c621156090ac08fb11adbcec66f92f8788117e7eff1d82e926ec794901d17c78024a50270940304540a733656f0d5260d36d21f8359821a072aff7b4be49946e72f371a0eaed97092c5b641059e2","linkReferences":{}},"methodIdentifiers":{"ABSOLUTE_MIN_DELAY()":"8d9f8567","BPS()":"249d39e9","DEFAULT_ADMIN_ROLE()":"a217fddf","MARKET_CREATOR_ROLE()":"ae42820c","MAX_SHARES()":"3e8ff57b","MIN_LP_USDC()":"43a630f5","OP_CANCEL_MARKET()":"f7050eae","OP_EXPIRY_WINDOW()":"032a57d2","OP_PAUSE()":"6329a66a","OP_RECOVER_ETH()":"27b6eeba","OP_REMOVE_FACET()":"7b8c5ba6","OP_SET_FACET()":"e998985e","OP_SET_RESOLVER()":"d063c724","OP_SET_TREASURY()":"f5d7eeaf","OP_UNPAUSE()":"6dba319c","STORAGE_VERSION()":"9ef2b381","USDC_TO_E18()":"aa93f462","accFeePerUSDCE18(uint256)":"9da4f13d","accResidualPerUSDCE18(uint256)":"e72012a7","cancelOp(bytes32)":"2bee3e0d","chainlinkResolver()":"7f8a3f8c","defaultFeeLpBps()":"919cab1f","defaultFeeTreasuryBps()":"028aa4ee","defaultFeeVaultBps()":"67351729","dustSharesE18()":"c16de9c7","executePause(bytes32)":"7591e1b2","executeRecoverETH(bytes32,address)":"5f716ae2","executeRemoveFacet(bytes32,bytes4)":"b04d2848","executeSetFacet(bytes32,bytes4,address)":"440e95a5","executeSetResolver(bytes32,address)":"44f6f07e","executeSetTreasury(bytes32,address)":"6cf9ce1f","executeUnpause(bytes32)":"07e8717f","facetOf(bytes4)":"2c7dc319","getRoleAdmin(bytes32)":"248a9ca3","grantRole(bytes32,address)":"2f2ff15d","hasRole(bytes32,address)":"91d14854","liquidityMultiplierE18()":"d105e1c6","lpFeeDebt(uint256,address)":"ffe2a945","lpFeeDustUSDC(uint256)":"2f922f2f","lpResidualDebt(uint256,address)":"6aa083b9","lpResidualDustUSDC(uint256)":"3fb5f6e8","lpShares(uint256,address)":"6bcbb8a5","marketCount()":"ec979082","markets(uint256)":"b1283e77","maxInstantJumpE18()":"2ed13b78","maxUsdcPerTrade()":"0615e22a","minLiquidityAdd()":"f5b9f416","minMarketSeed()":"572ddbcb","minTimelockDelay()":"028390bd","opNonce()":"969ea86b","ops(bytes32)":"692a34f4","renounceRole(bytes32,address)":"36568abe","revokeRole(bytes32,address)":"d547741f","scheduleOp(bytes32,bytes)":"bbbf9454","supportsInterface(bytes4)":"01ffc9a7","treasury()":"61d027b3","usdc()":"3e413bee"},"id":72}