{"abi":[{"type":"constructor","inputs":[{"name":"admin","type":"address","internalType":"address"},{"name":"usdc_","type":"address","internalType":"address"},{"name":"treasury_","type":"address","internalType":"address"}],"stateMutability":"nonpayable"},{"type":"fallback","stateMutability":"payable"},{"type":"receive","stateMutability":"payable"},{"type":"function","name":"BPS","inputs":[],"outputs":[{"name":"","type":"uint256","internalType":"uint256"}],"stateMutability":"view"},{"type":"function","name":"DEFAULT_ADMIN_ROLE","inputs":[],"outputs":[{"name":"","type":"bytes32","internalType":"bytes32"}],"stateMutability":"view"},{"type":"function","name":"MARKET_CREATOR_ROLE","inputs":[],"outputs":[{"name":"","type":"bytes32","internalType":"bytes32"}],"stateMutability":"view"},{"type":"function","name":"MIN_TIMELOCK_DELAY","inputs":[],"outputs":[{"name":"","type":"uint256","internalType":"uint256"}],"stateMutability":"view"},{"type":"function","name":"OP_PAUSE","inputs":[],"outputs":[{"name":"","type":"bytes32","internalType":"bytes32"}],"stateMutability":"view"},{"type":"function","name":"OP_SET_FACET","inputs":[],"outputs":[{"name":"","type":"bytes32","internalType":"bytes32"}],"stateMutability":"view"},{"type":"function","name":"OP_SET_RESOLVER","inputs":[],"outputs":[{"name":"","type":"bytes32","internalType":"bytes32"}],"stateMutability":"view"},{"type":"function","name":"OP_SET_TREASURY","inputs":[],"outputs":[{"name":"","type":"bytes32","internalType":"bytes32"}],"stateMutability":"view"},{"type":"function","name":"OP_UNPAUSE","inputs":[],"outputs":[{"name":"","type":"bytes32","internalType":"bytes32"}],"stateMutability":"view"},{"type":"function","name":"USDC_TO_E18","inputs":[],"outputs":[{"name":"","type":"uint256","internalType":"uint256"}],"stateMutability":"view"},{"type":"function","name":"accFeePerUSDCE18","inputs":[{"name":"","type":"uint256","internalType":"uint256"}],"outputs":[{"name":"","type":"uint256","internalType":"uint256"}],"stateMutability":"view"},{"type":"function","name":"accResidualPerUSDCE18","inputs":[{"name":"","type":"uint256","internalType":"uint256"}],"outputs":[{"name":"","type":"uint256","internalType":"uint256"}],"stateMutability":"view"},{"type":"function","name":"cancelOp","inputs":[{"name":"opId","type":"bytes32","internalType":"bytes32"}],"outputs":[],"stateMutability":"nonpayable"},{"type":"function","name":"chainlinkResolver","inputs":[],"outputs":[{"name":"","type":"address","internalType":"address"}],"stateMutability":"view"},{"type":"function","name":"defaultFeeLpBps","inputs":[],"outputs":[{"name":"","type":"uint16","internalType":"uint16"}],"stateMutability":"view"},{"type":"function","name":"defaultFeeTreasuryBps","inputs":[],"outputs":[{"name":"","type":"uint16","internalType":"uint16"}],"stateMutability":"view"},{"type":"function","name":"defaultFeeVaultBps","inputs":[],"outputs":[{"name":"","type":"uint16","internalType":"uint16"}],"stateMutability":"view"},{"type":"function","name":"dustSharesE18","inputs":[],"outputs":[{"name":"","type":"uint256","internalType":"uint256"}],"stateMutability":"view"},{"type":"function","name":"executePause","inputs":[{"name":"opId","type":"bytes32","internalType":"bytes32"}],"outputs":[],"stateMutability":"nonpayable"},{"type":"function","name":"executeSetFacet","inputs":[{"name":"opId","type":"bytes32","internalType":"bytes32"},{"name":"selector","type":"bytes4","internalType":"bytes4"},{"name":"facet","type":"address","internalType":"address"}],"outputs":[],"stateMutability":"nonpayable"},{"type":"function","name":"executeSetResolver","inputs":[{"name":"opId","type":"bytes32","internalType":"bytes32"},{"name":"newResolver","type":"address","internalType":"address"}],"outputs":[],"stateMutability":"nonpayable"},{"type":"function","name":"executeSetTreasury","inputs":[{"name":"opId","type":"bytes32","internalType":"bytes32"},{"name":"newTreasury","type":"address","internalType":"address"}],"outputs":[],"stateMutability":"nonpayable"},{"type":"function","name":"executeUnpause","inputs":[{"name":"opId","type":"bytes32","internalType":"bytes32"}],"outputs":[],"stateMutability":"nonpayable"},{"type":"function","name":"facetOf","inputs":[{"name":"","type":"bytes4","internalType":"bytes4"}],"outputs":[{"name":"","type":"address","internalType":"address"}],"stateMutability":"view"},{"type":"function","name":"getRoleAdmin","inputs":[{"name":"role","type":"bytes32","internalType":"bytes32"}],"outputs":[{"name":"","type":"bytes32","internalType":"bytes32"}],"stateMutability":"view"},{"type":"function","name":"grantRole","inputs":[{"name":"role","type":"bytes32","internalType":"bytes32"},{"name":"account","type":"address","internalType":"address"}],"outputs":[],"stateMutability":"nonpayable"},{"type":"function","name":"hasRole","inputs":[{"name":"role","type":"bytes32","internalType":"bytes32"},{"name":"account","type":"address","internalType":"address"}],"outputs":[{"name":"","type":"bool","internalType":"bool"}],"stateMutability":"view"},{"type":"function","name":"liquidityMultiplierE18","inputs":[],"outputs":[{"name":"","type":"uint256","internalType":"uint256"}],"stateMutability":"view"},{"type":"function","name":"lpFeeDebt","inputs":[{"name":"","type":"uint256","internalType":"uint256"},{"name":"","type":"address","internalType":"address"}],"outputs":[{"name":"","type":"uint256","internalType":"uint256"}],"stateMutability":"view"},{"type":"function","name":"lpResidualDebt","inputs":[{"name":"","type":"uint256","internalType":"uint256"},{"name":"","type":"address","internalType":"address"}],"outputs":[{"name":"","type":"uint256","internalType":"uint256"}],"stateMutability":"view"},{"type":"function","name":"lpShares","inputs":[{"name":"","type":"uint256","internalType":"uint256"},{"name":"","type":"address","internalType":"address"}],"outputs":[{"name":"","type":"uint256","internalType":"uint256"}],"stateMutability":"view"},{"type":"function","name":"marketCount","inputs":[],"outputs":[{"name":"","type":"uint256","internalType":"uint256"}],"stateMutability":"view"},{"type":"function","name":"markets","inputs":[{"name":"","type":"uint256","internalType":"uint256"}],"outputs":[{"name":"yes","type":"address","internalType":"contract PositionToken"},{"name":"no","type":"address","internalType":"contract PositionToken"},{"name":"qYes","type":"uint256","internalType":"uint256"},{"name":"qNo","type":"uint256","internalType":"uint256"},{"name":"bE18","type":"uint256","internalType":"uint256"},{"name":"usdcVault","type":"uint256","internalType":"uint256"},{"name":"feeTreasuryBps","type":"uint16","internalType":"uint16"},{"name":"feeLpBps","type":"uint16","internalType":"uint16"},{"name":"feeVaultBps","type":"uint16","internalType":"uint16"},{"name":"status","type":"uint8","internalType":"enum CoreStorage.MarketStatus"},{"name":"questionHash","type":"bytes32","internalType":"bytes32"},{"name":"creator","type":"address","internalType":"address"},{"name":"totalLpUsdc","type":"uint256","internalType":"uint256"},{"name":"lpFeesUSDC","type":"uint256","internalType":"uint256"},{"name":"residualUSDC","type":"uint256","internalType":"uint256"},{"name":"priceBandThresholdUSDC","type":"uint256","internalType":"uint256"},{"name":"maxJumpE18","type":"uint256","internalType":"uint256"},{"name":"resolution","type":"tuple","internalType":"struct CoreStorage.ResolutionConfig","components":[{"name":"expiryTimestamp","type":"uint256","internalType":"uint256"},{"name":"oracleType","type":"uint8","internalType":"enum CoreStorage.OracleType"},{"name":"oracleAddress","type":"address","internalType":"address"},{"name":"priceFeedId","type":"bytes32","internalType":"bytes32"},{"name":"targetValue","type":"uint256","internalType":"uint256"},{"name":"comparison","type":"uint8","internalType":"enum CoreStorage.Comparison"},{"name":"yesWins","type":"bool","internalType":"bool"},{"name":"isResolved","type":"bool","internalType":"bool"}]}],"stateMutability":"view"},{"type":"function","name":"maxInstantJumpE18","inputs":[],"outputs":[{"name":"","type":"uint256","internalType":"uint256"}],"stateMutability":"view"},{"type":"function","name":"maxUsdcPerTrade","inputs":[],"outputs":[{"name":"","type":"uint256","internalType":"uint256"}],"stateMutability":"view"},{"type":"function","name":"minLiquidityAdd","inputs":[],"outputs":[{"name":"","type":"uint256","internalType":"uint256"}],"stateMutability":"view"},{"type":"function","name":"minMarketSeed","inputs":[],"outputs":[{"name":"","type":"uint256","internalType":"uint256"}],"stateMutability":"view"},{"type":"function","name":"opNonce","inputs":[],"outputs":[{"name":"","type":"uint256","internalType":"uint256"}],"stateMutability":"view"},{"type":"function","name":"ops","inputs":[{"name":"","type":"bytes32","internalType":"bytes32"}],"outputs":[{"name":"tag","type":"bytes32","internalType":"bytes32"},{"name":"dataHash","type":"bytes32","internalType":"bytes32"},{"name":"readyAt","type":"uint256","internalType":"uint256"},{"name":"status","type":"uint8","internalType":"enum CoreStorage.OpStatus"}],"stateMutability":"view"},{"type":"function","name":"renounceRole","inputs":[{"name":"role","type":"bytes32","internalType":"bytes32"},{"name":"callerConfirmation","type":"address","internalType":"address"}],"outputs":[],"stateMutability":"nonpayable"},{"type":"function","name":"revokeRole","inputs":[{"name":"role","type":"bytes32","internalType":"bytes32"},{"name":"account","type":"address","internalType":"address"}],"outputs":[],"stateMutability":"nonpayable"},{"type":"function","name":"scheduleOp","inputs":[{"name":"tag","type":"bytes32","internalType":"bytes32"},{"name":"data","type":"bytes","internalType":"bytes"}],"outputs":[{"name":"opId","type":"bytes32","internalType":"bytes32"}],"stateMutability":"nonpayable"},{"type":"function","name":"supportsInterface","inputs":[{"name":"interfaceId","type":"bytes4","internalType":"bytes4"}],"outputs":[{"name":"","type":"bool","internalType":"bool"}],"stateMutability":"view"},{"type":"function","name":"treasury","inputs":[],"outputs":[{"name":"","type":"address","internalType":"address"}],"stateMutability":"view"},{"type":"function","name":"usdc","inputs":[],"outputs":[{"name":"","type":"address","internalType":"address"}],"stateMutability":"view"},{"type":"event","name":"FacetSet","inputs":[{"name":"selector","type":"bytes4","indexed":true,"internalType":"bytes4"},{"name":"facet","type":"address","indexed":true,"internalType":"address"}],"anonymous":false},{"type":"event","name":"OperationCancelled","inputs":[{"name":"opId","type":"bytes32","indexed":true,"internalType":"bytes32"}],"anonymous":false},{"type":"event","name":"OperationExecuted","inputs":[{"name":"opId","type":"bytes32","indexed":true,"internalType":"bytes32"}],"anonymous":false},{"type":"event","name":"OperationScheduled","inputs":[{"name":"opId","type":"bytes32","indexed":true,"internalType":"bytes32"},{"name":"tag","type":"bytes32","indexed":true,"internalType":"bytes32"},{"name":"readyAt","type":"uint256","indexed":false,"internalType":"uint256"}],"anonymous":false},{"type":"event","name":"ResolverUpdated","inputs":[{"name":"resolver","type":"address","indexed":true,"internalType":"address"}],"anonymous":false},{"type":"event","name":"RoleAdminChanged","inputs":[{"name":"role","type":"bytes32","indexed":true,"internalType":"bytes32"},{"name":"previousAdminRole","type":"bytes32","indexed":true,"internalType":"bytes32"},{"name":"newAdminRole","type":"bytes32","indexed":true,"internalType":"bytes32"}],"anonymous":false},{"type":"event","name":"RoleGranted","inputs":[{"name":"role","type":"bytes32","indexed":true,"internalType":"bytes32"},{"name":"account","type":"address","indexed":true,"internalType":"address"},{"name":"sender","type":"address","indexed":true,"internalType":"address"}],"anonymous":false},{"type":"event","name":"RoleRevoked","inputs":[{"name":"role","type":"bytes32","indexed":true,"internalType":"bytes32"},{"name":"account","type":"address","indexed":true,"internalType":"address"},{"name":"sender","type":"address","indexed":true,"internalType":"address"}],"anonymous":false},{"type":"event","name":"TreasuryUpdated","inputs":[{"name":"treasury","type":"address","indexed":true,"internalType":"address"}],"anonymous":false},{"type":"error","name":"AccessControlBadConfirmation","inputs":[]},{"type":"error","name":"AccessControlUnauthorizedAccount","inputs":[{"name":"account","type":"address","internalType":"address"},{"name":"neededRole","type":"bytes32","internalType":"bytes32"}]},{"type":"error","name":"DataMismatch","inputs":[]},{"type":"error","name":"OpInvalid","inputs":[]},{"type":"error","name":"OpNotReady","inputs":[{"name":"readyAt","type":"uint256","internalType":"uint256"}]},{"type":"error","name":"TagMismatch","inputs":[]},{"type":"error","name":"ZeroAddress","inputs":[]}],"bytecode":{"object":"0x6080346200014357601f6200189238819003918201601f19168301916001600160401b03831184841017620001475780849260609460405283398101031262000143576200004d816200015b565b62000069604062000061602085016200015b565b93016200015b565b6001600160a01b039180831615801562000138575b80156200012d575b6200011b57806200009b620000a29262000170565b50620001e0565b508160018060a01b031993168360015416176001551690600254161760025564174876e800600455631dcd65008060055560065564e8d4a51000600755670de0b6b3a7640000600855670214e8348c4f00006009556264006465ffffffffffff19600a541617600a556040516115d19081620002818239f35b60405163d92e233d60e01b8152600490fd5b508282161562000086565b50828416156200007e565b5f80fd5b634e487b7160e01b5f52604160045260245ffd5b51906001600160a01b03821682036200014357565b6001600160a01b03165f8181525f8051602062001872833981519152602052604090205460ff16620001db575f8181525f805160206200187283398151915260205260408120805460ff191660011790553391905f80516020620018528339815191528180a4600190565b505f90565b6001600160a01b03165f8181527f2412b2af58bf3b93d578a423d333d33fb94fb5093f9cda1aed2eaafb3215f92960205260409020547fd3065a24ad9e7725d223007135762d2902038999e3e5829146654498a58d9795919060ff166200027a57815f525f60205260405f20815f5260205260405f20600160ff1982541617905533915f80516020620018528339815191525f80a4600190565b50505f9056fe60c08060405260049081361015610064575b50503615610062575f80356001600160e01b0319168152601360205260409020546001600160a01b0316801561005e575f8091368280378136915af43d5f803e1561005a573d5ff35b3d5ffd5b5f80fd5b005b5f3560e01c90816301ffc9a71461136257508063028aa4ee146113415780630615e22a1461132457806307e8717f14611257578063169070eb1461123a578063248a9ca31461120f578063249d39e9146111f35780632bee3e0d1461115e5780632c7dc3191461111d5780632ed13b78146111005780632f2ff15d146110c457806336568abe146110805780633e413bee14611058578063440e95a514610f0157806344f6f07e14610df8578063572ddbcb14610ddb57806361d027b314610db35780636329a66a14610d795780636735172914610d56578063692a34f414610cfd5780636aa083b914610cb95780636bcbb8a514610c755780636cf9ce1f14610b5d5780636dba319c14610b235780637591e1b214610a3a5780637f8a3f8c14610a12578063919cab1f146109ee57806391d14854146109a6578063969ea86b146109895780639da4f13d14610960578063a217fddf14610946578063aa93f46214610927578063ae42820c146108ed578063b1283e7714610662578063bbbf945414610429578063c16de9c71461040c578063d063c724146103d2578063d105e1c6146103b5578063d547741f14610379578063e72012a714610350578063e998985e14610316578063ec979082146102f9578063f5b9f416146102dc578063f5d7eeaf146102a25763ffe2a9451461025f5780610011565b3461005e57604036600319011261005e576102786113c9565b90355f52601060205260405f209060018060a01b03165f52602052602060405f2054604051908152f35b3461005e575f36600319011261005e5760206040517fea0a90cd6dac6e6bb5f9c85bc78075cbca424cf853bf131e30cae433318da0808152f35b3461005e575f36600319011261005e576020600654604051908152f35b3461005e575f36600319011261005e576020600d54604051908152f35b3461005e575f36600319011261005e5760206040517ffb7970db71b5d6f6b5d5355a31ca44c1e2ed199b82b881fca32583ec66a6b7748152f35b503461005e57602036600319011261005e57355f526011602052602060405f2054604051908152f35b503461005e57604036600319011261005e5761006290356103986113c9565b90805f525f6020526103b0600160405f200154611483565b61153e565b3461005e575f36600319011261005e576020600854604051908152f35b3461005e575f36600319011261005e5760206040517fa2d8aacac1aaa86712a1ceac3c4524e6ff8d62059ccd43ade1a60d5835f86bb68152f35b3461005e575f36600319011261005e576020600754604051908152f35b503461005e57604036600319011261005e57803590602491823567ffffffffffffffff9283821161005e573660238301121561005e57818101359484861161005e573681878501011161005e5761047e61142d565b6014545f19811461064f576001019283601455601f1960405190603f81601f8b0116011681018181108882111761063d576040528781525f602089819a86838601960186378301015251902092604051958787019160808352600a60a089015269434f52455f4f505f563160b01b60c0890152866040890152856060890152608088015260c0875260e08701918783108284111761063d57826040528751902096875f526015895260ff600360405f200154168581101561062b5761005e5762015180420191824211610619576101608201908111848210176106075760039392916101409160405288845261010081019788526101208101928352019560018752885f5260158a5260405f209251835551600183015551600282015501925191808310156105f657505060ff80198354169116179055815f5260158352817f9cc91136b2c7668ecd202c7008f17e818e108b5448a7b7fd48bd2ca6b4aab51f84600260405f200154604051908152a3604051908152f35b602190634e487b7160e01b5f52525ffd5b84604187634e487b7160e01b5f52525ffd5b84601187634e487b7160e01b5f52525ffd5b84602187634e487b7160e01b5f52525ffd5b83604186634e487b7160e01b5f52525ffd5b50634e487b7160e01b5f90815260118352fd5b503461005e57602036600319011261005e5780355f52600c60205260405f2060018060a01b038154169060018060a01b03600182015416608052600281015460038201548483015460058401546006850154600786015460018060a01b0360088801541691600988015493600a89015495600b8a015497600c8b015499600d8c01549b60405160a05260a05161010060a051011067ffffffffffffffff61010060a0510111176108da5761010060a05101604052600e81015460a05152600f810154600260ff821610156108c657601260ff9796959493928289809416602060a051015260018060a01b039060081c16604060a05101526010810154606060a05101526011810154608060a0510152015461077e8282166113df565b81811660a080510152818160081c16151560c060a051015260101c16151560e060a0510152604080519e8f9081526080516020820152015260608d015260808c015260a08b015261ffff811660c08b015261ffff8160101c1660e08b015261ffff8160201c166101008b01526107f8828260301c166113df565b60301c166101208901526101408801526101608701526101808601526101a08501526101c08401526101e083015261020082015260a05151610220820152602060a051015160028110156108b35761024082015260a08051604001516001600160a01b03166102608301528051606001516102808301528051608001516102a083015280510151610320925061088d816113df565b6102c082015260c060a051015115156102e082015260e060a05101511515610300820152f35b602183634e487b7160e01b5f525260245ffd5b5060218f634e487b7160e01b5f525260245ffd5b60418f634e487b7160e01b5f525260245ffd5b3461005e575f36600319011261005e5760206040517fd3065a24ad9e7725d223007135762d2902038999e3e5829146654498a58d97958152f35b3461005e575f36600319011261005e57602060405164e8d4a510008152f35b3461005e575f36600319011261005e5760206040515f8152f35b503461005e57602036600319011261005e57355f52600f602052602060405f2054604051908152f35b3461005e575f36600319011261005e576020601454604051908152f35b503461005e57604036600319011261005e576109c06113c9565b90355f525f60205260405f209060018060a01b03165f52602052602060ff60405f2054166040519015158152f35b3461005e575f36600319011261005e57602061ffff600a5460101c16604051908152f35b3461005e575f36600319011261005e576003546040516001600160a01b039091168152602090f35b503461005e57602036600319011261005e57803590610a5761142d565b6040519060208201916001835260208152610a71816113fd565b835f52601560205260405f2092600384019384549360ff85169080821015610b10575060010361005e576002810154421061005e577f59d087672531b50700275907548a6c10240fc27658dfda79d5c528581d070b5e81540361005e5760010154915190200361005e5760ff191660021790555f805160206115b18339815191525f80a2600a805466ff00000000000019166601000000000000179055005b602190634e487b7160e01b5f525260245ffd5b3461005e575f36600319011261005e5760206040517f19aebff3bbcef323e5c760a3ed420922e4d158f9d2c6e69bda4f540960d86e978152f35b503461005e57604036600319011261005e578035610b796113c9565b610b8161142d565b6001600160a01b0316918215610c665760405190602082019184835260208152610baa816113fd565b835f52601560205260405f2092600384019384549360ff85169080821015610b10575060010361005e576002810154421061005e577fea0a90cd6dac6e6bb5f9c85bc78075cbca424cf853bf131e30cae433318da08081540361005e5760010154915190200361005e5760ff191660021790555f805160206115b18339815191525f80a2600280546001600160a01b031916821790557f7dae230f18360d76a040c81f050aa14eb9d6dc7901b20fc5d855e2a20fe814d15f80a2005b60405163d92e233d60e01b8152fd5b503461005e57604036600319011261005e57610c8f6113c9565b90355f52600e60205260405f209060018060a01b03165f52602052602060405f2054604051908152f35b503461005e57604036600319011261005e57610cd36113c9565b90355f52601260205260405f209060018060a01b03165f52602052602060405f2054604051908152f35b503461005e57602036600319011261005e5780355f52601560205260405f2080549060018101549060ff60036002830154920154169160405193845260208401526040830152828110156108b357608092506060820152f35b3461005e575f36600319011261005e576020600a5461ffff60405191831c168152f35b3461005e575f36600319011261005e5760206040517f59d087672531b50700275907548a6c10240fc27658dfda79d5c528581d070b5e8152f35b3461005e575f36600319011261005e576002546040516001600160a01b039091168152602090f35b3461005e575f36600319011261005e576020600554604051908152f35b503461005e57604036600319011261005e578035610e146113c9565b610e1c61142d565b6001600160a01b0316918215610c665760405190602082019184835260208152610e45816113fd565b835f52601560205260405f2092600384019384549360ff85169080821015610b10575060010361005e576002810154421061005e577fa2d8aacac1aaa86712a1ceac3c4524e6ff8d62059ccd43ade1a60d5835f86bb681540361005e5760010154915190200361005e5760ff191660021790555f805160206115b18339815191525f80a2600380546001600160a01b031916821790557f15cd6d20bba01b3fcb790c73829dd07412cbdf689ef818c96a2505889f3736a25f80a2005b503461005e57606036600319011261005e5780356024359063ffffffff60e01b821680920361005e576044356001600160a01b038116939084900361005e57610f4861142d565b8315610c6657604051906020820191848352856040820152604081526060810181811067ffffffffffffffff82111761104557604052835f52601560205260405f2092600384019384549360ff85169080821015610b10575060010361005e576002810154421061005e577ffb7970db71b5d6f6b5d5355a31ca44c1e2ed199b82b881fca32583ec66a6b77481540361005e5760010154915190200361005e5760ff191660021790555f805160206115b18339815191525f80a25f81815260136020526040812080546001600160a01b031916841790557fa730c19ce8d967dc1d8a5f5ca85e2a607ce6bb270368f1ad107fc377db46a8c09080a3005b604183634e487b7160e01b5f525260245ffd5b3461005e575f36600319011261005e576001546040516001600160a01b039091168152602090f35b503461005e57604036600319011261005e5761109a6113c9565b336001600160a01b038216036110b457610062913561153e565b5060405163334bd91960e11b8152fd5b503461005e57604036600319011261005e5761006290356110e36113c9565b90805f525f6020526110fb600160405f200154611483565b6114c2565b3461005e575f36600319011261005e576020600954604051908152f35b3461005e57602036600319011261005e576001600160e01b031961113f6113b2565b165f526013602052602060018060a01b0360405f205416604051908152f35b503461005e57602036600319011261005e5780359061117b61142d565b815f526015602052600360405f20019081549060ff8216818110156111e0576001036111d1575060ff191660031790557fcf0f63b97f3387253cbc0bde884f975df77e39184dc3280c2c81be495f58eef45f80a2005b6040516361941cd160e11b8152fd5b602182634e487b7160e01b5f525260245ffd5b3461005e575f36600319011261005e5760206040516127108152f35b503461005e57602036600319011261005e57355f525f6020526020600160405f200154604051908152f35b3461005e575f36600319011261005e576020604051620151808152f35b503461005e57602036600319011261005e5780359061127461142d565b604051906020820191600183526020815261128e816113fd565b835f52601560205260405f2092600384019384549360ff85169080821015610b10575060010361005e576002810154421061005e577f19aebff3bbcef323e5c760a3ed420922e4d158f9d2c6e69bda4f540960d86e9781540361005e5760010154915190200361005e5760ff191660021790555f805160206115b18339815191525f80a2600a805466ff00000000000019169055005b503461005e575f36600319011261005e5760209054604051908152f35b3461005e575f36600319011261005e57602061ffff600a5416604051908152f35b3461005e57602036600319011261005e576020906001600160e01b03196113876113b2565b16637965db0b60e01b81149081156113a1575b5015158152f35b6301ffc9a760e01b1490508361139a565b600435906001600160e01b03198216820361005e57565b602435906001600160a01b038216820361005e57565b600311156113e957565b634e487b7160e01b5f52602160045260245ffd5b6040810190811067ffffffffffffffff82111761141957604052565b634e487b7160e01b5f52604160045260245ffd5b335f9081527fad3228b676f7d3cd4284a5443f17f1962b36e491b30a40b2405849e597ba5fb5602052604090205460ff161561146557565b60405163e2517d3f60e01b81523360048201525f6024820152604490fd5b805f525f60205260405f20335f5260205260ff60405f205416156114a45750565b6044906040519063e2517d3f60e01b82523360048301526024820152fd5b90815f525f60205260405f209060018060a01b031690815f5260205260ff60405f205416155f1461153857815f525f60205260405f20815f5260205260405f20600160ff1982541617905533917f2f8788117e7eff1d82e926ec794901d17c78024a50270940304540a733656f0d5f80a4600190565b50505f90565b90815f525f60205260405f209060018060a01b031690815f5260205260ff60405f2054165f1461153857815f525f60205260405f20815f5260205260405f2060ff19815416905533917ff6391f5c32d9c69d2a47ea670b442974b53935d1edc7fd64eb21e047a839171b5f80a460019056fe1277662f4b42b8a4069e99fb5e41ce8919d3c621156090ac08fb11adbcec66f92f8788117e7eff1d82e926ec794901d17c78024a50270940304540a733656f0dad3228b676f7d3cd4284a5443f17f1962b36e491b30a40b2405849e597ba5fb5","linkReferences":{}},"methodIdentifiers":{"BPS()":"249d39e9","DEFAULT_ADMIN_ROLE()":"a217fddf","MARKET_CREATOR_ROLE()":"ae42820c","MIN_TIMELOCK_DELAY()":"169070eb","OP_PAUSE()":"6329a66a","OP_SET_FACET()":"e998985e","OP_SET_RESOLVER()":"d063c724","OP_SET_TREASURY()":"f5d7eeaf","OP_UNPAUSE()":"6dba319c","USDC_TO_E18()":"aa93f462","accFeePerUSDCE18(uint256)":"9da4f13d","accResidualPerUSDCE18(uint256)":"e72012a7","cancelOp(bytes32)":"2bee3e0d","chainlinkResolver()":"7f8a3f8c","defaultFeeLpBps()":"919cab1f","defaultFeeTreasuryBps()":"028aa4ee","defaultFeeVaultBps()":"67351729","dustSharesE18()":"c16de9c7","executePause(bytes32)":"7591e1b2","executeSetFacet(bytes32,bytes4,address)":"440e95a5","executeSetResolver(bytes32,address)":"44f6f07e","executeSetTreasury(bytes32,address)":"6cf9ce1f","executeUnpause(bytes32)":"07e8717f","facetOf(bytes4)":"2c7dc319","getRoleAdmin(bytes32)":"248a9ca3","grantRole(bytes32,address)":"2f2ff15d","hasRole(bytes32,address)":"91d14854","liquidityMultiplierE18()":"d105e1c6","lpFeeDebt(uint256,address)":"ffe2a945","lpResidualDebt(uint256,address)":"6aa083b9","lpShares(uint256,address)":"6bcbb8a5","marketCount()":"ec979082","markets(uint256)":"b1283e77","maxInstantJumpE18()":"2ed13b78","maxUsdcPerTrade()":"0615e22a","minLiquidityAdd()":"f5b9f416","minMarketSeed()":"572ddbcb","opNonce()":"969ea86b","ops(bytes32)":"692a34f4","renounceRole(bytes32,address)":"36568abe","revokeRole(bytes32,address)":"d547741f","scheduleOp(bytes32,bytes)":"bbbf9454","supportsInterface(bytes4)":"01ffc9a7","treasury()":"61d027b3","usdc()":"3e413bee"},"id":71}