{"abi":[{"type":"function","name":"BPS","inputs":[],"outputs":[{"name":"","type":"uint256","internalType":"uint256"}],"stateMutability":"view"},{"type":"function","name":"MARKET_CREATOR_ROLE","inputs":[],"outputs":[{"name":"","type":"bytes32","internalType":"bytes32"}],"stateMutability":"view"},{"type":"function","name":"MAX_SHARES","inputs":[],"outputs":[{"name":"","type":"uint256","internalType":"uint256"}],"stateMutability":"view"},{"type":"function","name":"MIN_LP_USDC","inputs":[],"outputs":[{"name":"","type":"uint256","internalType":"uint256"}],"stateMutability":"view"},{"type":"function","name":"OP_CANCEL_MARKET","inputs":[],"outputs":[{"name":"","type":"bytes32","internalType":"bytes32"}],"stateMutability":"view"},{"type":"function","name":"OP_EXPIRY_WINDOW","inputs":[],"outputs":[{"name":"","type":"uint256","internalType":"uint256"}],"stateMutability":"view"},{"type":"function","name":"OP_PAUSE","inputs":[],"outputs":[{"name":"","type":"bytes32","internalType":"bytes32"}],"stateMutability":"view"},{"type":"function","name":"OP_RECOVER_ETH","inputs":[],"outputs":[{"name":"","type":"bytes32","internalType":"bytes32"}],"stateMutability":"view"},{"type":"function","name":"OP_REMOVE_FACET","inputs":[],"outputs":[{"name":"","type":"bytes32","internalType":"bytes32"}],"stateMutability":"view"},{"type":"function","name":"OP_SET_FACET","inputs":[],"outputs":[{"name":"","type":"bytes32","internalType":"bytes32"}],"stateMutability":"view"},{"type":"function","name":"OP_SET_RESOLVER","inputs":[],"outputs":[{"name":"","type":"bytes32","internalType":"bytes32"}],"stateMutability":"view"},{"type":"function","name":"OP_SET_TREASURY","inputs":[],"outputs":[{"name":"","type":"bytes32","internalType":"bytes32"}],"stateMutability":"view"},{"type":"function","name":"OP_UNPAUSE","inputs":[],"outputs":[{"name":"","type":"bytes32","internalType":"bytes32"}],"stateMutability":"view"},{"type":"function","name":"STORAGE_VERSION","inputs":[],"outputs":[{"name":"","type":"uint256","internalType":"uint256"}],"stateMutability":"view"},{"type":"function","name":"USDC_TO_E18","inputs":[],"outputs":[{"name":"","type":"uint256","internalType":"uint256"}],"stateMutability":"view"},{"type":"function","name":"accFeePerUSDCE18","inputs":[{"name":"","type":"uint256","internalType":"uint256"}],"outputs":[{"name":"","type":"uint256","internalType":"uint256"}],"stateMutability":"view"},{"type":"function","name":"accResidualPerUSDCE18","inputs":[{"name":"","type":"uint256","internalType":"uint256"}],"outputs":[{"name":"","type":"uint256","internalType":"uint256"}],"stateMutability":"view"},{"type":"function","name":"buy","inputs":[{"name":"id","type":"uint256","internalType":"uint256"},{"name":"isYes","type":"bool","internalType":"bool"},{"name":"usdcIn","type":"uint256","internalType":"uint256"},{"name":"minSharesOut","type":"uint256","internalType":"uint256"}],"outputs":[],"stateMutability":"nonpayable"},{"type":"function","name":"buy","inputs":[{"name":"id","type":"uint256","internalType":"uint256"},{"name":"isYes","type":"bool","internalType":"bool"},{"name":"usdcIn","type":"uint256","internalType":"uint256"},{"name":"minSharesOut","type":"uint256","internalType":"uint256"},{"name":"deadline","type":"uint256","internalType":"uint256"}],"outputs":[],"stateMutability":"nonpayable"},{"type":"function","name":"chainlinkResolver","inputs":[],"outputs":[{"name":"","type":"address","internalType":"address"}],"stateMutability":"view"},{"type":"function","name":"defaultFeeLpBps","inputs":[],"outputs":[{"name":"","type":"uint16","internalType":"uint16"}],"stateMutability":"view"},{"type":"function","name":"defaultFeeTreasuryBps","inputs":[],"outputs":[{"name":"","type":"uint16","internalType":"uint16"}],"stateMutability":"view"},{"type":"function","name":"defaultFeeVaultBps","inputs":[],"outputs":[{"name":"","type":"uint16","internalType":"uint16"}],"stateMutability":"view"},{"type":"function","name":"dustSharesE18","inputs":[],"outputs":[{"name":"","type":"uint256","internalType":"uint256"}],"stateMutability":"view"},{"type":"function","name":"facetOf","inputs":[{"name":"","type":"bytes4","internalType":"bytes4"}],"outputs":[{"name":"","type":"address","internalType":"address"}],"stateMutability":"view"},{"type":"function","name":"getMaxJumpE18","inputs":[{"name":"id","type":"uint256","internalType":"uint256"}],"outputs":[{"name":"","type":"uint256","internalType":"uint256"}],"stateMutability":"view"},{"type":"function","name":"liquidityMultiplierE18","inputs":[],"outputs":[{"name":"","type":"uint256","internalType":"uint256"}],"stateMutability":"view"},{"type":"function","name":"lpFeeDebt","inputs":[{"name":"","type":"uint256","internalType":"uint256"},{"name":"","type":"address","internalType":"address"}],"outputs":[{"name":"","type":"uint256","internalType":"uint256"}],"stateMutability":"view"},{"type":"function","name":"lpFeeDustUSDC","inputs":[{"name":"","type":"uint256","internalType":"uint256"}],"outputs":[{"name":"","type":"uint256","internalType":"uint256"}],"stateMutability":"view"},{"type":"function","name":"lpResidualDebt","inputs":[{"name":"","type":"uint256","internalType":"uint256"},{"name":"","type":"address","internalType":"address"}],"outputs":[{"name":"","type":"uint256","internalType":"uint256"}],"stateMutability":"view"},{"type":"function","name":"lpResidualDustUSDC","inputs":[{"name":"","type":"uint256","internalType":"uint256"}],"outputs":[{"name":"","type":"uint256","internalType":"uint256"}],"stateMutability":"view"},{"type":"function","name":"lpShares","inputs":[{"name":"","type":"uint256","internalType":"uint256"},{"name":"","type":"address","internalType":"address"}],"outputs":[{"name":"","type":"uint256","internalType":"uint256"}],"stateMutability":"view"},{"type":"function","name":"marketCount","inputs":[],"outputs":[{"name":"","type":"uint256","internalType":"uint256"}],"stateMutability":"view"},{"type":"function","name":"markets","inputs":[{"name":"","type":"uint256","internalType":"uint256"}],"outputs":[{"name":"yes","type":"address","internalType":"contract PositionToken"},{"name":"no","type":"address","internalType":"contract PositionToken"},{"name":"qYes","type":"uint256","internalType":"uint256"},{"name":"qNo","type":"uint256","internalType":"uint256"},{"name":"bE18","type":"uint256","internalType":"uint256"},{"name":"usdcVault","type":"uint256","internalType":"uint256"},{"name":"feeTreasuryBps","type":"uint16","internalType":"uint16"},{"name":"feeLpBps","type":"uint16","internalType":"uint16"},{"name":"feeVaultBps","type":"uint16","internalType":"uint16"},{"name":"status","type":"uint8","internalType":"enum CoreStorage.MarketStatus"},{"name":"questionHash","type":"bytes32","internalType":"bytes32"},{"name":"question","type":"string","internalType":"string"},{"name":"creator","type":"address","internalType":"address"},{"name":"totalLpUsdc","type":"uint256","internalType":"uint256"},{"name":"lpFeesUSDC","type":"uint256","internalType":"uint256"},{"name":"residualUSDC","type":"uint256","internalType":"uint256"},{"name":"priceBandThresholdUSDC","type":"uint256","internalType":"uint256"},{"name":"maxJumpE18","type":"uint256","internalType":"uint256"},{"name":"resolution","type":"tuple","internalType":"struct CoreStorage.ResolutionConfig","components":[{"name":"expiryTimestamp","type":"uint256","internalType":"uint256"},{"name":"oracleType","type":"uint8","internalType":"enum CoreStorage.OracleType"},{"name":"oracleAddress","type":"address","internalType":"address"},{"name":"priceFeedId","type":"bytes32","internalType":"bytes32"},{"name":"targetValue","type":"uint256","internalType":"uint256"},{"name":"comparison","type":"uint8","internalType":"enum CoreStorage.Comparison"},{"name":"yesWins","type":"bool","internalType":"bool"},{"name":"isResolved","type":"bool","internalType":"bool"},{"name":"oracleDecimals","type":"uint8","internalType":"uint8"}]}],"stateMutability":"view"},{"type":"function","name":"maxInstantJumpE18","inputs":[],"outputs":[{"name":"","type":"uint256","internalType":"uint256"}],"stateMutability":"view"},{"type":"function","name":"maxUsdcPerTrade","inputs":[],"outputs":[{"name":"","type":"uint256","internalType":"uint256"}],"stateMutability":"view"},{"type":"function","name":"minLiquidityAdd","inputs":[],"outputs":[{"name":"","type":"uint256","internalType":"uint256"}],"stateMutability":"view"},{"type":"function","name":"minMarketSeed","inputs":[],"outputs":[{"name":"","type":"uint256","internalType":"uint256"}],"stateMutability":"view"},{"type":"function","name":"minTimelockDelay","inputs":[],"outputs":[{"name":"","type":"uint256","internalType":"uint256"}],"stateMutability":"view"},{"type":"function","name":"opNonce","inputs":[],"outputs":[{"name":"","type":"uint256","internalType":"uint256"}],"stateMutability":"view"},{"type":"function","name":"ops","inputs":[{"name":"","type":"bytes32","internalType":"bytes32"}],"outputs":[{"name":"tag","type":"bytes32","internalType":"bytes32"},{"name":"dataHash","type":"bytes32","internalType":"bytes32"},{"name":"readyAt","type":"uint256","internalType":"uint256"},{"name":"status","type":"uint8","internalType":"enum CoreStorage.OpStatus"}],"stateMutability":"view"},{"type":"function","name":"sell","inputs":[{"name":"id","type":"uint256","internalType":"uint256"},{"name":"isYes","type":"bool","internalType":"bool"},{"name":"sharesIn","type":"uint256","internalType":"uint256"},{"name":"minUsdcOut","type":"uint256","internalType":"uint256"}],"outputs":[],"stateMutability":"nonpayable"},{"type":"function","name":"sell","inputs":[{"name":"id","type":"uint256","internalType":"uint256"},{"name":"isYes","type":"bool","internalType":"bool"},{"name":"sharesIn","type":"uint256","internalType":"uint256"},{"name":"minUsdcOut","type":"uint256","internalType":"uint256"},{"name":"deadline","type":"uint256","internalType":"uint256"}],"outputs":[],"stateMutability":"nonpayable"},{"type":"function","name":"spotPriceYesE18","inputs":[{"name":"id","type":"uint256","internalType":"uint256"}],"outputs":[{"name":"","type":"uint256","internalType":"uint256"}],"stateMutability":"view"},{"type":"function","name":"spotPriceYesE6","inputs":[{"name":"id","type":"uint256","internalType":"uint256"}],"outputs":[{"name":"","type":"uint256","internalType":"uint256"}],"stateMutability":"view"},{"type":"function","name":"treasury","inputs":[],"outputs":[{"name":"","type":"address","internalType":"address"}],"stateMutability":"view"},{"type":"function","name":"usdc","inputs":[],"outputs":[{"name":"","type":"address","internalType":"address"}],"stateMutability":"view"},{"type":"event","name":"Buy","inputs":[{"name":"id","type":"uint256","indexed":true,"internalType":"uint256"},{"name":"user","type":"address","indexed":true,"internalType":"address"},{"name":"isYes","type":"bool","indexed":false,"internalType":"bool"},{"name":"usdcIn","type":"uint256","indexed":false,"internalType":"uint256"},{"name":"sharesOut","type":"uint256","indexed":false,"internalType":"uint256"},{"name":"pYesE6","type":"uint256","indexed":false,"internalType":"uint256"}],"anonymous":false},{"type":"event","name":"OperationCancelled","inputs":[{"name":"opId","type":"bytes32","indexed":true,"internalType":"bytes32"}],"anonymous":false},{"type":"event","name":"OperationExecuted","inputs":[{"name":"opId","type":"bytes32","indexed":true,"internalType":"bytes32"}],"anonymous":false},{"type":"event","name":"OperationScheduled","inputs":[{"name":"opId","type":"bytes32","indexed":true,"internalType":"bytes32"},{"name":"tag","type":"bytes32","indexed":true,"internalType":"bytes32"},{"name":"readyAt","type":"uint256","indexed":false,"internalType":"uint256"}],"anonymous":false},{"type":"event","name":"Sell","inputs":[{"name":"id","type":"uint256","indexed":true,"internalType":"uint256"},{"name":"user","type":"address","indexed":true,"internalType":"address"},{"name":"isYes","type":"bool","indexed":false,"internalType":"bool"},{"name":"sharesIn","type":"uint256","indexed":false,"internalType":"uint256"},{"name":"usdcOut","type":"uint256","indexed":false,"internalType":"uint256"},{"name":"pYesE6","type":"uint256","indexed":false,"internalType":"uint256"}],"anonymous":false},{"type":"error","name":"BackingInsufficient","inputs":[]},{"type":"error","name":"BuyQuoteFailed","inputs":[]},{"type":"error","name":"CalculationError","inputs":[]},{"type":"error","name":"DataMismatch","inputs":[]},{"type":"error","name":"DustAmount","inputs":[]},{"type":"error","name":"Expired","inputs":[]},{"type":"error","name":"ExtremeImbalance","inputs":[]},{"type":"error","name":"InvalidMarket","inputs":[]},{"type":"error","name":"MarketNotActive","inputs":[]},{"type":"error","name":"MathOverflow","inputs":[]},{"type":"error","name":"MaxTradeExceeded","inputs":[]},{"type":"error","name":"NotAuthorized","inputs":[]},{"type":"error","name":"OpExpired","inputs":[]},{"type":"error","name":"OpInvalid","inputs":[]},{"type":"error","name":"OpNotReady","inputs":[{"name":"readyAt","type":"uint256","internalType":"uint256"}]},{"type":"error","name":"PRBMath_MulDiv18_Overflow","inputs":[{"name":"x","type":"uint256","internalType":"uint256"},{"name":"y","type":"uint256","internalType":"uint256"}]},{"type":"error","name":"PRBMath_MulDiv_Overflow","inputs":[{"name":"x","type":"uint256","internalType":"uint256"},{"name":"y","type":"uint256","internalType":"uint256"},{"name":"denominator","type":"uint256","internalType":"uint256"}]},{"type":"error","name":"PRBMath_SD59x18_Abs_MinSD59x18","inputs":[]},{"type":"error","name":"PRBMath_SD59x18_Div_InputTooSmall","inputs":[]},{"type":"error","name":"PRBMath_SD59x18_Div_Overflow","inputs":[{"name":"x","type":"int256","internalType":"SD59x18"},{"name":"y","type":"int256","internalType":"SD59x18"}]},{"type":"error","name":"PRBMath_SD59x18_Exp2_InputTooBig","inputs":[{"name":"x","type":"int256","internalType":"SD59x18"}]},{"type":"error","name":"PRBMath_SD59x18_Exp_InputTooBig","inputs":[{"name":"x","type":"int256","internalType":"SD59x18"}]},{"type":"error","name":"PRBMath_SD59x18_Log_InputTooSmall","inputs":[{"name":"x","type":"int256","internalType":"SD59x18"}]},{"type":"error","name":"PRBMath_SD59x18_Mul_InputTooSmall","inputs":[]},{"type":"error","name":"PRBMath_SD59x18_Mul_Overflow","inputs":[{"name":"x","type":"int256","internalType":"SD59x18"},{"name":"y","type":"int256","internalType":"SD59x18"}]},{"type":"error","name":"SafeERC20FailedOperation","inputs":[{"name":"token","type":"address","internalType":"address"}]},{"type":"error","name":"SlippageExceeded","inputs":[]},{"type":"error","name":"SolvencyIssue","inputs":[]},{"type":"error","name":"TagMismatch","inputs":[]},{"type":"error","name":"ZeroB","inputs":[]}],"bytecode":{"object":"0x6080806040523461001657613061908161001b8239f35b5f80fdfe61010080604052600480361015610014575f80fd5b5f3560e01c918263028390bd1461184a57508163028aa4ee14611829578163032a57d21461180c5781630615e22a146117ef5781630abf18991461153c578163249d39e91461152057816327b6eeba146114e65781632c7dc319146114a55781632ed13b78146114885781632f922f2f146114605781633e413bee146114395781633e8ff57b1461140a5781633fb5f6e8146113e257816343a630f5146113c5578163572ddbcb146113a957816361d027b3146113815781636329a66a1461134757816367351729146113245781636778c3a2146112c4578163692a34f41461126c5781636aa083b9146112355781636ad6c254146112105781636bcbb8a5146111d95781636dba319c1461119f5781637b8c5ba6146111655781637f8a3f8c1461113d578163919cab1f14611119578163969ea86b146110fc5781639da4f13d146110d45781639ef2b381146110b9578163aa93f4621461109a578163ae42820c14611060578163b1283e7714610c49578163bdad35e514610bfa578163c16de9c714610bdd578163d063c72414610ba3578163d105e1c614610b86578163dfe0662a14610b5a578163e023fc6614610673578163e2cad1311461036f578163e72012a71461034757508063e998985e1461030d578063ec979082146102f0578063f5b9f416146102d3578063f5d7eeaf14610299578063f7050eae1461025f5763ffe2a94514610224575f80fd5b3461025b576102323661188b565b905f52600f60205260405f209060018060a01b03165f52602052602060405f2054604051908152f35b5f80fd5b3461025b575f36600319011261025b5760206040517f45487ebba72ead203c633e826e1c055a8a179c4ce023c1650f84a2b55ff3cec18152f35b3461025b575f36600319011261025b5760206040517fea0a90cd6dac6e6bb5f9c85bc78075cbca424cf853bf131e30cae433318da0808152f35b3461025b575f36600319011261025b576020600554604051908152f35b3461025b575f36600319011261025b576020600c54604051908152f35b3461025b575f36600319011261025b5760206040517ffb7970db71b5d6f6b5d5355a31ca44c1e2ed199b82b881fca32583ec66a6b7748152f35b3461025b57602036600319011261025b57355f526010602052602060405f2054604051908152f35b3461025b5761037d36611935565b600a9593959291925461025b576001600a5560ff60095460301c1661025b578015159081610669575b5061065857835f52600b60205260405f2060ff600682015460301c166103cb81611917565b61064757600f81015442101561064757600654821061063657851561062c5760028101545b821161061b576002810190815491600382018054878401549461044a61041787848461224f565b91888d1561061457610428916119f1565b915b8c156106015761044484985b64e8d4a51000998a9561224f565b906119f1565b049687106105f0576005840180548089116105df5787929161047a8d6104718c87956119f1565b9384918a612222565b558a1561055c575061048e915082546119f1565b9055546001600160a01b0316803b1561025b5760408051632770a7eb60e21b81523396810196875260208701859052955f92879290918391859183910103925af1908115610551575f805160206130418339815191529461053992610542575b505b5f5461050890859033906001600160a01b0316611bf6565b61051186611960565b0460405193849333988590949392606092608083019615158352602083015260408201520152565b0390a35f600a55005b61054b906118b1565b876104ee565b6040513d5f823e3d90fd5b6105679293506119f1565b9055600101546001600160a01b0316803b1561025b5760408051632770a7eb60e21b81523396810196875260208701859052955f92879290918391859183910103925af1908115610551575f8051602061304183398151915294610539926105d0575b506104f0565b6105d9906118b1565b876105ca565b604051632071487960e11b81528a90fd5b604051638199f5f360e01b81528890fd5b61044461060e8a866119f1565b98610436565b509161042a565b604051632071487960e11b81528490fd5b60038101546103f0565b604051631d25e4d760e01b81528490fd5b604051635a90bb8d60e11b81528490fd5b604051630407b05b60e31b81528390fd5b90504211866103a6565b3461025b5761068136611935565b600a9593959291925461025b576001600a5560ff60095460301c1661025b578015159081610b50575b5061065857835f52602091600b835260405f2060068101549060ff8260301c166106d381611917565b610b3f57600f810154421015610b3f578315610b2e576003548411610b1d5761ffff9161271061072681610709868516896119ca565b04948261071b828660101c168a6119ca565b0493891c16876119ca565b049061073f8261073a8361073a888b6119f1565b6119f1565b9660018060a01b0394610783865f5416604051906323b872dd60e01b858301523360248301523060448301528a60648301526064825261077e826118d9565b6122ff565b80610b04575b5081151580610af7575b610a33575b505080610a1c575b50600581016107b08682546119fe565b80915564e8d4a510009384870296808804861490151715610a095789156109fe576002830154965b8a156109f3576003840154905b89850154916107f68383838d611c34565b9a90156109de575b5050505060065487106109cd5786106109bc57881561098a577109f4f2726179a224501d762422c946590d91603c1b61083b8760028501546119fe565b116109795761084d905b868a84611fcd565b87156108e657600281016108628682546119fe565b90555416803b1561025b57604080516340c10f1960e01b81523396810196875260208701869052955f92879290918391859183910103925af1908115610551577fa625c3e5e55ecfc87bc129708d56174a230213ded2a553ef566988855bdb1a0594610539926108d7575b5061051186611960565b6108e0906118b1565b876108cd565b806003600192016108f88782546119fe565b9055015416803b1561025b57604080516340c10f1960e01b81523396810196875260208701869052955f92879290918391859183910103925af1908115610551577fa625c3e5e55ecfc87bc129708d56174a230213ded2a553ef566988855bdb1a05946105399261096a575b50610508565b610973906118b1565b87610964565b6040516312449e8d60e11b81528790fd5b7109f4f2726179a224501d762422c946590d91603c1b6109ae8760038501546119fe565b116109795761084d90610845565b604051638199f5f360e01b81528790fd5b604051631d25e4d760e01b81528890fd5b6109e9949a50611dc9565b958a8080806107fe565b6002840154906107e5565b6003830154966107d8565b601188634e487b7160e01b5f525260245ffd5b610a2b600583019182546119fe565b9055886107a0565b895f5260168152610a4860405f2054836119fe565b670de0b6b3a7640000808202828104821483151715610ae457610a71600a8801918254906119ac565b908d8215610ace5760169492610aab9492610aa4925f52600e885260405f20610a9b8382546119fe565b905554906119ca565b04906119f1565b918b5f525260405f20555b610ac5600b84019182546119fe565b90558980610798565b9150506016929391505f525260405f2055610ab6565b60118c634e487b7160e01b5f525260245ffd5b50600a8401541515610793565b610b1790865f5416876001541690611bf6565b8b610789565b604051630133125960e61b81528690fd5b604051631d25e4d760e01b81528690fd5b604051635a90bb8d60e11b81528690fd5b90504211866106aa565b3461025b57602036600319011261025b5764e8d4a51000610b7d60209235611960565b04604051908152f35b3461025b575f36600319011261025b576020600754604051908152f35b3461025b575f36600319011261025b5760206040517fa2d8aacac1aaa86712a1ceac3c4524e6ff8d62059ccd43ade1a60d5835f86bb68152f35b3461025b575f36600319011261025b576020600654604051908152f35b3461025b57610c0836611864565b90600a9492945461025b576001600a5560ff60095460301c1661025b57835f52602091600b835260405f2060068101549060ff8260301c166106d381611917565b3461025b57602036600319011261025b5780355f52600b60205260405f2060018060a01b038154169060018060a01b0360018201541660c052600281015491600382015492848301549360058401549460068501546007860154906040516080525f6008880154908160011c916001811615611056575b6020831060018216146110435782608051526001811690815f146110205750600114610fe1575b610cf9915060805190036080516118f5565b60018060a01b0360098801541697600a88015493600b89015495600c8a015497600d8b015499600e8c01549b60405160e05260e05161012060e051011067ffffffffffffffff61012060e051011117610fce5761012060e05101604052600f81015460e051526010810154600260ff82161015610fba57601360ff98979695949392828a809416602060e051015260018060a01b039060081c16604060e05101526011810154606060e05101526012810154608060e05101520154610dbf828216611917565b81811660a060e0510152818160081c16151560c060e0510152818160101c16151560e08051015260181c1661010060e051015260405160a05260a0515260c051602060a0510152604060a0510152606060a0510152608060a051015260a08051015261ffff811660c060a051015261ffff8160101c1660e060a051015261ffff8160201c1661010060a0510152610e5a828260301c16611917565b60301c1661012060a051015261014060a051015261036061016060a051015260805151958661036060a05101525f5b878110610f9f57505f6103808860a05101015261018060a05101526101a060a05101526101c060a05101526101e060a051015261020060a051015261022060a051015260e0515161024060a0510152602060e05101516002811015610f8c57610380925061026060a051015260018060a01b03604060e05101511661028060a0510152606060e05101516102a060a0510152608060e05101516102c060a051015260a060e0510151610f3a81611917565b6102e060a051015260c060e0510151151561030060a051015260e080510151151561032060a051015260ff61010060e05101511661034060a051015260a05190601f801991011660a05101030160a051f35b602183634e487b7160e01b5f525260245ffd5b80602080926080510101516103808260a05101015201610e89565b5060218f634e487b7160e01b5f525260245ffd5b60418f634e487b7160e01b5f525260245ffd5b50600888015f5260205f205f905b8282106110085750608051610cf9925001602001610ce7565b60018160209254838560805101015201910190610fef565b60209250610cf993915060ff1916826080510152151560051b6080510101610ce7565b60228c634e487b7160e01b5f525260245ffd5b91607f1691610cc0565b3461025b575f36600319011261025b5760206040517fd3065a24ad9e7725d223007135762d2902038999e3e5829146654498a58d97958152f35b3461025b575f36600319011261025b57602060405164e8d4a510008152f35b3461025b575f36600319011261025b57602060405160018152f35b3461025b57602036600319011261025b57355f52600e602052602060405f2054604051908152f35b3461025b575f36600319011261025b576020601454604051908152f35b3461025b575f36600319011261025b57602061ffff60095460101c16604051908152f35b3461025b575f36600319011261025b576002546040516001600160a01b039091168152602090f35b3461025b575f36600319011261025b5760206040517fe5589cf51350e9a9b2df9829966e04dcf57f8fa87b52d7945643ac0eaff69e648152f35b3461025b575f36600319011261025b5760206040517f19aebff3bbcef323e5c760a3ed420922e4d158f9d2c6e69bda4f540960d86e978152f35b3461025b576111e73661188b565b905f52600d60205260405f209060018060a01b03165f52602052602060405f2054604051908152f35b3461025b57602036600319011261025b5761122d60209135611960565b604051908152f35b3461025b576112433661188b565b905f52601160205260405f209060018060a01b03165f52602052602060405f2054604051908152f35b3461025b57602036600319011261025b5780355f52601560205260405f2080549060018101549060ff6003600283015492015416916040519384526020840152604083015282811015610f8c57608092506060820152f35b3461025b57602036600319011261025b5780355f908152600b6020526040902080546001600160a01b03161561131457600e0154801561130957602090604051908152f35b50602060085461122d565b50604051639db8d5b160e01b8152fd5b3461025b575f36600319011261025b57602060095461ffff60405191831c168152f35b3461025b575f36600319011261025b5760206040517f59d087672531b50700275907548a6c10240fc27658dfda79d5c528581d070b5e8152f35b3461025b575f36600319011261025b576001546040516001600160a01b039091168152602090f35b3461025b575f36600319011261025b5760209054604051908152f35b3461025b575f36600319011261025b576020604051620f42408152f35b3461025b57602036600319011261025b57355f526017602052602060405f2054604051908152f35b3461025b575f36600319011261025b5760206040517109f4f2726179a224501d762422c946590d91603c1b8152f35b3461025b575f36600319011261025b575f546040516001600160a01b039091168152602090f35b3461025b57602036600319011261025b57355f526016602052602060405f2054604051908152f35b3461025b575f36600319011261025b576020600854604051908152f35b3461025b57602036600319011261025b573563ffffffff60e01b811680910361025b575f526012602052602060018060a01b0360405f205416604051908152f35b3461025b575f36600319011261025b5760206040517f24292cbf46b6e47bdb0682fd1c64fa171e74249bffad8ae2c4adcedcd31224c68152f35b3461025b575f36600319011261025b5760206040516127108152f35b3461025b5761154a36611864565b90600a9392935461025b576001600a5560ff60095460301c1661025b575f94835f52600b60205260405f209060ff600683015460301c1661158a81611917565b6117e057600f8201544210156117e05760065483106117d15785156117c75760028201545b83116117b857600282019182549260038201805484840154956116036115d688848461224f565b91898d156117b1576115e7916119f1565b915b8c1561179e5761044484995b64e8d4a510009a8b9561224f565b0497881061178d57600584018054808a1161177c57906116318c6116288c8c956119f1565b93849189612222565b5589156116e65750509081611648868b94546119f1565b9055546001600160a01b031691823b156116e25760408051632770a7eb60e21b8152339281019283526020830187905293849290918391859183910103925af180156116d7576116bf575b5061053990610508845f805160206130418339815191529697985b5433906001600160a01b0316611bf6565b6116c987916118b1565b6116d35786611693565b8580fd5b6040513d89823e3d90fd5b5080fd5b6116f991925086909a959498999a6119f1565b9055600101546001600160a01b0316803b1561025b5760408051632770a7eb60e21b81523397810197885260208801869052965f92889290918391859183910103925af19485156105515784610539935f8051602061304183398151915297611767575b61050892506116ae565b5050611772906118b1565b610508845f61175d565b604051632071487960e11b81528790fd5b604051638199f5f360e01b81528590fd5b6104446117ab8b866119f1565b996115f5565b50916115e9565b604051632071487960e11b8152fd5b60038201546115af565b604051631d25e4d760e01b8152fd5b604051635a90bb8d60e11b8152fd5b3461025b575f36600319011261025b576020600354604051908152f35b3461025b575f36600319011261025b57602060405162093a808152f35b3461025b575f36600319011261025b57602061ffff60095416604051908152f35b3461025b575f36600319011261025b576020906013548152f35b608090600319011261025b5760043590602435801515810361025b57906044359060643590565b604090600319011261025b57600435906024356001600160a01b038116810361025b5790565b67ffffffffffffffff81116118c557604052565b634e487b7160e01b5f52604160045260245ffd5b60a0810190811067ffffffffffffffff8211176118c557604052565b90601f8019910116810190811067ffffffffffffffff8211176118c557604052565b6003111561192157565b634e487b7160e01b5f52602160045260245ffd5b60a090600319011261025b5760043590602435801515810361025b5790604435906064359060843590565b5f908152600b6020526040902080546001600160a01b03161561199a57806002611997920154906004600382015491015491611a23565b90565b604051639db8d5b160e01b8152600490fd5b81156119b6570490565b634e487b7160e01b5f52601260045260245ffd5b818102929181159184041417156119dd57565b634e487b7160e01b5f52601160045260245ffd5b919082039182116119dd57565b919082018092116119dd57565b81810392915f1380158285131691841216176119dd57565b91908115611be5576001600160ff1b03928382118015611bdc575b8015611bd3575b611bc157611a5291611a0b565b600160ff1b908082148015611bb8575b611b59575f811215611baf57611a86815f035b5f851215611ba857845f03906124cb565b90848211611b8a575f199318831215611b83575b68070c1cc73b00c800008113611b7b5768070c1cc73b00c7ffff198112611b6b57611ac4906122a9565b670de0b6b3a764000090808201928184126001166119dd578314611b59575f831215611b52575f03670de0b6b3a763ffff19015b80156119b6576ec097ce7bc90715b34b9f100000000004938411611b3557181315611b2e575b5f811315611b295790565b505f90565b5f03611b1e565b6044916040519163d49c26b360e01b835260048301526024820152fd5b5081611af8565b6040516309fe2b4560e41b8152600490fd5b50505050670de0b6b3a764000090565b505050505f90565b5f03611a9a565b604490846040519163d49c26b360e01b835260048301526024820152fd5b84906124cb565b611a8681611a75565b50818314611a62565b604051634eab2ea760e11b8152600490fd5b50838311611a45565b50838111611a3e565b60405162faf17b60e31b8152600490fd5b60405163a9059cbb60e01b60208201526001600160a01b03929092166024830152604480830193909352918152611c329161077e6064836118f5565b565b92908115611d8d578215611dbe576001600160ff1b03928385118015611db5575b8015611dac575b611d975782611c8181611c7c611c8794611c7783888c61224f565b6119fe565b612359565b92612359565b68070c1cc73b00c80000808313908115611da2575b50611d9757611cb6611cb0611cbc936122a9565b916122a9565b90611a0b565b5f811315611d8d57828211611d8d57611cd490612374565b600160ff1b828114908115611d83575b50611d71575f821215611d6857611d09825f035b5f831215611d6157825f0390612fab565b928311611d43575f1991181315611d3b57905b80821315611d3257611d2d916119f1565b600191565b50506001905f90565b5f0390611d1c565b604492506040519163120b5b4360e01b835260048301526024820152fd5b8290612fab565b611d0982611cf8565b60405163a6070c2560e01b8152600490fd5b905081145f611ce4565b505050505f905f90565b50505050505f905f90565b905081135f611c9c565b50838311611c5c565b50838211611c55565b505050506001905f90565b9092938215611fc457611ddd85858461224f565b917109f4f2726179a224501d762422c946590d91603c1b81811115611fbc578181039081116119dd57935b8415611faa575f9660019490885b604090818b1015611f9957888811611f91575b84611e3e848c611e398c8b6119fe565b61224f565b8580821115611f8957611e50916119f1565b1015611eb05750878714611ea15750600186018087116119dd57958760011c81115f14611e855750600187995b019895611e16565b8060011b90808204600214901517156119dd5760019099611e7d565b5162c51f7960e71b8152600490fd5b9296939750509397509591955b85611ecd8585611e39868c6119fe565b8680821115611f8157611edf916119f1565b10611f70575f915b6040831080611f67575b15611f5c578087611f158787611e39611f0b8e97896119fe565b60011c80976119fe565b8880821115611f5457611f27916119f1565b10611f405750915b5f1981146119dd5760010191611ee7565b929150600181018091116119dd5790611f2f565b50505f611f27565b965050505050505090565b50808210611ef1565b60405162c51f7960e71b8152600490fd5b50505f611edf565b50505f611e50565b889750611e29565b929693975050939750959195611ebd565b6040516312449e8d60e11b8152600490fd5b505f93611e08565b93505050505f90565b600281015460038201549391928492908290156122105790611fee916119fe565b905b7109f4f2726179a224501d762422c946590d91603c1b808311908115612206575b50611faa5760018060a01b03948585541696604096875180916370a0823160e01b9081835260049b308d85015283602460209687935afa9283156121fc5784918d915f956121c6575b5060249060018d015416938d519485938492835230908301525afa9283156121bc575f9361218c575b5050808611156121845761209790866119f1565b905b8087111561217d576120ab90876119f1565b8082111561217657505b6103e88201908183116121635764e8d4a5100090041161215357600d860154116120e3575b50505050505050565b600e936120f96120ff9389880154938491611a23565b93611a23565b90818111156121445790612112916119f1565b915b0154801561213a57905b1161212d5780808080806120da565b51632071487960e11b8152fd5b506008549061211e565b61214d916119f1565b91612114565b865163640feb3560e01b81528890fd5b60118a634e487b7160e01b5f525260245ffd5b90506120b5565b505f6120ab565b505f90612099565b9080929350813d83116121b5575b6121a481836118f5565b8101031261025b5751905f80612083565b503d61219a565b8a513d5f823e3d90fd5b92839195508092503d83116121f5575b6121e081836118f5565b8101031261025b578b6024859251949061205a565b503d6121d6565b8b513d5f823e3d90fd5b905083115f612011565b91929061221c916119fe565b91611ff0565b600281015460038201549391928492908290156122435790611fee916119f1565b91929061221c916119f1565b908215611be55761226783611c818161226d95612359565b906123a5565b5f81131561227e5761199791612fab565b60405162b5401d60e41b8152600490fd5b80156119b6576ec097ce7bc90715b34b9f10000000000590565b68023f2fa8f6da5b9d31198112611b2957680736ea4425c11ac63081136122e757670de0b6b3a76400006714057b7ef767814f611997920205612579565b6024906040519063ca7ec0c560e01b82526004820152fd5b905f602091828151910182855af115610551575f513d61235057506001600160a01b0381163b155b61232e5750565b604051635274afe760e01b81526001600160a01b039091166004820152602490fd5b60011415612327565b90612363916124cb565b6001600160ff1b038111611bc15790565b61237d90612df1565b670de0b6b3a7640000908181029181830514901517156119dd576714057b7ef767814f900590565b906123b890808313156124c45782611a0b565b600160ff1b908082146124b2575f8112156124ac575f03905b811480156124a5575b611d71575f81121561249c576123f1815f03612f1f565b906001600160ff1b038211612473575f19670de0b6b3a763ffff19909118131561246c575b68070c1cc73b00c7ffff19811261246857612430906122a9565b80670de0b6b3a7640000019081126001166119dd5761244e90612374565b905f82820192831291129080158216911516176119dd5790565b5090565b5f03612416565b60405163120b5b4360e01b81526004810191909152670de0b6b3a763ffff196024820152604490fd5b6123f181612f1f565b505f6123da565b906123d1565b60405163ec2b9e6760e01b8152600490fd5b8092611a0b565b670de0b6b3a7640000915f19838309928083029283808610950394808603951461256c5782851015612549579082910960018219018216809204600280826003021880830282030280830282030280830282030280830282030280830282030280920290030293600183805f03040190848311900302920304170290565b8260649260405192630c740aef60e31b8452600484015260248301526044820152fd5b50509061199792506119ac565b5f8112156125a65768033dd1780914b97114198112611b295761259d905f03612579565b6119979061228f565b680a688906bd8affffff8113612dda57670de0b6b3a764000080604092831b0590600160bf1b67ff000000000000008316612cc9575b66ff0000000000008316612bc1575b65ff00000000008316612ac1575b64ff0000000083166129c9575b63ff00000083166128d9575b62ff000083166127f1575b61ff008316612711575b60ff831661263a575b02911c60bf031c90565b608083166126ff575b8383166126ed575b602083166126db575b601083166126c9575b600883166126b7575b600483166126a5575b60028316612693575b6001831615612630576801000000000000000102831c612630565b6801000000000000000102831c612678565b6801000000000000000302831c61266f565b6801000000000000000602831c612666565b6801000000000000000b02831c61265d565b6801000000000000001602831c612654565b6801000000000000002c02831c61264b565b6801000000000000005902831c612643565b61800083166127df575b61400083166127cd575b61200083166127bb575b61100083166127a9575b6108008316612797575b6104008316612785575b6102008316612773575b61010083161561262757680100000000000000b102831c612627565b6801000000000000016302831c612757565b680100000000000002c602831c61274d565b6801000000000000058c02831c612743565b68010000000000000b1702831c612739565b6801000000000000162e02831c61272f565b68010000000000002c5d02831c612725565b680100000000000058b902831c61271b565b6280000083166128c7575b6240000083166128b5575b6220000083166128a3575b621000008316612891575b62080000831661287f575b62040000831661286d575b62020000831661285b575b6201000083161561261d576801000000000000b17202831c61261d565b680100000000000162e402831c61283e565b6801000000000002c5c802831c612833565b68010000000000058b9102831c612828565b680100000000000b172102831c61281d565b68010000000000162e4302831c612812565b680100000000002c5c8602831c612807565b6801000000000058b90c02831c6127fc565b638000000083166129b7575b634000000083166129a5575b63200000008316612993575b63100000008316612981575b6308000000831661296f575b6304000000831661295d575b6302000000831661294b575b63010000008316156126125768010000000000b1721802831c612612565b6801000000000162e43002831c61292d565b68010000000002c5c86002831c612921565b680100000000058b90c002831c612915565b6801000000000b17217f02831c612909565b680100000000162e42ff02831c6128fd565b6801000000002c5c85fe02831c6128f1565b68010000000058b90bfc02831c6128e5565b6480000000008316612aaf575b6440000000008316612a9d575b6420000000008316612a8b575b6410000000008316612a79575b6408000000008316612a67575b6404000000008316612a55575b6402000000008316612a43575b64010000000083161561260657680100000000b17217f802831c612606565b68010000000162e42ff102831c612a24565b680100000002c5c85fe302831c612a17565b6801000000058b90bfce02831c612a0a565b68010000000b17217fbb02831c6129fd565b6801000000162e42fff002831c6129f0565b68010000002c5c8601cc02831c6129e3565b680100000058b90c0b4902831c6129d6565b658000000000008316612baf575b654000000000008316612b9d575b652000000000008316612b8b575b651000000000008316612b79575b650800000000008316612b67575b650400000000008316612b55575b650200000000008316612b43575b650100000000008316156125f9576801000000b17218355102831c6125f9565b680100000162e430e5a202831c612b23565b6801000002c5c863b73f02831c612b15565b68010000058b90cf1e6e02831c612b07565b680100000b1721bcfc9a02831c612af9565b68010000162e43f4f83102831c612aeb565b680100002c5c89d5ec6d02831c612add565b6801000058b91b5bc9ae02831c612acf565b66800000000000008316612cb7575b66400000000000008316612ca5575b66200000000000008316612c93575b66100000000000008316612c81575b66080000000000008316612c6f575b66040000000000008316612c5d575b66020000000000008316612c4b575b66010000000000008316156125eb5768010000b17255775c0402831c6125eb565b6801000162e525ee054702831c612c2a565b68010002c5cc37da949202831c612c1b565b680100058ba01fb9f96d02831c612c0c565b6801000b175effdc76ba02831c612bfd565b680100162f3904051fa102831c612bee565b6801002c605e2e8cec5002831c612bdf565b68010058c86da1c09ea202831c612bd0565b6780000000000000008316612dc7575b6740000000000000008316612db5575b6720000000000000008316612da3575b6710000000000000008316612d91575b6708000000000000008316612d7f575b6704000000000000008316612d6d575b6702000000000000008316612d5b575b6701000000000000008316156125dc57680100b1afa5abcbed6102831c6125dc565b68010163da9fb33356d802831c612d39565b680102c9a3e778060ee702831c612d29565b6801059b0d31585743ae02831c612d19565b68010b5586cf9890f62a02831c612d09565b6801172b83c7d517adce02831c612cf9565b6801306fe0a31b7152df02831c612ce9565b5068016a09e667f3bcc909607f1b612cd9565b60249060405190626c1a0560e31b82526004820152fd5b805f821315612f0657670de0b6b3a764000091828112612ee457506001915b8082056fffffffffffffffffffffffffffffffff811160071b90811c9067ffffffffffffffff821160061b91821c63ffffffff811160051b90811c61ffff811160041b90811c60ff811160031b90811c91600f831160021b92831c93600196600160038711811b96871c1196171717171717179180830293831d92818414612ed957506706f05b59d3b20000925b5f8413612ead57505050500290565b808291020592671bc16d674ec80000841215612ecc575b821d92612e9e565b8093940193821d92612ec4565b925093925050020290565b5f1992915080156119b6576ec097ce7bc90715b34b9f10000000000590612e10565b60405163059b101b60e01b815260048101839052602490fd5b670de0b6b3a764000091905f1983820983820291828083109203918083039214612fa25784821015612f845793807faccb18165bd6fe31ae1cf318dc5b51eee0e1ba569b88cd74c1773b91fac1066994950990828211900360ee1b910360121c170290565b6044908560405191635173648d60e01b835260048301526024820152fd5b50509190910490565b9091905f198382098382029182808310920391808303921461302f57670de0b6b3a7640000908183101561301157947faccb18165bd6fe31ae1cf318dc5b51eee0e1ba569b88cd74c1773b91fac1066994950990828211900360ee1b910360121c170290565b6044908660405191635173648d60e01b835260048301526024820152fd5b5050670de0b6b3a76400009004915056fe1d161b920c72af3bceacd767e1ddf575296be054b91f3f47954d4fa62e0ea792","linkReferences":{}},"methodIdentifiers":{"BPS()":"249d39e9","MARKET_CREATOR_ROLE()":"ae42820c","MAX_SHARES()":"3e8ff57b","MIN_LP_USDC()":"43a630f5","OP_CANCEL_MARKET()":"f7050eae","OP_EXPIRY_WINDOW()":"032a57d2","OP_PAUSE()":"6329a66a","OP_RECOVER_ETH()":"27b6eeba","OP_REMOVE_FACET()":"7b8c5ba6","OP_SET_FACET()":"e998985e","OP_SET_RESOLVER()":"d063c724","OP_SET_TREASURY()":"f5d7eeaf","OP_UNPAUSE()":"6dba319c","STORAGE_VERSION()":"9ef2b381","USDC_TO_E18()":"aa93f462","accFeePerUSDCE18(uint256)":"9da4f13d","accResidualPerUSDCE18(uint256)":"e72012a7","buy(uint256,bool,uint256,uint256)":"bdad35e5","buy(uint256,bool,uint256,uint256,uint256)":"e023fc66","chainlinkResolver()":"7f8a3f8c","defaultFeeLpBps()":"919cab1f","defaultFeeTreasuryBps()":"028aa4ee","defaultFeeVaultBps()":"67351729","dustSharesE18()":"c16de9c7","facetOf(bytes4)":"2c7dc319","getMaxJumpE18(uint256)":"6778c3a2","liquidityMultiplierE18()":"d105e1c6","lpFeeDebt(uint256,address)":"ffe2a945","lpFeeDustUSDC(uint256)":"2f922f2f","lpResidualDebt(uint256,address)":"6aa083b9","lpResidualDustUSDC(uint256)":"3fb5f6e8","lpShares(uint256,address)":"6bcbb8a5","marketCount()":"ec979082","markets(uint256)":"b1283e77","maxInstantJumpE18()":"2ed13b78","maxUsdcPerTrade()":"0615e22a","minLiquidityAdd()":"f5b9f416","minMarketSeed()":"572ddbcb","minTimelockDelay()":"028390bd","opNonce()":"969ea86b","ops(bytes32)":"692a34f4","sell(uint256,bool,uint256,uint256)":"0abf1899","sell(uint256,bool,uint256,uint256,uint256)":"e2cad131","spotPriceYesE18(uint256)":"6ad6c254","spotPriceYesE6(uint256)":"dfe0662a","treasury()":"61d027b3","usdc()":"3e413bee"},"id":80}