{"abi":[{"type":"function","name":"BPS","inputs":[],"outputs":[{"name":"","type":"uint256","internalType":"uint256"}],"stateMutability":"view"},{"type":"function","name":"MARKET_CREATOR_ROLE","inputs":[],"outputs":[{"name":"","type":"bytes32","internalType":"bytes32"}],"stateMutability":"view"},{"type":"function","name":"MIN_TIMELOCK_DELAY","inputs":[],"outputs":[{"name":"","type":"uint256","internalType":"uint256"}],"stateMutability":"view"},{"type":"function","name":"OP_PAUSE","inputs":[],"outputs":[{"name":"","type":"bytes32","internalType":"bytes32"}],"stateMutability":"view"},{"type":"function","name":"OP_SET_FACET","inputs":[],"outputs":[{"name":"","type":"bytes32","internalType":"bytes32"}],"stateMutability":"view"},{"type":"function","name":"OP_SET_RESOLVER","inputs":[],"outputs":[{"name":"","type":"bytes32","internalType":"bytes32"}],"stateMutability":"view"},{"type":"function","name":"OP_SET_TREASURY","inputs":[],"outputs":[{"name":"","type":"bytes32","internalType":"bytes32"}],"stateMutability":"view"},{"type":"function","name":"OP_UNPAUSE","inputs":[],"outputs":[{"name":"","type":"bytes32","internalType":"bytes32"}],"stateMutability":"view"},{"type":"function","name":"USDC_TO_E18","inputs":[],"outputs":[{"name":"","type":"uint256","internalType":"uint256"}],"stateMutability":"view"},{"type":"function","name":"accFeePerUSDCE18","inputs":[{"name":"","type":"uint256","internalType":"uint256"}],"outputs":[{"name":"","type":"uint256","internalType":"uint256"}],"stateMutability":"view"},{"type":"function","name":"accResidualPerUSDCE18","inputs":[{"name":"","type":"uint256","internalType":"uint256"}],"outputs":[{"name":"","type":"uint256","internalType":"uint256"}],"stateMutability":"view"},{"type":"function","name":"buy","inputs":[{"name":"id","type":"uint256","internalType":"uint256"},{"name":"isYes","type":"bool","internalType":"bool"},{"name":"usdcIn","type":"uint256","internalType":"uint256"},{"name":"minSharesOut","type":"uint256","internalType":"uint256"}],"outputs":[],"stateMutability":"nonpayable"},{"type":"function","name":"chainlinkResolver","inputs":[],"outputs":[{"name":"","type":"address","internalType":"address"}],"stateMutability":"view"},{"type":"function","name":"defaultFeeLpBps","inputs":[],"outputs":[{"name":"","type":"uint16","internalType":"uint16"}],"stateMutability":"view"},{"type":"function","name":"defaultFeeTreasuryBps","inputs":[],"outputs":[{"name":"","type":"uint16","internalType":"uint16"}],"stateMutability":"view"},{"type":"function","name":"defaultFeeVaultBps","inputs":[],"outputs":[{"name":"","type":"uint16","internalType":"uint16"}],"stateMutability":"view"},{"type":"function","name":"dustSharesE18","inputs":[],"outputs":[{"name":"","type":"uint256","internalType":"uint256"}],"stateMutability":"view"},{"type":"function","name":"facetOf","inputs":[{"name":"","type":"bytes4","internalType":"bytes4"}],"outputs":[{"name":"","type":"address","internalType":"address"}],"stateMutability":"view"},{"type":"function","name":"liquidityMultiplierE18","inputs":[],"outputs":[{"name":"","type":"uint256","internalType":"uint256"}],"stateMutability":"view"},{"type":"function","name":"lpFeeDebt","inputs":[{"name":"","type":"uint256","internalType":"uint256"},{"name":"","type":"address","internalType":"address"}],"outputs":[{"name":"","type":"uint256","internalType":"uint256"}],"stateMutability":"view"},{"type":"function","name":"lpResidualDebt","inputs":[{"name":"","type":"uint256","internalType":"uint256"},{"name":"","type":"address","internalType":"address"}],"outputs":[{"name":"","type":"uint256","internalType":"uint256"}],"stateMutability":"view"},{"type":"function","name":"lpShares","inputs":[{"name":"","type":"uint256","internalType":"uint256"},{"name":"","type":"address","internalType":"address"}],"outputs":[{"name":"","type":"uint256","internalType":"uint256"}],"stateMutability":"view"},{"type":"function","name":"marketCount","inputs":[],"outputs":[{"name":"","type":"uint256","internalType":"uint256"}],"stateMutability":"view"},{"type":"function","name":"markets","inputs":[{"name":"","type":"uint256","internalType":"uint256"}],"outputs":[{"name":"yes","type":"address","internalType":"contract PositionToken"},{"name":"no","type":"address","internalType":"contract PositionToken"},{"name":"qYes","type":"uint256","internalType":"uint256"},{"name":"qNo","type":"uint256","internalType":"uint256"},{"name":"bE18","type":"uint256","internalType":"uint256"},{"name":"usdcVault","type":"uint256","internalType":"uint256"},{"name":"feeTreasuryBps","type":"uint16","internalType":"uint16"},{"name":"feeLpBps","type":"uint16","internalType":"uint16"},{"name":"feeVaultBps","type":"uint16","internalType":"uint16"},{"name":"status","type":"uint8","internalType":"enum CoreStorage.MarketStatus"},{"name":"questionHash","type":"bytes32","internalType":"bytes32"},{"name":"creator","type":"address","internalType":"address"},{"name":"totalLpUsdc","type":"uint256","internalType":"uint256"},{"name":"lpFeesUSDC","type":"uint256","internalType":"uint256"},{"name":"residualUSDC","type":"uint256","internalType":"uint256"},{"name":"priceBandThresholdUSDC","type":"uint256","internalType":"uint256"},{"name":"maxJumpE18","type":"uint256","internalType":"uint256"},{"name":"resolution","type":"tuple","internalType":"struct CoreStorage.ResolutionConfig","components":[{"name":"expiryTimestamp","type":"uint256","internalType":"uint256"},{"name":"oracleType","type":"uint8","internalType":"enum CoreStorage.OracleType"},{"name":"oracleAddress","type":"address","internalType":"address"},{"name":"priceFeedId","type":"bytes32","internalType":"bytes32"},{"name":"targetValue","type":"uint256","internalType":"uint256"},{"name":"comparison","type":"uint8","internalType":"enum CoreStorage.Comparison"},{"name":"yesWins","type":"bool","internalType":"bool"},{"name":"isResolved","type":"bool","internalType":"bool"}]}],"stateMutability":"view"},{"type":"function","name":"maxInstantJumpE18","inputs":[],"outputs":[{"name":"","type":"uint256","internalType":"uint256"}],"stateMutability":"view"},{"type":"function","name":"maxUsdcPerTrade","inputs":[],"outputs":[{"name":"","type":"uint256","internalType":"uint256"}],"stateMutability":"view"},{"type":"function","name":"minLiquidityAdd","inputs":[],"outputs":[{"name":"","type":"uint256","internalType":"uint256"}],"stateMutability":"view"},{"type":"function","name":"minMarketSeed","inputs":[],"outputs":[{"name":"","type":"uint256","internalType":"uint256"}],"stateMutability":"view"},{"type":"function","name":"opNonce","inputs":[],"outputs":[{"name":"","type":"uint256","internalType":"uint256"}],"stateMutability":"view"},{"type":"function","name":"ops","inputs":[{"name":"","type":"bytes32","internalType":"bytes32"}],"outputs":[{"name":"tag","type":"bytes32","internalType":"bytes32"},{"name":"dataHash","type":"bytes32","internalType":"bytes32"},{"name":"readyAt","type":"uint256","internalType":"uint256"},{"name":"status","type":"uint8","internalType":"enum CoreStorage.OpStatus"}],"stateMutability":"view"},{"type":"function","name":"sell","inputs":[{"name":"id","type":"uint256","internalType":"uint256"},{"name":"isYes","type":"bool","internalType":"bool"},{"name":"sharesIn","type":"uint256","internalType":"uint256"},{"name":"minUsdcOut","type":"uint256","internalType":"uint256"}],"outputs":[],"stateMutability":"nonpayable"},{"type":"function","name":"spotPriceYesE18","inputs":[{"name":"id","type":"uint256","internalType":"uint256"}],"outputs":[{"name":"","type":"uint256","internalType":"uint256"}],"stateMutability":"view"},{"type":"function","name":"spotPriceYesE6","inputs":[{"name":"id","type":"uint256","internalType":"uint256"}],"outputs":[{"name":"","type":"uint256","internalType":"uint256"}],"stateMutability":"view"},{"type":"function","name":"treasury","inputs":[],"outputs":[{"name":"","type":"address","internalType":"address"}],"stateMutability":"view"},{"type":"function","name":"usdc","inputs":[],"outputs":[{"name":"","type":"address","internalType":"address"}],"stateMutability":"view"},{"type":"event","name":"Buy","inputs":[{"name":"id","type":"uint256","indexed":true,"internalType":"uint256"},{"name":"user","type":"address","indexed":true,"internalType":"address"},{"name":"isYes","type":"bool","indexed":false,"internalType":"bool"},{"name":"usdcIn","type":"uint256","indexed":false,"internalType":"uint256"},{"name":"sharesOut","type":"uint256","indexed":false,"internalType":"uint256"},{"name":"pYesE6","type":"uint256","indexed":false,"internalType":"uint256"}],"anonymous":false},{"type":"event","name":"Sell","inputs":[{"name":"id","type":"uint256","indexed":true,"internalType":"uint256"},{"name":"user","type":"address","indexed":true,"internalType":"address"},{"name":"isYes","type":"bool","indexed":false,"internalType":"bool"},{"name":"sharesIn","type":"uint256","indexed":false,"internalType":"uint256"},{"name":"usdcOut","type":"uint256","indexed":false,"internalType":"uint256"},{"name":"pYesE6","type":"uint256","indexed":false,"internalType":"uint256"}],"anonymous":false},{"type":"error","name":"BackingInsufficient","inputs":[]},{"type":"error","name":"CalculationError","inputs":[]},{"type":"error","name":"DustAmount","inputs":[]},{"type":"error","name":"InvalidMarket","inputs":[]},{"type":"error","name":"MarketNotActive","inputs":[]},{"type":"error","name":"MathOverflow","inputs":[]},{"type":"error","name":"MaxTradeExceeded","inputs":[]},{"type":"error","name":"PRBMath_MulDiv18_Overflow","inputs":[{"name":"x","type":"uint256","internalType":"uint256"},{"name":"y","type":"uint256","internalType":"uint256"}]},{"type":"error","name":"PRBMath_MulDiv_Overflow","inputs":[{"name":"x","type":"uint256","internalType":"uint256"},{"name":"y","type":"uint256","internalType":"uint256"},{"name":"denominator","type":"uint256","internalType":"uint256"}]},{"type":"error","name":"PRBMath_SD59x18_Abs_MinSD59x18","inputs":[]},{"type":"error","name":"PRBMath_SD59x18_Div_InputTooSmall","inputs":[]},{"type":"error","name":"PRBMath_SD59x18_Div_Overflow","inputs":[{"name":"x","type":"int256","internalType":"SD59x18"},{"name":"y","type":"int256","internalType":"SD59x18"}]},{"type":"error","name":"PRBMath_SD59x18_Exp2_InputTooBig","inputs":[{"name":"x","type":"int256","internalType":"SD59x18"}]},{"type":"error","name":"PRBMath_SD59x18_Exp_InputTooBig","inputs":[{"name":"x","type":"int256","internalType":"SD59x18"}]},{"type":"error","name":"PRBMath_SD59x18_Log_InputTooSmall","inputs":[{"name":"x","type":"int256","internalType":"SD59x18"}]},{"type":"error","name":"PRBMath_SD59x18_Mul_InputTooSmall","inputs":[]},{"type":"error","name":"PRBMath_SD59x18_Mul_Overflow","inputs":[{"name":"x","type":"int256","internalType":"SD59x18"},{"name":"y","type":"int256","internalType":"SD59x18"}]},{"type":"error","name":"SafeERC20FailedOperation","inputs":[{"name":"token","type":"address","internalType":"address"}]},{"type":"error","name":"SlippageExceeded","inputs":[]},{"type":"error","name":"SolvencyIssue","inputs":[]},{"type":"error","name":"ZeroB","inputs":[]}],"bytecode":{"object":"0x6080806040523461001657612481908161001b8239f35b5f80fdfe60c080604052600480361015610013575f80fd5b5f3560e01c918263028aa4ee1461121a575081630615e22a146111fd5781630abf189914610e87578163169070eb14610e6a578163249d39e914610e4e5781632c7dc31914610e0d5781632ed13b7814610df05781633e413bee14610dc9578163572ddbcb14610dad57816361d027b314610d855781636329a66a14610d4b5781636735172914610d28578163692a34f414610cd05781636aa083b914610c995781636ad6c25414610c745781636bcbb8a514610c3d5781636dba319c14610c035781637f8a3f8c14610bdb578163919cab1f14610bb7578163969ea86b14610b9a5781639da4f13d14610b72578163aa93f46214610b53578163ae42820c14610b19578163b1283e771461088f578163bdad35e514610350578163c16de9c714610333578163d063c724146102f9578163d105e1c6146102dc578163dfe0662a146102b0578163e72012a71461028857508063e998985e1461024e578063ec97908214610231578063f5b9f41614610214578063f5d7eeaf146101da5763ffe2a9451461019f575f80fd5b346101d6576101ad3661125f565b905f52600f60205260405f209060018060a01b03165f52602052602060405f2054604051908152f35b5f80fd5b346101d6575f3660031901126101d65760206040517fea0a90cd6dac6e6bb5f9c85bc78075cbca424cf853bf131e30cae433318da0808152f35b346101d6575f3660031901126101d6576020600554604051908152f35b346101d6575f3660031901126101d6576020600c54604051908152f35b346101d6575f3660031901126101d65760206040517ffb7970db71b5d6f6b5d5355a31ca44c1e2ed199b82b881fca32583ec66a6b7748152f35b346101d65760203660031901126101d657355f526010602052602060405f2054604051908152f35b346101d65760203660031901126101d65764e8d4a510006102d36020923561130a565b04604051908152f35b346101d6575f3660031901126101d6576020600754604051908152f35b346101d6575f3660031901126101d65760206040517fa2d8aacac1aaa86712a1ceac3c4524e6ff8d62059ccd43ade1a60d5835f86bb68152f35b346101d6575f3660031901126101d6576020600654604051908152f35b346101d65761035e36611238565b90600a949294546101d6576001600a5560ff60095460301c166101d657835f52600b60205260405f2060068101549060ff8260301c1661039d81611285565b61087e57600e81015442101561087e57821561086d57600354831161085c5761ffff906127106103f1816103d386861688611356565b0493826103e5828860101c1689611356565b049560201c1686611356565b046104098161040486610404878a6112cb565b6112cb565b5f546040516323b872dd60e01b60208201523360248201523060448201526064808201899052815291956001600160a01b039590929091861660a0820167ffffffffffffffff811183821017610849576040526104669190611811565b80610830575b508015801580610823575b6107b9575b5050806107a2575b5060058101610494848254611369565b80915564e8d4a51000938481029080820486149015171561078f578915610782576104d760028401545b8b15610777576003850154925b8a8601549384926116d2565b966006548810610766578710610755578960028401928354928360038701948b86549283965f14610743579061050c91611369565b935b8285111561073d57845b600a820190818311610729578c90041161071857908c9594939291600c8a0154116106a7575b505050508b5f14610617575061055691508254611369565b90555416803b156101d657604080516340c10f1960e01b81523396810196875260208701869052955f92879290918391859183910103925af190811561060c577fa625c3e5e55ecfc87bc129708d56174a230213ded2a553ef566988855bdb1a05946105f4926105fd575b505b6105cc8661130a565b0460405193849333988590949392606092608083019615158352602083015260408201520152565b0390a35f600a55005b610606906112a3565b876105c1565b6040513d5f823e3d90fd5b60019493509061062691611369565b9055015416803b156101d657604080516340c10f1960e01b81523396810196875260208701869052955f92879290918391859183910103925af190811561060c577fa625c3e5e55ecfc87bc129708d56174a230213ded2a553ef566988855bdb1a05946105f492610698575b506105c3565b6106a1906112a3565b87610692565b849550826106bf94956106b99261154c565b9361154c565b908181111561070a57906106d2916112cb565b600d850154801561070057905b116106ef5787908c80808061053e565b604051632071487960e11b81528990fd5b50600854906106df565b610713916112cb565b6106d2565b60405163640feb3560e01b81528e90fd5b5060118f634e487b7160e01b5f525260245ffd5b82610518565b94929061074f91611369565b9161050e565b604051638199f5f360e01b81528890fd5b604051631d25e4d760e01b81528990fd5b6002850154926104cb565b6104d760038401546104be565b601188634e487b7160e01b5f525260245ffd5b6107b160058301918254611369565b905588610484565b670de0b6b3a764000090818302918383041417156108105760098401546107df916112ec565b895f52600e6020526107f660405f20918254611369565b9055610807600a8401918254611369565b9055898061047c565b601189634e487b7160e01b5f525260245ffd5b5060098401541515610477565b61084390855f54168660015416906114e1565b8a61046c565b60418c634e487b7160e01b5f525260245ffd5b604051630133125960e61b81528590fd5b604051631d25e4d760e01b81528590fd5b604051635a90bb8d60e11b81528590fd5b346101d65760203660031901126101d65780355f52600b60205260405f2060018060a01b038154169060018060a01b03600182015416608052600281015460038201548483015460058401546006850154600786015460018060a01b0360088801541691600988015493600a89015495600b8a015497600c8b015499600d8c01549b60405160a05260a05161010060a051011067ffffffffffffffff61010060a051011117610b065761010060a05101604052600e81015460a05152600f810154600260ff82161015610af257601260ff9796959493928289809416602060a051015260018060a01b039060081c16604060a05101526010810154606060a05101526011810154608060a051015201546109aa828216611285565b81811660a080510152818160081c16151560c060a051015260101c16151560e060a0510152604080519e8f9081526080516020820152015260608d015260808c015260a08b015261ffff811660c08b015261ffff8160101c1660e08b015261ffff8160201c166101008b0152610a24828260301c16611285565b60301c166101208901526101408801526101608701526101808601526101a08501526101c08401526101e083015261020082015260a05151610220820152602060a05101516002811015610adf5761024082015260a08051604001516001600160a01b03166102608301528051606001516102808301528051608001516102a0830152805101516103209250610ab981611285565b6102c082015260c060a051015115156102e082015260e060a05101511515610300820152f35b602183634e487b7160e01b5f525260245ffd5b5060218f634e487b7160e01b5f525260245ffd5b60418f634e487b7160e01b5f525260245ffd5b346101d6575f3660031901126101d65760206040517fd3065a24ad9e7725d223007135762d2902038999e3e5829146654498a58d97958152f35b346101d6575f3660031901126101d657602060405164e8d4a510008152f35b346101d65760203660031901126101d657355f52600e602052602060405f2054604051908152f35b346101d6575f3660031901126101d6576020601354604051908152f35b346101d6575f3660031901126101d657602061ffff60095460101c16604051908152f35b346101d6575f3660031901126101d6576002546040516001600160a01b039091168152602090f35b346101d6575f3660031901126101d65760206040517f19aebff3bbcef323e5c760a3ed420922e4d158f9d2c6e69bda4f540960d86e978152f35b346101d657610c4b3661125f565b905f52600d60205260405f209060018060a01b03165f52602052602060405f2054604051908152f35b346101d65760203660031901126101d657610c916020913561130a565b604051908152f35b346101d657610ca73661125f565b905f52601160205260405f209060018060a01b03165f52602052602060405f2054604051908152f35b346101d65760203660031901126101d65780355f52601460205260405f2080549060018101549060ff6003600283015492015416916040519384526020840152604083015282811015610adf57608092506060820152f35b346101d6575f3660031901126101d657602060095461ffff60405191831c168152f35b346101d6575f3660031901126101d65760206040517f59d087672531b50700275907548a6c10240fc27658dfda79d5c528581d070b5e8152f35b346101d6575f3660031901126101d6576001546040516001600160a01b039091168152602090f35b346101d6575f3660031901126101d65760209054604051908152f35b346101d6575f3660031901126101d6575f546040516001600160a01b039091168152602090f35b346101d6575f3660031901126101d6576020600854604051908152f35b346101d65760203660031901126101d6573563ffffffff60e01b81168091036101d6575f526012602052602060018060a01b0360405f205416604051908152f35b346101d6575f3660031901126101d65760206040516127108152f35b346101d6575f3660031901126101d6576020604051620151808152f35b346101d657610e9536611238565b90600a949294546101d6576001600a5560ff60095460301c166101d657835f52600b60205260405f2060ff600682015460301c16610ed281611285565b6111ec5760065482106111db5785156111d15760028101545b82116111c05760028101908154916003820180548784015494610f0f868383611376565b958b156111ba57610f2088836112cb565b8c156111a757610f4484985b610f3e8464e8d4a510009b8c95611376565b906112cb565b04988910611196576005860191825491828b116111855784828f156111725750610f6e8b846112cb565b925b8184111561116c57835b600a860190818711610729578c90041161071857918c93918c97969593600c8c015485106110f8575b5050505090610fb1916112cb565b90558a156110625750610fc6915082546112cb565b9055546001600160a01b0316803b156101d65760408051632770a7eb60e21b81523396810196875260208701859052955f92879290918391859183910103925af190811561060c577f1d161b920c72af3bceacd767e1ddf575296be054b91f3f47954d4fa62e0ea792946105f492611053575b505b5f546105c390859033906001600160a01b03166114e1565b61105c906112a3565b87611039565b61106d9293506112cb565b9055600101546001600160a01b0316803b156101d65760408051632770a7eb60e21b81523396810196875260208701859052955f92879290918391859183910103925af190811561060c577f1d161b920c72af3bceacd767e1ddf575296be054b91f3f47954d4fa62e0ea792946105f4926110e9575b5061103b565b6110f2906112a3565b876110e3565b876111109597989950839496506106b992939161154c565b908181111561115e5790611123916112cb565b600d870154801561115457905b116111435790888893928e808080610fa3565b604051632071487960e11b81528a90fd5b5060085490611130565b611167916112cb565b611123565b81610f7a565b92905061117f8b876112cb565b90610f70565b604051632071487960e11b81528c90fd5b604051638199f5f360e01b81528a90fd5b610f446111b48a866112cb565b98610f2c565b81610f20565b604051632071487960e11b81528490fd5b6003810154610eeb565b604051631d25e4d760e01b81528490fd5b604051635a90bb8d60e11b81528490fd5b346101d6575f3660031901126101d6576020600354604051908152f35b346101d6575f3660031901126101d65760209061ffff600954168152f35b60809060031901126101d6576004359060243580151581036101d657906044359060643590565b60409060031901126101d657600435906024356001600160a01b03811681036101d65790565b6003111561128f57565b634e487b7160e01b5f52602160045260245ffd5b67ffffffffffffffff81116112b757604052565b634e487b7160e01b5f52604160045260245ffd5b919082039182116112d857565b634e487b7160e01b5f52601160045260245ffd5b81156112f6570490565b634e487b7160e01b5f52601260045260245ffd5b5f908152600b6020526040902080546001600160a01b0316156113445780600261134192015490600460038201549101549161154c565b90565b604051639db8d5b160e01b8152600490fd5b818102929181159184041417156112d857565b919082018092116112d857565b82156114d0576113938361138d816113a194611a2d565b93611a2d565b808313156114c95782611534565b600160ff1b908082146114b7575f8112156114b1575f03905b811480156114aa575b611498575f81121561148f576113da815f0361190c565b906001600160ff1b0382116114665761140891905f19670de0b6b3a763ffff19909118131561145f57611885565b80670de0b6b3a7640000019081126001166112d857611426906118db565b905f82820192831291129080158216911516176112d8575f81131561144e5761134191611998565b60405162b5401d60e41b8152600490fd5b5f03611885565b60405163120b5b4360e01b81526004810191909152670de0b6b3a763ffff196024820152604490fd5b6113da8161190c565b60405163a6070c2560e01b8152600490fd5b505f6113c3565b906113ba565b60405163ec2b9e6760e01b8152600490fd5b8092611534565b60405162faf17b60e31b8152600490fd5b60405163a9059cbb60e01b60208201526001600160a01b03929092166024830152604480830193909352918152608081019167ffffffffffffffff8311828410176112b75761153292604052611811565b565b81810392915f1380158285131691841216176112d857565b82156114d05761155b91611534565b90600160ff1b80831480156116c9575b61166a575f8312156116c05761158f835f035b5f8412156116b957835f0390611a2d565b6001600160ff1b039384821161169b575f199318831215611694575b68070c1cc73b00c80000811361168c5768070c1cc73b00c7ffff19811261167c576115d590611885565b670de0b6b3a764000090808201928184126001166112d857831461166a575f831215611663575f03670de0b6b3a763ffff19015b80156112f6576ec097ce7bc90715b34b9f1000000000049384116116465718131561163f575b5f81131561163a5790565b505f90565b5f0361162f565b6044916040519163d49c26b360e01b835260048301526024820152fd5b5081611609565b6040516309fe2b4560e41b8152600490fd5b50505050670de0b6b3a764000090565b505050505f90565b5f036115ab565b604490846040519163d49c26b360e01b835260048301526024820152fd5b8390611a2d565b61158f8361157e565b5080821461156b565b929182156114d057801561168c5782611701816116fc611707946116f783888b611376565b611369565b611a2d565b92611a2d565b68070c1cc73b00c80000808313908115611807575b506117f55761173661173061173c93611885565b91611885565b90611534565b5f81131561144e5761174d906118db565b90600160ff1b8082149081156117eb575b50611498575f8112156117e257611783815f035b5f8412156117db57835f0390611998565b916001600160ff1b0383116117bd575f19911813156117b557905b808213156117af57611341916112cb565b50505f90565b5f039061179e565b604492506040519163120b5b4360e01b835260048301526024820152fd5b8390611998565b61178381611772565b905082145f61175e565b604051634eab2ea760e11b8152600490fd5b905081135f61171c565b905f602091828151910182855af11561060c575f513d61186257506001600160a01b0381163b155b6118405750565b604051635274afe760e01b81526001600160a01b039091166004820152602490fd5b60011415611839565b80156112f6576ec097ce7bc90715b34b9f10000000000590565b68023f2fa8f6da5b9d3119811261163a57680736ea4425c11ac63081136118c357670de0b6b3a76400006714057b7ef767814f611341920205611adb565b6024906040519063ca7ec0c560e01b82526004820152fd5b6118e490612353565b670de0b6b3a7640000908181029181830514901517156112d8576714057b7ef767814f900590565b670de0b6b3a764000091905f198382098382029182808310920391808303921461198f57848210156119715793807faccb18165bd6fe31ae1cf318dc5b51eee0e1ba569b88cd74c1773b91fac1066994950990828211900360ee1b910360121c170290565b6044908560405191635173648d60e01b835260048301526024820152fd5b50509190910490565b9091905f1983820983820291828083109203918083039214611a1c57670de0b6b3a764000090818310156119fe57947faccb18165bd6fe31ae1cf318dc5b51eee0e1ba569b88cd74c1773b91fac1066994950990828211900360ee1b910360121c170290565b6044908660405191635173648d60e01b835260048301526024820152fd5b5050670de0b6b3a764000090049150565b670de0b6b3a7640000915f198383099280830292838086109503948086039514611ace5782851015611aab579082910960018219018216809204600280826003021880830282030280830282030280830282030280830282030280830282030280920290030293600183805f03040190848311900302920304170290565b8260649260405192630c740aef60e31b8452600484015260248301526044820152fd5b50509061134192506112ec565b5f811215611b085768033dd1780914b9711419811261163a57611aff905f03611adb565b6113419061186b565b680a688906bd8affffff811361233c57670de0b6b3a764000080604092831b0590600160bf1b67ff00000000000000831661222b575b66ff0000000000008316612123575b65ff00000000008316612023575b64ff000000008316611f2b575b63ff0000008316611e3b575b62ff00008316611d53575b61ff008316611c73575b60ff8316611b9c575b02911c60bf031c90565b60808316611c61575b838316611c4f575b60208316611c3d575b60108316611c2b575b60088316611c19575b60048316611c07575b60028316611bf5575b6001831615611b92576801000000000000000102831c611b92565b6801000000000000000102831c611bda565b6801000000000000000302831c611bd1565b6801000000000000000602831c611bc8565b6801000000000000000b02831c611bbf565b6801000000000000001602831c611bb6565b6801000000000000002c02831c611bad565b6801000000000000005902831c611ba5565b6180008316611d41575b6140008316611d2f575b6120008316611d1d575b6110008316611d0b575b6108008316611cf9575b6104008316611ce7575b6102008316611cd5575b610100831615611b8957680100000000000000b102831c611b89565b6801000000000000016302831c611cb9565b680100000000000002c602831c611caf565b6801000000000000058c02831c611ca5565b68010000000000000b1702831c611c9b565b6801000000000000162e02831c611c91565b68010000000000002c5d02831c611c87565b680100000000000058b902831c611c7d565b628000008316611e29575b624000008316611e17575b622000008316611e05575b621000008316611df3575b620800008316611de1575b620400008316611dcf575b620200008316611dbd575b62010000831615611b7f576801000000000000b17202831c611b7f565b680100000000000162e402831c611da0565b6801000000000002c5c802831c611d95565b68010000000000058b9102831c611d8a565b680100000000000b172102831c611d7f565b68010000000000162e4302831c611d74565b680100000000002c5c8602831c611d69565b6801000000000058b90c02831c611d5e565b63800000008316611f19575b63400000008316611f07575b63200000008316611ef5575b63100000008316611ee3575b63080000008316611ed1575b63040000008316611ebf575b63020000008316611ead575b6301000000831615611b745768010000000000b1721802831c611b74565b6801000000000162e43002831c611e8f565b68010000000002c5c86002831c611e83565b680100000000058b90c002831c611e77565b6801000000000b17217f02831c611e6b565b680100000000162e42ff02831c611e5f565b6801000000002c5c85fe02831c611e53565b68010000000058b90bfc02831c611e47565b6480000000008316612011575b6440000000008316611fff575b6420000000008316611fed575b6410000000008316611fdb575b6408000000008316611fc9575b6404000000008316611fb7575b6402000000008316611fa5575b640100000000831615611b6857680100000000b17217f802831c611b68565b68010000000162e42ff102831c611f86565b680100000002c5c85fe302831c611f79565b6801000000058b90bfce02831c611f6c565b68010000000b17217fbb02831c611f5f565b6801000000162e42fff002831c611f52565b68010000002c5c8601cc02831c611f45565b680100000058b90c0b4902831c611f38565b658000000000008316612111575b6540000000000083166120ff575b6520000000000083166120ed575b6510000000000083166120db575b6508000000000083166120c9575b6504000000000083166120b7575b6502000000000083166120a5575b65010000000000831615611b5b576801000000b17218355102831c611b5b565b680100000162e430e5a202831c612085565b6801000002c5c863b73f02831c612077565b68010000058b90cf1e6e02831c612069565b680100000b1721bcfc9a02831c61205b565b68010000162e43f4f83102831c61204d565b680100002c5c89d5ec6d02831c61203f565b6801000058b91b5bc9ae02831c612031565b66800000000000008316612219575b66400000000000008316612207575b662000000000000083166121f5575b661000000000000083166121e3575b660800000000000083166121d1575b660400000000000083166121bf575b660200000000000083166121ad575b6601000000000000831615611b4d5768010000b17255775c0402831c611b4d565b6801000162e525ee054702831c61218c565b68010002c5cc37da949202831c61217d565b680100058ba01fb9f96d02831c61216e565b6801000b175effdc76ba02831c61215f565b680100162f3904051fa102831c612150565b6801002c605e2e8cec5002831c612141565b68010058c86da1c09ea202831c612132565b6780000000000000008316612329575b6740000000000000008316612317575b6720000000000000008316612305575b67100000000000000083166122f3575b67080000000000000083166122e1575b67040000000000000083166122cf575b67020000000000000083166122bd575b670100000000000000831615611b3e57680100b1afa5abcbed6102831c611b3e565b68010163da9fb33356d802831c61229b565b680102c9a3e778060ee702831c61228b565b6801059b0d31585743ae02831c61227b565b68010b5586cf9890f62a02831c61226b565b6801172b83c7d517adce02831c61225b565b6801306fe0a31b7152df02831c61224b565b5068016a09e667f3bcc909607f1b61223b565b60249060405190626c1a0560e31b82526004820152fd5b805f82131561246857670de0b6b3a76400009182811261244657506001915b8082056fffffffffffffffffffffffffffffffff811160071b90811c9067ffffffffffffffff821160061b91821c63ffffffff811160051b90811c61ffff811160041b90811c60ff811160031b90811c91600f831160021b92831c93600196600160038711811b96871c1196171717171717179180830293831d9281841461243b57506706f05b59d3b20000925b5f841361240f57505050500290565b808291020592671bc16d674ec8000084121561242e575b821d92612400565b8093940193821d92612426565b925093925050020290565b5f1992915080156112f6576ec097ce7bc90715b34b9f10000000000590612372565b60405163059b101b60e01b815260048101839052602490fd","linkReferences":{}},"methodIdentifiers":{"BPS()":"249d39e9","MARKET_CREATOR_ROLE()":"ae42820c","MIN_TIMELOCK_DELAY()":"169070eb","OP_PAUSE()":"6329a66a","OP_SET_FACET()":"e998985e","OP_SET_RESOLVER()":"d063c724","OP_SET_TREASURY()":"f5d7eeaf","OP_UNPAUSE()":"6dba319c","USDC_TO_E18()":"aa93f462","accFeePerUSDCE18(uint256)":"9da4f13d","accResidualPerUSDCE18(uint256)":"e72012a7","buy(uint256,bool,uint256,uint256)":"bdad35e5","chainlinkResolver()":"7f8a3f8c","defaultFeeLpBps()":"919cab1f","defaultFeeTreasuryBps()":"028aa4ee","defaultFeeVaultBps()":"67351729","dustSharesE18()":"c16de9c7","facetOf(bytes4)":"2c7dc319","liquidityMultiplierE18()":"d105e1c6","lpFeeDebt(uint256,address)":"ffe2a945","lpResidualDebt(uint256,address)":"6aa083b9","lpShares(uint256,address)":"6bcbb8a5","marketCount()":"ec979082","markets(uint256)":"b1283e77","maxInstantJumpE18()":"2ed13b78","maxUsdcPerTrade()":"0615e22a","minLiquidityAdd()":"f5b9f416","minMarketSeed()":"572ddbcb","opNonce()":"969ea86b","ops(bytes32)":"692a34f4","sell(uint256,bool,uint256,uint256)":"0abf1899","spotPriceYesE18(uint256)":"6ad6c254","spotPriceYesE6(uint256)":"dfe0662a","treasury()":"61d027b3","usdc()":"3e413bee"},"id":76}