{"abi":[{"type":"function","name":"BPS","inputs":[],"outputs":[{"name":"","type":"uint256","internalType":"uint256"}],"stateMutability":"view"},{"type":"function","name":"MARKET_CREATOR_ROLE","inputs":[],"outputs":[{"name":"","type":"bytes32","internalType":"bytes32"}],"stateMutability":"view"},{"type":"function","name":"MAX_SHARES","inputs":[],"outputs":[{"name":"","type":"uint256","internalType":"uint256"}],"stateMutability":"view"},{"type":"function","name":"MIN_LP_USDC","inputs":[],"outputs":[{"name":"","type":"uint256","internalType":"uint256"}],"stateMutability":"view"},{"type":"function","name":"OP_CANCEL_MARKET","inputs":[],"outputs":[{"name":"","type":"bytes32","internalType":"bytes32"}],"stateMutability":"view"},{"type":"function","name":"OP_EXPIRY_WINDOW","inputs":[],"outputs":[{"name":"","type":"uint256","internalType":"uint256"}],"stateMutability":"view"},{"type":"function","name":"OP_PAUSE","inputs":[],"outputs":[{"name":"","type":"bytes32","internalType":"bytes32"}],"stateMutability":"view"},{"type":"function","name":"OP_RECOVER_ETH","inputs":[],"outputs":[{"name":"","type":"bytes32","internalType":"bytes32"}],"stateMutability":"view"},{"type":"function","name":"OP_REMOVE_FACET","inputs":[],"outputs":[{"name":"","type":"bytes32","internalType":"bytes32"}],"stateMutability":"view"},{"type":"function","name":"OP_SET_FACET","inputs":[],"outputs":[{"name":"","type":"bytes32","internalType":"bytes32"}],"stateMutability":"view"},{"type":"function","name":"OP_SET_RESOLVER","inputs":[],"outputs":[{"name":"","type":"bytes32","internalType":"bytes32"}],"stateMutability":"view"},{"type":"function","name":"OP_SET_TREASURY","inputs":[],"outputs":[{"name":"","type":"bytes32","internalType":"bytes32"}],"stateMutability":"view"},{"type":"function","name":"OP_UNPAUSE","inputs":[],"outputs":[{"name":"","type":"bytes32","internalType":"bytes32"}],"stateMutability":"view"},{"type":"function","name":"STORAGE_VERSION","inputs":[],"outputs":[{"name":"","type":"uint256","internalType":"uint256"}],"stateMutability":"view"},{"type":"function","name":"USDC_TO_E18","inputs":[],"outputs":[{"name":"","type":"uint256","internalType":"uint256"}],"stateMutability":"view"},{"type":"function","name":"accFeePerUSDCE18","inputs":[{"name":"","type":"uint256","internalType":"uint256"}],"outputs":[{"name":"","type":"uint256","internalType":"uint256"}],"stateMutability":"view"},{"type":"function","name":"accResidualPerUSDCE18","inputs":[{"name":"","type":"uint256","internalType":"uint256"}],"outputs":[{"name":"","type":"uint256","internalType":"uint256"}],"stateMutability":"view"},{"type":"function","name":"buy","inputs":[{"name":"id","type":"uint256","internalType":"uint256"},{"name":"isYes","type":"bool","internalType":"bool"},{"name":"usdcIn","type":"uint256","internalType":"uint256"},{"name":"minSharesOut","type":"uint256","internalType":"uint256"}],"outputs":[],"stateMutability":"nonpayable"},{"type":"function","name":"chainlinkResolver","inputs":[],"outputs":[{"name":"","type":"address","internalType":"address"}],"stateMutability":"view"},{"type":"function","name":"defaultFeeLpBps","inputs":[],"outputs":[{"name":"","type":"uint16","internalType":"uint16"}],"stateMutability":"view"},{"type":"function","name":"defaultFeeTreasuryBps","inputs":[],"outputs":[{"name":"","type":"uint16","internalType":"uint16"}],"stateMutability":"view"},{"type":"function","name":"defaultFeeVaultBps","inputs":[],"outputs":[{"name":"","type":"uint16","internalType":"uint16"}],"stateMutability":"view"},{"type":"function","name":"dustSharesE18","inputs":[],"outputs":[{"name":"","type":"uint256","internalType":"uint256"}],"stateMutability":"view"},{"type":"function","name":"facetOf","inputs":[{"name":"","type":"bytes4","internalType":"bytes4"}],"outputs":[{"name":"","type":"address","internalType":"address"}],"stateMutability":"view"},{"type":"function","name":"getMaxJumpE18","inputs":[{"name":"id","type":"uint256","internalType":"uint256"}],"outputs":[{"name":"","type":"uint256","internalType":"uint256"}],"stateMutability":"view"},{"type":"function","name":"liquidityMultiplierE18","inputs":[],"outputs":[{"name":"","type":"uint256","internalType":"uint256"}],"stateMutability":"view"},{"type":"function","name":"lpFeeDebt","inputs":[{"name":"","type":"uint256","internalType":"uint256"},{"name":"","type":"address","internalType":"address"}],"outputs":[{"name":"","type":"uint256","internalType":"uint256"}],"stateMutability":"view"},{"type":"function","name":"lpFeeDustUSDC","inputs":[{"name":"","type":"uint256","internalType":"uint256"}],"outputs":[{"name":"","type":"uint256","internalType":"uint256"}],"stateMutability":"view"},{"type":"function","name":"lpResidualDebt","inputs":[{"name":"","type":"uint256","internalType":"uint256"},{"name":"","type":"address","internalType":"address"}],"outputs":[{"name":"","type":"uint256","internalType":"uint256"}],"stateMutability":"view"},{"type":"function","name":"lpResidualDustUSDC","inputs":[{"name":"","type":"uint256","internalType":"uint256"}],"outputs":[{"name":"","type":"uint256","internalType":"uint256"}],"stateMutability":"view"},{"type":"function","name":"lpShares","inputs":[{"name":"","type":"uint256","internalType":"uint256"},{"name":"","type":"address","internalType":"address"}],"outputs":[{"name":"","type":"uint256","internalType":"uint256"}],"stateMutability":"view"},{"type":"function","name":"marketCount","inputs":[],"outputs":[{"name":"","type":"uint256","internalType":"uint256"}],"stateMutability":"view"},{"type":"function","name":"markets","inputs":[{"name":"","type":"uint256","internalType":"uint256"}],"outputs":[{"name":"yes","type":"address","internalType":"contract PositionToken"},{"name":"no","type":"address","internalType":"contract PositionToken"},{"name":"qYes","type":"uint256","internalType":"uint256"},{"name":"qNo","type":"uint256","internalType":"uint256"},{"name":"bE18","type":"uint256","internalType":"uint256"},{"name":"usdcVault","type":"uint256","internalType":"uint256"},{"name":"feeTreasuryBps","type":"uint16","internalType":"uint16"},{"name":"feeLpBps","type":"uint16","internalType":"uint16"},{"name":"feeVaultBps","type":"uint16","internalType":"uint16"},{"name":"status","type":"uint8","internalType":"enum CoreStorage.MarketStatus"},{"name":"questionHash","type":"bytes32","internalType":"bytes32"},{"name":"question","type":"string","internalType":"string"},{"name":"creator","type":"address","internalType":"address"},{"name":"totalLpUsdc","type":"uint256","internalType":"uint256"},{"name":"lpFeesUSDC","type":"uint256","internalType":"uint256"},{"name":"residualUSDC","type":"uint256","internalType":"uint256"},{"name":"priceBandThresholdUSDC","type":"uint256","internalType":"uint256"},{"name":"maxJumpE18","type":"uint256","internalType":"uint256"},{"name":"resolution","type":"tuple","internalType":"struct CoreStorage.ResolutionConfig","components":[{"name":"expiryTimestamp","type":"uint256","internalType":"uint256"},{"name":"oracleType","type":"uint8","internalType":"enum CoreStorage.OracleType"},{"name":"oracleAddress","type":"address","internalType":"address"},{"name":"priceFeedId","type":"bytes32","internalType":"bytes32"},{"name":"targetValue","type":"uint256","internalType":"uint256"},{"name":"comparison","type":"uint8","internalType":"enum CoreStorage.Comparison"},{"name":"yesWins","type":"bool","internalType":"bool"},{"name":"isResolved","type":"bool","internalType":"bool"},{"name":"oracleDecimals","type":"uint8","internalType":"uint8"}]}],"stateMutability":"view"},{"type":"function","name":"maxInstantJumpE18","inputs":[],"outputs":[{"name":"","type":"uint256","internalType":"uint256"}],"stateMutability":"view"},{"type":"function","name":"maxUsdcPerTrade","inputs":[],"outputs":[{"name":"","type":"uint256","internalType":"uint256"}],"stateMutability":"view"},{"type":"function","name":"minLiquidityAdd","inputs":[],"outputs":[{"name":"","type":"uint256","internalType":"uint256"}],"stateMutability":"view"},{"type":"function","name":"minMarketSeed","inputs":[],"outputs":[{"name":"","type":"uint256","internalType":"uint256"}],"stateMutability":"view"},{"type":"function","name":"minTimelockDelay","inputs":[],"outputs":[{"name":"","type":"uint256","internalType":"uint256"}],"stateMutability":"view"},{"type":"function","name":"opNonce","inputs":[],"outputs":[{"name":"","type":"uint256","internalType":"uint256"}],"stateMutability":"view"},{"type":"function","name":"ops","inputs":[{"name":"","type":"bytes32","internalType":"bytes32"}],"outputs":[{"name":"tag","type":"bytes32","internalType":"bytes32"},{"name":"dataHash","type":"bytes32","internalType":"bytes32"},{"name":"readyAt","type":"uint256","internalType":"uint256"},{"name":"status","type":"uint8","internalType":"enum CoreStorage.OpStatus"}],"stateMutability":"view"},{"type":"function","name":"sell","inputs":[{"name":"id","type":"uint256","internalType":"uint256"},{"name":"isYes","type":"bool","internalType":"bool"},{"name":"sharesIn","type":"uint256","internalType":"uint256"},{"name":"minUsdcOut","type":"uint256","internalType":"uint256"}],"outputs":[],"stateMutability":"nonpayable"},{"type":"function","name":"spotPriceYesE18","inputs":[{"name":"id","type":"uint256","internalType":"uint256"}],"outputs":[{"name":"","type":"uint256","internalType":"uint256"}],"stateMutability":"view"},{"type":"function","name":"spotPriceYesE6","inputs":[{"name":"id","type":"uint256","internalType":"uint256"}],"outputs":[{"name":"","type":"uint256","internalType":"uint256"}],"stateMutability":"view"},{"type":"function","name":"treasury","inputs":[],"outputs":[{"name":"","type":"address","internalType":"address"}],"stateMutability":"view"},{"type":"function","name":"usdc","inputs":[],"outputs":[{"name":"","type":"address","internalType":"address"}],"stateMutability":"view"},{"type":"event","name":"Buy","inputs":[{"name":"id","type":"uint256","indexed":true,"internalType":"uint256"},{"name":"user","type":"address","indexed":true,"internalType":"address"},{"name":"isYes","type":"bool","indexed":false,"internalType":"bool"},{"name":"usdcIn","type":"uint256","indexed":false,"internalType":"uint256"},{"name":"sharesOut","type":"uint256","indexed":false,"internalType":"uint256"},{"name":"pYesE6","type":"uint256","indexed":false,"internalType":"uint256"}],"anonymous":false},{"type":"event","name":"OperationCancelled","inputs":[{"name":"opId","type":"bytes32","indexed":true,"internalType":"bytes32"}],"anonymous":false},{"type":"event","name":"OperationExecuted","inputs":[{"name":"opId","type":"bytes32","indexed":true,"internalType":"bytes32"}],"anonymous":false},{"type":"event","name":"OperationScheduled","inputs":[{"name":"opId","type":"bytes32","indexed":true,"internalType":"bytes32"},{"name":"tag","type":"bytes32","indexed":true,"internalType":"bytes32"},{"name":"readyAt","type":"uint256","indexed":false,"internalType":"uint256"}],"anonymous":false},{"type":"event","name":"Sell","inputs":[{"name":"id","type":"uint256","indexed":true,"internalType":"uint256"},{"name":"user","type":"address","indexed":true,"internalType":"address"},{"name":"isYes","type":"bool","indexed":false,"internalType":"bool"},{"name":"sharesIn","type":"uint256","indexed":false,"internalType":"uint256"},{"name":"usdcOut","type":"uint256","indexed":false,"internalType":"uint256"},{"name":"pYesE6","type":"uint256","indexed":false,"internalType":"uint256"}],"anonymous":false},{"type":"error","name":"BackingInsufficient","inputs":[]},{"type":"error","name":"BuyQuoteFailed","inputs":[]},{"type":"error","name":"CalculationError","inputs":[]},{"type":"error","name":"DataMismatch","inputs":[]},{"type":"error","name":"DustAmount","inputs":[]},{"type":"error","name":"ExtremeImbalance","inputs":[]},{"type":"error","name":"InvalidMarket","inputs":[]},{"type":"error","name":"MarketNotActive","inputs":[]},{"type":"error","name":"MathOverflow","inputs":[]},{"type":"error","name":"MaxTradeExceeded","inputs":[]},{"type":"error","name":"NotAuthorized","inputs":[]},{"type":"error","name":"OpExpired","inputs":[]},{"type":"error","name":"OpInvalid","inputs":[]},{"type":"error","name":"OpNotReady","inputs":[{"name":"readyAt","type":"uint256","internalType":"uint256"}]},{"type":"error","name":"PRBMath_MulDiv18_Overflow","inputs":[{"name":"x","type":"uint256","internalType":"uint256"},{"name":"y","type":"uint256","internalType":"uint256"}]},{"type":"error","name":"PRBMath_MulDiv_Overflow","inputs":[{"name":"x","type":"uint256","internalType":"uint256"},{"name":"y","type":"uint256","internalType":"uint256"},{"name":"denominator","type":"uint256","internalType":"uint256"}]},{"type":"error","name":"PRBMath_SD59x18_Abs_MinSD59x18","inputs":[]},{"type":"error","name":"PRBMath_SD59x18_Div_InputTooSmall","inputs":[]},{"type":"error","name":"PRBMath_SD59x18_Div_Overflow","inputs":[{"name":"x","type":"int256","internalType":"SD59x18"},{"name":"y","type":"int256","internalType":"SD59x18"}]},{"type":"error","name":"PRBMath_SD59x18_Exp2_InputTooBig","inputs":[{"name":"x","type":"int256","internalType":"SD59x18"}]},{"type":"error","name":"PRBMath_SD59x18_Exp_InputTooBig","inputs":[{"name":"x","type":"int256","internalType":"SD59x18"}]},{"type":"error","name":"PRBMath_SD59x18_Log_InputTooSmall","inputs":[{"name":"x","type":"int256","internalType":"SD59x18"}]},{"type":"error","name":"PRBMath_SD59x18_Mul_InputTooSmall","inputs":[]},{"type":"error","name":"PRBMath_SD59x18_Mul_Overflow","inputs":[{"name":"x","type":"int256","internalType":"SD59x18"},{"name":"y","type":"int256","internalType":"SD59x18"}]},{"type":"error","name":"SafeERC20FailedOperation","inputs":[{"name":"token","type":"address","internalType":"address"}]},{"type":"error","name":"SlippageExceeded","inputs":[]},{"type":"error","name":"SolvencyIssue","inputs":[]},{"type":"error","name":"TagMismatch","inputs":[]},{"type":"error","name":"ZeroB","inputs":[]}],"bytecode":{"object":"0x6080806040523461001657612d85908161001b8239f35b5f80fdfe60c0806040526004361015610012575f80fd5b5f3560e01c908163028390bd146118b357508063028aa4ee14611892578063032a57d2146118755780630615e22a146118585780630abf18991461140c578063249d39e9146113f057806327b6eeba146113b65780632c7dc319146113735780632ed13b78146113565780632f922f2f1461132c5780633e413bee146113055780633e8ff57b146112d65780633fb5f6e8146112ac57806343a630f51461128f578063572ddbcb1461127257806361d027b31461124a5780636329a66a1461121057806367351729146111ed5780636778c3a21461118a578063692a34f4146111325780636aa083b9146110fb5780636ad6c254146110d55780636bcbb8a51461109e5780636dba319c146110645780637b8c5ba61461102a5780637f8a3f8c14611002578063919cab1f14610fde578063969ea86b14610fc15780639da4f13d14610f975780639ef2b38114610f7c578063aa93f46214610f5d578063ae42820c14610f23578063b1283e7714610b4a578063bdad35e5146103f9578063c16de9c7146103dc578063d063c724146103a2578063d105e1c614610385578063dfe0662a14610358578063e72012a71461032e578063e998985e146102f4578063ec979082146102d7578063f5b9f416146102ba578063f5d7eeaf14610280578063f7050eae146102465763ffe2a9451461020b575f80fd5b3461024257610219366118f4565b905f52600f60205260405f209060018060a01b03165f52602052602060405f2054604051908152f35b5f80fd5b34610242575f3660031901126102425760206040517f45487ebba72ead203c633e826e1c055a8a179c4ce023c1650f84a2b55ff3cec18152f35b34610242575f3660031901126102425760206040517fea0a90cd6dac6e6bb5f9c85bc78075cbca424cf853bf131e30cae433318da0808152f35b34610242575f366003190112610242576020600554604051908152f35b34610242575f366003190112610242576020600c54604051908152f35b34610242575f3660031901126102425760206040517ffb7970db71b5d6f6b5d5355a31ca44c1e2ed199b82b881fca32583ec66a6b7748152f35b34610242576020366003190112610242576004355f526010602052602060405f2054604051908152f35b3461024257602036600319011261024257602064e8d4a5100061037c600435611985565b04604051908152f35b34610242575f366003190112610242576020600754604051908152f35b34610242575f3660031901126102425760206040517fa2d8aacac1aaa86712a1ceac3c4524e6ff8d62059ccd43ade1a60d5835f86bb68152f35b34610242575f366003190112610242576020600654604051908152f35b3461024257610407366118cd565b600a93929354610242576001600a5560ff60095460301c1661024257825f52600b60205260405f20600681015460ff8160301c1661044481611950565b610b3857600f820154421015610b385783156109da576003548411610b265761ffff906127106104988161047a858516896119bf565b04938261048c828660101c168a6119bf565b049360201c16876119bf565b04906104b1826104ac836104ac878b61195a565b61195a565b9260018060a01b035f54166040516323b872dd60e01b6020820152336024820152306044820152886064820152606481528060a081011067ffffffffffffffff60a083011117610b125761050b9160a08201604052612115565b80610af0575b5080151580610ae3575b610a31575b5080610a1a575b5060058201906105388183546119d2565b80925564e8d4a5100081029080820464e8d4a5100014901517156108ce578615610a0f576002830154935b8715610a04576003840154915b6004850154926105828483838a611c53565b9790156109ec575b50505060065485106109da5784106109c857861561098c577109f4f2726179a224501d762422c946590d91603c1b6105c68560028601546119d2565b11610960575b600283015460038401549182919086828b1561097c57906105ec916119d2565b925b7109f4f2726179a224501d762422c946590d91603c1b808511908115610972575b506109605786546040516370a0823160e01b81523060048201529690602090889060249082906001600160a01b03165afa9687156107bf575f9761092c575b5060018801546040516370a0823160e01b81523060048201526001600160a01b03909116976020826024818c5afa9182156107bf575f926108f8575b50808711156108f05761069d908761195a565b905b808411156108e9576106b1908461195a565b808211156108e257505b6103e88201908183116108ce5764e8d4a510009004116108bc578590600d8901541161084f575b5050505050865f146107ca5750506106fe8260028301546119d2565b6002820155546001600160a01b031691823b15610242576040516340c10f1960e01b815233600482015260248101839052925f908490604490829084905af19283156107bf577fa625c3e5e55ecfc87bc129708d56174a230213ded2a553ef566988855bdb1a05936107b0575b505b6107a764e8d4a5100061077f86611985565b0460405193849333988590949392606092608083019615158352602083015260408201520152565b0390a35f600a55005b6107b99061191a565b8561076b565b6040513d5f823e3d90fd5b6107da84600392969493966119d2565b910155823b15610242576040516340c10f1960e01b815233600482015260248101839052925f908490604490829084905af19283156107bf577fa625c3e5e55ecfc87bc129708d56174a230213ded2a553ef566988855bdb1a0593610840575b5061076d565b6108499061191a565b8561083a565b8261085d9161086395611a91565b93611a91565b90818111156108ae57906108769161195a565b600e84015480156108a457905b116108925787808080846106e2565b604051632071487960e11b8152600490fd5b5060085490610883565b6108b79161195a565b610876565b60405163640feb3560e01b8152600490fd5b634e487b7160e01b5f52601160045260245ffd5b90506106bb565b505f6106b1565b505f9061069f565b9091506020813d602011610924575b816109146020938361192e565b810103126102425751908e61068a565b3d9150610907565b9096506020813d602011610958575b816109486020938361192e565b810103126102425751958c61064e565b3d915061093b565b6040516312449e8d60e11b8152600490fd5b905081118c61060f565b9390610987916119d2565b6105ee565b7109f4f2726179a224501d762422c946590d91603c1b6109b08560038601546119d2565b11156105cc576040516312449e8d60e11b8152600490fd5b604051638199f5f360e01b8152600490fd5b604051631d25e4d760e01b8152600490fd5b6109fb93975090849291611de2565b9388808061058a565b600284015491610570565b600383015493610563565b610a29600584019182546119d2565b905586610527565b865f526016602052610a4760405f2054826119d2565b670de0b6b3a764000090818102918183048114821517156108ce57610a72600a880193845490611967565b928315610acd57610aa893610aa1918c5f52600e60205260405f20610a988382546119d2565b905554906119bf565b049061195a565b875f52601660205260405f20555b610ac5600b85019182546119d2565b905587610520565b50509050875f52601660205260405f2055610ab6565b50600a840154151561051b565b5f54600154610b0c92916001600160a01b039182169116611a36565b88610511565b634e487b7160e01b5f52604160045260245ffd5b604051630133125960e61b8152600490fd5b604051635a90bb8d60e11b8152600490fd5b34610242576020366003190112610242576004355f52600b60205260405f2060018060a01b0381541660018060a01b036001830154166002830154600384015460048501546005860154600687015496600781015490604051985f60088301548060011c916001821615610f19575b602083106001831614610f0557828d528c9160018116908115610ee65750600114610ea3575b610beb9250038b61192e565b60018060a01b0360098301541693600a83015495600b84015497600c85015499600d8601549b600e8701549d60405160a05260a05161012060a051011067ffffffffffffffff61012060a051011117610b125761012060a05101604052600f88015460a05152601088015497600260ff8a161015610e7657601360ff9991828b809416602060a051015260018060a01b039060081c16604060a05101526011810154606060a05101526012810154608060a05101520154610cad828216611950565b81811660a080510152818160081c16151560c060a0510152818160101c16151560e060a051015260181c1661010060a05101526040516080526080515260206080510152604060805101526060608051015260808051015260a0608051015261ffff811660c0608051015261ffff8160101c1660e0608051015261ffff8160201c166101006080510152610d45828260301c16611950565b60301c166101206080510152610140608051015261036061016060805101528651968761036060805101525f5b888110610e8a5750505f6103808860805101015261018060805101526101a060805101526101c060805101526101e060805101526102006080510152610220608051015260a051516102406080510152602060a0510151906002821015610e765761038091610260608051015260018060a01b03604060a0510151166102806080510152606060a05101516102a06080510152608060a05101516102c0608051015260a080510151610e2381611950565b6102e0608051015260c060a05101511515610300608051015260e060a05101511515610320608051015260ff61010060a051015116610340608051015260805190601f8019910116608051010301608051f35b634e487b7160e01b5f52602160045260245ffd5b8060208092840101516103808260805101015201610d72565b5090600884015f5260205f20905f915b818310610ecb575050906020610beb92820101610bdf565b80602092948385600194549201015201910190918c92610eb3565b60209250610beb94915060ff191682840152151560051b820101610bdf565b634e487b7160e01b5f52602260045260245ffd5b91607f1691610bb9565b34610242575f3660031901126102425760206040517fd3065a24ad9e7725d223007135762d2902038999e3e5829146654498a58d97958152f35b34610242575f36600319011261024257602060405164e8d4a510008152f35b34610242575f36600319011261024257602060405160018152f35b34610242576020366003190112610242576004355f52600e602052602060405f2054604051908152f35b34610242575f366003190112610242576020601454604051908152f35b34610242575f36600319011261024257602061ffff60095460101c16604051908152f35b34610242575f366003190112610242576002546040516001600160a01b039091168152602090f35b34610242575f3660031901126102425760206040517fe5589cf51350e9a9b2df9829966e04dcf57f8fa87b52d7945643ac0eaff69e648152f35b34610242575f3660031901126102425760206040517f19aebff3bbcef323e5c760a3ed420922e4d158f9d2c6e69bda4f540960d86e978152f35b34610242576110ac366118f4565b905f52600d60205260405f209060018060a01b03165f52602052602060405f2054604051908152f35b346102425760203660031901126102425760206110f3600435611985565b604051908152f35b3461024257611109366118f4565b905f52601160205260405f209060018060a01b03165f52602052602060405f2054604051908152f35b34610242576020366003190112610242576004355f52601560205260405f20805460018201549160ff600360028301549201541692604051928352602083015260408201526004821015610e76576080916060820152f35b34610242576020366003190112610242576004355f908152600b6020526040902080546001600160a01b0316156111db57600e015480156111d057602090604051908152f35b5060206008546110f3565b604051639db8d5b160e01b8152600490fd5b34610242575f36600319011261024257602060095461ffff60405191831c168152f35b34610242575f3660031901126102425760206040517f59d087672531b50700275907548a6c10240fc27658dfda79d5c528581d070b5e8152f35b34610242575f366003190112610242576001546040516001600160a01b039091168152602090f35b34610242575f366003190112610242576020600454604051908152f35b34610242575f366003190112610242576020604051620f42408152f35b34610242576020366003190112610242576004355f526017602052602060405f2054604051908152f35b34610242575f3660031901126102425760206040517109f4f2726179a224501d762422c946590d91603c1b8152f35b34610242575f366003190112610242575f546040516001600160a01b039091168152602090f35b34610242576020366003190112610242576004355f526016602052602060405f2054604051908152f35b34610242575f366003190112610242576020600854604051908152f35b346102425760203660031901126102425760043563ffffffff60e01b8116809103610242575f526012602052602060018060a01b0360405f205416604051908152f35b34610242575f3660031901126102425760206040517f24292cbf46b6e47bdb0682fd1c64fa171e74249bffad8ae2c4adcedcd31224c68152f35b34610242575f3660031901126102425760206040516127108152f35b346102425761141a366118cd565b600a93929354610242576001600a5560ff60095460301c1661024257825f52600b60205260405f209160ff600684015460301c1661145781611950565b610b3857600f830154421015610b385760065481106109da57841561184e5760028301545b81116108925760028301549260038101549360048201549461149f8682846119df565b958815611848576114b0858461195a565b8915611835576114d483985b6114ce8464e8d4a510009b8c956119df565b9061195a565b049586106109c857600584015480871161089257866114f29161195a565b908383948b5f146118225750611508878261195a565b915b7109f4f2726179a224501d762422c946590d91603c1b808411908115611818575b506109605786546040516370a0823160e01b81523060048201529690602090889060249082906001600160a01b03165afa9687156107bf575f976117e4575b5060018801546040516370a0823160e01b81523060048201526001600160a01b03909116976020826024818c5afa9182156107bf575f926117b0575b50808611156117a8576115b9908661195a565b905b808311156117a1576115cd908361195a565b8082111561179a57505b6103e88601908187116108ce578c9004116108bc5785600d8901548610611745575b5050505050600584015587156116bc57505061161982600283015461195a565b6002820155546001600160a01b031692833b1561024257604051632770a7eb60e21b815233600482015260248101839052935f908590604490829084905af19081156107bf577f1d161b920c72af3bceacd767e1ddf575296be054b91f3f47954d4fa62e0ea792946107a7926116ad575b505b5f546116a490859033906001600160a01b0316611a36565b61077f86611985565b6116b69061191a565b8761168a565b6116cc846003929794939761195a565b910155833b1561024257604051632770a7eb60e21b815233600482015260248101839052935f908590604490829084905af19081156107bf577f1d161b920c72af3bceacd767e1ddf575296be054b91f3f47954d4fa62e0ea792946107a792611736575b5061168c565b61173f9061191a565b87611730565b8261085d9161175395611a91565b908181111561178c57906117669161195a565b600e850154801561178257905b116108925789808080856115f9565b5060085490611773565b6117959161195a565b611766565b90506115d7565b505f6115cd565b505f906115bb565b9091506020813d6020116117dc575b816117cc6020938361192e565b810103126102425751908f6115a6565b3d91506117bf565b9096506020813d602011611810575b816118006020938361192e565b810103126102425751958d61156a565b3d91506117f3565b905086118d61152b565b91945061182f878561195a565b9461150a565b6114d4611842878561195a565b986114bc565b826114b0565b600383015461147c565b34610242575f366003190112610242576020600354604051908152f35b34610242575f36600319011261024257602060405162093a808152f35b34610242575f36600319011261024257602061ffff60095416604051908152f35b34610242575f366003190112610242576020906013548152f35b60809060031901126102425760043590602435801515810361024257906044359060643590565b604090600319011261024257600435906024356001600160a01b03811681036102425790565b67ffffffffffffffff8111610b1257604052565b90601f8019910116810190811067ffffffffffffffff821117610b1257604052565b60031115610e7657565b919082039182116108ce57565b8115611971570490565b634e487b7160e01b5f52601260045260245ffd5b5f908152600b6020526040902080546001600160a01b0316156111db578060026119bc920154906004600382015491015491611a91565b90565b818102929181159184041417156108ce57565b919082018092116108ce57565b908215611a25576119fd836119f781611a0395611fd4565b92611fd4565b90611fef565b5f811315611a14576119bc9161229c565b60405162b5401d60e41b8152600490fd5b60405162faf17b60e31b8152600490fd5b60405163a9059cbb60e01b60208201526001600160a01b03929092166024830152604480830193909352918152611a7791611a7260648361192e565b612115565b565b81810392915f1380158285131691841216176108ce57565b91908115611a25576001600160ff1b03928382118015611c4a575b8015611c41575b611c2f57611ac091611a79565b600160ff1b908082148015611c26575b611bc7575f811215611c1d57611af4815f035b5f851215611c1657845f0390612331565b90848211611bf8575f199318831215611bf1575b68070c1cc73b00c800008113611be95768070c1cc73b00c7ffff198112611bd957611b3290612189565b670de0b6b3a764000090808201928184126001166108ce578314611bc7575f831215611bc0575f03670de0b6b3a763ffff19015b8015611971576ec097ce7bc90715b34b9f100000000004938411611ba357181315611b9c575b5f811315611b975790565b505f90565b5f03611b8c565b6044916040519163d49c26b360e01b835260048301526024820152fd5b5081611b66565b6040516309fe2b4560e41b8152600490fd5b50505050670de0b6b3a764000090565b505050505f90565b5f03611b08565b604490846040519163d49c26b360e01b835260048301526024820152fd5b8490612331565b611af481611ae3565b50818314611ad0565b604051634eab2ea760e11b8152600490fd5b50838311611ab3565b50838111611aac565b92908115611da6578215611dd7576001600160ff1b03928385118015611dce575b8015611dc5575b611db057826119f781611c9b611ca094611c9683888c6119df565b6119d2565b611fd4565b68070c1cc73b00c80000808313908115611dbb575b50611db057611ccf611cc9611cd593612189565b91612189565b90611a79565b5f811315611da657828211611da657611ced906121df565b600160ff1b828114908115611d9c575b50611d8a575f821215611d8157611d22825f035b5f831215611d7a57825f039061229c565b928311611d5c575f1991181315611d5457905b80821315611d4b57611d469161195a565b600191565b50506001905f90565b5f0390611d35565b604492506040519163120b5b4360e01b835260048301526024820152fd5b829061229c565b611d2282611d11565b60405163a6070c2560e01b8152600490fd5b905081145f611cfd565b505050505f905f90565b50505050505f905f90565b905081135f611cb5565b50838311611c7b565b50838211611c74565b505050506001905f90565b9092938215611fcb57611df68585846119df565b917109f4f2726179a224501d762422c946590d91603c1b81811115611fc3578181039081116108ce57935b8415610960575f9660019490885b604090818b1015611fb257888811611faa575b84611e57848c611e528c8b6119d2565b6119df565b8580821115611fa257611e699161195a565b1015611ec95750878714611eba5750600186018087116108ce57958760011c81115f14611e9e5750600187995b019895611e2f565b8060011b90808204600214901517156108ce5760019099611e96565b5162c51f7960e71b8152600490fd5b9296939750509397509591955b85611ee68585611e52868c6119d2565b8680821115611f9a57611ef89161195a565b10611f89575f915b6040831080611f80575b15611f75578087611f2e8787611e52611f248e97896119d2565b60011c80976119d2565b8880821115611f6d57611f409161195a565b10611f595750915b5f1981146108ce5760010191611f00565b929150600181018091116108ce5790611f48565b50505f611f40565b965050505050505090565b50808210611f0a565b60405162c51f7960e71b8152600490fd5b50505f611ef8565b50505f611e69565b889750611e42565b929693975050939750959195611ed6565b505f93611e21565b93505050505f90565b90611fde91612331565b6001600160ff1b038111611c2f5790565b90612002908083131561210e5782611a79565b600160ff1b908082146120fc575f8112156120f6575f03905b811480156120ef575b611d8a575f8112156120e65761203b815f03612210565b906001600160ff1b0382116120bd575f19670de0b6b3a763ffff1990911813156120b6575b68070c1cc73b00c7ffff1981126120b25761207a90612189565b80670de0b6b3a7640000019081126001166108ce57612098906121df565b905f82820192831291129080158216911516176108ce5790565b5090565b5f03612060565b60405163120b5b4360e01b81526004810191909152670de0b6b3a763ffff196024820152604490fd5b61203b81612210565b505f612024565b9061201b565b60405163ec2b9e6760e01b8152600490fd5b8092611a79565b905f602091828151910182855af1156107bf575f513d61216657506001600160a01b0381163b155b6121445750565b604051635274afe760e01b81526001600160a01b039091166004820152602490fd5b6001141561213d565b8015611971576ec097ce7bc90715b34b9f10000000000590565b68023f2fa8f6da5b9d31198112611b9757680736ea4425c11ac63081136121c757670de0b6b3a76400006714057b7ef767814f6119bc9202056123df565b6024906040519063ca7ec0c560e01b82526004820152fd5b6121e890612c57565b670de0b6b3a7640000908181029181830514901517156108ce576714057b7ef767814f900590565b670de0b6b3a764000091905f198382098382029182808310920391808303921461229357848210156122755793807faccb18165bd6fe31ae1cf318dc5b51eee0e1ba569b88cd74c1773b91fac1066994950990828211900360ee1b910360121c170290565b6044908560405191635173648d60e01b835260048301526024820152fd5b50509190910490565b9091905f198382098382029182808310920391808303921461232057670de0b6b3a7640000908183101561230257947faccb18165bd6fe31ae1cf318dc5b51eee0e1ba569b88cd74c1773b91fac1066994950990828211900360ee1b910360121c170290565b6044908660405191635173648d60e01b835260048301526024820152fd5b5050670de0b6b3a764000090049150565b670de0b6b3a7640000915f1983830992808302928380861095039480860395146123d257828510156123af579082910960018219018216809204600280826003021880830282030280830282030280830282030280830282030280830282030280920290030293600183805f03040190848311900302920304170290565b8260649260405192630c740aef60e31b8452600484015260248301526044820152fd5b5050906119bc9250611967565b5f81121561240c5768033dd1780914b97114198112611b9757612403905f036123df565b6119bc9061216f565b680a688906bd8affffff8113612c4057670de0b6b3a764000080604092831b0590600160bf1b67ff000000000000008316612b2f575b66ff0000000000008316612a27575b65ff00000000008316612927575b64ff00000000831661282f575b63ff000000831661273f575b62ff00008316612657575b61ff008316612577575b60ff83166124a0575b02911c60bf031c90565b60808316612565575b838316612553575b60208316612541575b6010831661252f575b6008831661251d575b6004831661250b575b600283166124f9575b6001831615612496576801000000000000000102831c612496565b6801000000000000000102831c6124de565b6801000000000000000302831c6124d5565b6801000000000000000602831c6124cc565b6801000000000000000b02831c6124c3565b6801000000000000001602831c6124ba565b6801000000000000002c02831c6124b1565b6801000000000000005902831c6124a9565b6180008316612645575b6140008316612633575b6120008316612621575b611000831661260f575b61080083166125fd575b61040083166125eb575b61020083166125d9575b61010083161561248d57680100000000000000b102831c61248d565b6801000000000000016302831c6125bd565b680100000000000002c602831c6125b3565b6801000000000000058c02831c6125a9565b68010000000000000b1702831c61259f565b6801000000000000162e02831c612595565b68010000000000002c5d02831c61258b565b680100000000000058b902831c612581565b62800000831661272d575b62400000831661271b575b622000008316612709575b6210000083166126f7575b6208000083166126e5575b6204000083166126d3575b6202000083166126c1575b62010000831615612483576801000000000000b17202831c612483565b680100000000000162e402831c6126a4565b6801000000000002c5c802831c612699565b68010000000000058b9102831c61268e565b680100000000000b172102831c612683565b68010000000000162e4302831c612678565b680100000000002c5c8602831c61266d565b6801000000000058b90c02831c612662565b6380000000831661281d575b6340000000831661280b575b632000000083166127f9575b631000000083166127e7575b630800000083166127d5575b630400000083166127c3575b630200000083166127b1575b63010000008316156124785768010000000000b1721802831c612478565b6801000000000162e43002831c612793565b68010000000002c5c86002831c612787565b680100000000058b90c002831c61277b565b6801000000000b17217f02831c61276f565b680100000000162e42ff02831c612763565b6801000000002c5c85fe02831c612757565b68010000000058b90bfc02831c61274b565b6480000000008316612915575b6440000000008316612903575b64200000000083166128f1575b64100000000083166128df575b64080000000083166128cd575b64040000000083166128bb575b64020000000083166128a9575b64010000000083161561246c57680100000000b17217f802831c61246c565b68010000000162e42ff102831c61288a565b680100000002c5c85fe302831c61287d565b6801000000058b90bfce02831c612870565b68010000000b17217fbb02831c612863565b6801000000162e42fff002831c612856565b68010000002c5c8601cc02831c612849565b680100000058b90c0b4902831c61283c565b658000000000008316612a15575b654000000000008316612a03575b6520000000000083166129f1575b6510000000000083166129df575b6508000000000083166129cd575b6504000000000083166129bb575b6502000000000083166129a9575b6501000000000083161561245f576801000000b17218355102831c61245f565b680100000162e430e5a202831c612989565b6801000002c5c863b73f02831c61297b565b68010000058b90cf1e6e02831c61296d565b680100000b1721bcfc9a02831c61295f565b68010000162e43f4f83102831c612951565b680100002c5c89d5ec6d02831c612943565b6801000058b91b5bc9ae02831c612935565b66800000000000008316612b1d575b66400000000000008316612b0b575b66200000000000008316612af9575b66100000000000008316612ae7575b66080000000000008316612ad5575b66040000000000008316612ac3575b66020000000000008316612ab1575b66010000000000008316156124515768010000b17255775c0402831c612451565b6801000162e525ee054702831c612a90565b68010002c5cc37da949202831c612a81565b680100058ba01fb9f96d02831c612a72565b6801000b175effdc76ba02831c612a63565b680100162f3904051fa102831c612a54565b6801002c605e2e8cec5002831c612a45565b68010058c86da1c09ea202831c612a36565b6780000000000000008316612c2d575b6740000000000000008316612c1b575b6720000000000000008316612c09575b6710000000000000008316612bf7575b6708000000000000008316612be5575b6704000000000000008316612bd3575b6702000000000000008316612bc1575b67010000000000000083161561244257680100b1afa5abcbed6102831c612442565b68010163da9fb33356d802831c612b9f565b680102c9a3e778060ee702831c612b8f565b6801059b0d31585743ae02831c612b7f565b68010b5586cf9890f62a02831c612b6f565b6801172b83c7d517adce02831c612b5f565b6801306fe0a31b7152df02831c612b4f565b5068016a09e667f3bcc909607f1b612b3f565b60249060405190626c1a0560e31b82526004820152fd5b805f821315612d6c57670de0b6b3a764000091828112612d4a57506001915b8082056fffffffffffffffffffffffffffffffff811160071b90811c9067ffffffffffffffff821160061b91821c63ffffffff811160051b90811c61ffff811160041b90811c60ff811160031b90811c91600f831160021b92831c93600196600160038711811b96871c1196171717171717179180830293831d92818414612d3f57506706f05b59d3b20000925b5f8413612d1357505050500290565b808291020592671bc16d674ec80000841215612d32575b821d92612d04565b8093940193821d92612d2a565b925093925050020290565b5f199291508015611971576ec097ce7bc90715b34b9f10000000000590612c76565b60405163059b101b60e01b815260048101839052602490fd","linkReferences":{}},"methodIdentifiers":{"BPS()":"249d39e9","MARKET_CREATOR_ROLE()":"ae42820c","MAX_SHARES()":"3e8ff57b","MIN_LP_USDC()":"43a630f5","OP_CANCEL_MARKET()":"f7050eae","OP_EXPIRY_WINDOW()":"032a57d2","OP_PAUSE()":"6329a66a","OP_RECOVER_ETH()":"27b6eeba","OP_REMOVE_FACET()":"7b8c5ba6","OP_SET_FACET()":"e998985e","OP_SET_RESOLVER()":"d063c724","OP_SET_TREASURY()":"f5d7eeaf","OP_UNPAUSE()":"6dba319c","STORAGE_VERSION()":"9ef2b381","USDC_TO_E18()":"aa93f462","accFeePerUSDCE18(uint256)":"9da4f13d","accResidualPerUSDCE18(uint256)":"e72012a7","buy(uint256,bool,uint256,uint256)":"bdad35e5","chainlinkResolver()":"7f8a3f8c","defaultFeeLpBps()":"919cab1f","defaultFeeTreasuryBps()":"028aa4ee","defaultFeeVaultBps()":"67351729","dustSharesE18()":"c16de9c7","facetOf(bytes4)":"2c7dc319","getMaxJumpE18(uint256)":"6778c3a2","liquidityMultiplierE18()":"d105e1c6","lpFeeDebt(uint256,address)":"ffe2a945","lpFeeDustUSDC(uint256)":"2f922f2f","lpResidualDebt(uint256,address)":"6aa083b9","lpResidualDustUSDC(uint256)":"3fb5f6e8","lpShares(uint256,address)":"6bcbb8a5","marketCount()":"ec979082","markets(uint256)":"b1283e77","maxInstantJumpE18()":"2ed13b78","maxUsdcPerTrade()":"0615e22a","minLiquidityAdd()":"f5b9f416","minMarketSeed()":"572ddbcb","minTimelockDelay()":"028390bd","opNonce()":"969ea86b","ops(bytes32)":"692a34f4","sell(uint256,bool,uint256,uint256)":"0abf1899","spotPriceYesE18(uint256)":"6ad6c254","spotPriceYesE6(uint256)":"dfe0662a","treasury()":"61d027b3","usdc()":"3e413bee"},"id":80}