{"abi":[{"type":"function","name":"BPS","inputs":[],"outputs":[{"name":"","type":"uint256","internalType":"uint256"}],"stateMutability":"view"},{"type":"function","name":"MARKET_CREATOR_ROLE","inputs":[],"outputs":[{"name":"","type":"bytes32","internalType":"bytes32"}],"stateMutability":"view"},{"type":"function","name":"OP_PAUSE","inputs":[],"outputs":[{"name":"","type":"bytes32","internalType":"bytes32"}],"stateMutability":"view"},{"type":"function","name":"OP_SET_FACET","inputs":[],"outputs":[{"name":"","type":"bytes32","internalType":"bytes32"}],"stateMutability":"view"},{"type":"function","name":"OP_SET_RESOLVER","inputs":[],"outputs":[{"name":"","type":"bytes32","internalType":"bytes32"}],"stateMutability":"view"},{"type":"function","name":"OP_SET_TREASURY","inputs":[],"outputs":[{"name":"","type":"bytes32","internalType":"bytes32"}],"stateMutability":"view"},{"type":"function","name":"OP_UNPAUSE","inputs":[],"outputs":[{"name":"","type":"bytes32","internalType":"bytes32"}],"stateMutability":"view"},{"type":"function","name":"USDC_TO_E18","inputs":[],"outputs":[{"name":"","type":"uint256","internalType":"uint256"}],"stateMutability":"view"},{"type":"function","name":"accFeePerUSDCE18","inputs":[{"name":"","type":"uint256","internalType":"uint256"}],"outputs":[{"name":"","type":"uint256","internalType":"uint256"}],"stateMutability":"view"},{"type":"function","name":"accResidualPerUSDCE18","inputs":[{"name":"","type":"uint256","internalType":"uint256"}],"outputs":[{"name":"","type":"uint256","internalType":"uint256"}],"stateMutability":"view"},{"type":"function","name":"buy","inputs":[{"name":"id","type":"uint256","internalType":"uint256"},{"name":"isYes","type":"bool","internalType":"bool"},{"name":"usdcIn","type":"uint256","internalType":"uint256"},{"name":"minSharesOut","type":"uint256","internalType":"uint256"}],"outputs":[],"stateMutability":"nonpayable"},{"type":"function","name":"chainlinkResolver","inputs":[],"outputs":[{"name":"","type":"address","internalType":"address"}],"stateMutability":"view"},{"type":"function","name":"defaultFeeLpBps","inputs":[],"outputs":[{"name":"","type":"uint16","internalType":"uint16"}],"stateMutability":"view"},{"type":"function","name":"defaultFeeTreasuryBps","inputs":[],"outputs":[{"name":"","type":"uint16","internalType":"uint16"}],"stateMutability":"view"},{"type":"function","name":"defaultFeeVaultBps","inputs":[],"outputs":[{"name":"","type":"uint16","internalType":"uint16"}],"stateMutability":"view"},{"type":"function","name":"dustSharesE18","inputs":[],"outputs":[{"name":"","type":"uint256","internalType":"uint256"}],"stateMutability":"view"},{"type":"function","name":"facetOf","inputs":[{"name":"","type":"bytes4","internalType":"bytes4"}],"outputs":[{"name":"","type":"address","internalType":"address"}],"stateMutability":"view"},{"type":"function","name":"getMaxJumpE18","inputs":[{"name":"id","type":"uint256","internalType":"uint256"}],"outputs":[{"name":"","type":"uint256","internalType":"uint256"}],"stateMutability":"view"},{"type":"function","name":"liquidityMultiplierE18","inputs":[],"outputs":[{"name":"","type":"uint256","internalType":"uint256"}],"stateMutability":"view"},{"type":"function","name":"lpFeeDebt","inputs":[{"name":"","type":"uint256","internalType":"uint256"},{"name":"","type":"address","internalType":"address"}],"outputs":[{"name":"","type":"uint256","internalType":"uint256"}],"stateMutability":"view"},{"type":"function","name":"lpResidualDebt","inputs":[{"name":"","type":"uint256","internalType":"uint256"},{"name":"","type":"address","internalType":"address"}],"outputs":[{"name":"","type":"uint256","internalType":"uint256"}],"stateMutability":"view"},{"type":"function","name":"lpShares","inputs":[{"name":"","type":"uint256","internalType":"uint256"},{"name":"","type":"address","internalType":"address"}],"outputs":[{"name":"","type":"uint256","internalType":"uint256"}],"stateMutability":"view"},{"type":"function","name":"marketCount","inputs":[],"outputs":[{"name":"","type":"uint256","internalType":"uint256"}],"stateMutability":"view"},{"type":"function","name":"markets","inputs":[{"name":"","type":"uint256","internalType":"uint256"}],"outputs":[{"name":"yes","type":"address","internalType":"contract PositionToken"},{"name":"no","type":"address","internalType":"contract PositionToken"},{"name":"qYes","type":"uint256","internalType":"uint256"},{"name":"qNo","type":"uint256","internalType":"uint256"},{"name":"bE18","type":"uint256","internalType":"uint256"},{"name":"usdcVault","type":"uint256","internalType":"uint256"},{"name":"feeTreasuryBps","type":"uint16","internalType":"uint16"},{"name":"feeLpBps","type":"uint16","internalType":"uint16"},{"name":"feeVaultBps","type":"uint16","internalType":"uint16"},{"name":"status","type":"uint8","internalType":"enum CoreStorage.MarketStatus"},{"name":"questionHash","type":"bytes32","internalType":"bytes32"},{"name":"creator","type":"address","internalType":"address"},{"name":"totalLpUsdc","type":"uint256","internalType":"uint256"},{"name":"lpFeesUSDC","type":"uint256","internalType":"uint256"},{"name":"residualUSDC","type":"uint256","internalType":"uint256"},{"name":"priceBandThresholdUSDC","type":"uint256","internalType":"uint256"},{"name":"maxJumpE18","type":"uint256","internalType":"uint256"},{"name":"resolution","type":"tuple","internalType":"struct CoreStorage.ResolutionConfig","components":[{"name":"expiryTimestamp","type":"uint256","internalType":"uint256"},{"name":"oracleType","type":"uint8","internalType":"enum CoreStorage.OracleType"},{"name":"oracleAddress","type":"address","internalType":"address"},{"name":"priceFeedId","type":"bytes32","internalType":"bytes32"},{"name":"targetValue","type":"uint256","internalType":"uint256"},{"name":"comparison","type":"uint8","internalType":"enum CoreStorage.Comparison"},{"name":"yesWins","type":"bool","internalType":"bool"},{"name":"isResolved","type":"bool","internalType":"bool"},{"name":"oracleDecimals","type":"uint8","internalType":"uint8"}]}],"stateMutability":"view"},{"type":"function","name":"maxInstantJumpE18","inputs":[],"outputs":[{"name":"","type":"uint256","internalType":"uint256"}],"stateMutability":"view"},{"type":"function","name":"maxUsdcPerTrade","inputs":[],"outputs":[{"name":"","type":"uint256","internalType":"uint256"}],"stateMutability":"view"},{"type":"function","name":"minLiquidityAdd","inputs":[],"outputs":[{"name":"","type":"uint256","internalType":"uint256"}],"stateMutability":"view"},{"type":"function","name":"minMarketSeed","inputs":[],"outputs":[{"name":"","type":"uint256","internalType":"uint256"}],"stateMutability":"view"},{"type":"function","name":"minTimelockDelay","inputs":[],"outputs":[{"name":"","type":"uint256","internalType":"uint256"}],"stateMutability":"view"},{"type":"function","name":"opNonce","inputs":[],"outputs":[{"name":"","type":"uint256","internalType":"uint256"}],"stateMutability":"view"},{"type":"function","name":"ops","inputs":[{"name":"","type":"bytes32","internalType":"bytes32"}],"outputs":[{"name":"tag","type":"bytes32","internalType":"bytes32"},{"name":"dataHash","type":"bytes32","internalType":"bytes32"},{"name":"readyAt","type":"uint256","internalType":"uint256"},{"name":"status","type":"uint8","internalType":"enum CoreStorage.OpStatus"}],"stateMutability":"view"},{"type":"function","name":"sell","inputs":[{"name":"id","type":"uint256","internalType":"uint256"},{"name":"isYes","type":"bool","internalType":"bool"},{"name":"sharesIn","type":"uint256","internalType":"uint256"},{"name":"minUsdcOut","type":"uint256","internalType":"uint256"}],"outputs":[],"stateMutability":"nonpayable"},{"type":"function","name":"spotPriceYesE18","inputs":[{"name":"id","type":"uint256","internalType":"uint256"}],"outputs":[{"name":"","type":"uint256","internalType":"uint256"}],"stateMutability":"view"},{"type":"function","name":"spotPriceYesE6","inputs":[{"name":"id","type":"uint256","internalType":"uint256"}],"outputs":[{"name":"","type":"uint256","internalType":"uint256"}],"stateMutability":"view"},{"type":"function","name":"treasury","inputs":[],"outputs":[{"name":"","type":"address","internalType":"address"}],"stateMutability":"view"},{"type":"function","name":"usdc","inputs":[],"outputs":[{"name":"","type":"address","internalType":"address"}],"stateMutability":"view"},{"type":"event","name":"Buy","inputs":[{"name":"id","type":"uint256","indexed":true,"internalType":"uint256"},{"name":"user","type":"address","indexed":true,"internalType":"address"},{"name":"isYes","type":"bool","indexed":false,"internalType":"bool"},{"name":"usdcIn","type":"uint256","indexed":false,"internalType":"uint256"},{"name":"sharesOut","type":"uint256","indexed":false,"internalType":"uint256"},{"name":"pYesE6","type":"uint256","indexed":false,"internalType":"uint256"}],"anonymous":false},{"type":"event","name":"Sell","inputs":[{"name":"id","type":"uint256","indexed":true,"internalType":"uint256"},{"name":"user","type":"address","indexed":true,"internalType":"address"},{"name":"isYes","type":"bool","indexed":false,"internalType":"bool"},{"name":"sharesIn","type":"uint256","indexed":false,"internalType":"uint256"},{"name":"usdcOut","type":"uint256","indexed":false,"internalType":"uint256"},{"name":"pYesE6","type":"uint256","indexed":false,"internalType":"uint256"}],"anonymous":false},{"type":"error","name":"BackingInsufficient","inputs":[]},{"type":"error","name":"CalculationError","inputs":[]},{"type":"error","name":"DustAmount","inputs":[]},{"type":"error","name":"InvalidMarket","inputs":[]},{"type":"error","name":"MarketNotActive","inputs":[]},{"type":"error","name":"MathOverflow","inputs":[]},{"type":"error","name":"MaxTradeExceeded","inputs":[]},{"type":"error","name":"PRBMath_MulDiv18_Overflow","inputs":[{"name":"x","type":"uint256","internalType":"uint256"},{"name":"y","type":"uint256","internalType":"uint256"}]},{"type":"error","name":"PRBMath_MulDiv_Overflow","inputs":[{"name":"x","type":"uint256","internalType":"uint256"},{"name":"y","type":"uint256","internalType":"uint256"},{"name":"denominator","type":"uint256","internalType":"uint256"}]},{"type":"error","name":"PRBMath_SD59x18_Abs_MinSD59x18","inputs":[]},{"type":"error","name":"PRBMath_SD59x18_Div_InputTooSmall","inputs":[]},{"type":"error","name":"PRBMath_SD59x18_Div_Overflow","inputs":[{"name":"x","type":"int256","internalType":"SD59x18"},{"name":"y","type":"int256","internalType":"SD59x18"}]},{"type":"error","name":"PRBMath_SD59x18_Exp2_InputTooBig","inputs":[{"name":"x","type":"int256","internalType":"SD59x18"}]},{"type":"error","name":"PRBMath_SD59x18_Exp_InputTooBig","inputs":[{"name":"x","type":"int256","internalType":"SD59x18"}]},{"type":"error","name":"PRBMath_SD59x18_Log_InputTooSmall","inputs":[{"name":"x","type":"int256","internalType":"SD59x18"}]},{"type":"error","name":"PRBMath_SD59x18_Mul_InputTooSmall","inputs":[]},{"type":"error","name":"PRBMath_SD59x18_Mul_Overflow","inputs":[{"name":"x","type":"int256","internalType":"SD59x18"},{"name":"y","type":"int256","internalType":"SD59x18"}]},{"type":"error","name":"SafeERC20FailedOperation","inputs":[{"name":"token","type":"address","internalType":"address"}]},{"type":"error","name":"SlippageExceeded","inputs":[]},{"type":"error","name":"SolvencyIssue","inputs":[]},{"type":"error","name":"ZeroB","inputs":[]}],"bytecode":{"object":"0x608080604052346100165761262c908161001b8239f35b5f80fdfe60a0806040526004361015610012575f80fd5b5f3560e01c908163028390bd1461140557508063028aa4ee146113e45780630615e22a146113c75780630abf189914610fbf578063249d39e914610fa35780632c7dc31914610f605780632ed13b7814610f435780633e413bee14610f1c578063572ddbcb14610eff57806361d027b314610ed75780636329a66a14610e9d5780636735172914610e7a5780636778c3a214610e17578063692a34f414610dbf5780636aa083b914610d885780636ad6c25414610d625780636bcbb8a514610d2b5780636dba319c14610cf15780637f8a3f8c14610cc9578063919cab1f14610ca5578063969ea86b14610c885780639da4f13d14610c5e578063aa93f46214610c3f578063ae42820c14610c05578063b1283e771461097e578063bdad35e51461035c578063c16de9c71461033f578063d063c72414610305578063d105e1c6146102e8578063dfe0662a146102bb578063e72012a714610291578063e998985e14610257578063ec9790821461023a578063f5b9f4161461021d578063f5d7eeaf146101e35763ffe2a945146101a8575f80fd5b346101df576101b636611446565b905f52600f60205260405f209060018060a01b03165f52602052602060405f2054604051908152f35b5f80fd5b346101df575f3660031901126101df5760206040517fea0a90cd6dac6e6bb5f9c85bc78075cbca424cf853bf131e30cae433318da0808152f35b346101df575f3660031901126101df576020600554604051908152f35b346101df575f3660031901126101df576020600c54604051908152f35b346101df575f3660031901126101df5760206040517ffb7970db71b5d6f6b5d5355a31ca44c1e2ed199b82b881fca32583ec66a6b7748152f35b346101df5760203660031901126101df576004355f526010602052602060405f2054604051908152f35b346101df5760203660031901126101df57602064e8d4a510006102df6004356114d7565b04604051908152f35b346101df575f3660031901126101df576020600754604051908152f35b346101df575f3660031901126101df5760206040517fa2d8aacac1aaa86712a1ceac3c4524e6ff8d62059ccd43ade1a60d5835f86bb68152f35b346101df575f3660031901126101df576020600654604051908152f35b346101df5761036a3661141f565b600a939293546101df576001600a5560ff60095460301c166101df57825f52600b60205260405f209160068301549260ff8460301c166103a98161146c565b61096c57600e81015442101561096c57811561087f57600354821161095a5761ffff936127106103fd816103df88851687611511565b0496826103f1828660101c1688611511565b049360201c1685611511565b049061041682610411836104118a896114ac565b6114ac565b9560018060a01b035f54166040516323b872dd60e01b6020820152336024820152306044820152866064820152606481528060a081011067ffffffffffffffff60a083011117610946576104709160a082016040526119bc565b80610924575b508015801580610917575b6108c0575b5050806108a9575b506005810161049e858254611524565b80915564e8d4a5100094858102908082048714901517156107c957871561089c576104e260028401545b8915610891576003850154925b600486015493849261187d565b94600654861061087f57851061086d57602491600284015491829060038601548881958d5f1461085b579061051691611524565b935b87546040516370a0823160e01b81523060048201529760209189919082906001600160a01b03165afa9687156106b6575f97610827575b5060018801546040516370a0823160e01b81523060048201526001600160a01b03909116976020826024818c5afa9182156106b6575f926107f3575b50808711156107eb5761059e90876114ac565b905b808411156107e4576105b290846114ac565b808211156107dd57505b6103e88201908183116107c9578c9004116107b7578590600c8901541161074a575b5050505050875f146106c15750506105fa836002830154611524565b6002820155546001600160a01b031692833b156101df576040516340c10f1960e01b815233600482015260248101849052935f908590604490829084905af19081156106b6577fa625c3e5e55ecfc87bc129708d56174a230213ded2a553ef566988855bdb1a059461069e926106a7575b505b610676866114d7565b0460405193849333988590949392606092608083019615158352602083015260408201520152565b0390a35f600a55005b6106b090611476565b8761066b565b6040513d5f823e3d90fd5b6106d18560039297949397611524565b910155833b156101df576040516340c10f1960e01b815233600482015260248101849052935f908590604490829084905af19081156106b6577fa625c3e5e55ecfc87bc129708d56174a230213ded2a553ef566988855bdb1a059461069e9261073b575b5061066d565b61074490611476565b87610735565b826107589161075e956116f7565b936116f7565b90818111156107a95790610771916114ac565b600d840154801561079f57905b1161078d5788808080846105de565b604051632071487960e11b8152600490fd5b506008549061077e565b6107b2916114ac565b610771565b60405163640feb3560e01b8152600490fd5b634e487b7160e01b5f52601160045260245ffd5b90506105bc565b505f6105b2565b505f906105a0565b9091506020813d60201161081f575b8161080f6020938361148a565b810103126101df5751908f61058b565b3d9150610802565b9096506020813d602011610853575b816108436020938361148a565b810103126101df5751958d61054f565b3d9150610836565b94919061086791611524565b90610518565b604051638199f5f360e01b8152600490fd5b604051631d25e4d760e01b8152600490fd5b6002850154926104d5565b6104e260038401546104c8565b6108b860058301918254611524565b90558661048e565b670de0b6b3a764000090818302918383041417156107c95760098401546108e6916114b9565b875f52600e6020526108fd60405f20918254611524565b905561090e600a8401918254611524565b90558780610486565b5060098401541515610481565b5f5460015461094092916001600160a01b03918216911661169c565b88610476565b634e487b7160e01b5f52604160045260245ffd5b604051630133125960e61b8152600490fd5b604051635a90bb8d60e11b8152600490fd5b346101df5760203660031901126101df576004355f52600b60205260405f2060018060a01b038154169060018060a01b036001820154166002820154600383015460048401546005850154600686015460078701549060018060a01b0360088901541692600989015494600a8a015496600b8b015498600c8c01549a600d8d01549c604051608052608051610120608051011067ffffffffffffffff6101206080510111176109465761012060805101604052600e81015460805152600f810154600260ff82161015610bf15760ff811660805160200152600160a01b600190039060081c16608051604001526010810154608051606001526011810154608051608001526012015460ff8116610a949061146c565b60ff811660805160a001528060081c60ff16151560805160c001528060101c60ff16151560805160e0015260181c60ff166080516101000152604051809e81526020015260408d015260608c015260808b015260a08a015261ffff811660c08a01528060101c61ffff1660e08a01528060201c61ffff166101008a01528060301c60ff16610b219061146c565b60301c60ff166101208901526101408801526101608701526101808601526101a08501526101c08401526101e08301526102008201526080515161022082015260805160200151906002821015610bf1576103409161024082015260018060a01b036040608051015116610260820152606060805101516102808201526080805101516102a082015260a06080510151610bba8161146c565b6102c082015260c0608051015115156102e082015260e06080510151151561030082015260ff610100608051015116610320820152f35b634e487b7160e01b5f52602160045260245ffd5b346101df575f3660031901126101df5760206040517fd3065a24ad9e7725d223007135762d2902038999e3e5829146654498a58d97958152f35b346101df575f3660031901126101df57602060405164e8d4a510008152f35b346101df5760203660031901126101df576004355f52600e602052602060405f2054604051908152f35b346101df575f3660031901126101df576020601454604051908152f35b346101df575f3660031901126101df57602061ffff60095460101c16604051908152f35b346101df575f3660031901126101df576002546040516001600160a01b039091168152602090f35b346101df575f3660031901126101df5760206040517f19aebff3bbcef323e5c760a3ed420922e4d158f9d2c6e69bda4f540960d86e978152f35b346101df57610d3936611446565b905f52600d60205260405f209060018060a01b03165f52602052602060405f2054604051908152f35b346101df5760203660031901126101df576020610d806004356114d7565b604051908152f35b346101df57610d9636611446565b905f52601160205260405f209060018060a01b03165f52602052602060405f2054604051908152f35b346101df5760203660031901126101df576004355f52601560205260405f20805460018201549160ff600360028301549201541692604051928352602083015260408201526004821015610bf1576080916060820152f35b346101df5760203660031901126101df576004355f908152600b6020526040902080546001600160a01b031615610e6857600d01548015610e5d57602090604051908152f35b506020600854610d80565b604051639db8d5b160e01b8152600490fd5b346101df575f3660031901126101df57602060095461ffff60405191831c168152f35b346101df575f3660031901126101df5760206040517f59d087672531b50700275907548a6c10240fc27658dfda79d5c528581d070b5e8152f35b346101df575f3660031901126101df576001546040516001600160a01b039091168152602090f35b346101df575f3660031901126101df576020600454604051908152f35b346101df575f3660031901126101df575f546040516001600160a01b039091168152602090f35b346101df575f3660031901126101df576020600854604051908152f35b346101df5760203660031901126101df5760043563ffffffff60e01b81168091036101df575f526012602052602060018060a01b0360405f205416604051908152f35b346101df575f3660031901126101df5760206040516127108152f35b346101df57610fcd3661141f565b600a939293546101df576001600a5560ff60095460301c166101df57825f52600b60205260405f209160ff600684015460301c1661100a8161146c565b61096c57600654811061087f5784156113bd5760028301545b811161078d576002830154926003810154600482015490611045828288611531565b9588156113b75761105685826114ac565b89156113a45761107a83985b6110748664e8d4a510009b8c95611531565b906114ac565b0495861061086d5760058401549081871161078d576024938390828c1561139357506110a688846114ac565b915b87546040516370a0823160e01b81523060048201529760209189919082906001600160a01b03165afa9687156106b6575f9761135f575b5060018801546040516370a0823160e01b81523060048201526001600160a01b03909116976020826024818c5afa9182156106b6575f9261132b575b50808511156113235761112e90856114ac565b905b8083111561131c5761114290836114ac565b8082111561131557505b6103e88601908187116107c9578c9004116107b757858a94600c8a015487106112bc575b505050505061117e916114ac565b600584015587156112335750506111998260028301546114ac565b6002820155546001600160a01b031692833b156101df57604051632770a7eb60e21b815233600482015260248101839052935f908590604490829084905af19081156106b6577f1d161b920c72af3bceacd767e1ddf575296be054b91f3f47954d4fa62e0ea7929461069e92611224575b505b5f5461066d90859033906001600160a01b031661169c565b61122d90611476565b8761120a565b61124384600392979493976114ac565b910155833b156101df57604051632770a7eb60e21b815233600482015260248101839052935f908590604490829084905af19081156106b6577f1d161b920c72af3bceacd767e1ddf575296be054b91f3f47954d4fa62e0ea7929461069e926112ad575b5061120c565b6112b690611476565b876112a7565b6112cd9495506107589184916116f7565b908181111561130757906112e0916114ac565b600d85015480156112fd57905b1161078d57858a80808581611170565b50600854906112ed565b611310916114ac565b6112e0565b905061114c565b505f611142565b505f90611130565b9091506020813d602011611357575b816113476020938361148a565b810103126101df5751908f61111b565b3d915061133a565b9096506020813d60201161138b575b8161137b6020938361148a565b810103126101df5751958d6110df565b3d915061136e565b915061139f88866114ac565b6110a8565b61107a6113b187856114ac565b98611062565b80611056565b6003830154611023565b346101df575f3660031901126101df576020600354604051908152f35b346101df575f3660031901126101df57602061ffff60095416604051908152f35b346101df575f3660031901126101df576020906013548152f35b60809060031901126101df576004359060243580151581036101df57906044359060643590565b60409060031901126101df57600435906024356001600160a01b03811681036101df5790565b60031115610bf157565b67ffffffffffffffff811161094657604052565b90601f8019910116810190811067ffffffffffffffff82111761094657604052565b919082039182116107c957565b81156114c3570490565b634e487b7160e01b5f52601260045260245ffd5b5f908152600b6020526040902080546001600160a01b031615610e685780600261150e9201549060046003820154910154916116f7565b90565b818102929181159184041417156107c957565b919082018092116107c957565b821561168b5761154e836115488161155c94611bd8565b93611bd8565b8083131561168457826116df565b600160ff1b90808214611672575f81121561166c575f03905b81148015611665575b611653575f81121561164a57611595815f03611ab7565b906001600160ff1b038211611621576115c391905f19670de0b6b3a763ffff19909118131561161a57611a30565b80670de0b6b3a7640000019081126001166107c9576115e190611a86565b905f82820192831291129080158216911516176107c9575f8113156116095761150e91611b43565b60405162b5401d60e41b8152600490fd5b5f03611a30565b60405163120b5b4360e01b81526004810191909152670de0b6b3a763ffff196024820152604490fd5b61159581611ab7565b60405163a6070c2560e01b8152600490fd5b505f61157e565b90611575565b60405163ec2b9e6760e01b8152600490fd5b80926116df565b60405162faf17b60e31b8152600490fd5b60405163a9059cbb60e01b60208201526001600160a01b039290921660248301526044808301939093529181526116dd916116d860648361148a565b6119bc565b565b81810392915f1380158285131691841216176107c957565b821561168b57611706916116df565b90600160ff1b8083148015611874575b611815575f83121561186b5761173a835f035b5f84121561186457835f0390611bd8565b6001600160ff1b0393848211611846575f19931883121561183f575b68070c1cc73b00c8000081136118375768070c1cc73b00c7ffff1981126118275761178090611a30565b670de0b6b3a764000090808201928184126001166107c9578314611815575f83121561180e575f03670de0b6b3a763ffff19015b80156114c3576ec097ce7bc90715b34b9f1000000000049384116117f1571813156117ea575b5f8113156117e55790565b505f90565b5f036117da565b6044916040519163d49c26b360e01b835260048301526024820152fd5b50816117b4565b6040516309fe2b4560e41b8152600490fd5b50505050670de0b6b3a764000090565b505050505f90565b5f03611756565b604490846040519163d49c26b360e01b835260048301526024820152fd5b8390611bd8565b61173a83611729565b50808214611716565b9291821561168b57801561183757826118ac816118a76118b2946118a283888b611531565b611524565b611bd8565b92611bd8565b68070c1cc73b00c800008083139081156119b2575b506119a0576118e16118db6118e793611a30565b91611a30565b906116df565b5f811315611609576118f890611a86565b90600160ff1b808214908115611996575b50611653575f81121561198d5761192e815f035b5f84121561198657835f0390611b43565b916001600160ff1b038311611968575f199118131561196057905b8082131561195a5761150e916114ac565b50505f90565b5f0390611949565b604492506040519163120b5b4360e01b835260048301526024820152fd5b8390611b43565b61192e8161191d565b905082145f611909565b604051634eab2ea760e11b8152600490fd5b905081135f6118c7565b905f602091828151910182855af1156106b6575f513d611a0d57506001600160a01b0381163b155b6119eb5750565b604051635274afe760e01b81526001600160a01b039091166004820152602490fd5b600114156119e4565b80156114c3576ec097ce7bc90715b34b9f10000000000590565b68023f2fa8f6da5b9d311981126117e557680736ea4425c11ac6308113611a6e57670de0b6b3a76400006714057b7ef767814f61150e920205611c86565b6024906040519063ca7ec0c560e01b82526004820152fd5b611a8f906124fe565b670de0b6b3a7640000908181029181830514901517156107c9576714057b7ef767814f900590565b670de0b6b3a764000091905f1983820983820291828083109203918083039214611b3a5784821015611b1c5793807faccb18165bd6fe31ae1cf318dc5b51eee0e1ba569b88cd74c1773b91fac1066994950990828211900360ee1b910360121c170290565b6044908560405191635173648d60e01b835260048301526024820152fd5b50509190910490565b9091905f1983820983820291828083109203918083039214611bc757670de0b6b3a76400009081831015611ba957947faccb18165bd6fe31ae1cf318dc5b51eee0e1ba569b88cd74c1773b91fac1066994950990828211900360ee1b910360121c170290565b6044908660405191635173648d60e01b835260048301526024820152fd5b5050670de0b6b3a764000090049150565b670de0b6b3a7640000915f198383099280830292838086109503948086039514611c795782851015611c56579082910960018219018216809204600280826003021880830282030280830282030280830282030280830282030280830282030280920290030293600183805f03040190848311900302920304170290565b8260649260405192630c740aef60e31b8452600484015260248301526044820152fd5b50509061150e92506114b9565b5f811215611cb35768033dd1780914b971141981126117e557611caa905f03611c86565b61150e90611a16565b680a688906bd8affffff81136124e757670de0b6b3a764000080604092831b0590600160bf1b67ff0000000000000083166123d6575b66ff00000000000083166122ce575b65ff000000000083166121ce575b64ff0000000083166120d6575b63ff0000008316611fe6575b62ff00008316611efe575b61ff008316611e1e575b60ff8316611d47575b02911c60bf031c90565b60808316611e0c575b838316611dfa575b60208316611de8575b60108316611dd6575b60088316611dc4575b60048316611db2575b60028316611da0575b6001831615611d3d576801000000000000000102831c611d3d565b6801000000000000000102831c611d85565b6801000000000000000302831c611d7c565b6801000000000000000602831c611d73565b6801000000000000000b02831c611d6a565b6801000000000000001602831c611d61565b6801000000000000002c02831c611d58565b6801000000000000005902831c611d50565b6180008316611eec575b6140008316611eda575b6120008316611ec8575b6110008316611eb6575b6108008316611ea4575b6104008316611e92575b6102008316611e80575b610100831615611d3457680100000000000000b102831c611d34565b6801000000000000016302831c611e64565b680100000000000002c602831c611e5a565b6801000000000000058c02831c611e50565b68010000000000000b1702831c611e46565b6801000000000000162e02831c611e3c565b68010000000000002c5d02831c611e32565b680100000000000058b902831c611e28565b628000008316611fd4575b624000008316611fc2575b622000008316611fb0575b621000008316611f9e575b620800008316611f8c575b620400008316611f7a575b620200008316611f68575b62010000831615611d2a576801000000000000b17202831c611d2a565b680100000000000162e402831c611f4b565b6801000000000002c5c802831c611f40565b68010000000000058b9102831c611f35565b680100000000000b172102831c611f2a565b68010000000000162e4302831c611f1f565b680100000000002c5c8602831c611f14565b6801000000000058b90c02831c611f09565b638000000083166120c4575b634000000083166120b2575b632000000083166120a0575b6310000000831661208e575b6308000000831661207c575b6304000000831661206a575b63020000008316612058575b6301000000831615611d1f5768010000000000b1721802831c611d1f565b6801000000000162e43002831c61203a565b68010000000002c5c86002831c61202e565b680100000000058b90c002831c612022565b6801000000000b17217f02831c612016565b680100000000162e42ff02831c61200a565b6801000000002c5c85fe02831c611ffe565b68010000000058b90bfc02831c611ff2565b64800000000083166121bc575b64400000000083166121aa575b6420000000008316612198575b6410000000008316612186575b6408000000008316612174575b6404000000008316612162575b6402000000008316612150575b640100000000831615611d1357680100000000b17217f802831c611d13565b68010000000162e42ff102831c612131565b680100000002c5c85fe302831c612124565b6801000000058b90bfce02831c612117565b68010000000b17217fbb02831c61210a565b6801000000162e42fff002831c6120fd565b68010000002c5c8601cc02831c6120f0565b680100000058b90c0b4902831c6120e3565b6580000000000083166122bc575b6540000000000083166122aa575b652000000000008316612298575b651000000000008316612286575b650800000000008316612274575b650400000000008316612262575b650200000000008316612250575b65010000000000831615611d06576801000000b17218355102831c611d06565b680100000162e430e5a202831c612230565b6801000002c5c863b73f02831c612222565b68010000058b90cf1e6e02831c612214565b680100000b1721bcfc9a02831c612206565b68010000162e43f4f83102831c6121f8565b680100002c5c89d5ec6d02831c6121ea565b6801000058b91b5bc9ae02831c6121dc565b668000000000000083166123c4575b664000000000000083166123b2575b662000000000000083166123a0575b6610000000000000831661238e575b6608000000000000831661237c575b6604000000000000831661236a575b66020000000000008316612358575b6601000000000000831615611cf85768010000b17255775c0402831c611cf8565b6801000162e525ee054702831c612337565b68010002c5cc37da949202831c612328565b680100058ba01fb9f96d02831c612319565b6801000b175effdc76ba02831c61230a565b680100162f3904051fa102831c6122fb565b6801002c605e2e8cec5002831c6122ec565b68010058c86da1c09ea202831c6122dd565b67800000000000000083166124d4575b67400000000000000083166124c2575b67200000000000000083166124b0575b671000000000000000831661249e575b670800000000000000831661248c575b670400000000000000831661247a575b6702000000000000008316612468575b670100000000000000831615611ce957680100b1afa5abcbed6102831c611ce9565b68010163da9fb33356d802831c612446565b680102c9a3e778060ee702831c612436565b6801059b0d31585743ae02831c612426565b68010b5586cf9890f62a02831c612416565b6801172b83c7d517adce02831c612406565b6801306fe0a31b7152df02831c6123f6565b5068016a09e667f3bcc909607f1b6123e6565b60249060405190626c1a0560e31b82526004820152fd5b805f82131561261357670de0b6b3a7640000918281126125f157506001915b8082056fffffffffffffffffffffffffffffffff811160071b90811c9067ffffffffffffffff821160061b91821c63ffffffff811160051b90811c61ffff811160041b90811c60ff811160031b90811c91600f831160021b92831c93600196600160038711811b96871c1196171717171717179180830293831d928184146125e657506706f05b59d3b20000925b5f84136125ba57505050500290565b808291020592671bc16d674ec800008412156125d9575b821d926125ab565b8093940193821d926125d1565b925093925050020290565b5f1992915080156114c3576ec097ce7bc90715b34b9f1000000000059061251d565b60405163059b101b60e01b815260048101839052602490fd","linkReferences":{}},"methodIdentifiers":{"BPS()":"249d39e9","MARKET_CREATOR_ROLE()":"ae42820c","OP_PAUSE()":"6329a66a","OP_SET_FACET()":"e998985e","OP_SET_RESOLVER()":"d063c724","OP_SET_TREASURY()":"f5d7eeaf","OP_UNPAUSE()":"6dba319c","USDC_TO_E18()":"aa93f462","accFeePerUSDCE18(uint256)":"9da4f13d","accResidualPerUSDCE18(uint256)":"e72012a7","buy(uint256,bool,uint256,uint256)":"bdad35e5","chainlinkResolver()":"7f8a3f8c","defaultFeeLpBps()":"919cab1f","defaultFeeTreasuryBps()":"028aa4ee","defaultFeeVaultBps()":"67351729","dustSharesE18()":"c16de9c7","facetOf(bytes4)":"2c7dc319","getMaxJumpE18(uint256)":"6778c3a2","liquidityMultiplierE18()":"d105e1c6","lpFeeDebt(uint256,address)":"ffe2a945","lpResidualDebt(uint256,address)":"6aa083b9","lpShares(uint256,address)":"6bcbb8a5","marketCount()":"ec979082","markets(uint256)":"b1283e77","maxInstantJumpE18()":"2ed13b78","maxUsdcPerTrade()":"0615e22a","minLiquidityAdd()":"f5b9f416","minMarketSeed()":"572ddbcb","minTimelockDelay()":"028390bd","opNonce()":"969ea86b","ops(bytes32)":"692a34f4","sell(uint256,bool,uint256,uint256)":"0abf1899","spotPriceYesE18(uint256)":"6ad6c254","spotPriceYesE6(uint256)":"dfe0662a","treasury()":"61d027b3","usdc()":"3e413bee"},"id":80}