{"abi":[{"type":"constructor","inputs":[{"name":"admin","type":"address","internalType":"address"},{"name":"initialDailyLimit","type":"uint256","internalType":"uint256"}],"stateMutability":"nonpayable"},{"type":"function","name":"ADMIN_ROLE","inputs":[],"outputs":[{"name":"","type":"bytes32","internalType":"bytes32"}],"stateMutability":"view"},{"type":"function","name":"DEFAULT_ADMIN_ROLE","inputs":[],"outputs":[{"name":"","type":"bytes32","internalType":"bytes32"}],"stateMutability":"view"},{"type":"function","name":"MAX_DAILY_LIMIT","inputs":[],"outputs":[{"name":"","type":"uint256","internalType":"uint256"}],"stateMutability":"view"},{"type":"function","name":"MAX_SINGLE_LARGE_WITHDRAW","inputs":[],"outputs":[{"name":"","type":"uint256","internalType":"uint256"}],"stateMutability":"view"},{"type":"function","name":"MIN_DELAY","inputs":[],"outputs":[{"name":"","type":"uint256","internalType":"uint256"}],"stateMutability":"view"},{"type":"function","name":"OP_EXPIRY_WINDOW","inputs":[],"outputs":[{"name":"","type":"uint256","internalType":"uint256"}],"stateMutability":"view"},{"type":"function","name":"WITHDRAWER_ROLE","inputs":[],"outputs":[{"name":"","type":"bytes32","internalType":"bytes32"}],"stateMutability":"view"},{"type":"function","name":"cancelLargeWithdraw","inputs":[{"name":"opId","type":"bytes32","internalType":"bytes32"}],"outputs":[],"stateMutability":"nonpayable"},{"type":"function","name":"dailyWithdrawLimit","inputs":[],"outputs":[{"name":"","type":"uint256","internalType":"uint256"}],"stateMutability":"view"},{"type":"function","name":"executeLargeWithdraw","inputs":[{"name":"opId","type":"bytes32","internalType":"bytes32"}],"outputs":[],"stateMutability":"nonpayable"},{"type":"function","name":"getRoleAdmin","inputs":[{"name":"role","type":"bytes32","internalType":"bytes32"}],"outputs":[{"name":"","type":"bytes32","internalType":"bytes32"}],"stateMutability":"view"},{"type":"function","name":"grantRole","inputs":[{"name":"role","type":"bytes32","internalType":"bytes32"},{"name":"account","type":"address","internalType":"address"}],"outputs":[],"stateMutability":"nonpayable"},{"type":"function","name":"hasRole","inputs":[{"name":"role","type":"bytes32","internalType":"bytes32"},{"name":"account","type":"address","internalType":"address"}],"outputs":[{"name":"","type":"bool","internalType":"bool"}],"stateMutability":"view"},{"type":"function","name":"lastWithdrawDayByToken","inputs":[{"name":"","type":"address","internalType":"address"}],"outputs":[{"name":"","type":"uint256","internalType":"uint256"}],"stateMutability":"view"},{"type":"function","name":"opNonce","inputs":[],"outputs":[{"name":"","type":"uint256","internalType":"uint256"}],"stateMutability":"view"},{"type":"function","name":"ops","inputs":[{"name":"","type":"bytes32","internalType":"bytes32"}],"outputs":[{"name":"token","type":"address","internalType":"address"},{"name":"to","type":"address","internalType":"address"},{"name":"amount","type":"uint256","internalType":"uint256"},{"name":"readyAt","type":"uint256","internalType":"uint256"},{"name":"status","type":"uint8","internalType":"enum Treasury.OpStatus"}],"stateMutability":"view"},{"type":"function","name":"renounceRole","inputs":[{"name":"role","type":"bytes32","internalType":"bytes32"},{"name":"callerConfirmation","type":"address","internalType":"address"}],"outputs":[],"stateMutability":"nonpayable"},{"type":"function","name":"revokeRole","inputs":[{"name":"role","type":"bytes32","internalType":"bytes32"},{"name":"account","type":"address","internalType":"address"}],"outputs":[],"stateMutability":"nonpayable"},{"type":"function","name":"scheduleLargeWithdraw","inputs":[{"name":"token","type":"address","internalType":"address"},{"name":"to","type":"address","internalType":"address"},{"name":"amount","type":"uint256","internalType":"uint256"}],"outputs":[{"name":"opId","type":"bytes32","internalType":"bytes32"}],"stateMutability":"nonpayable"},{"type":"function","name":"setDailyLimit","inputs":[{"name":"newLimit","type":"uint256","internalType":"uint256"}],"outputs":[],"stateMutability":"nonpayable"},{"type":"function","name":"supportsInterface","inputs":[{"name":"interfaceId","type":"bytes4","internalType":"bytes4"}],"outputs":[{"name":"","type":"bool","internalType":"bool"}],"stateMutability":"view"},{"type":"function","name":"withdraw","inputs":[{"name":"token","type":"address","internalType":"address"},{"name":"to","type":"address","internalType":"address"},{"name":"amount","type":"uint256","internalType":"uint256"}],"outputs":[],"stateMutability":"nonpayable"},{"type":"function","name":"withdrawnTodayByToken","inputs":[{"name":"","type":"address","internalType":"address"}],"outputs":[{"name":"","type":"uint256","internalType":"uint256"}],"stateMutability":"view"},{"type":"event","name":"DailyLimitUpdated","inputs":[{"name":"oldLimit","type":"uint256","indexed":false,"internalType":"uint256"},{"name":"newLimit","type":"uint256","indexed":false,"internalType":"uint256"}],"anonymous":false},{"type":"event","name":"LargeWithdrawCancelled","inputs":[{"name":"opId","type":"bytes32","indexed":true,"internalType":"bytes32"}],"anonymous":false},{"type":"event","name":"LargeWithdrawExecuted","inputs":[{"name":"opId","type":"bytes32","indexed":true,"internalType":"bytes32"}],"anonymous":false},{"type":"event","name":"LargeWithdrawScheduled","inputs":[{"name":"opId","type":"bytes32","indexed":true,"internalType":"bytes32"},{"name":"token","type":"address","indexed":false,"internalType":"address"},{"name":"to","type":"address","indexed":false,"internalType":"address"},{"name":"amount","type":"uint256","indexed":false,"internalType":"uint256"},{"name":"readyAt","type":"uint256","indexed":false,"internalType":"uint256"}],"anonymous":false},{"type":"event","name":"RoleAdminChanged","inputs":[{"name":"role","type":"bytes32","indexed":true,"internalType":"bytes32"},{"name":"previousAdminRole","type":"bytes32","indexed":true,"internalType":"bytes32"},{"name":"newAdminRole","type":"bytes32","indexed":true,"internalType":"bytes32"}],"anonymous":false},{"type":"event","name":"RoleGranted","inputs":[{"name":"role","type":"bytes32","indexed":true,"internalType":"bytes32"},{"name":"account","type":"address","indexed":true,"internalType":"address"},{"name":"sender","type":"address","indexed":true,"internalType":"address"}],"anonymous":false},{"type":"event","name":"RoleRevoked","inputs":[{"name":"role","type":"bytes32","indexed":true,"internalType":"bytes32"},{"name":"account","type":"address","indexed":true,"internalType":"address"},{"name":"sender","type":"address","indexed":true,"internalType":"address"}],"anonymous":false},{"type":"event","name":"Withdraw","inputs":[{"name":"token","type":"address","indexed":true,"internalType":"address"},{"name":"to","type":"address","indexed":true,"internalType":"address"},{"name":"amount","type":"uint256","indexed":false,"internalType":"uint256"}],"anonymous":false},{"type":"error","name":"AccessControlBadConfirmation","inputs":[]},{"type":"error","name":"AccessControlUnauthorizedAccount","inputs":[{"name":"account","type":"address","internalType":"address"},{"name":"neededRole","type":"bytes32","internalType":"bytes32"}]},{"type":"error","name":"BadAmount","inputs":[]},{"type":"error","name":"LimitExceeded","inputs":[]},{"type":"error","name":"NotReady","inputs":[{"name":"readyAt","type":"uint256","internalType":"uint256"}]},{"type":"error","name":"OpExpired","inputs":[]},{"type":"error","name":"OpInvalid","inputs":[]},{"type":"error","name":"ReentrancyGuardReentrantCall","inputs":[]},{"type":"error","name":"SafeERC20FailedOperation","inputs":[{"name":"token","type":"address","internalType":"address"}]},{"type":"error","name":"ZeroAddress","inputs":[]}],"bytecode":{"object":"0x608034620000de576200107890601f38839003908101601f19168201906001600160401b03821183831017620000e25780839160409586948552833981010312620000de5780516001600160a01b03811691828203620000de5760200151916001805515620000cd577f207c4cbdf55ec315a13f0d5e047732ec5d947da056e706593aa509909941cedf91620000ae826200009b8694620000f6565b50620000a78162000166565b5062000206565b50806002558151905f82526020820152a151610d979081620002a18239f35b825163d92e233d60e01b8152600490fd5b5f80fd5b634e487b7160e01b5f52604160045260245ffd5b6001600160a01b03165f8181525f8051602062001058833981519152602052604090205460ff1662000161575f8181525f805160206200105883398151915260205260408120805460ff191660011790553391905f80516020620010388339815191528180a4600190565b505f90565b6001600160a01b03165f8181527f7d7ffb7a348e1c6a02869081a26547b49160dd3df72d1d75a570eb9b698292ec60205260409020547fa49807205ce4d355092ef5a8a18f56e8913cf4a201fbe287825b095693c21775919060ff166200020057815f525f60205260405f20815f5260205260405f20600160ff1982541617905533915f80516020620010388339815191525f80a4600190565b50505f90565b6001600160a01b03165f8181527f10d7f32a6930100c7e03899d583513ff548ac958e569f497049662337b6f49b960205260409020547f10dac8c06a04bec0b551627dad28bc00d6516b0caacd1c7b345fcdb5211334e4919060ff166200020057815f525f60205260405f20815f5260205260405f20600160ff1982541617905533915f80516020620010388339815191525f80a460019056fe6080604090808252600480361015610015575f80fd5b5f3560e01c91826301ffc9a714610a6557508163032a57d214610a48578163066e35a5146108f95781631cba1a4e146108c2578163248a9ca3146108995781632f2ff15d1461087157816336568abe1461082d5781633c471103146105c85781634e56fa2514610593578163692a34f41461052857816375b238fc146104ee57816385f438c1146104b45781638d0a31d81461042157816391d14854146103de578163969ea86b146103c05781639f81aed7146103a3578163a217fddf14610389578163ace687eb1461036b578163b20d30a9146102fc578163d547741f146102c1578163d9caed121461015f57508063e62a4c9f1461013f5763fa04a61a1461011d575f80fd5b3461013b575f36600319011261013b576020905164e8d4a510008152f35b5f80fd5b503461013b575f36600319011261013b576020905165048c273950008152f35b823461013b5761016e36610ae3565b92917f10dac8c06a04bec0b551627dad28bc00d6516b0caacd1c7b345fcdb5211334e491825f526020925f8452845f20335f52845260ff855f205416156102a357506101b8610bd3565b6001600160a01b039182169384158015610299575b61028a57851561027b57620151804204855f5260038552815f208054821161026b575b5050868452805f20546102038782610b18565b6002541061025b5796610239877f9b1bfa7fa9ee420a16e124f794c35ac9f90472acc99140eb2f6447c714cad8eb979899610b18565b90875f528552815f205561024e878388610bf6565b519586521693a360018055005b8151631930e3c960e11b81528890fd5b558684525f8181205587806101f0565b5163749b593960e01b81528690fd5b5163d92e233d60e01b81528690fd5b50828216156101cd565b845163e2517d3f60e01b815233818901526024810191909152604490fd5b823461013b578060031936011261013b576102fa91356102f560016102e4610acd565b93835f525f6020525f200154610bb2565b610d25565b005b823461013b57602036600319011261013b578135610318610b39565b65048c27395000811161035d577f207c4cbdf55ec315a13f0d5e047732ec5d947da056e706593aa509909941cedf9250600254908060025582519182526020820152a1005b505163749b593960e01b8152fd5b823461013b575f36600319011261013b576020906002549051908152f35b823461013b575f36600319011261013b57602090515f8152f35b823461013b575f36600319011261013b5760209051620151808152f35b823461013b575f36600319011261013b576020906005549051908152f35b823461013b578060031936011261013b576020916103fa610acd565b90355f525f8352815f209060018060a01b03165f52825260ff815f20541690519015158152f35b90503461013b57602036600319011261013b5780359161043f610b39565b825f52600660205281815f20019182549160ff8316828110156104a15760010361049457505060ff191660031790557fc3d3def7c22edfb3e3bee3c6f6a55142d2d221b2c27098b82f2bb0e0d0203c585f80a2005b516361941cd160e11b8152fd5b602183634e487b7160e01b5f525260245ffd5b823461013b575f36600319011261013b57602090517f10dac8c06a04bec0b551627dad28bc00d6516b0caacd1c7b345fcdb5211334e48152f35b823461013b575f36600319011261013b57602090517fa49807205ce4d355092ef5a8a18f56e8913cf4a201fbe287825b095693c217758152f35b823461013b57602036600319011261013b5781355f526006602052805f209060018060a01b039182815416926001820154169160028201549060ff8660038501549401541693815195865260208601528401526060830152828110156104a15760a092506080820152f35b823461013b57602036600319011261013b576020916001600160a01b036105b8610ab7565b165f528252805f20549051908152f35b823461013b576105d736610ae3565b9092916105e2610b39565b6001600160a01b039081169182158015610823575b6108135780158015610805575b6107f5576005545f1981146107e2576001018060055584519660209784898201987fbbd76ab668e4b99316f06df3b2528fa3c254b621c395d1b4f2461b49223e0e8d8a528789840152169283606083015284608083015260a082015260a0815260c081019767ffffffffffffffff91808a10838b111761079b5789895251902097885f5260068a5260ff83895f20015416838110156107cf576107c15750620151804201948542116107ae5787519160a083019081118382101761079b57918a8493928b95938b528983528183018781528b840191898352600660608601948c8652608087019960018b525f5252808d5f20955116906bffffffffffffffffffffffff60a01b9182875416178655600186019251169082541617905551600283015551600382015501915190808210156107885750928795927f815a25531b249c44f060a1bc3f7357df3ef61e2ad40f2155200c475cac7b8584959260809560ff80198354169116179055875193845289840152868301526060820152a251908152f35b602190634e487b7160e01b5f525260245ffd5b604184634e487b7160e01b5f525260245ffd5b601183634e487b7160e01b5f525260245ffd5b6361941cd160e11b81529050fd5b602184634e487b7160e01b5f525260245ffd5b601187634e487b7160e01b5f525260245ffd5b835163749b593960e01b81528690fd5b5064e8d4a510008111610604565b835163d92e233d60e01b81528690fd5b50818516156105f7565b823461013b578060031936011261013b57610846610acd565b90336001600160a01b0383160361086257506102fa9135610d25565b5163334bd91960e11b81529050fd5b823461013b578060031936011261013b576102fa913561089460016102e4610acd565b610ca9565b823461013b57602036600319011261013b57602091355f525f82526001815f2001549051908152f35b823461013b57602036600319011261013b576020906001600160a01b036108e7610ab7565b165f5260038252805f20549051908152f35b823461013b57602036600319011261013b57813591610916610b39565b61091e610bd3565b825f526006602052815f20908082019081549060ff821681811015610a3557600103610a27576003840154804210610a115762093a8081018091116109fe5742116109f0575060029060ff19161790557f9b1bfa7fa9ee420a16e124f794c35ac9f90472acc99140eb2f6447c714cad8eb602060018060a01b039384845416948060018601956109b9828854169860028301998a5491610bf6565b541694541694549051908152a37fae42ac52baf063fc7549b26d9d1c1ce701d0f29dd6c2bf43edf2e831aaa240a25f80a260018055005b84516306236e0360e11b8152fd5b601182634e487b7160e01b5f525260245ffd5b8551632d4cba9360e11b81529182015260249150fd5b84516361941cd160e11b8152fd5b602182634e487b7160e01b5f525260245ffd5b823461013b575f36600319011261013b576020905162093a808152f35b903461013b57602036600319011261013b57359063ffffffff60e01b821680920361013b57602091637965db0b60e01b8114908115610aa6575b5015158152f35b6301ffc9a760e01b14905083610a9f565b600435906001600160a01b038216820361013b57565b602435906001600160a01b038216820361013b57565b606090600319011261013b576001600160a01b0390600435828116810361013b5791602435908116810361013b579060443590565b91908201809211610b2557565b634e487b7160e01b5f52601160045260245ffd5b335f9081527f7d7ffb7a348e1c6a02869081a26547b49160dd3df72d1d75a570eb9b698292ec60205260409020547fa49807205ce4d355092ef5a8a18f56e8913cf4a201fbe287825b095693c217759060ff1615610b945750565b6044906040519063e2517d3f60e01b82523360048301526024820152fd5b805f525f60205260405f20335f5260205260ff60405f20541615610b945750565b600260015414610be4576002600155565b604051633ee5aeb560e01b8152600490fd5b60405163a9059cbb60e01b602082019081526001600160a01b0393841660248301526044808301959095529381529092608082019067ffffffffffffffff821183831017610c95576020925f92604052519082865af115610c8a575f513d610c8157508082163b155b610c67575050565b604051635274afe760e01b81529116600482015260249150fd5b60011415610c5f565b6040513d5f823e3d90fd5b634e487b7160e01b5f52604160045260245ffd5b90815f525f60205260405f209060018060a01b031690815f5260205260ff60405f205416155f14610d1f57815f525f60205260405f20815f5260205260405f20600160ff1982541617905533917f2f8788117e7eff1d82e926ec794901d17c78024a50270940304540a733656f0d5f80a4600190565b50505f90565b90815f525f60205260405f209060018060a01b031690815f5260205260ff60405f2054165f14610d1f57815f525f60205260405f20815f5260205260405f2060ff19815416905533917ff6391f5c32d9c69d2a47ea670b442974b53935d1edc7fd64eb21e047a839171b5f80a4600190562f8788117e7eff1d82e926ec794901d17c78024a50270940304540a733656f0dad3228b676f7d3cd4284a5443f17f1962b36e491b30a40b2405849e597ba5fb5","linkReferences":{}},"methodIdentifiers":{"ADMIN_ROLE()":"75b238fc","DEFAULT_ADMIN_ROLE()":"a217fddf","MAX_DAILY_LIMIT()":"e62a4c9f","MAX_SINGLE_LARGE_WITHDRAW()":"fa04a61a","MIN_DELAY()":"9f81aed7","OP_EXPIRY_WINDOW()":"032a57d2","WITHDRAWER_ROLE()":"85f438c1","cancelLargeWithdraw(bytes32)":"8d0a31d8","dailyWithdrawLimit()":"ace687eb","executeLargeWithdraw(bytes32)":"066e35a5","getRoleAdmin(bytes32)":"248a9ca3","grantRole(bytes32,address)":"2f2ff15d","hasRole(bytes32,address)":"91d14854","lastWithdrawDayByToken(address)":"1cba1a4e","opNonce()":"969ea86b","ops(bytes32)":"692a34f4","renounceRole(bytes32,address)":"36568abe","revokeRole(bytes32,address)":"d547741f","scheduleLargeWithdraw(address,address,uint256)":"3c471103","setDailyLimit(uint256)":"b20d30a9","supportsInterface(bytes4)":"01ffc9a7","withdraw(address,address,uint256)":"d9caed12","withdrawnTodayByToken(address)":"4e56fa25"},"id":76}