{"abi":[{"type":"constructor","inputs":[{"name":"_usdc","type":"address","internalType":"address"},{"name":"_treasury","type":"address","internalType":"address"}],"stateMutability":"nonpayable"},{"type":"function","name":"DEFAULT_ADMIN_ROLE","inputs":[],"outputs":[{"name":"","type":"bytes32","internalType":"bytes32"}],"stateMutability":"view"},{"type":"function","name":"DUST_THRESHOLD","inputs":[],"outputs":[{"name":"","type":"uint256","internalType":"uint256"}],"stateMutability":"view"},{"type":"function","name":"MARKET_CREATOR_ROLE","inputs":[],"outputs":[{"name":"","type":"bytes32","internalType":"bytes32"}],"stateMutability":"view"},{"type":"function","name":"MAX_FEE_BPS_PER","inputs":[],"outputs":[{"name":"","type":"uint16","internalType":"uint16"}],"stateMutability":"view"},{"type":"function","name":"MAX_FEE_BPS_TOTAL","inputs":[],"outputs":[{"name":"","type":"uint16","internalType":"uint16"}],"stateMutability":"view"},{"type":"function","name":"MAX_USDC_PER_TRADE","inputs":[],"outputs":[{"name":"","type":"uint256","internalType":"uint256"}],"stateMutability":"view"},{"type":"function","name":"MIN_LIQUIDITY_ADD","inputs":[],"outputs":[{"name":"","type":"uint256","internalType":"uint256"}],"stateMutability":"view"},{"type":"function","name":"MIN_MARKET_SEED","inputs":[],"outputs":[{"name":"","type":"uint256","internalType":"uint256"}],"stateMutability":"view"},{"type":"function","name":"ORACLE_STALENESS_THRESHOLD","inputs":[],"outputs":[{"name":"","type":"uint256","internalType":"uint256"}],"stateMutability":"view"},{"type":"function","name":"PRICE_DECIMALS_E18","inputs":[],"outputs":[{"name":"","type":"uint256","internalType":"uint256"}],"stateMutability":"view"},{"type":"function","name":"PRICE_DECIMALS_E6","inputs":[],"outputs":[{"name":"","type":"uint256","internalType":"uint256"}],"stateMutability":"view"},{"type":"function","name":"USDC_TO_E18","inputs":[],"outputs":[{"name":"","type":"uint256","internalType":"uint256"}],"stateMutability":"view"},{"type":"function","name":"accFeePerUSDCE18","inputs":[{"name":"","type":"uint256","internalType":"uint256"}],"outputs":[{"name":"","type":"uint256","internalType":"uint256"}],"stateMutability":"view"},{"type":"function","name":"accResidualPerUSDCE18","inputs":[{"name":"","type":"uint256","internalType":"uint256"}],"outputs":[{"name":"","type":"uint256","internalType":"uint256"}],"stateMutability":"view"},{"type":"function","name":"addLiquidity","inputs":[{"name":"id","type":"uint256","internalType":"uint256"},{"name":"usdcAdd","type":"uint256","internalType":"uint256"}],"outputs":[],"stateMutability":"nonpayable"},{"type":"function","name":"buyNo","inputs":[{"name":"id","type":"uint256","internalType":"uint256"},{"name":"usdcIn","type":"uint256","internalType":"uint256"},{"name":"minOut","type":"uint256","internalType":"uint256"}],"outputs":[],"stateMutability":"nonpayable"},{"type":"function","name":"buyYes","inputs":[{"name":"id","type":"uint256","internalType":"uint256"},{"name":"usdcIn","type":"uint256","internalType":"uint256"},{"name":"minOut","type":"uint256","internalType":"uint256"}],"outputs":[],"stateMutability":"nonpayable"},{"type":"function","name":"chainlinkResolver","inputs":[],"outputs":[{"name":"","type":"address","internalType":"address"}],"stateMutability":"view"},{"type":"function","name":"checkUpkeep","inputs":[{"name":"id","type":"uint256","internalType":"uint256"}],"outputs":[{"name":"","type":"bool","internalType":"bool"},{"name":"","type":"bytes","internalType":"bytes"}],"stateMutability":"view"},{"type":"function","name":"claimLpFees","inputs":[{"name":"id","type":"uint256","internalType":"uint256"}],"outputs":[],"stateMutability":"nonpayable"},{"type":"function","name":"claimLpResidual","inputs":[{"name":"id","type":"uint256","internalType":"uint256"}],"outputs":[],"stateMutability":"nonpayable"},{"type":"function","name":"createMarket","inputs":[{"name":"question","type":"string","internalType":"string"},{"name":"yesName","type":"string","internalType":"string"},{"name":"yesSymbol","type":"string","internalType":"string"},{"name":"noName","type":"string","internalType":"string"},{"name":"noSymbol","type":"string","internalType":"string"},{"name":"initUsdc","type":"uint256","internalType":"uint256"},{"name":"expiryTimestamp","type":"uint256","internalType":"uint256"},{"name":"oracle","type":"address","internalType":"address"},{"name":"priceFeedId","type":"bytes32","internalType":"bytes32"},{"name":"targetValue","type":"uint256","internalType":"uint256"},{"name":"comparison","type":"uint8","internalType":"enum SpeculateCore.Comparison"}],"outputs":[{"name":"id","type":"uint256","internalType":"uint256"}],"stateMutability":"nonpayable"},{"type":"function","name":"faucet","inputs":[{"name":"amount","type":"uint256","internalType":"uint256"}],"outputs":[],"stateMutability":"nonpayable"},{"type":"function","name":"finalizeResidual","inputs":[{"name":"id","type":"uint256","internalType":"uint256"}],"outputs":[],"stateMutability":"nonpayable"},{"type":"function","name":"getMarketResolution","inputs":[{"name":"id","type":"uint256","internalType":"uint256"}],"outputs":[{"name":"","type":"tuple","internalType":"struct SpeculateCore.ResolutionConfig","components":[{"name":"expiryTimestamp","type":"uint256","internalType":"uint256"},{"name":"oracleType","type":"uint8","internalType":"enum SpeculateCore.OracleType"},{"name":"oracleAddress","type":"address","internalType":"address"},{"name":"priceFeedId","type":"bytes32","internalType":"bytes32"},{"name":"targetValue","type":"uint256","internalType":"uint256"},{"name":"comparison","type":"uint8","internalType":"enum SpeculateCore.Comparison"},{"name":"yesWins","type":"bool","internalType":"bool"},{"name":"isResolved","type":"bool","internalType":"bool"}]}],"stateMutability":"view"},{"type":"function","name":"getMarketState","inputs":[{"name":"id","type":"uint256","internalType":"uint256"}],"outputs":[{"name":"qYes","type":"uint256","internalType":"uint256"},{"name":"qNo","type":"uint256","internalType":"uint256"},{"name":"vault","type":"uint256","internalType":"uint256"},{"name":"b","type":"uint256","internalType":"uint256"},{"name":"pYesE6","type":"uint256","internalType":"uint256"}],"stateMutability":"view"},{"type":"function","name":"getRoleAdmin","inputs":[{"name":"role","type":"bytes32","internalType":"bytes32"}],"outputs":[{"name":"","type":"bytes32","internalType":"bytes32"}],"stateMutability":"view"},{"type":"function","name":"grantRole","inputs":[{"name":"role","type":"bytes32","internalType":"bytes32"},{"name":"account","type":"address","internalType":"address"}],"outputs":[],"stateMutability":"nonpayable"},{"type":"function","name":"hasRole","inputs":[{"name":"role","type":"bytes32","internalType":"bytes32"},{"name":"account","type":"address","internalType":"address"}],"outputs":[{"name":"","type":"bool","internalType":"bool"}],"stateMutability":"view"},{"type":"function","name":"invariantUsdc","inputs":[{"name":"id","type":"uint256","internalType":"uint256"}],"outputs":[{"name":"","type":"uint256","internalType":"uint256"}],"stateMutability":"view"},{"type":"function","name":"liabilityE6","inputs":[{"name":"id","type":"uint256","internalType":"uint256"}],"outputs":[{"name":"","type":"uint256","internalType":"uint256"}],"stateMutability":"view"},{"type":"function","name":"liquidityMultiplierE18","inputs":[],"outputs":[{"name":"","type":"uint256","internalType":"uint256"}],"stateMutability":"view"},{"type":"function","name":"lpFeeDebt","inputs":[{"name":"","type":"uint256","internalType":"uint256"},{"name":"","type":"address","internalType":"address"}],"outputs":[{"name":"","type":"uint256","internalType":"uint256"}],"stateMutability":"view"},{"type":"function","name":"lpResidualDebt","inputs":[{"name":"","type":"uint256","internalType":"uint256"},{"name":"","type":"address","internalType":"address"}],"outputs":[{"name":"","type":"uint256","internalType":"uint256"}],"stateMutability":"view"},{"type":"function","name":"lpResidualUSDC","inputs":[{"name":"","type":"uint256","internalType":"uint256"}],"outputs":[{"name":"","type":"uint256","internalType":"uint256"}],"stateMutability":"view"},{"type":"function","name":"lpShares","inputs":[{"name":"","type":"uint256","internalType":"uint256"},{"name":"","type":"address","internalType":"address"}],"outputs":[{"name":"","type":"uint256","internalType":"uint256"}],"stateMutability":"view"},{"type":"function","name":"marketCount","inputs":[],"outputs":[{"name":"","type":"uint256","internalType":"uint256"}],"stateMutability":"view"},{"type":"function","name":"markets","inputs":[{"name":"","type":"uint256","internalType":"uint256"}],"outputs":[{"name":"yes","type":"address","internalType":"contract PositionToken"},{"name":"no","type":"address","internalType":"contract PositionToken"},{"name":"qYes","type":"uint256","internalType":"uint256"},{"name":"qNo","type":"uint256","internalType":"uint256"},{"name":"bE18","type":"uint256","internalType":"uint256"},{"name":"usdcVault","type":"uint256","internalType":"uint256"},{"name":"feeTreasuryBps","type":"uint16","internalType":"uint16"},{"name":"feeVaultBps","type":"uint16","internalType":"uint16"},{"name":"feeLpBps","type":"uint16","internalType":"uint16"},{"name":"status","type":"uint8","internalType":"enum SpeculateCore.MarketStatus"},{"name":"question","type":"string","internalType":"string"},{"name":"lp","type":"address","internalType":"address"},{"name":"resolution","type":"tuple","internalType":"struct SpeculateCore.ResolutionConfig","components":[{"name":"expiryTimestamp","type":"uint256","internalType":"uint256"},{"name":"oracleType","type":"uint8","internalType":"enum SpeculateCore.OracleType"},{"name":"oracleAddress","type":"address","internalType":"address"},{"name":"priceFeedId","type":"bytes32","internalType":"bytes32"},{"name":"targetValue","type":"uint256","internalType":"uint256"},{"name":"comparison","type":"uint8","internalType":"enum SpeculateCore.Comparison"},{"name":"yesWins","type":"bool","internalType":"bool"},{"name":"isResolved","type":"bool","internalType":"bool"}]},{"name":"totalLpUsdc","type":"uint256","internalType":"uint256"},{"name":"lpFeesUSDC","type":"uint256","internalType":"uint256"},{"name":"maxUsdcPerTrade","type":"uint256","internalType":"uint256"},{"name":"priceBandThreshold","type":"uint256","internalType":"uint256"},{"name":"maxJumpE18","type":"uint256","internalType":"uint256"}],"stateMutability":"view"},{"type":"function","name":"maxInstantJumpE18","inputs":[],"outputs":[{"name":"","type":"uint256","internalType":"uint256"}],"stateMutability":"view"},{"type":"function","name":"maxUsdcBeforeJump","inputs":[{"name":"id","type":"uint256","internalType":"uint256"},{"name":"isYes","type":"bool","internalType":"bool"}],"outputs":[{"name":"maxUsdcE6","type":"uint256","internalType":"uint256"}],"stateMutability":"view"},{"type":"function","name":"pause","inputs":[],"outputs":[],"stateMutability":"nonpayable"},{"type":"function","name":"paused","inputs":[],"outputs":[{"name":"","type":"bool","internalType":"bool"}],"stateMutability":"view"},{"type":"function","name":"pendingLpFees","inputs":[{"name":"id","type":"uint256","internalType":"uint256"},{"name":"lp","type":"address","internalType":"address"}],"outputs":[{"name":"","type":"uint256","internalType":"uint256"}],"stateMutability":"view"},{"type":"function","name":"pendingLpResidual","inputs":[{"name":"id","type":"uint256","internalType":"uint256"},{"name":"lp","type":"address","internalType":"address"}],"outputs":[{"name":"","type":"uint256","internalType":"uint256"}],"stateMutability":"view"},{"type":"function","name":"redeem","inputs":[{"name":"id","type":"uint256","internalType":"uint256"},{"name":"isYes","type":"bool","internalType":"bool"}],"outputs":[],"stateMutability":"nonpayable"},{"type":"function","name":"renounceRole","inputs":[{"name":"role","type":"bytes32","internalType":"bytes32"},{"name":"callerConfirmation","type":"address","internalType":"address"}],"outputs":[],"stateMutability":"nonpayable"},{"type":"function","name":"resolveMarket","inputs":[{"name":"id","type":"uint256","internalType":"uint256"},{"name":"yesWins","type":"bool","internalType":"bool"}],"outputs":[],"stateMutability":"nonpayable"},{"type":"function","name":"resolveMarketWithPrice","inputs":[{"name":"id","type":"uint256","internalType":"uint256"},{"name":"price","type":"uint256","internalType":"uint256"}],"outputs":[],"stateMutability":"nonpayable"},{"type":"function","name":"resolveWithFeed","inputs":[{"name":"id","type":"uint256","internalType":"uint256"}],"outputs":[],"stateMutability":"nonpayable"},{"type":"function","name":"revokeRole","inputs":[{"name":"role","type":"bytes32","internalType":"bytes32"},{"name":"account","type":"address","internalType":"address"}],"outputs":[],"stateMutability":"nonpayable"},{"type":"function","name":"sellNo","inputs":[{"name":"id","type":"uint256","internalType":"uint256"},{"name":"tokensIn","type":"uint256","internalType":"uint256"},{"name":"minOut","type":"uint256","internalType":"uint256"}],"outputs":[],"stateMutability":"nonpayable"},{"type":"function","name":"sellYes","inputs":[{"name":"id","type":"uint256","internalType":"uint256"},{"name":"tokensIn","type":"uint256","internalType":"uint256"},{"name":"minOut","type":"uint256","internalType":"uint256"}],"outputs":[],"stateMutability":"nonpayable"},{"type":"function","name":"setChainlinkResolver","inputs":[{"name":"a","type":"address","internalType":"address"}],"outputs":[],"stateMutability":"nonpayable"},{"type":"function","name":"setFeesBps","inputs":[{"name":"id","type":"uint256","internalType":"uint256"},{"name":"feeT","type":"uint16","internalType":"uint16"},{"name":"feeV","type":"uint16","internalType":"uint16"},{"name":"feeL","type":"uint16","internalType":"uint16"}],"outputs":[],"stateMutability":"nonpayable"},{"type":"function","name":"setLiquidityMultiplier","inputs":[{"name":"x","type":"uint256","internalType":"uint256"}],"outputs":[],"stateMutability":"nonpayable"},{"type":"function","name":"setMarketMaxInstantJump","inputs":[{"name":"id","type":"uint256","internalType":"uint256"},{"name":"vE18","type":"uint256","internalType":"uint256"}],"outputs":[],"stateMutability":"nonpayable"},{"type":"function","name":"setMaxInstantJump","inputs":[{"name":"vE18","type":"uint256","internalType":"uint256"}],"outputs":[],"stateMutability":"nonpayable"},{"type":"function","name":"setMaxUsdcPerTrade","inputs":[{"name":"id","type":"uint256","internalType":"uint256"},{"name":"v","type":"uint256","internalType":"uint256"}],"outputs":[],"stateMutability":"nonpayable"},{"type":"function","name":"setPriceBandThreshold","inputs":[{"name":"id","type":"uint256","internalType":"uint256"},{"name":"v","type":"uint256","internalType":"uint256"}],"outputs":[],"stateMutability":"nonpayable"},{"type":"function","name":"setPriceFeedId","inputs":[{"name":"id","type":"uint256","internalType":"uint256"},{"name":"feedId","type":"bytes32","internalType":"bytes32"}],"outputs":[],"stateMutability":"nonpayable"},{"type":"function","name":"setTreasury","inputs":[{"name":"a","type":"address","internalType":"address"}],"outputs":[],"stateMutability":"nonpayable"},{"type":"function","name":"spotPriceNoE6","inputs":[{"name":"id","type":"uint256","internalType":"uint256"}],"outputs":[{"name":"","type":"uint256","internalType":"uint256"}],"stateMutability":"view"},{"type":"function","name":"spotPriceYesE18","inputs":[{"name":"id","type":"uint256","internalType":"uint256"}],"outputs":[{"name":"","type":"uint256","internalType":"uint256"}],"stateMutability":"view"},{"type":"function","name":"spotPriceYesE6","inputs":[{"name":"id","type":"uint256","internalType":"uint256"}],"outputs":[{"name":"","type":"uint256","internalType":"uint256"}],"stateMutability":"view"},{"type":"function","name":"supportsInterface","inputs":[{"name":"interfaceId","type":"bytes4","internalType":"bytes4"}],"outputs":[{"name":"","type":"bool","internalType":"bool"}],"stateMutability":"view"},{"type":"function","name":"sweepDust","inputs":[{"name":"id","type":"uint256","internalType":"uint256"},{"name":"to","type":"address","internalType":"address"},{"name":"amount","type":"uint256","internalType":"uint256"}],"outputs":[],"stateMutability":"nonpayable"},{"type":"function","name":"topUpVault","inputs":[{"name":"id","type":"uint256","internalType":"uint256"},{"name":"amount","type":"uint256","internalType":"uint256"}],"outputs":[],"stateMutability":"nonpayable"},{"type":"function","name":"treasury","inputs":[],"outputs":[{"name":"","type":"address","internalType":"address"}],"stateMutability":"view"},{"type":"function","name":"unpause","inputs":[],"outputs":[],"stateMutability":"nonpayable"},{"type":"function","name":"usdc","inputs":[],"outputs":[{"name":"","type":"address","internalType":"contract IERC20"}],"stateMutability":"view"},{"type":"event","name":"Buy","inputs":[{"name":"id","type":"uint256","indexed":true,"internalType":"uint256"},{"name":"user","type":"address","indexed":true,"internalType":"address"},{"name":"isYes","type":"bool","indexed":false,"internalType":"bool"},{"name":"usdcIn","type":"uint256","indexed":false,"internalType":"uint256"},{"name":"tokensOut","type":"uint256","indexed":false,"internalType":"uint256"},{"name":"priceE6","type":"uint256","indexed":false,"internalType":"uint256"}],"anonymous":false},{"type":"event","name":"ChainlinkResolverSet","inputs":[{"name":"oldResolver","type":"address","indexed":true,"internalType":"address"},{"name":"newResolver","type":"address","indexed":true,"internalType":"address"}],"anonymous":false},{"type":"event","name":"DustSwept","inputs":[{"name":"id","type":"uint256","indexed":true,"internalType":"uint256"},{"name":"to","type":"address","indexed":true,"internalType":"address"},{"name":"amount","type":"uint256","indexed":false,"internalType":"uint256"}],"anonymous":false},{"type":"event","name":"FeesUpdated","inputs":[{"name":"id","type":"uint256","indexed":true,"internalType":"uint256"},{"name":"feeTreasuryBps","type":"uint16","indexed":false,"internalType":"uint16"},{"name":"feeVaultBps","type":"uint16","indexed":false,"internalType":"uint16"},{"name":"feeLpBps","type":"uint16","indexed":false,"internalType":"uint16"}],"anonymous":false},{"type":"event","name":"LiquidityAdded","inputs":[{"name":"id","type":"uint256","indexed":true,"internalType":"uint256"},{"name":"lp","type":"address","indexed":true,"internalType":"address"},{"name":"usdcAdd","type":"uint256","indexed":false,"internalType":"uint256"}],"anonymous":false},{"type":"event","name":"LiquidityMultiplierSet","inputs":[{"name":"oldMultiplier","type":"uint256","indexed":false,"internalType":"uint256"},{"name":"newMultiplier","type":"uint256","indexed":false,"internalType":"uint256"}],"anonymous":false},{"type":"event","name":"LiquidityParameterUpdated","inputs":[{"name":"id","type":"uint256","indexed":true,"internalType":"uint256"},{"name":"newBE18","type":"uint256","indexed":false,"internalType":"uint256"},{"name":"totalLpUsdc","type":"uint256","indexed":false,"internalType":"uint256"}],"anonymous":false},{"type":"event","name":"LpFeesClaimed","inputs":[{"name":"id","type":"uint256","indexed":true,"internalType":"uint256"},{"name":"lp","type":"address","indexed":true,"internalType":"address"},{"name":"amount","type":"uint256","indexed":false,"internalType":"uint256"}],"anonymous":false},{"type":"event","name":"LpResidualClaimed","inputs":[{"name":"id","type":"uint256","indexed":true,"internalType":"uint256"},{"name":"lp","type":"address","indexed":true,"internalType":"address"},{"name":"amount","type":"uint256","indexed":false,"internalType":"uint256"}],"anonymous":false},{"type":"event","name":"MarketCreated","inputs":[{"name":"id","type":"uint256","indexed":true,"internalType":"uint256"},{"name":"yes","type":"address","indexed":false,"internalType":"address"},{"name":"no","type":"address","indexed":false,"internalType":"address"},{"name":"question","type":"string","indexed":false,"internalType":"string"},{"name":"initUsdc","type":"uint256","indexed":false,"internalType":"uint256"},{"name":"expiryTimestamp","type":"uint256","indexed":false,"internalType":"uint256"}],"anonymous":false},{"type":"event","name":"MarketMaxInstantJumpSet","inputs":[{"name":"id","type":"uint256","indexed":true,"internalType":"uint256"},{"name":"oldJump","type":"uint256","indexed":false,"internalType":"uint256"},{"name":"newJump","type":"uint256","indexed":false,"internalType":"uint256"}],"anonymous":false},{"type":"event","name":"MarketResolved","inputs":[{"name":"id","type":"uint256","indexed":true,"internalType":"uint256"},{"name":"yesWins","type":"bool","indexed":false,"internalType":"bool"}],"anonymous":false},{"type":"event","name":"MaxInstantJumpSet","inputs":[{"name":"oldJump","type":"uint256","indexed":false,"internalType":"uint256"},{"name":"newJump","type":"uint256","indexed":false,"internalType":"uint256"}],"anonymous":false},{"type":"event","name":"MaxUsdcPerTradeSet","inputs":[{"name":"id","type":"uint256","indexed":true,"internalType":"uint256"},{"name":"oldMax","type":"uint256","indexed":false,"internalType":"uint256"},{"name":"newMax","type":"uint256","indexed":false,"internalType":"uint256"}],"anonymous":false},{"type":"event","name":"Paused","inputs":[{"name":"account","type":"address","indexed":false,"internalType":"address"}],"anonymous":false},{"type":"event","name":"PriceBandThresholdSet","inputs":[{"name":"id","type":"uint256","indexed":true,"internalType":"uint256"},{"name":"oldThreshold","type":"uint256","indexed":false,"internalType":"uint256"},{"name":"newThreshold","type":"uint256","indexed":false,"internalType":"uint256"}],"anonymous":false},{"type":"event","name":"PriceFeedIdSet","inputs":[{"name":"id","type":"uint256","indexed":true,"internalType":"uint256"},{"name":"oldFeedId","type":"bytes32","indexed":false,"internalType":"bytes32"},{"name":"newFeedId","type":"bytes32","indexed":false,"internalType":"bytes32"}],"anonymous":false},{"type":"event","name":"Redeemed","inputs":[{"name":"id","type":"uint256","indexed":true,"internalType":"uint256"},{"name":"user","type":"address","indexed":true,"internalType":"address"},{"name":"usdcOut","type":"uint256","indexed":false,"internalType":"uint256"}],"anonymous":false},{"type":"event","name":"ResidualFinalized","inputs":[{"name":"id","type":"uint256","indexed":true,"internalType":"uint256"},{"name":"amountIndexed","type":"uint256","indexed":false,"internalType":"uint256"},{"name":"totalLp","type":"uint256","indexed":false,"internalType":"uint256"}],"anonymous":false},{"type":"event","name":"RoleAdminChanged","inputs":[{"name":"role","type":"bytes32","indexed":true,"internalType":"bytes32"},{"name":"previousAdminRole","type":"bytes32","indexed":true,"internalType":"bytes32"},{"name":"newAdminRole","type":"bytes32","indexed":true,"internalType":"bytes32"}],"anonymous":false},{"type":"event","name":"RoleGranted","inputs":[{"name":"role","type":"bytes32","indexed":true,"internalType":"bytes32"},{"name":"account","type":"address","indexed":true,"internalType":"address"},{"name":"sender","type":"address","indexed":true,"internalType":"address"}],"anonymous":false},{"type":"event","name":"RoleRevoked","inputs":[{"name":"role","type":"bytes32","indexed":true,"internalType":"bytes32"},{"name":"account","type":"address","indexed":true,"internalType":"address"},{"name":"sender","type":"address","indexed":true,"internalType":"address"}],"anonymous":false},{"type":"event","name":"Sell","inputs":[{"name":"id","type":"uint256","indexed":true,"internalType":"uint256"},{"name":"user","type":"address","indexed":true,"internalType":"address"},{"name":"isYes","type":"bool","indexed":false,"internalType":"bool"},{"name":"tokensIn","type":"uint256","indexed":false,"internalType":"uint256"},{"name":"usdcOut","type":"uint256","indexed":false,"internalType":"uint256"},{"name":"priceE6","type":"uint256","indexed":false,"internalType":"uint256"}],"anonymous":false},{"type":"event","name":"TreasurySet","inputs":[{"name":"oldTreasury","type":"address","indexed":true,"internalType":"address"},{"name":"newTreasury","type":"address","indexed":true,"internalType":"address"}],"anonymous":false},{"type":"event","name":"Unpaused","inputs":[{"name":"account","type":"address","indexed":false,"internalType":"address"}],"anonymous":false},{"type":"event","name":"VaultTopUp","inputs":[{"name":"id","type":"uint256","indexed":true,"internalType":"uint256"},{"name":"amount","type":"uint256","indexed":false,"internalType":"uint256"}],"anonymous":false},{"type":"error","name":"AccessControlBadConfirmation","inputs":[]},{"type":"error","name":"AccessControlUnauthorizedAccount","inputs":[{"name":"account","type":"address","internalType":"address"},{"name":"neededRole","type":"bytes32","internalType":"bytes32"}]},{"type":"error","name":"AlreadyResolved","inputs":[]},{"type":"error","name":"BackingInsufficient","inputs":[]},{"type":"error","name":"DustAmount","inputs":[]},{"type":"error","name":"EarlyResolution","inputs":[]},{"type":"error","name":"EnforcedPause","inputs":[]},{"type":"error","name":"ExpectedPause","inputs":[]},{"type":"error","name":"InsufficientBalance","inputs":[]},{"type":"error","name":"InsufficientLiquidity","inputs":[]},{"type":"error","name":"InsufficientSeed","inputs":[]},{"type":"error","name":"InvalidExpiry","inputs":[]},{"type":"error","name":"InvalidMarket","inputs":[]},{"type":"error","name":"InvalidOracle","inputs":[]},{"type":"error","name":"MarketExpired","inputs":[]},{"type":"error","name":"MarketNotActive","inputs":[]},{"type":"error","name":"MaxTradeExceeded","inputs":[]},{"type":"error","name":"NegativePrice","inputs":[]},{"type":"error","name":"NoLiquidity","inputs":[]},{"type":"error","name":"PriceJumpTooLarge","inputs":[{"name":"currentE18","type":"uint256","internalType":"uint256"},{"name":"newE18","type":"uint256","internalType":"uint256"},{"name":"maxJumpE18","type":"uint256","internalType":"uint256"}]},{"type":"error","name":"ReentrancyGuardReentrantCall","inputs":[]},{"type":"error","name":"SafeERC20FailedOperation","inputs":[{"name":"token","type":"address","internalType":"address"}]},{"type":"error","name":"SlippageExceeded","inputs":[]},{"type":"error","name":"SolvencyIssue","inputs":[]},{"type":"error","name":"StalePrice","inputs":[]},{"type":"error","name":"ZeroAddress","inputs":[]},{"type":"error","name":"ZeroPrice","inputs":[]}],"bytecode":{"object":"0x60a0346200015f57601f620062bc38819003918201601f19168301916001600160401b03831184841017620001635780849260409485528339810103126200015f576200005a6020620000528362000177565b920162000177565b60018055670de0b6b3a7640000600455670214e8348c4f0000600555906001600160a01b0390811690811590811562000153575b50620001415760805260028054610100600160a81b03191660089290921b610100600160a81b0316919091179055620000c7336200018c565b50620000d333620001fc565b50604051615fdf90816200029d823960805181818161048201528181610c39015281816111240152818161149c015281816120f8015281816122110152818161280f01528181612d6a0152818161341c0152818161355401528181613917015281816141c601526142f10152f35b60405163d92e233d60e01b8152600490fd5b90508216155f6200008e565b5f80fd5b634e487b7160e01b5f52604160045260245ffd5b51906001600160a01b03821682036200015f57565b6001600160a01b03165f8181525f805160206200629c833981519152602052604090205460ff16620001f7575f8181525f805160206200629c83398151915260205260408120805460ff191660011790553391905f805160206200627c8339815191528180a4600190565b505f90565b6001600160a01b03165f8181527f2412b2af58bf3b93d578a423d333d33fb94fb5093f9cda1aed2eaafb3215f92960205260409020547fd3065a24ad9e7725d223007135762d2902038999e3e5829146654498a58d9795919060ff166200029657815f525f60205260405f20815f5260205260405f20600160ff1982541617905533915f805160206200627c8339815191525f80a4600190565b50505f9056fe608080604052600436101562000013575f80fd5b5f905f3560e01c9081630199a8771462003ac65750806301ffc9a71462003a6b5780630e325fb51462003a0957806316fe69291462003784578063232e45d71462003708578063248a9ca314620036da57806326cace8414620036735780632ed13b7814620036545780632f2ff15d1462003610578063328a0d2e14620035f257806336568abe14620035a2578063390c51f114620035835780633e413bee146200353d5780633f4ba83a14620034cf57806343abd9ea14620034ae5780634cded88d146200333a5780634ce7ee3414620033165780634dbe869714620032f85780634f6ac03714620032cc57806356c8d23d146200288d5780635791589714620027f857806357bde446146200274d5780635c975abb146200272857806361d027b314620026f95780636aa083b914620026b05780636ad6c254146200268d5780636bcbb8a514620026445780637b4e747014620020935780637f8a3f8c14620026195780638456cb5914620025b8578063866fdc431462002543578063878cb21114620024c657806388b1f1c314620024465780638a97700e14620024185780638e28d9e014620023eb57806391d14854146200239e57806399406c9b14620023735780639cd441da14620021ae5780639da4f13d14620021825780639f29c18f1462002155578063a217fddf1462002137578063a6ef3bd11462002099578063a6f57be31462002093578063a7918a651462002015578063aa93f4621462001ff3578063ae42820c1462001fc8578063b1283e771462001ddc578063b4fb88b71462001d99578063b7a8d60e1462001d67578063bad260f51462001cf0578063bd17dab41462001c8c578063c11951281462001c19578063cab7cde91462001a7a578063cd2335121462001754578063cde0d59d1462001704578063d105e1c614620016e4578063d547741f146200169b578063d65a06b014620012bf578063dd7dc9a914620012a1578063dfe0662a146200126f578063dffad4e21462000f90578063e72012a71462000f64578063ea1758941462000b70578063ec9790821462000b50578063f0f442601462000ab6578063f6efac461462000a8f578063f7d334ba1462000999578063f95c9a751462000862578063fb27260b14620003b25763ffe2a9451462000367575f80fd5b34620003af576040366003190112620003af5760406200038662003ba0565b916004358152600a602052209060018060a01b03165f52602052602060405f2054604051908152f35b80fd5b5034620003af57620003c43662003af8565b620003d192919262004676565b620003db6200469a565b5f825f52600660205260405f2060068101549260ff8460301c16620004008162003b13565b620008505760098201544210156200083e576010820154801562000831575b86116200081f5761ffff936127106200046181620004408885168b62003e3b565b04968262000454828660101c168c62003e3b565b049360201c168962003e3b565b04906200047f826200047983620004798a8d62003dd6565b62003dd6565b957f000000000000000000000000000000000000000000000000000000000000000090620004b08a303385620047eb565b80620007f9575b505080620007df575b508015801562000767575b505060058201620004de85825462003dc8565b80915564e8d4a510009384860295808704861490151715620006965760028401938454936003820193845460048401966200051e8854809c848462004920565b9a60648c1062000755578b908360118801548610620006b2575b5050620005459162003dc8565b9080821115620006aa57505b620f4240908181029181830414901517156200069657670de0b6b3a7640000900411620006845787106200067257546001600160a01b0316803b156200066e575f60405180926340c10f1960e01b8252818381620005b48d336004840162003ea0565b03925af1801562000663576200064f575b50620005d386855462003dc8565b809455848802908882048614891517156200063b575090620005fc866200060795949362003e7d565b505490549162004846565b049060405193600185526020850152604084015260608301525f8051602062005f5f83398151915260803393a36001805580f35b634e487b7160e01b81526011600452602490fd5b6200065b915062003beb565b5f80620005c5565b6040513d5f823e3d90fd5b5f80fd5b604051638199f5f360e01b8152600490fd5b60405163640feb3560e01b8152600490fd5b634e487b7160e01b5f52601160045260245ffd5b905062000551565b81620006cf91620006c9620006d894958762003dc8565b62004846565b91848462004846565b818111156200074357620006ed828262003dd6565b60128801548015620007375780915b116200070d57508c91508362000538565b60405163edcc60a360e01b8152600481019290925260248201929092526044810191909152606490fd5b506005548091620006fc565b6200074f818362003dd6565b620006ed565b604051631d25e4d760e01b8152600490fd5b600e8401548015620007cd57670de0b6b3a764000091828402928484041417156200069657620007979162003e7d565b865f526009602052620007b060405f2091825462003dc8565b9055620007c3600f840191825462003dc8565b90555f80620004cb565b604051636180f03f60e11b8152600490fd5b620007f06005850191825462003dc8565b90555f620004c0565b600254620008179260089190911c6001600160a01b031690620047a9565b5f80620004b7565b604051630133125960e61b8152600490fd5b5064174876e8006200041f565b60405163b2094b5960e01b8152600490fd5b604051635a90bb8d60e11b8152600490fd5b5034620003af576080366003190112620003af5760043560243561ffff908181168091036200066e57604435908282168083036200066e57606435938416908185036200066e57620008b3620045df565b85875260066020526040872080549094906001600160a01b031615620009875760c8841180156200097c575b801562000971575b6200066e5761012c620009068462000900858862003dc8565b62003dc8565b116200066e577f96f6e64475e77381d9b9f024b6dd339c667164528b670f75b588b9c53555eeee956006606096019163ffff00008684549361ffff60201b9060201b169365ffffffffffff1916179160101b161717905560405192835260208301526040820152a280f35b5060c88311620008e7565b5060c88211620008df565b604051639db8d5b160e01b8152600490fd5b5034620003af576020366003190112620003af576040600435918281526006602052209060ff600683015460301c16620009d38162003b13565b15918262000a7b575b8262000a6b575b8262000a4c575b50604080516020808201939093529182528101916001600160401b0383118284101762000a3857826040521515825260406060820152603f199062000a33608082018262003d88565b030190f35b634e487b7160e01b5f52604160045260245ffd5b60ff919250600a01541662000a618162003b13565b1515905f620009ea565b60098101544210159250620009e3565b600d81015460101c60ff16159250620009dc565b5034620003af57602062000aae62000aa73662003c7d565b906200437e565b604051908152f35b5034620003af576020366003190112620003af5762000ad462003bb7565b62000ade620045df565b6001600160a01b0381811691821562000b3e5760028054610100600160a81b03198116600893841b610100600160a81b031617909155901c167f21eb548722a564f6e09f039f7aa858ae94c911910f3823b37af2250eeca4f4038380a380f35b60405163d92e233d60e01b8152600490fd5b5034620003af5780600319360112620003af576020600754604051908152f35b5034620003af5762000b823662003af8565b919062000b8e62004676565b62000b986200469a565b815f52600660205260405f209060068201549160ff8360301c1662000bbd8162003b13565b620008505760098101544210156200083e576010810154801562000f57575b82116200081f5761ffff9261271062000c1e8162000bfd8785168762003e3b565b04958262000c11828660101c168862003e3b565b049360201c168562003e3b565b049062000c3682620004798362000479898962003dd6565b947f00000000000000000000000000000000000000000000000000000000000000009062000c6786303385620047eb565b8062000f31575b50508062000f17575b508015801562000eb1575b5050600581019462000c9684875462003dc8565b80965564e8d4a51000918285029480860484149015171562000696575f96600382019182549360028201928354600484019662000cd88854809c848462004920565b9a60648c1062000755578b906011870154851062000e39575b5062000cfd9162003dc8565b8082111562000e3157505b620f4240908181029181830414901517156200069657670de0b6b3a7640000900411620006845787106200067257600101546001600160a01b0316803b156200066e575f60405180926340c10f1960e01b825281838162000d6e8d336004840162003ea0565b03925af18015620006635762000e1b575b5062000d8d86835462003dc8565b80925583850285810485148615171562000e0757928695949262000dd59262000dca5f8051602062005f5f8339815191529962000dfd9762003e7d565b505491549162004846565b0460405193849333988590949392606092608083019615158352602083015260408201520152565b0390a36001805580f35b634e487b7160e01b89526011600452602489fd5b62000e2891985062003beb565b5f965f62000d7f565b905062000d08565b9062000e568262000e4f62000e5f938662003dc8565b8662004846565b91838562004846565b8181111562000e9f5762000e74828262003dd6565b6012880154801562000e935780915b116200070d57508c915062000cf1565b50600554809162000e83565b62000eab818362003dd6565b62000e74565b600e8301548015620007cd57670de0b6b3a76400009182840292848404141715620006965762000ee19162003e7d565b855f52600960205262000efa60405f2091825462003dc8565b905562000f0d600f830191825462003dc8565b90555f8062000c82565b62000f286005840191825462003dc8565b90555f62000c77565b60025462000f4f9260089190911c6001600160a01b031690620047a9565b5f8062000c6e565b5064174876e80062000bdc565b5034620003af576020366003190112620003af5760406020916004358152600b83522054604051908152f35b5034620003af5762000fa23662003af8565b62000faf92919262004676565b62000fb96200469a565b5f825f52600660205260405f209060ff600683015460301c1662000fdd8162003b13565b620008505760648510620007555760028201548086116200125d5760038301549360048401549164e8d4a510006200103b8962001034868a6200102e6200102683838a620049ff565b948862003dd6565b620049ff565b9062003dd6565b04956005860154938488116200124b57620010578a8462003dd6565b91808311156200124457825b620f4240908181029181830414901517156200069657670de0b6b3a76400009004620010908a8862003dd6565b10620006845760118801548610620011dd575b505050508410620006725783620010ba9162003dd6565b600583015581546001600160a01b0316803b156200066e575f6040518092632770a7eb60e21b8252818381620010f58c336004840162003ea0565b03925af180156200066357620011c9575b506200111785600284015462003dd6565b60028301556200114983337f0000000000000000000000000000000000000000000000000000000000000000620047a9565b64e8d4a5100083029083820464e8d4a5100014841517156200063b575064e8d4a51000916200117d86620011959362003e7d565b50600281015490600460038201549101549162004846565b049060405193600185526020850152604084015260608301525f8051602062005f7f83398151915260803393a36001805580f35b620011d5915062003beb565b5f8062001106565b620011ee8282620011f59562004846565b9362004846565b8181111562001232576200120a828262003dd6565b60128701548015620012265780915b116200070d5780620010a3565b50600554809162001219565b6200123e818362003dd6565b6200120a565b8062001063565b604051632071487960e11b8152600490fd5b604051631e9acf1760e31b8152600490fd5b5034620003af576020366003190112620003af57602064e8d4a510006200129860043562003ebb565b04604051908152f35b5034620003af5780600319360112620003af57602060405160648152f35b5034620003af57620012d13662003c7d565b620012db62004676565b620012e56200469a565b81835260209160068352604084209160ff600684015460301c16936200130b8562003b13565b600180951480159062001688575b620008505760ff600d85015460081c16151582151503620014e7578115620016115783546040516370a0823160e01b8152336004820152908290829060249082906001600160a01b03165afa90811562001606578791620015d3575b50915b82156200125d578015620015625784546040516318160ddd60e01b8152908390829060049082906001600160a01b03165afa9081156200155757889162001524575b50925b83156200152057620f42409586820282810488036200150c57670de0b6b3a76400008091049788156200075557808702968704036200150c576005820195048554106200125d57889215620014fa57546001600160a01b03165b6001600160a01b0316803b15620014f657604051632770a7eb60e21b815291839183918290849082906200145090336004840162003ea0565b03925af18015620014eb57620014cf575b50508162001492857fa18626381edd3d7a115c4a09f678bb79665034a541affcdba9fe65a1d3d107ee945462003dd6565b9055620014c184337f0000000000000000000000000000000000000000000000000000000000000000620047a9565b6040519384523393a3805580f35b620014da9062003beb565b620014e757855f62001461565b8580fd5b6040513d84823e3d90fd5b8280fd5b8701546001600160a01b031662001417565b634e487b7160e01b8a52601160045260248afd5b8780fd5b90508281813d83116200154f575b6200153e818362003bff565b810103126200066e57515f620013ba565b503d62001532565b6040513d8a823e3d90fd5b848601546040516318160ddd60e01b8152908390829060049082906001600160a01b03165afa90811562001557578891620015a0575b5092620013bd565b90508281813d8311620015cb575b620015ba818362003bff565b810103126200066e57515f62001598565b503d620015ae565b90508181813d8311620015fe575b620015ed818362003bff565b810103126200066e57515f62001375565b503d620015e1565b6040513d89823e3d90fd5b838501546040516370a0823160e01b8152336004820152908290829060249082906001600160a01b03165afa9081156200160657879162001655575b509162001378565b90508181813d831162001680575b6200166f818362003bff565b810103126200066e57515f6200164d565b503d62001663565b5060ff600d85015460101c161562001319565b5034620003af576040366003190112620003af57620016e0600435620016c062003ba0565b9080845283602052620016da600160408620015462004636565b62004736565b5080f35b5034620003af5780600319360112620003af576020600454604051908152f35b5034620003af576020366003190112620003af5762000aae6020916040600435918281526006855262001744828220600f60058201549101549062003dc8565b928152600d855220549062003dc8565b5034620003af5760208060031936011262001a765760043590818352600681526009604084200154421062001a64578183526006815260408320600d810190815460ff90818160101c1662001a5257600a83015460081c6001600160a01b0316801562001a4057604051633fabe5a360e21b81529060a082600481845afa8015620019b45789928a91620019e3575b5089831315620019d157620017fc610e10914262003dd6565b1015620019bf57866004916040519283809263313ce56760e01b82525afa8015620019b45784918a916200196f575b50166008811115620019365760071901908382116200069657620018536200185a926200436c565b9062003e7d565b600c8401549081811115620018db575050166003811015620018c7575f8051602062005f1f83398151915293929160069115925b6200189a848262003e88565b805462ff000019166201000017905501805460ff60301b1916600160301b1790556040519015158152a280f35b634e487b7160e01b86526021600452602486fd5b10156200190c57166003811015620018c7575f8051602062005f1f833981519152939291600160069214926200188e565b166003811015620018c7575f8051602062005f1f833981519152939291600260069214926200188e565b600881101562001968576008039083821162000696576200195b62001962926200436c565b9062003e3b565b6200185a565b506200185a565b809250888092503d8311620019ac575b6200198b818362003bff565b81010312620019a857518381168103620019a85783905f6200182b565b8880fd5b503d6200197f565b6040513d8b823e3d90fd5b604051630cd5fa0760e11b8152600490fd5b6040516330e53b6960e11b8152600490fd5b92505060a0823d60a01162001a37575b8162001a0260a0938362003bff565b81010312620019a85762001a168262004357565b508682015162001a2e60806060850151940162004357565b50915f620017e3565b3d9150620019f3565b604051639589a27d60e01b8152600490fd5b6040516336ab81e160e11b8152600490fd5b60405163fe7c2d6560e01b8152600490fd5b5080fd5b5034620003af5762001a8c3662003ae1565b6003546001600160a01b03163314158062001bf8575b620014f65781835260068060205260ff8160408620015460301c1662001ac88162003b13565b158062001bdb575b1562001bd757828452806020526009604085200154421062001a6457811562001bc557828452806020526040842091600c830154908181115f1462001b5e57505060ff600d83015416600381101562001b4a57916020915f8051602062005f1f8339815191529315915b600d81016200189a848262003e88565b634e487b7160e01b85526021600452602485fd5b101562001b955760ff600d83015416600381101562001b4a579160209160015f8051602062005f1f83398151915294149162001b3a565b60ff600d83015416600381101562001b4a579160209160025f8051602062005f1f83398151915294149162001b3a565b604051634dfba02360e01b8152600490fd5b8380fd5b508284528060205260ff600d60408620015460101c161562001ad0565b508280528260205260408320335f5260205260ff60405f2054161562001aa2565b5034620003af5762001c2b3662003ae1565b62001c35620045df565b670de0b6b3a7640000811015620014f65760407fa097cb7860bb806f7f7a3cd95fccc8af39e383f295fd9d920b94b4325f72495591838552600660205260128286200190808254925582519182526020820152a280f35b5034620003af5760407fe94cc56d7533ee1a5ec7280e5db78488d5f8fea136f8996be57c4088ccfcc0b262001cc13662003ae1565b62001cce939193620045df565b838552600660205260118286200190808254925582519182526020820152a280f35b5034620003af576020366003190112620003af5762001d0e62003bb7565b62001d18620045df565b6001600160a01b0390811690811562000b3e57600380546001600160a01b031981168417909155167f76adfe904c29e6ceb309dfc113379a0b12bcad7ddbc21693f55c0a233179f6e38380a380f35b5034620003af576020366003190112620003af5762001d8562004676565b62001d9260043562004284565b6001805580f35b5034620003af576020366003190112620003af5764e8d4a5100062001dc060043562003ebb565b0490620f42409182039182116200063b57602082604051908152f35b5034620003af576020366003190112620003af57600435815260066020526040812060018060a01b038154169160018060a01b0360018301541692600283015492600381015491600482015490600583015490600684015490600785016040519788918181549162001e4e8362003cbd565b808652926001811690811562001fa7575060011462001f69575b5050500362001e78908862003bff565b60088501546001600160a01b03169662001e956009870162003d05565b91600e87015493600f8801549560108901549760118a015499601201549a6040519e8f9e8f91610320978352602083015260408201526060015260808d015260a08c015261ffff811660c08c01528060101c61ffff1660e08c01528060201c61ffff166101008c01528060301c60ff1662001f109062003b13565b60301c60ff166101208b0152806101408b0152890162001f309162003d88565b96610160890152610180880162001f479162003b32565b6102808701526102a08601526102c08501526102e08401526103008301520390f35b9080935052602082205b81831062001f8b57505081016020015f808062001e68565b8060209294838560019454920101520191019091899262001f73565b925050506020925060ff191682840152151560051b8201015f808062001e68565b5034620003af5780600319360112620003af5760206040515f8051602062005f3f8339815191528152f35b5034620003af5780600319360112620003af57602060405164e8d4a510008152f35b5034620003af576020366003190112620003af57600435815260066020526040812080546001600160a01b0316156200098757600360028201549101548082115f146200208a5750905b620f4240918281029281840414901517156200063b57602082670de0b6b3a764000060405191048152f35b9050906200205f565b62003c9e565b5034620003af57620020ab3662003ae1565b620020b5620045df565b818352600660205260408320811562001bd7578160056020926200211d7f87c1020d7fa6ffbfc6d522193e133c78b2ca4d3cfd5bb6f70cdd41b1abea59d29530337f0000000000000000000000000000000000000000000000000000000000000000620047eb565b016200212b82825462003dc8565b9055604051908152a280f35b5034620003af5780600319360112620003af57602090604051908152f35b5034620003af576040366003190112620003af57602062000aae6200217962003ba0565b6004356200421e565b5034620003af576020366003190112620003af5760406020916004358152600983522054604051908152f35b5034620003af57620021c03662003ae1565b620021ca62004676565b620021d46200469a565b818352602060068152604084209160ff600684015460301c16620021f88162003b13565b62000850576298968081106200236157620022368130337f0000000000000000000000000000000000000000000000000000000000000000620047eb565b600583016200224782825462003dc8565b905583855260098252670de0b6b3a76400006200226960408720548362003e3b565b04848652600a835260408620335f5283526200228b60405f2091825462003dc8565b90558385526008825260408520335f52825260405f20620022ae82825462003dc8565b9055600e830192620022c282855462003dc8565b809455620022d36004548562003e3b565b64e8d4a51000908181029181830414901517156200234d57926004925f8051602062005f9f833981519152959267099e8db03256ce5d6040960494859101558451908152867fc733c2813826d31c105dbff518b08258e9e7aeb3eb1c7c7f642d77696faf501d833393a38351928352820152a26001805580f35b634e487b7160e01b87526011600452602487fd5b60405163bb55fd2760e01b8152600490fd5b5034620003af576020366003190112620003af576200239162004676565b62001d926004356200415d565b5034620003af576040366003190112620003af576040620023be62003ba0565b91600435815280602052209060018060a01b03165f52602052602060ff60405f2054166040519015158152f35b5034620003af576040366003190112620003af57602062000aae6200240f62003ba0565b600435620040f7565b5034620003af576020366003190112620003af5762002436620045df565b6200244360043562003ef8565b80f35b5034620003af576020366003190112620003af576004358082526006602052604090912080549091906001600160a01b031615620009875781600260a09301549160038201549164e8d4a51000620024a8600460058401549301549362003ebb565b04926040519485526020850152604084015260608301526080820152f35b5034620003af576020366003190112620003af57600435620024e7620045df565b8015801562002530575b62001a765760407f9d4563746e5741552c9d324b2d220934e243249d63e8688784a3ea1ce66b78ce91600554908060055582519182526020820152a180f35b50670de0b6b3a7640000811015620024f1565b5034620003af576020366003190112620003af5760043562002564620045df565b801562001a765769d3c21bcecceda100000081101562001a765760407f2cd5b52cf2c64c8e9b7db86c0b04159e1dae76124e6ab74ed5991e72335e7be691600454908060045582519182526020820152a180f35b5034620003af5780600319360112620003af57620025d5620045df565b620025df6200469a565b600160ff1960025416176002557f62e78cea01bee320cd4e420270b5ea74000d11b0c9f74754ebdbfc544b05a2586020604051338152a180f35b5034620003af5780600319360112620003af576003546040516001600160a01b039091168152602090f35b5034620003af576040366003190112620003af5760406200266462003ba0565b9160043581526008602052209060018060a01b03165f52602052602060405f2054604051908152f35b5034620003af576020366003190112620003af57602062000aae60043562003ebb565b5034620003af576040366003190112620003af576040620026d062003ba0565b916004358152600c602052209060018060a01b03165f52602052602060405f2054604051908152f35b5034620003af5780600319360112620003af5760025460405160089190911c6001600160a01b03168152602090f35b5034620003af5780600319360112620003af57602060ff600254166040519015158152f35b5034620003af576200275f3662003c7d565b62002769620045df565b81835260068060205260ff8160408620015460301c166200278a8162003b13565b1580620027db575b1562001bd757828452806020526009604085200154421062001a64575f8051602062005f1f8339815191529160209184865280835260408620600d81016200189a848262003e88565b508284528060205260ff600d60408620015460101c161562002792565b5034620003af576020366003190112620003af57807f00000000000000000000000000000000000000000000000000000000000000006001600160a01b0316803b156200288a578160405180926340c10f1960e01b825281838162002864600435336004840162003ea0565b03925af18015620014eb57620028775750f35b620028829062003beb565b620003af5780f35b50fd5b50346200066e576101603660031901126200066e576004356001600160401b0381116200066e57620028c490369060040162003c23565b6024356001600160401b0381116200066e57620028e690369060040162003c23565b6044356001600160401b0381116200066e576200290890369060040162003c23565b916064356001600160401b0381116200066e576200292b90369060040162003c23565b916084356001600160401b0381116200066e576200294e90369060040162003c23565b9260e435916001600160a01b03831683036200066e5760036101443510156200066e57335f9081527f2412b2af58bf3b93d578a423d333d33fb94fb5093f9cda1aed2eaafb3215f929602052604090205460ff1615620032a0576298968060a435106200328e574260c43511156200327d57600754955f1987146200069657600187016007556040519161116d83016001600160401b0381118482101762000a3857839262002a089261116d62004db28639309262003de4565b03905ff093841562000663576040519161116d83016001600160401b0381118482101762000a3857839262002a489261116d62004db28639309262003de4565b03905ff0908115620006635760405163d539139360e01b81526020816004816001600160a01b0389165afa90811562000663575f9162003245575b506001600160a01b0385163b156200066e575f62002ab89160405180938192632f2ff15d60e01b835230906004840162003e22565b0381836001600160a01b038a165af1801562000663576200322f575b5060405163282c51f360e01b815286906020816004816001600160a01b038a165afa908115620014eb578291620031f4575b506001600160a01b0386163b1562001a76578162002b3b9160405180938192632f2ff15d60e01b835230906004840162003e22565b0381836001600160a01b038b165af18015620014eb57620031dc575b5060405163d539139360e01b81526020816004816001600160a01b0388165afa908115620014eb578291620031a1575b506001600160a01b0384163b1562001a76578162002bbc9160405180938192632f2ff15d60e01b835230906004840162003e22565b0381836001600160a01b0389165af18015620014eb5762003189575b5060405163282c51f360e01b81526020816004816001600160a01b0388165afa908115620014eb5782916200314e575b506001600160a01b0384163b1562001a76578162002c3d9160405180938192632f2ff15d60e01b835230906004840162003e22565b0381836001600160a01b0389165af18015620014eb5762003136575b50506001858101875260066020526040872080546001600160a01b03199081166001600160a01b038881169190911783559282018054821693861693909317909255600881018054909216331790915583519091906001600160401b038111620031225762002ccc600784015462003cbd565b601f8111620030d9575b50806020601f82116001146200306d57899162003061575b508160011b915f199060031b1c19161760078301555b6006820164640000006466ffffffffffffff198254161780915561ffff808260101c169160201c169060c88111801562003056575b6200066e5760640180606411620006965761012c9162002d599162003dc8565b116200066e5762002d8f60a43530337f0000000000000000000000000000000000000000000000000000000000000000620047eb565b60a435600583015562002da760045460a43562003e3b565b64e8d4a5100090818102918183041490151715620030425767099e8db03256ce5d900480600484015560405190815260a43560208201525f8051602062005f9f83398151915260406001890192a26001600160a01b038116620030395786905b62002e128262003b13565b60018203620030315761010435905b6040519162002e308362003bce565b60c4358352602083019362002e458162003b13565b8452604083019160018060a01b0316825260608301908152608083019061012435825260a084019462002e7c610144358762003cf8565b60c08501938c855260e08601958d8752516009890155600a880191519062002ea48262003b13565b62002eaf8262003b13565b60ff835491610100600160a81b03905160081b1692169060018060a81b0319161717905551600b86015551600c850155600d8401925160038110156200301d579362002ff8959360209a9362002f3a6012947f8a671e50058538a6b89d0f6600aa6e9ddc0a3e80e63c1689a1514f5f3113d9269a9860ff801986541691161784555115158362003e88565b51151562ff000082549160101b169062ff0000191617905560018901835260088a5260408320335f528a5260a43560405f205560018901835260098a52670de0b6b3a764000062002f92604085205460a43562003e3b565b0460018a018452600a8b5260408420335f528b5260405f205560a435600e82015582600f8201558260108201556402540be400601182015501556040519460018060a01b0316855260018060a01b03168685015260a0604085015260a084019062003d88565b9160a435606082015260c43560808201528060018501930390a2600160405191018152f35b634e487b7160e01b8a52602160045260248afd5b879062002e21565b60019062002e07565b634e487b7160e01b88526011600452602488fd5b5060c8821162002d39565b90508501515f62002cee565b600785018a5260208a209150601f1983168a5b818110620030c057509083600194939210620030a7575b5050811b01600783015562002d04565b8701515f1960f88460031b161c191690555f8062003097565b9192602060018192868c01518155019401920162003080565b60078401895260208920601f830160051c8101602084106200311a575b601f830160051c820181106200310e57505062002cd6565b8a8155600101620030f6565b5080620030f6565b634e487b7160e01b88526041600452602488fd5b620031419062003beb565b620014e757855f62002c59565b9150506020813d60201162003180575b816200316d6020938362003bff565b810103126200066e578690515f62002c08565b3d91506200315e565b620031949062003beb565b620014e757855f62002bd8565b9150506020813d602011620031d3575b81620031c06020938362003bff565b810103126200066e578690515f62002b87565b3d9150620031b1565b620031e79062003beb565b620014e757855f62002b57565b9150506020813d60201162003226575b81620032136020938362003bff565b810103126200066e578690515f62002b06565b3d915062003204565b6200323c91965062003beb565b5f945f62002ad4565b90506020813d60201162003274575b81620032636020938362003bff565b810103126200066e57515f62002a83565b3d915062003254565b60405162d36c8560e81b8152600490fd5b6040516301e53f4b60e11b8152600490fd5b60405163e2517d3f60e01b81523360048201525f8051602062005f3f8339815191526024820152604490fd5b346200066e5760203660031901126200066e576004355f52600d602052602060405f2054604051908152f35b346200066e575f3660031901126200066e576020604051610e108152f35b346200066e575f3660031901126200066e576020604051670de0b6b3a76400008152f35b346200066e5760603660031901126200066e576004356200335a62003ba0565b906044359162003369620045df565b6001600160a01b03811692831562000b3e5780156200066e57825f52600660205260405f20600d602052600f60405f2054910192835493620033ac838662003dc8565b84116200066e57848411620034a65783925b5f9480851062003480575b505091620009006020949262003441947f5d18249fc7046e6dc0e5af98787e85bf19720c827aedbf0a53e75dfc8bff4a2b9784806200346a575b505050836200344a575b62003419848462003dc8565b907f0000000000000000000000000000000000000000000000000000000000000000620047a9565b604051908152a3005b875f52600d865260405f206200346285825462003dd6565b90556200340d565b620034759162003dd6565b905589808462003403565b62003492919395509380929462003dd6565b9182116200066e57918780949294620033c9565b8492620033be565b346200066e575f3660031901126200066e57602060405164174876e8008152f35b346200066e575f3660031901126200066e57620034eb620045df565b60025460ff8116156200352b5760ff19166002557f5db9ee0a495bf2e6ff9c91a7834c1ba4fdd244a5e8aa4e537bd38aeae4b073aa6020604051338152a1005b604051638dfc202b60e01b8152600490fd5b346200066e575f3660031901126200066e576040517f00000000000000000000000000000000000000000000000000000000000000006001600160a01b03168152602090f35b346200066e575f3660031901126200066e576020604051620f42408152f35b346200066e5760403660031901126200066e57620035bf62003ba0565b336001600160a01b03821603620035e057620035de9060043562004736565b005b60405163334bd91960e11b8152600490fd5b346200066e575f3660031901126200066e57602060405161012c8152f35b346200066e5760403660031901126200066e57620035de6004356200363462003ba0565b90805f525f6020526200364e600160405f20015462004636565b620046b9565b346200066e575f3660031901126200066e576020600554604051908152f35b346200066e5760403660031901126200066e576004357fb121f436d88cf589eb7e86342453d5c7b9d641be12fe9062b8798906287f76526040602435620036b9620045df565b835f526006602052600b825f200190808254925582519182526020820152a2005b346200066e5760203660031901126200066e576004355f525f6020526020600160405f200154604051908152f35b346200066e5760203660031901126200066e575f60e06040516200372c8162003bce565b8281528260208201528260408201528260608201528260808201528260a08201528260c082015201526004355f52600660205261010062003773600960405f200162003d05565b62003782604051809262003b32565bf35b346200066e57620037953662003af8565b620037a292919262004676565b620037ac6200469a565b815f52600660205260405f209260ff600685015460301c16620037cf8162003b13565b62000850576064811062000755575f93600381018054938484116200125d578260026200382c940190815496600482019384549088620038338b62001034856200381b818985620049ff565b9264e8d4a510009d8e968a62003dd6565b90620049ff565b04996005850193845493848d116200124b57620038518c8362003dd6565b918284111562003a0257835b620f4240908181029181830414901517156200069657670de0b6b3a764000090046200388a8f8862003dd6565b10620006845760118801548610620039a2575b505050508910620006725788620038b49162003dd6565b9055600101546001600160a01b0316803b156200066e575f6040518092632770a7eb60e21b8252818381620038ee8c336004840162003ea0565b03925af1801562000663576200398c575b506200390d85845462003dd6565b83556200393c86337f0000000000000000000000000000000000000000000000000000000000000000620047a9565b83860286810485148715171562000e07579285949262000dd592620039765f8051602062005f7f8339815191529998620039839762003e7d565b5054915490549162004846565b0390a360018055005b6200399991985062003beb565b5f9688620038ff565b620011ee82620039b3948662004846565b81811115620039f057620039c8828262003dd6565b60128701548015620039e45780915b116200070d57806200389d565b506005548091620039d7565b620039fc818362003dd6565b620039c8565b826200385d565b346200066e5760407f43d0ad12201d70a32f7759883d1e3d86f713cb93f57f44dbe3a3ecbbe3aba47662003a3d3662003ae1565b62003a4a939193620045df565b835f5260066020526010825f200190808254925582519182526020820152a2005b346200066e5760203660031901126200066e5760043563ffffffff60e01b81168091036200066e57602090637965db0b60e01b811490811562003ab4575b506040519015158152f35b6301ffc9a760e01b1490508262003aa9565b346200066e575f3660031901126200066e578060c860209252f35b60409060031901126200066e576004359060243590565b60609060031901126200066e57600435906024359060443590565b6002111562003b1e57565b634e487b7160e01b5f52602160045260245ffd5b80518252602081015162003b468162003b13565b60208301526040818101516001600160a01b031690830152606080820151908301526080808201519083015260a0810151600381101562003b1e5760e091829160a085015260c0810151151560c085015201511515910152565b602435906001600160a01b03821682036200066e57565b600435906001600160a01b03821682036200066e57565b61010081019081106001600160401b0382111762000a3857604052565b6001600160401b03811162000a3857604052565b601f909101601f19168101906001600160401b0382119082101762000a3857604052565b81601f820112156200066e578035906001600160401b03821162000a38576040519262003c5b601f8401601f19166020018562003bff565b828452602083830101116200066e57815f926020809301838601378301015290565b60409060031901126200066e576004359060243580151581036200066e5790565b346200066e575f3660031901126200066e576020604051629896808152f35b90600182811c9216801562003ced575b602083101462003cd957565b634e487b7160e01b5f52602260045260245ffd5b91607f169162003ccd565b600382101562003b1e5752565b9060405162003d148162003bce565b60e060ff6004839580548552600181015483811662003d338162003b13565b602087015260081c6001600160a01b031660408601526002810154606086015260038101546080860152015462003d7082821660a0860162003cf8565b818160081c16151560c085015260101c161515910152565b91908251928382525f5b84811062003db3575050825f602080949584010152601f8019910116010190565b60208183018101518483018201520162003d92565b919082018092116200069657565b919082039182116200069657565b9162003e129062003e0360409396959660608652606086019062003d88565b90848203602086015262003d88565b6001600160a01b03909416910152565b9081526001600160a01b03909116602082015260400190565b818102929181159184041417156200069657565b801562003e69576a0c097ce7bc90715b34b9f160241b0490565b634e487b7160e01b5f52601260045260245ffd5b811562003e69570490565b9061ff00825491151560081b169061ff001916179055565b6001600160a01b039091168152602081019190915260400190565b5f90815260066020526040902080546001600160a01b031615620009875780600262003ef592015490600460038201549101549162004846565b90565b805f52602060068152604090815f2090600160ff600684015460301c1662003f208162003b13565b14801590620040e4575b620040d357906004929160ff600d83015460081c165f14620040bd57815481906001600160a01b03165b84516318160ddd60e01b815295869182906001600160a01b03165afa938415620040b3575f946200407e575b50620f4240938481029481860414901517156200069657670de0b6b3a764000080940460058301908154818111156200405957600e9162003fc19162003dd6565b9301908154958615620040485780850290858204148515171562000696575f8051602062005fbf8339815191529662003ffa9162003e7d565b875f52600b845262004011865f2091825462003dc8565b9055865f52600d8352845f206200402a85825462003dc8565b90556200403984825462003dd6565b905554908351928352820152a2565b8551636180f03f60e11b8152600490fd5b505050905f8051602062005fbf8339815191529350600e01548251915f8352820152a2565b9080945081813d8311620040ab575b62004099818362003bff565b810103126200066e5751925f62003f80565b503d6200408d565b83513d5f823e3d90fd5b600182015481906001600160a01b031662003f54565b8251635a90bb8d60e11b8152600490fd5b5060ff600d83015460101c161562003f2a565b62003ef591815f52600860205260405f209060018060a01b031690815f52602052670de0b6b3a76400006200413e60405f2054845f52600960205260405f20549062003e3b565b04915f52600a60205260405f20905f5260205260405f20549062003dd6565b805f52600660205260405f2090620041763382620040f7565b9182156200421957600f01805483116200125d57815f52600a60205260405f20335f5260205260405f20620041ad84825462003dc8565b9055620041bc83825462003dd6565b9055620041eb82337f0000000000000000000000000000000000000000000000000000000000000000620047a9565b6040519182527f564d03ca8b35e10bc8a440f1b3f546629000b00f689200a14ca91a979d2f8d7560203393a3565b505050565b62003ef591815f52600860205260405f209060018060a01b031690815f52602052670de0b6b3a76400006200426560405f2054845f52600b60205260405f20549062003e3b565b04915f52600c60205260405f20905f5260205260405f20549062003dd6565b6200429033826200421e565b9081156200435357805f52600d6020526040805f2054808411620043425783620042dd91845f52600c602052835f20335f52602052835f20620042d583825462003dc8565b905562003dd6565b825f52600d602052815f20556200431683337f0000000000000000000000000000000000000000000000000000000000000000620047a9565b519182527ff5cc3364915e9aae081452b106ef94234ee9c414117208fe7e34211c4e8941c260203393a3565b8151631e9acf1760e31b8152600490fd5b5050565b51906001600160501b03821682036200066e57565b60ff16604d81116200069657600a0a90565b5f52600660205260405f209060018060a01b0382541615620009875760058201549060119160118401541115620045c55760128301548015620045ba57915b6002840154926003850154926004946004870154620043de81878462004846565b9260068901549661ffff9687891697808a60101c169960201c169960105f9c01548015155f14620045a2579a999a989796959493929190985b985f9b5b60288d1062004434575050505050505050505050505090565b909192939495969798999a8a8e829e9f620044758f6200445d62000479916200449a9462003dc8565b9562000479600197881c966127109485918962003e3b565b04936200449181620044888c8b62003e3b565b04938962003e3b565b04938762003dd6565b8015620045745788156200459b578a5b8915620045935788905b64e8d4a51000808402938404036200458157918b91620044d49362004920565b80156200457457620045098a8e928d818d5f146200456c57620044f79162003dc8565b905b8c156200455957508a9062004846565b8c818111156200454857906200451f9162003dd6565b116200453e57509d5b019a5b999897969594939291909b9a9b6200441b565b9e9c509b62004528565b620045539162003dd6565b6200451f565b62004565908c62003dc8565b9062004846565b5090620044f9565b509e9c509b019a6200452b565b8888634e487b7160e01b5f525260245ffd5b8b90620044b4565b87620044aa565b50989998979695949392919064174876e80062004417565b5060055491620043bd565b5050601001548015620045d55790565b5064174876e80090565b335f9081527fad3228b676f7d3cd4284a5443f17f1962b36e491b30a40b2405849e597ba5fb5602052604090205460ff16156200461857565b60405163e2517d3f60e01b81523360048201525f6024820152604490fd5b805f525f60205260405f20335f5260205260ff60405f20541615620046585750565b6044906040519063e2517d3f60e01b82523360048301526024820152fd5b60026001541462004688576002600155565b604051633ee5aeb560e01b8152600490fd5b60ff60025416620046a757565b60405163d93c066560e01b8152600490fd5b90815f525f60205260405f209060018060a01b031690815f5260205260ff60405f205416155f146200473057815f525f60205260405f20815f5260205260405f20600160ff1982541617905533917f2f8788117e7eff1d82e926ec794901d17c78024a50270940304540a733656f0d5f80a4600190565b50505f90565b90815f525f60205260405f209060018060a01b031690815f5260205260ff60405f2054165f146200473057815f525f60205260405f20815f5260205260405f2060ff19815416905533917ff6391f5c32d9c69d2a47ea670b442974b53935d1edc7fd64eb21e047a839171b5f80a4600190565b620047e3620047e99392620047d460405194859263a9059cbb60e01b60208501526024840162003ea0565b03601f19810184528362003bff565b62004cad565b565b6040516323b872dd60e01b60208201526001600160a01b03928316602482015292909116604483015260648083019390935291815260a08101918183106001600160401b0384111762000a3857620047e99260405262004cad565b919081156200066e5780831462004911578083119283156200490057906200486e9162003dd6565b6714057b7ef767814f6200488f670de0b6b3a7640000938480940262003e7d565b0204680a688906bd8b0000008111620048f057620048ad9062004d0b565b9115620048d35781810190818111620006965781156200066e5762003ef5920262003e7d565b908101809111620006965780156200066e5762003ef59062003e4f565b509015620048fb5790565b505f90565b6200490b9162003dd6565b6200486e565b5050506706f05b59d3b2000090565b9190939262004931818685620049ff565b925f92825b816200494e8762000479878c6200102e878a62003dc8565b1015620049f55760011b620f424080850290858204148515171562000696578082116200497c575062004936565b9050949291905b5f935b60288510620049a7575050505050620049a192935062003dc8565b60011c90565b909192939488620049b9888362003dc8565b9184620049d785620004798a600197881c966200102e888d62003dc8565b11620049eb5750955b019392919062004986565b96975096620049e0565b9492919062004983565b82156200066e5762004a44908281111562004ca65780925b8082101562004c9e57505b6714057b7ef767814f62004a4b85670de0b6b3a7640000809581958862003dd6565b0262003e7d565b0204680a688906bd8b000000811162004c975762004a699062004d0b565b80156200066e5762004a7b9062003e4f565b810192838211620006965783156200066e575f93806503782dace9d960921b81101562004c7f575b506503782dace9d960521b81101562004c60575b6503782dace9d960321b81101562004c41575b6503782dace9d960221b81101562004c23575b680de0b6b3a76400000081101562004c05575b67de0b6b3a7640000081101562004be7575b673782dace9d90000081101562004bc9575b671bc16d674ec8000081101562004bb3575b670de0b6b3a763ffff198101908082116200069657838101809111620006965780156200066e578362004b5a920262003e7d565b828180020460038480830204048401808511620006965762003ef5968567280af6fdeecf02a081809662004ba862004ba89660058480808c67099e8db03256ce5d9d02040204049062003dc8565b020402049062003dc8565b9382810180911162000696579360011c62004b26565b60021c93671bc16d674ec80000810180911162000696579362004b14565b60041c93673782dace9d900000810180911162000696579362004b02565b60081c93676f05b59d3b200000810180911162000696579362004af0565b60101c9367de0b6b3a76400000810180911162000696579362004add565b60201c936801bc16d674ec800000810180911162000696579362004aca565b60401c936803782dace9d9000000810180911162000696579362004ab7565b6806f05b59d3b2000000955060801c90505f62004aa3565b5050905090565b905062004a22565b8262004a17565b905f602091828151910182855af11562000663575f513d62004d0157506001600160a01b0381163b155b62004cdf5750565b604051635274afe760e01b81526001600160a01b039091166004820152602490fd5b6001141562004cd7565b680a688906bd8b00000081116200066e57670de0b6b3a764000080820491818067099e8db03256ce5d81809406020460019182916001935b62004d67575b50505050506101008210156200066e57600162003ef5921b62003e3b565b909192939460ff80861696600c881162004da85762004d9a62004d9287989987878a95020462003e7d565b809462003dc8565b970116939291909462004d43565b50509462004d4956fe60806040523462000344576200116d803803806200001d8162000348565b9283398101606082820312620003445781516001600160401b0391908281116200034457816200004f9185016200036e565b916020918285015182811162000344576040916200006f9187016200036e565b940151926001600160a01b038416840362000344578051908282116200024f576003918254906001928383811c9316801562000339575b8784101462000325578190601f93848111620002d2575b5087908483116001146200026f575f9262000263575b50505f1982861b1c191690831b1783555b86519384116200024f5760049485548381811c9116801562000244575b828210146200023157828111620001e9575b50809185116001146200017d5750839291839162000160985f9562000171575b50501b925f19911b1c19161790555b6200014d81620003de565b5062000159816200044e565b50620004ef565b50604051610ba290816200058b8239f35b015193505f8062000133565b91939290601f19841697865f52835f20935f905b8a8210620001d157505084620001609910620001b7575b50505050811b01905562000142565b01519060f8845f19921b161c191690555f808080620001a8565b80888597829496860151815501960193019062000191565b865f52815f208380880160051c82019284891062000227575b0160051c019084905b8281106200021b57505062000113565b5f81550184906200020b565b9250819262000202565b602287634e487b7160e01b5f525260245ffd5b90607f169062000101565b634e487b7160e01b5f52604160045260245ffd5b015190505f80620000d3565b90859350601f19831691875f52895f20925f5b8b828210620002bb5750508411620002a3575b505050811b018355620000e4565b01515f1983881b60f8161c191690555f808062000295565b838501518655899790950194938401930162000282565b909150855f52875f208480850160051c8201928a86106200031b575b918791869594930160051c01915b8281106200030c575050620000bd565b5f8155859450879101620002fc565b92508192620002ee565b634e487b7160e01b5f52602260045260245ffd5b92607f1692620000a6565b5f80fd5b6040519190601f01601f191682016001600160401b038111838210176200024f57604052565b919080601f84011215620003445782516001600160401b0381116200024f57602090620003a4601f8201601f1916830162000348565b9281845282828701011162000344575f5b818110620003ca5750825f9394955001015290565b8581018301518482018401528201620003b5565b6001600160a01b03165f8181525f805160206200114d833981519152602052604090205460ff1662000449575f8181525f805160206200114d83398151915260205260408120805460ff191660011790553391905f805160206200112d8339815191528180a4600190565b505f90565b6001600160a01b03165f8181527f15a28d26fa1bf736cf7edc9922607171ccb09c3c73b808e7772a3013e068a52260205260409020547f9f2df0fed2c77648de5860a4cc508cd0818c85b8b8a1ab4ceeef8d981c8956a6919060ff16620004e957815f52600560205260405f20815f5260205260405f20600160ff1982541617905533915f805160206200112d8339815191525f80a4600190565b50505f90565b6001600160a01b03165f8181527f847f481f687befb06ed3511f1a8dcef57e83007c0147ae5047583d705617093760205260409020547f3c11d16cbaffd01df69ce1c404f6340ee057498f5f00246190ea54220576a848919060ff16620004e957815f52600560205260405f20815f5260205260405f20600160ff1982541617905533915f805160206200112d8339815191525f80a460019056fe6080604090808252600480361015610015575f80fd5b5f3560e01c91826301ffc9a71461087a5750816306fdde03146107bd578163095ea7b31461071557816318160ddd146106f757816323b872dd14610613578163248a9ca3146105e9578163282c51f3146105c25781632f2ff15d1461059a578163313ce5671461057f57816336568abe1461053b57816340c10f191461045f57816370a082311461042957816391d14854146103e557816395d89b41146102e35781639dc29fac146101f5578163a217fddf146101db578163a9059cbb146101ab578163d539139314610184578163d547741f14610148575063dd62ed3e146100fc575f80fd5b34610144578060031936011261014457602090610117610913565b61011f610929565b9060018060a01b038091165f5260018452825f2091165f528252805f20549051908152f35b5f80fd5b8234610144578060031936011261014457610182913561017d600161016b610929565b93835f5260056020525f200154610a0f565b610acd565b005b8234610144575f36600319011261014457602090515f80516020610b628339815191528152f35b82346101445780600319360112610144576020906101d46101ca610913565b602435903361095d565b5160018152f35b8234610144575f36600319011261014457602090515f8152f35b823461014457806003193601126101445761020e610913565b90602435925f80516020610b42833981519152805f526005602052825f20335f5260205260ff835f205416156102c857506001600160a01b0383169283156102b257835f525f602052825f205491858310610293575f855f80516020610b828339815191526020898881898688528785520381872055816002540360025551908152a3005b6102ae8684865194859463391434e360e21b8652850161093f565b0390fd5b505f6024925191634b637e8f60e11b8352820152fd5b604492519163e2517d3f60e01b835233908301526024820152fd5b8234610144575f366003190112610144578051905f835460018160011c90600183169283156103db575b60209384841081146103c8578388529081156103ac5750600114610374575b505050829003601f01601f19168201926001600160401b03841183851017610361575082918261035d9252826108cc565b0390f35b604190634e487b7160e01b5f525260245ffd5b919250855f52825f2091835f935b838510610398575050505083010184808061032c565b805488860183015293019284908201610382565b60ff1916878501525050151560051b840101905084808061032c565b602289634e487b7160e01b5f525260245ffd5b91607f169161030d565b8234610144578060031936011261014457602091610401610929565b90355f5260058352815f209060018060a01b03165f52825260ff815f20541690519015158152f35b8234610144576020366003190112610144576020906001600160a01b0361044e610913565b165f525f8252805f20549051908152f35b8234610144578060031936011261014457610478610913565b90602435915f80516020610b62833981519152805f526005602052825f20335f5260205260ff835f2054161561051d57506001600160a01b031692831561050857600254908382018092116104f557505f925f80516020610b828339815191529260209260025585855284835280852082815401905551908152a3005b601190634e487b7160e01b5f525260245ffd5b5f602492519163ec442f0560e01b8352820152fd5b825163e2517d3f60e01b815233818701526024810191909152604490fd5b8234610144578060031936011261014457610554610929565b90336001600160a01b0383160361057057506101829135610acd565b5163334bd91960e11b81529050fd5b8234610144575f366003190112610144576020905160128152f35b823461014457806003193601126101445761018291356105bd600161016b610929565b610a4f565b8234610144575f36600319011261014457602090515f80516020610b428339815191528152f35b823461014457602036600319011261014457602091355f52600582526001815f2001549051908152f35b9050346101445760603660031901126101445761062e610913565b610636610929565b906044359260018060a01b038216805f526001602052855f20335f52602052855f2054915f198310610671575b6020876101d488888861095d565b8583106106d95781156106c35733156106ad57505f908152600160209081528682203383528152908690209185900390915582906101d4610663565b6024905f885191634a1406b160e11b8352820152fd5b6024905f88519163e602df0560e01b8352820152fd5b90506102ae858751938493637dc7a0d960e11b85523390850161093f565b8234610144575f366003190112610144576020906002549051908152f35b823461014457806003193601126101445761072e610913565b6024359033156107a7576001600160a01b03169081156107915760209350335f5260018452825f20825f52845280835f205582519081527f8c5be1e5ebec7d5bd14f71427d1e84f3dd0314c0f7b2291e5b200ac8c7c3b925843392a35160018152f35b8251634a1406b160e11b81525f81860152602490fd5b825163e602df0560e01b81525f81860152602490fd5b8234610144575f366003190112610144578051905f60035460018160011c9060018316928315610870575b60209384841081146103c8578388529081156103ac575060011461083757505050829003601f01601f19168201926001600160401b03841183851017610361575082918261035d9252826108cc565b91925060035f52825f2091835f935b83851061085c575050505083010184808061032c565b805488860183015293019284908201610846565b91607f16916107e8565b903461014457602036600319011261014457359063ffffffff60e01b821680920361014457602091637965db0b60e01b81149081156108bb575b5015158152f35b6301ffc9a760e01b149050836108b4565b602080825282518183018190529093925f5b8281106108ff57505060409293505f838284010152601f8019910116010190565b8181018601518482016040015285016108de565b600435906001600160a01b038216820361014457565b602435906001600160a01b038216820361014457565b604091949392606082019560018060a01b0316825260208201520152565b916001600160a01b038084169283156109f757169283156109df57825f525f60205260405f2054908282106109c25750815f80516020610b8283398151915292602092855f525f84520360405f2055845f5260405f20818154019055604051908152a3565b6102ae8360405193849363391434e360e21b85526004850161093f565b60405163ec442f0560e01b81525f6004820152602490fd5b604051634b637e8f60e11b81525f6004820152602490fd5b805f52600560205260405f20335f5260205260ff60405f20541615610a315750565b6044906040519063e2517d3f60e01b82523360048301526024820152fd5b90815f52600560205260405f209060018060a01b031690815f5260205260ff60405f205416155f14610ac757815f52600560205260405f20815f5260205260405f20600160ff1982541617905533917f2f8788117e7eff1d82e926ec794901d17c78024a50270940304540a733656f0d5f80a4600190565b50505f90565b90815f52600560205260405f209060018060a01b031690815f5260205260ff60405f2054165f14610ac757815f52600560205260405f20815f5260205260405f2060ff19815416905533917ff6391f5c32d9c69d2a47ea670b442974b53935d1edc7fd64eb21e047a839171b5f80a460019056fe3c11d16cbaffd01df69ce1c404f6340ee057498f5f00246190ea54220576a8489f2df0fed2c77648de5860a4cc508cd0818c85b8b8a1ab4ceeef8d981c8956a6ddf252ad1be2c89b69c2b068fc378daa952ba7f163c4a11628f55a4df523b3ef2f8788117e7eff1d82e926ec794901d17c78024a50270940304540a733656f0d05b8ccbb9d4d8fb16ea74ce3c29a41f1b461fbdaff4714a0d9a8eb05499746bc4927fe38919783250023d27e65a3e56b6b5c3e49364e51674a41ef08d62460d9d3065a24ad9e7725d223007135762d2902038999e3e5829146654498a58d9795a625c3e5e55ecfc87bc129708d56174a230213ded2a553ef566988855bdb1a051d161b920c72af3bceacd767e1ddf575296be054b91f3f47954d4fa62e0ea792e6c3adfed6b1c080b7b573ad7d2faf01796b53d5748d6df80f7231774cbca3022297d9f079884cc9504d1f17036aa3396dc71f1110c4b8584d52bb4948fa200d2f8788117e7eff1d82e926ec794901d17c78024a50270940304540a733656f0dad3228b676f7d3cd4284a5443f17f1962b36e491b30a40b2405849e597ba5fb5","linkReferences":{}},"methodIdentifiers":{"DEFAULT_ADMIN_ROLE()":"a217fddf","DUST_THRESHOLD()":"dd7dc9a9","MARKET_CREATOR_ROLE()":"ae42820c","MAX_FEE_BPS_PER()":"0199a877","MAX_FEE_BPS_TOTAL()":"328a0d2e","MAX_USDC_PER_TRADE()":"43abd9ea","MIN_LIQUIDITY_ADD()":"7b4e7470","MIN_MARKET_SEED()":"a6f57be3","ORACLE_STALENESS_THRESHOLD()":"4dbe8697","PRICE_DECIMALS_E18()":"4ce7ee34","PRICE_DECIMALS_E6()":"390c51f1","USDC_TO_E18()":"aa93f462","accFeePerUSDCE18(uint256)":"9da4f13d","accResidualPerUSDCE18(uint256)":"e72012a7","addLiquidity(uint256,uint256)":"9cd441da","buyNo(uint256,uint256,uint256)":"ea175894","buyYes(uint256,uint256,uint256)":"fb27260b","chainlinkResolver()":"7f8a3f8c","checkUpkeep(uint256)":"f7d334ba","claimLpFees(uint256)":"99406c9b","claimLpResidual(uint256)":"b7a8d60e","createMarket(string,string,string,string,string,uint256,uint256,address,bytes32,uint256,uint8)":"56c8d23d","faucet(uint256)":"57915897","finalizeResidual(uint256)":"8a97700e","getMarketResolution(uint256)":"232e45d7","getMarketState(uint256)":"88b1f1c3","getRoleAdmin(bytes32)":"248a9ca3","grantRole(bytes32,address)":"2f2ff15d","hasRole(bytes32,address)":"91d14854","invariantUsdc(uint256)":"cde0d59d","liabilityE6(uint256)":"a7918a65","liquidityMultiplierE18()":"d105e1c6","lpFeeDebt(uint256,address)":"ffe2a945","lpResidualDebt(uint256,address)":"6aa083b9","lpResidualUSDC(uint256)":"4f6ac037","lpShares(uint256,address)":"6bcbb8a5","marketCount()":"ec979082","markets(uint256)":"b1283e77","maxInstantJumpE18()":"2ed13b78","maxUsdcBeforeJump(uint256,bool)":"f6efac46","pause()":"8456cb59","paused()":"5c975abb","pendingLpFees(uint256,address)":"8e28d9e0","pendingLpResidual(uint256,address)":"9f29c18f","redeem(uint256,bool)":"d65a06b0","renounceRole(bytes32,address)":"36568abe","resolveMarket(uint256,bool)":"57bde446","resolveMarketWithPrice(uint256,uint256)":"cab7cde9","resolveWithFeed(uint256)":"cd233512","revokeRole(bytes32,address)":"d547741f","sellNo(uint256,uint256,uint256)":"16fe6929","sellYes(uint256,uint256,uint256)":"dffad4e2","setChainlinkResolver(address)":"bad260f5","setFeesBps(uint256,uint16,uint16,uint16)":"f95c9a75","setLiquidityMultiplier(uint256)":"866fdc43","setMarketMaxInstantJump(uint256,uint256)":"c1195128","setMaxInstantJump(uint256)":"878cb211","setMaxUsdcPerTrade(uint256,uint256)":"0e325fb5","setPriceBandThreshold(uint256,uint256)":"bd17dab4","setPriceFeedId(uint256,bytes32)":"26cace84","setTreasury(address)":"f0f44260","spotPriceNoE6(uint256)":"b4fb88b7","spotPriceYesE18(uint256)":"6ad6c254","spotPriceYesE6(uint256)":"dfe0662a","supportsInterface(bytes4)":"01ffc9a7","sweepDust(uint256,address,uint256)":"4cded88d","topUpVault(uint256,uint256)":"a6ef3bd1","treasury()":"61d027b3","unpause()":"3f4ba83a","usdc()":"3e413bee"},"id":36}